{
	"contracts/TaskMaster.sol": {
		"TaskMaster": {
			"abi": [
				{
					"inputs": [
						{
							"internalType": "address",
							"name": "_admin",
							"type": "address"
						}
					],
					"stateMutability": "nonpayable",
					"type": "constructor"
				},
				{
					"inputs": [
						{
							"internalType": "bytes",
							"name": "ProjectID",
							"type": "bytes"
						},
						{
							"internalType": "bytes",
							"name": "Taskname",
							"type": "bytes"
						},
						{
							"internalType": "int256",
							"name": "Priority",
							"type": "int256"
						},
						{
							"internalType": "bytes",
							"name": "Description",
							"type": "bytes"
						},
						{
							"internalType": "bytes",
							"name": "ResourceDetails",
							"type": "bytes"
						},
						{
							"internalType": "int256",
							"name": "Status",
							"type": "int256"
						},
						{
							"internalType": "bytes",
							"name": "Remarks",
							"type": "bytes"
						}
					],
					"name": "CreateTask",
					"outputs": [
						{
							"internalType": "bool",
							"name": "result",
							"type": "bool"
						},
						{
							"internalType": "string",
							"name": "Message",
							"type": "string"
						}
					],
					"stateMutability": "nonpayable",
					"type": "function"
				},
				{
					"inputs": [
						{
							"internalType": "string",
							"name": "TaskID",
							"type": "string"
						}
					],
					"name": "GetTask",
					"outputs": [
						{
							"internalType": "string",
							"name": "ProjectID",
							"type": "string"
						},
						{
							"internalType": "string",
							"name": "Taskname",
							"type": "string"
						},
						{
							"internalType": "int256",
							"name": "Priority",
							"type": "int256"
						},
						{
							"internalType": "string",
							"name": "Description",
							"type": "string"
						},
						{
							"internalType": "string",
							"name": "ResourceDetails",
							"type": "string"
						},
						{
							"internalType": "int256",
							"name": "Status",
							"type": "int256"
						},
						{
							"internalType": "string",
							"name": "Remarks",
							"type": "string"
						},
						{
							"internalType": "bool",
							"name": "result",
							"type": "bool"
						},
						{
							"internalType": "string",
							"name": "Message",
							"type": "string"
						}
					],
					"stateMutability": "view",
					"type": "function"
				},
				{
					"inputs": [
						{
							"internalType": "string",
							"name": "",
							"type": "string"
						}
					],
					"name": "TaskDetails",
					"outputs": [
						{
							"internalType": "bytes",
							"name": "ProjectID",
							"type": "bytes"
						},
						{
							"internalType": "bytes",
							"name": "Taskname",
							"type": "bytes"
						},
						{
							"internalType": "bytes",
							"name": "Description",
							"type": "bytes"
						},
						{
							"internalType": "int256",
							"name": "Priority",
							"type": "int256"
						},
						{
							"internalType": "bytes",
							"name": "ResourceDetails",
							"type": "bytes"
						},
						{
							"internalType": "int256",
							"name": "Status",
							"type": "int256"
						},
						{
							"internalType": "bytes",
							"name": "Remarks",
							"type": "bytes"
						}
					],
					"stateMutability": "view",
					"type": "function"
				},
				{
					"inputs": [
						{
							"internalType": "bytes",
							"name": "ProjectID",
							"type": "bytes"
						},
						{
							"internalType": "bytes",
							"name": "Taskname",
							"type": "bytes"
						},
						{
							"internalType": "int256",
							"name": "Priority",
							"type": "int256"
						},
						{
							"internalType": "bytes",
							"name": "Description",
							"type": "bytes"
						},
						{
							"internalType": "bytes",
							"name": "ResourceDetails",
							"type": "bytes"
						},
						{
							"internalType": "int256",
							"name": "Status",
							"type": "int256"
						},
						{
							"internalType": "bytes",
							"name": "Remarks",
							"type": "bytes"
						},
						{
							"internalType": "string",
							"name": "TaskID",
							"type": "string"
						}
					],
					"name": "UpdateTask",
					"outputs": [
						{
							"internalType": "bool",
							"name": "result",
							"type": "bool"
						},
						{
							"internalType": "string",
							"name": "Message",
							"type": "string"
						}
					],
					"stateMutability": "nonpayable",
					"type": "function"
				},
				{
					"inputs": [
						{
							"internalType": "address",
							"name": "_address",
							"type": "address"
						}
					],
					"name": "isTaskOwnerExists",
					"outputs": [
						{
							"internalType": "bool",
							"name": "",
							"type": "bool"
						}
					],
					"stateMutability": "view",
					"type": "function"
				}
			],
			"devdoc": {
				"kind": "dev",
				"methods": {},
				"version": 1
			},
			"evm": {
				"assembly": "    /* \"contracts/TaskMaster.sol\":65:4053  contract TaskMaster {... */\n  mstore(0x40, 0x80)\n    /* \"contracts/TaskMaster.sol\":409:410  0 */\n  0x00\n    /* \"contracts/TaskMaster.sol\":389:410  uint256 TaskCount = 0 */\n  0x02\n  sstore\n    /* \"contracts/TaskMaster.sol\":417:484  constructor(address _admin) {... */\n  callvalue\n  dup1\n  iszero\n  tag_1\n  jumpi\n  0x00\n  dup1\n  revert\ntag_1:\n  pop\n  mload(0x40)\n  sub(codesize, bytecodeSize)\n  dup1\n  bytecodeSize\n  dup4\n  codecopy\n  dup2\n  dup2\n  add\n  0x40\n  mstore\n  dup2\n  add\n  swap1\n  tag_2\n  swap2\n  swap1\n  tag_3\n  jump\t// in\ntag_2:\n    /* \"contracts/TaskMaster.sol\":471:477  _admin */\n  dup1\n    /* \"contracts/TaskMaster.sol\":455:465  TaskOwners */\n  0x00\n    /* \"contracts/TaskMaster.sol\":466:467  0 */\n  dup1\n    /* \"contracts/TaskMaster.sol\":455:468  TaskOwners[0] */\n  dup2\n  sload\n  dup2\n  lt\n  tag_6\n  jumpi\n  tag_7\n  tag_8\n  jump\t// in\ntag_7:\ntag_6:\n  swap1\n  0x00\n  mstore\n  keccak256(0x00, 0x20)\n  add\n  0x00\n    /* \"contracts/TaskMaster.sol\":455:477  TaskOwners[0] = _admin */\n  0x0100\n  exp\n  dup2\n  sload\n  dup2\n  0xffffffffffffffffffffffffffffffffffffffff\n  mul\n  not\n  and\n  swap1\n  dup4\n  0xffffffffffffffffffffffffffffffffffffffff\n  and\n  mul\n  or\n  swap1\n  sstore\n  pop\n    /* \"contracts/TaskMaster.sol\":417:484  constructor(address _admin) {... */\n  pop\n    /* \"contracts/TaskMaster.sol\":65:4053  contract TaskMaster {... */\n  jump(tag_10)\n    /* \"#utility.yul\":88:205   */\ntag_12:\n    /* \"#utility.yul\":197:198   */\n  0x00\n    /* \"#utility.yul\":194:195   */\n  dup1\n    /* \"#utility.yul\":187:199   */\n  revert\n    /* \"#utility.yul\":334:460   */\ntag_14:\n    /* \"#utility.yul\":371:378   */\n  0x00\n    /* \"#utility.yul\":411:453   */\n  0xffffffffffffffffffffffffffffffffffffffff\n    /* \"#utility.yul\":404:409   */\n  dup3\n    /* \"#utility.yul\":400:454   */\n  and\n    /* \"#utility.yul\":389:454   */\n  swap1\n  pop\n    /* \"#utility.yul\":334:460   */\n  swap2\n  swap1\n  pop\n  jump\t// out\n    /* \"#utility.yul\":466:562   */\ntag_15:\n    /* \"#utility.yul\":503:510   */\n  0x00\n    /* \"#utility.yul\":532:556   */\n  tag_24\n    /* \"#utility.yul\":550:555   */\n  dup3\n    /* \"#utility.yul\":532:556   */\n  tag_14\n  jump\t// in\ntag_24:\n    /* \"#utility.yul\":521:556   */\n  swap1\n  pop\n    /* \"#utility.yul\":466:562   */\n  swap2\n  swap1\n  pop\n  jump\t// out\n    /* \"#utility.yul\":568:690   */\ntag_16:\n    /* \"#utility.yul\":641:665   */\n  tag_26\n    /* \"#utility.yul\":659:664   */\n  dup2\n    /* \"#utility.yul\":641:665   */\n  tag_15\n  jump\t// in\ntag_26:\n    /* \"#utility.yul\":634:639   */\n  dup2\n    /* \"#utility.yul\":631:666   */\n  eq\n    /* \"#utility.yul\":621:684   */\n  tag_27\n  jumpi\n    /* \"#utility.yul\":680:681   */\n  0x00\n    /* \"#utility.yul\":677:678   */\n  dup1\n    /* \"#utility.yul\":670:682   */\n  revert\n    /* \"#utility.yul\":621:684   */\ntag_27:\n    /* \"#utility.yul\":568:690   */\n  pop\n  jump\t// out\n    /* \"#utility.yul\":696:839   */\ntag_17:\n    /* \"#utility.yul\":753:758   */\n  0x00\n    /* \"#utility.yul\":784:790   */\n  dup2\n    /* \"#utility.yul\":778:791   */\n  mload\n    /* \"#utility.yul\":769:791   */\n  swap1\n  pop\n    /* \"#utility.yul\":800:833   */\n  tag_29\n    /* \"#utility.yul\":827:832   */\n  dup2\n    /* \"#utility.yul\":800:833   */\n  tag_16\n  jump\t// in\ntag_29:\n    /* \"#utility.yul\":696:839   */\n  swap3\n  swap2\n  pop\n  pop\n  jump\t// out\n    /* \"#utility.yul\":845:1196   */\ntag_3:\n    /* \"#utility.yul\":915:921   */\n  0x00\n    /* \"#utility.yul\":964:966   */\n  0x20\n    /* \"#utility.yul\":952:961   */\n  dup3\n    /* \"#utility.yul\":943:950   */\n  dup5\n    /* \"#utility.yul\":939:962   */\n  sub\n    /* \"#utility.yul\":935:967   */\n  slt\n    /* \"#utility.yul\":932:1051   */\n  iszero\n  tag_31\n  jumpi\n    /* \"#utility.yul\":970:1049   */\n  tag_32\n  tag_12\n  jump\t// in\ntag_32:\n    /* \"#utility.yul\":932:1051   */\ntag_31:\n    /* \"#utility.yul\":1090:1091   */\n  0x00\n    /* \"#utility.yul\":1115:1179   */\n  tag_33\n    /* \"#utility.yul\":1171:1178   */\n  dup5\n    /* \"#utility.yul\":1162:1168   */\n  dup3\n    /* \"#utility.yul\":1151:1160   */\n  dup6\n    /* \"#utility.yul\":1147:1169   */\n  add\n    /* \"#utility.yul\":1115:1179   */\n  tag_17\n  jump\t// in\ntag_33:\n    /* \"#utility.yul\":1105:1179   */\n  swap2\n  pop\n    /* \"#utility.yul\":1061:1189   */\n  pop\n    /* \"#utility.yul\":845:1196   */\n  swap3\n  swap2\n  pop\n  pop\n  jump\t// out\n    /* \"#utility.yul\":1202:1382   */\ntag_8:\n    /* \"#utility.yul\":1250:1327   */\n  0x4e487b7100000000000000000000000000000000000000000000000000000000\n    /* \"#utility.yul\":1247:1248   */\n  0x00\n    /* \"#utility.yul\":1240:1328   */\n  mstore\n    /* \"#utility.yul\":1347:1351   */\n  0x32\n    /* \"#utility.yul\":1344:1345   */\n  0x04\n    /* \"#utility.yul\":1337:1352   */\n  mstore\n    /* \"#utility.yul\":1371:1375   */\n  0x24\n    /* \"#utility.yul\":1368:1369   */\n  0x00\n    /* \"#utility.yul\":1361:1376   */\n  revert\n    /* \"contracts/TaskMaster.sol\":65:4053  contract TaskMaster {... */\ntag_10:\n  dataSize(sub_0)\n  dup1\n  dataOffset(sub_0)\n  0x00\n  codecopy\n  0x00\n  return\nstop\n\nsub_0: assembly {\n        /* \"contracts/TaskMaster.sol\":65:4053  contract TaskMaster {... */\n      mstore(0x40, 0x80)\n      callvalue\n      dup1\n      iszero\n      tag_1\n      jumpi\n      0x00\n      dup1\n      revert\n    tag_1:\n      pop\n      jumpi(tag_2, lt(calldatasize, 0x04))\n      shr(0xe0, calldataload(0x00))\n      dup1\n      0x930b5e80\n      eq\n      tag_3\n      jumpi\n      dup1\n      0xbd153a84\n      eq\n      tag_4\n      jumpi\n      dup1\n      0xced30d6f\n      eq\n      tag_5\n      jumpi\n      dup1\n      0xd40811cb\n      eq\n      tag_6\n      jumpi\n      dup1\n      0xd8635bad\n      eq\n      tag_7\n      jumpi\n    tag_2:\n      0x00\n      dup1\n      revert\n        /* \"contracts/TaskMaster.sol\":616:1481  function CreateTask(... */\n    tag_3:\n      tag_8\n      0x04\n      dup1\n      calldatasize\n      sub\n      dup2\n      add\n      swap1\n      tag_9\n      swap2\n      swap1\n      tag_10\n      jump\t// in\n    tag_9:\n      tag_11\n      jump\t// in\n    tag_8:\n      mload(0x40)\n      tag_12\n      swap3\n      swap2\n      swap1\n      tag_13\n      jump\t// in\n    tag_12:\n      mload(0x40)\n      dup1\n      swap2\n      sub\n      swap1\n      return\n        /* \"contracts/TaskMaster.sol\":2302:3394  function GetTask(string memory TaskID)... */\n    tag_4:\n      tag_14\n      0x04\n      dup1\n      calldatasize\n      sub\n      dup2\n      add\n      swap1\n      tag_15\n      swap2\n      swap1\n      tag_16\n      jump\t// in\n    tag_15:\n      tag_17\n      jump\t// in\n    tag_14:\n      mload(0x40)\n      tag_18\n      swap10\n      swap9\n      swap8\n      swap7\n      swap6\n      swap5\n      swap4\n      swap3\n      swap2\n      swap1\n      tag_19\n      jump\t// in\n    tag_18:\n      mload(0x40)\n      dup1\n      swap2\n      sub\n      swap1\n      return\n        /* \"contracts/TaskMaster.sol\":1486:2301  function UpdateTask(... */\n    tag_5:\n      tag_20\n      0x04\n      dup1\n      calldatasize\n      sub\n      dup2\n      add\n      swap1\n      tag_21\n      swap2\n      swap1\n      tag_22\n      jump\t// in\n    tag_21:\n      tag_23\n      jump\t// in\n    tag_20:\n      mload(0x40)\n      tag_24\n      swap3\n      swap2\n      swap1\n      tag_13\n      jump\t// in\n    tag_24:\n      mload(0x40)\n      dup1\n      swap2\n      sub\n      swap1\n      return\n        /* \"contracts/TaskMaster.sol\":3794:4051  function isTaskOwnerExists(address _address) public view returns (bool) {... */\n    tag_6:\n      tag_25\n      0x04\n      dup1\n      calldatasize\n      sub\n      dup2\n      add\n      swap1\n      tag_26\n      swap2\n      swap1\n      tag_27\n      jump\t// in\n    tag_26:\n      tag_28\n      jump\t// in\n    tag_25:\n      mload(0x40)\n      tag_29\n      swap2\n      swap1\n      tag_30\n      jump\t// in\n    tag_29:\n      mload(0x40)\n      dup1\n      swap2\n      sub\n      swap1\n      return\n        /* \"contracts/TaskMaster.sol\":330:383  mapping(string => TaskInformation) public TaskDetails */\n    tag_7:\n      tag_31\n      0x04\n      dup1\n      calldatasize\n      sub\n      dup2\n      add\n      swap1\n      tag_32\n      swap2\n      swap1\n      tag_16\n      jump\t// in\n    tag_32:\n      tag_33\n      jump\t// in\n    tag_31:\n      mload(0x40)\n      tag_34\n      swap8\n      swap7\n      swap6\n      swap5\n      swap4\n      swap3\n      swap2\n      swap1\n      tag_35\n      jump\t// in\n    tag_34:\n      mload(0x40)\n      dup1\n      swap2\n      sub\n      swap1\n      return\n        /* \"contracts/TaskMaster.sol\":616:1481  function CreateTask(... */\n    tag_11:\n        /* \"contracts/TaskMaster.sol\":918:929  bool result */\n      0x00\n        /* \"contracts/TaskMaster.sol\":931:952  string memory Message */\n      0x60\n        /* \"contracts/TaskMaster.sol\":889:899  msg.sender */\n      caller\n        /* \"contracts/TaskMaster.sol\":542:565  isTaskOwnerExists(_add) */\n      tag_37\n        /* \"contracts/TaskMaster.sol\":560:564  _add */\n      dup2\n        /* \"contracts/TaskMaster.sol\":542:559  isTaskOwnerExists */\n      tag_28\n        /* \"contracts/TaskMaster.sol\":542:565  isTaskOwnerExists(_add) */\n      jump\t// in\n    tag_37:\n        /* \"contracts/TaskMaster.sol\":534:592  require(isTaskOwnerExists(_add), \"You are not authorized\") */\n      tag_38\n      jumpi\n      mload(0x40)\n      0x08c379a000000000000000000000000000000000000000000000000000000000\n      dup2\n      mstore\n      0x04\n      add\n      tag_39\n      swap1\n      tag_40\n      jump\t// in\n    tag_39:\n      mload(0x40)\n      dup1\n      swap2\n      sub\n      swap1\n      revert\n    tag_38:\n        /* \"contracts/TaskMaster.sol\":968:1009  TaskInformation memory TaskInformationObj */\n      0x00\n        /* \"contracts/TaskMaster.sol\":1012:1279  TaskInformation({... */\n      mload(0x40)\n      dup1\n      0xe0\n      add\n      0x40\n      mstore\n      dup1\n        /* \"contracts/TaskMaster.sol\":1053:1062  ProjectID */\n      dup13\n        /* \"contracts/TaskMaster.sol\":1012:1279  TaskInformation({... */\n      dup2\n      mstore\n      0x20\n      add\n        /* \"contracts/TaskMaster.sol\":1086:1094  Taskname */\n      dup12\n        /* \"contracts/TaskMaster.sol\":1012:1279  TaskInformation({... */\n      dup2\n      mstore\n      0x20\n      add\n        /* \"contracts/TaskMaster.sol\":1121:1132  Description */\n      dup10\n        /* \"contracts/TaskMaster.sol\":1012:1279  TaskInformation({... */\n      dup2\n      mstore\n      0x20\n      add\n        /* \"contracts/TaskMaster.sol\":1156:1164  Priority */\n      dup11\n        /* \"contracts/TaskMaster.sol\":1012:1279  TaskInformation({... */\n      dup2\n      mstore\n      0x20\n      add\n        /* \"contracts/TaskMaster.sol\":1195:1210  ResourceDetails */\n      dup9\n        /* \"contracts/TaskMaster.sol\":1012:1279  TaskInformation({... */\n      dup2\n      mstore\n      0x20\n      add\n        /* \"contracts/TaskMaster.sol\":1232:1238  Status */\n      dup8\n        /* \"contracts/TaskMaster.sol\":1012:1279  TaskInformation({... */\n      dup2\n      mstore\n      0x20\n      add\n        /* \"contracts/TaskMaster.sol\":1261:1268  Remarks */\n      dup7\n        /* \"contracts/TaskMaster.sol\":1012:1279  TaskInformation({... */\n      dup2\n      mstore\n      pop\n        /* \"contracts/TaskMaster.sol\":968:1279  TaskInformation memory TaskInformationObj = TaskInformation({... */\n      swap1\n      pop\n        /* \"contracts/TaskMaster.sol\":1289:1298  TaskCount */\n      0x02\n      0x00\n        /* \"contracts/TaskMaster.sol\":1289:1300  TaskCount++ */\n      dup2\n      sload\n      dup1\n      swap3\n      swap2\n      swap1\n      tag_42\n      swap1\n      tag_43\n      jump\t// in\n    tag_42:\n      swap2\n      swap1\n      pop\n      sstore\n      pop\n        /* \"contracts/TaskMaster.sol\":1310:1330  string memory TaskID */\n      0x00\n        /* \"contracts/TaskMaster.sol\":1333:1375  uintToStringWithZeroPadding(TaskCount, 10) */\n      tag_44\n        /* \"contracts/TaskMaster.sol\":1361:1370  TaskCount */\n      sload(0x02)\n        /* \"contracts/TaskMaster.sol\":1372:1374  10 */\n      0x0a\n        /* \"contracts/TaskMaster.sol\":1333:1360  uintToStringWithZeroPadding */\n      tag_45\n        /* \"contracts/TaskMaster.sol\":1333:1375  uintToStringWithZeroPadding(TaskCount, 10) */\n      jump\t// in\n    tag_44:\n        /* \"contracts/TaskMaster.sol\":1310:1375  string memory TaskID = uintToStringWithZeroPadding(TaskCount, 10) */\n      swap1\n      pop\n        /* \"contracts/TaskMaster.sol\":1407:1425  TaskInformationObj */\n      dup2\n        /* \"contracts/TaskMaster.sol\":1385:1396  TaskDetails */\n      0x01\n        /* \"contracts/TaskMaster.sol\":1397:1403  TaskID */\n      dup3\n        /* \"contracts/TaskMaster.sol\":1385:1404  TaskDetails[TaskID] */\n      mload(0x40)\n      tag_46\n      swap2\n      swap1\n      tag_47\n      jump\t// in\n    tag_46:\n      swap1\n      dup2\n      mstore\n      0x20\n      add\n      mload(0x40)\n      dup1\n      swap2\n      sub\n      swap1\n      keccak256\n        /* \"contracts/TaskMaster.sol\":1385:1425  TaskDetails[TaskID] = TaskInformationObj */\n      0x00\n      dup3\n      add\n      mload\n      dup2\n      0x00\n      add\n      swap1\n      dup2\n      tag_48\n      swap2\n      swap1\n      tag_49\n      jump\t// in\n    tag_48:\n      pop\n      0x20\n      dup3\n      add\n      mload\n      dup2\n      0x01\n      add\n      swap1\n      dup2\n      tag_50\n      swap2\n      swap1\n      tag_49\n      jump\t// in\n    tag_50:\n      pop\n      0x40\n      dup3\n      add\n      mload\n      dup2\n      0x02\n      add\n      swap1\n      dup2\n      tag_51\n      swap2\n      swap1\n      tag_49\n      jump\t// in\n    tag_51:\n      pop\n      0x60\n      dup3\n      add\n      mload\n      dup2\n      0x03\n      add\n      sstore\n      0x80\n      dup3\n      add\n      mload\n      dup2\n      0x04\n      add\n      swap1\n      dup2\n      tag_52\n      swap2\n      swap1\n      tag_49\n      jump\t// in\n    tag_52:\n      pop\n      0xa0\n      dup3\n      add\n      mload\n      dup2\n      0x05\n      add\n      sstore\n      0xc0\n      dup3\n      add\n      mload\n      dup2\n      0x06\n      add\n      swap1\n      dup2\n      tag_53\n      swap2\n      swap1\n      tag_49\n      jump\t// in\n    tag_53:\n      pop\n      swap1\n      pop\n      pop\n        /* \"contracts/TaskMaster.sol\":1444:1448  true */\n      0x01\n        /* \"contracts/TaskMaster.sol\":1435:1448  result = true */\n      swap5\n      pop\n        /* \"contracts/TaskMaster.sol\":1468:1474  TaskID */\n      dup1\n        /* \"contracts/TaskMaster.sol\":1458:1474  Message = TaskID */\n      swap4\n      pop\n        /* \"contracts/TaskMaster.sol\":958:1481  {... */\n      pop\n      pop\n        /* \"contracts/TaskMaster.sol\":616:1481  function CreateTask(... */\n      pop\n      swap8\n      pop\n      swap8\n      swap6\n      pop\n      pop\n      pop\n      pop\n      pop\n      pop\n      jump\t// out\n        /* \"contracts/TaskMaster.sol\":2302:3394  function GetTask(string memory TaskID)... */\n    tag_17:\n        /* \"contracts/TaskMaster.sol\":2431:2454  string memory ProjectID */\n      0x60\n        /* \"contracts/TaskMaster.sol\":2464:2486  string memory Taskname */\n      dup1\n        /* \"contracts/TaskMaster.sol\":2496:2511  int256 Priority */\n      0x00\n        /* \"contracts/TaskMaster.sol\":2521:2546  string memory Description */\n      0x60\n        /* \"contracts/TaskMaster.sol\":2556:2585  string memory ResourceDetails */\n      dup1\n        /* \"contracts/TaskMaster.sol\":2595:2608  int256 Status */\n      0x00\n        /* \"contracts/TaskMaster.sol\":2618:2639  string memory Remarks */\n      0x60\n        /* \"contracts/TaskMaster.sol\":2649:2660  bool result */\n      0x00\n        /* \"contracts/TaskMaster.sol\":2662:2683  string memory Message */\n      0x60\n        /* \"contracts/TaskMaster.sol\":2375:2385  msg.sender */\n      caller\n        /* \"contracts/TaskMaster.sol\":542:565  isTaskOwnerExists(_add) */\n      tag_55\n        /* \"contracts/TaskMaster.sol\":560:564  _add */\n      dup2\n        /* \"contracts/TaskMaster.sol\":542:559  isTaskOwnerExists */\n      tag_28\n        /* \"contracts/TaskMaster.sol\":542:565  isTaskOwnerExists(_add) */\n      jump\t// in\n    tag_55:\n        /* \"contracts/TaskMaster.sol\":534:592  require(isTaskOwnerExists(_add), \"You are not authorized\") */\n      tag_56\n      jumpi\n      mload(0x40)\n      0x08c379a000000000000000000000000000000000000000000000000000000000\n      dup2\n      mstore\n      0x04\n      add\n      tag_57\n      swap1\n      tag_40\n      jump\t// in\n    tag_57:\n      mload(0x40)\n      dup1\n      swap2\n      sub\n      swap1\n      revert\n    tag_56:\n        /* \"contracts/TaskMaster.sol\":2708:2749  TaskInformation memory TaskInformationObj */\n      0x00\n        /* \"contracts/TaskMaster.sol\":2752:2763  TaskDetails */\n      0x01\n        /* \"contracts/TaskMaster.sol\":2777:2783  TaskID */\n      dup13\n        /* \"contracts/TaskMaster.sol\":2752:2793  TaskDetails[... */\n      mload(0x40)\n      tag_59\n      swap2\n      swap1\n      tag_47\n      jump\t// in\n    tag_59:\n      swap1\n      dup2\n      mstore\n      0x20\n      add\n      mload(0x40)\n      dup1\n      swap2\n      sub\n      swap1\n      keccak256\n        /* \"contracts/TaskMaster.sol\":2708:2793  TaskInformation memory TaskInformationObj = TaskDetails[... */\n      mload(0x40)\n      dup1\n      0xe0\n      add\n      0x40\n      mstore\n      swap1\n      dup2\n      0x00\n      dup3\n      add\n      dup1\n      sload\n      tag_60\n      swap1\n      tag_61\n      jump\t// in\n    tag_60:\n      dup1\n      0x1f\n      add\n      0x20\n      dup1\n      swap2\n      div\n      mul\n      0x20\n      add\n      mload(0x40)\n      swap1\n      dup2\n      add\n      0x40\n      mstore\n      dup1\n      swap3\n      swap2\n      swap1\n      dup2\n      dup2\n      mstore\n      0x20\n      add\n      dup3\n      dup1\n      sload\n      tag_62\n      swap1\n      tag_61\n      jump\t// in\n    tag_62:\n      dup1\n      iszero\n      tag_63\n      jumpi\n      dup1\n      0x1f\n      lt\n      tag_64\n      jumpi\n      0x0100\n      dup1\n      dup4\n      sload\n      div\n      mul\n      dup4\n      mstore\n      swap2\n      0x20\n      add\n      swap2\n      jump(tag_63)\n    tag_64:\n      dup3\n      add\n      swap2\n      swap1\n      0x00\n      mstore\n      keccak256(0x00, 0x20)\n      swap1\n    tag_65:\n      dup2\n      sload\n      dup2\n      mstore\n      swap1\n      0x01\n      add\n      swap1\n      0x20\n      add\n      dup1\n      dup4\n      gt\n      tag_65\n      jumpi\n      dup3\n      swap1\n      sub\n      0x1f\n      and\n      dup3\n      add\n      swap2\n    tag_63:\n      pop\n      pop\n      pop\n      pop\n      pop\n      dup2\n      mstore\n      0x20\n      add\n      0x01\n      dup3\n      add\n      dup1\n      sload\n      tag_66\n      swap1\n      tag_61\n      jump\t// in\n    tag_66:\n      dup1\n      0x1f\n      add\n      0x20\n      dup1\n      swap2\n      div\n      mul\n      0x20\n      add\n      mload(0x40)\n      swap1\n      dup2\n      add\n      0x40\n      mstore\n      dup1\n      swap3\n      swap2\n      swap1\n      dup2\n      dup2\n      mstore\n      0x20\n      add\n      dup3\n      dup1\n      sload\n      tag_67\n      swap1\n      tag_61\n      jump\t// in\n    tag_67:\n      dup1\n      iszero\n      tag_68\n      jumpi\n      dup1\n      0x1f\n      lt\n      tag_69\n      jumpi\n      0x0100\n      dup1\n      dup4\n      sload\n      div\n      mul\n      dup4\n      mstore\n      swap2\n      0x20\n      add\n      swap2\n      jump(tag_68)\n    tag_69:\n      dup3\n      add\n      swap2\n      swap1\n      0x00\n      mstore\n      keccak256(0x00, 0x20)\n      swap1\n    tag_70:\n      dup2\n      sload\n      dup2\n      mstore\n      swap1\n      0x01\n      add\n      swap1\n      0x20\n      add\n      dup1\n      dup4\n      gt\n      tag_70\n      jumpi\n      dup3\n      swap1\n      sub\n      0x1f\n      and\n      dup3\n      add\n      swap2\n    tag_68:\n      pop\n      pop\n      pop\n      pop\n      pop\n      dup2\n      mstore\n      0x20\n      add\n      0x02\n      dup3\n      add\n      dup1\n      sload\n      tag_71\n      swap1\n      tag_61\n      jump\t// in\n    tag_71:\n      dup1\n      0x1f\n      add\n      0x20\n      dup1\n      swap2\n      div\n      mul\n      0x20\n      add\n      mload(0x40)\n      swap1\n      dup2\n      add\n      0x40\n      mstore\n      dup1\n      swap3\n      swap2\n      swap1\n      dup2\n      dup2\n      mstore\n      0x20\n      add\n      dup3\n      dup1\n      sload\n      tag_72\n      swap1\n      tag_61\n      jump\t// in\n    tag_72:\n      dup1\n      iszero\n      tag_73\n      jumpi\n      dup1\n      0x1f\n      lt\n      tag_74\n      jumpi\n      0x0100\n      dup1\n      dup4\n      sload\n      div\n      mul\n      dup4\n      mstore\n      swap2\n      0x20\n      add\n      swap2\n      jump(tag_73)\n    tag_74:\n      dup3\n      add\n      swap2\n      swap1\n      0x00\n      mstore\n      keccak256(0x00, 0x20)\n      swap1\n    tag_75:\n      dup2\n      sload\n      dup2\n      mstore\n      swap1\n      0x01\n      add\n      swap1\n      0x20\n      add\n      dup1\n      dup4\n      gt\n      tag_75\n      jumpi\n      dup3\n      swap1\n      sub\n      0x1f\n      and\n      dup3\n      add\n      swap2\n    tag_73:\n      pop\n      pop\n      pop\n      pop\n      pop\n      dup2\n      mstore\n      0x20\n      add\n      0x03\n      dup3\n      add\n      sload\n      dup2\n      mstore\n      0x20\n      add\n      0x04\n      dup3\n      add\n      dup1\n      sload\n      tag_76\n      swap1\n      tag_61\n      jump\t// in\n    tag_76:\n      dup1\n      0x1f\n      add\n      0x20\n      dup1\n      swap2\n      div\n      mul\n      0x20\n      add\n      mload(0x40)\n      swap1\n      dup2\n      add\n      0x40\n      mstore\n      dup1\n      swap3\n      swap2\n      swap1\n      dup2\n      dup2\n      mstore\n      0x20\n      add\n      dup3\n      dup1\n      sload\n      tag_77\n      swap1\n      tag_61\n      jump\t// in\n    tag_77:\n      dup1\n      iszero\n      tag_78\n      jumpi\n      dup1\n      0x1f\n      lt\n      tag_79\n      jumpi\n      0x0100\n      dup1\n      dup4\n      sload\n      div\n      mul\n      dup4\n      mstore\n      swap2\n      0x20\n      add\n      swap2\n      jump(tag_78)\n    tag_79:\n      dup3\n      add\n      swap2\n      swap1\n      0x00\n      mstore\n      keccak256(0x00, 0x20)\n      swap1\n    tag_80:\n      dup2\n      sload\n      dup2\n      mstore\n      swap1\n      0x01\n      add\n      swap1\n      0x20\n      add\n      dup1\n      dup4\n      gt\n      tag_80\n      jumpi\n      dup3\n      swap1\n      sub\n      0x1f\n      and\n      dup3\n      add\n      swap2\n    tag_78:\n      pop\n      pop\n      pop\n      pop\n      pop\n      dup2\n      mstore\n      0x20\n      add\n      0x05\n      dup3\n      add\n      sload\n      dup2\n      mstore\n      0x20\n      add\n      0x06\n      dup3\n      add\n      dup1\n      sload\n      tag_81\n      swap1\n      tag_61\n      jump\t// in\n    tag_81:\n      dup1\n      0x1f\n      add\n      0x20\n      dup1\n      swap2\n      div\n      mul\n      0x20\n      add\n      mload(0x40)\n      swap1\n      dup2\n      add\n      0x40\n      mstore\n      dup1\n      swap3\n      swap2\n      swap1\n      dup2\n      dup2\n      mstore\n      0x20\n      add\n      dup3\n      dup1\n      sload\n      tag_82\n      swap1\n      tag_61\n      jump\t// in\n    tag_82:\n      dup1\n      iszero\n      tag_83\n      jumpi\n      dup1\n      0x1f\n      lt\n      tag_84\n      jumpi\n      0x0100\n      dup1\n      dup4\n      sload\n      div\n      mul\n      dup4\n      mstore\n      swap2\n      0x20\n      add\n      swap2\n      jump(tag_83)\n    tag_84:\n      dup3\n      add\n      swap2\n      swap1\n      0x00\n      mstore\n      keccak256(0x00, 0x20)\n      swap1\n    tag_85:\n      dup2\n      sload\n      dup2\n      mstore\n      swap1\n      0x01\n      add\n      swap1\n      0x20\n      add\n      dup1\n      dup4\n      gt\n      tag_85\n      jumpi\n      dup3\n      swap1\n      sub\n      0x1f\n      and\n      dup3\n      add\n      swap2\n    tag_83:\n      pop\n      pop\n      pop\n      pop\n      pop\n      dup2\n      mstore\n      pop\n      pop\n      swap1\n      pop\n        /* \"contracts/TaskMaster.sol\":2844:2845  0 */\n      0x00\n        /* \"contracts/TaskMaster.sol\":2807:2825  TaskInformationObj */\n      dup2\n        /* \"contracts/TaskMaster.sol\":2807:2834  TaskInformationObj.Taskname */\n      0x20\n      add\n      mload\n        /* \"contracts/TaskMaster.sol\":2807:2841  TaskInformationObj.Taskname.length */\n      mload\n        /* \"contracts/TaskMaster.sol\":2807:2845  TaskInformationObj.Taskname.length > 0 */\n      gt\n        /* \"contracts/TaskMaster.sol\":2803:3388  if (TaskInformationObj.Taskname.length > 0) {... */\n      iszero\n      tag_86\n      jumpi\n        /* \"contracts/TaskMaster.sol\":2880:2898  TaskInformationObj */\n      dup1\n        /* \"contracts/TaskMaster.sol\":2880:2908  TaskInformationObj.ProjectID */\n      0x00\n      add\n      mload\n        /* \"contracts/TaskMaster.sol\":2861:2909  ProjectID = string(TaskInformationObj.ProjectID) */\n      swap11\n      pop\n        /* \"contracts/TaskMaster.sol\":2941:2959  TaskInformationObj */\n      dup1\n        /* \"contracts/TaskMaster.sol\":2941:2968  TaskInformationObj.Taskname */\n      0x20\n      add\n      mload\n        /* \"contracts/TaskMaster.sol\":2923:2969  Taskname = string(TaskInformationObj.Taskname) */\n      swap10\n      pop\n        /* \"contracts/TaskMaster.sol\":2994:3012  TaskInformationObj */\n      dup1\n        /* \"contracts/TaskMaster.sol\":2994:3021  TaskInformationObj.Priority */\n      0x60\n      add\n      mload\n        /* \"contracts/TaskMaster.sol\":2983:3021  Priority = TaskInformationObj.Priority */\n      swap9\n      pop\n        /* \"contracts/TaskMaster.sol\":3056:3074  TaskInformationObj */\n      dup1\n        /* \"contracts/TaskMaster.sol\":3056:3086  TaskInformationObj.Description */\n      0x40\n      add\n      mload\n        /* \"contracts/TaskMaster.sol\":3035:3087  Description = string(TaskInformationObj.Description) */\n      swap8\n      pop\n        /* \"contracts/TaskMaster.sol\":3110:3128  TaskInformationObj */\n      dup1\n        /* \"contracts/TaskMaster.sol\":3110:3135  TaskInformationObj.Status */\n      0xa0\n      add\n      mload\n        /* \"contracts/TaskMaster.sol\":3101:3135  Status = TaskInformationObj.Status */\n      swap6\n      pop\n        /* \"contracts/TaskMaster.sol\":3166:3184  TaskInformationObj */\n      dup1\n        /* \"contracts/TaskMaster.sol\":3166:3192  TaskInformationObj.Remarks */\n      0xc0\n      add\n      mload\n        /* \"contracts/TaskMaster.sol\":3149:3193  Remarks = string(TaskInformationObj.Remarks) */\n      swap5\n      pop\n        /* \"contracts/TaskMaster.sol\":3232:3250  TaskInformationObj */\n      dup1\n        /* \"contracts/TaskMaster.sol\":3232:3266  TaskInformationObj.ResourceDetails */\n      0x80\n      add\n      mload\n        /* \"contracts/TaskMaster.sol\":3207:3267  ResourceDetails = string(TaskInformationObj.ResourceDetails) */\n      swap7\n      pop\n        /* \"contracts/TaskMaster.sol\":3290:3294  true */\n      0x01\n        /* \"contracts/TaskMaster.sol\":3281:3294  result = true */\n      swap4\n      pop\n        /* \"contracts/TaskMaster.sol\":2803:3388  if (TaskInformationObj.Taskname.length > 0) {... */\n      jump(tag_87)\n    tag_86:\n        /* \"contracts/TaskMaster.sol\":3334:3338  true */\n      0x01\n        /* \"contracts/TaskMaster.sol\":3325:3338  result = true */\n      swap4\n      pop\n        /* \"contracts/TaskMaster.sol\":3352:3377  Message = \"No Data Found\" */\n      mload(0x40)\n      dup1\n      0x40\n      add\n      0x40\n      mstore\n      dup1\n      0x0d\n      dup2\n      mstore\n      0x20\n      add\n      0x4e6f204461746120466f756e6400000000000000000000000000000000000000\n      dup2\n      mstore\n      pop\n      swap3\n      pop\n        /* \"contracts/TaskMaster.sol\":2803:3388  if (TaskInformationObj.Taskname.length > 0) {... */\n    tag_87:\n        /* \"contracts/TaskMaster.sol\":2698:3394  {... */\n      pop\n        /* \"contracts/TaskMaster.sol\":2302:3394  function GetTask(string memory TaskID)... */\n      pop\n      swap2\n      swap4\n      swap6\n      swap8\n      swap10\n      swap1\n      swap3\n      swap5\n      swap7\n      swap9\n      pop\n      jump\t// out\n        /* \"contracts/TaskMaster.sol\":1486:2301  function UpdateTask(... */\n    tag_23:\n        /* \"contracts/TaskMaster.sol\":1818:1829  bool result */\n      0x00\n        /* \"contracts/TaskMaster.sol\":1831:1852  string memory Message */\n      0x60\n        /* \"contracts/TaskMaster.sol\":1789:1799  msg.sender */\n      caller\n        /* \"contracts/TaskMaster.sol\":542:565  isTaskOwnerExists(_add) */\n      tag_89\n        /* \"contracts/TaskMaster.sol\":560:564  _add */\n      dup2\n        /* \"contracts/TaskMaster.sol\":542:559  isTaskOwnerExists */\n      tag_28\n        /* \"contracts/TaskMaster.sol\":542:565  isTaskOwnerExists(_add) */\n      jump\t// in\n    tag_89:\n        /* \"contracts/TaskMaster.sol\":534:592  require(isTaskOwnerExists(_add), \"You are not authorized\") */\n      tag_90\n      jumpi\n      mload(0x40)\n      0x08c379a000000000000000000000000000000000000000000000000000000000\n      dup2\n      mstore\n      0x04\n      add\n      tag_91\n      swap1\n      tag_40\n      jump\t// in\n    tag_91:\n      mload(0x40)\n      dup1\n      swap2\n      sub\n      swap1\n      revert\n    tag_90:\n        /* \"contracts/TaskMaster.sol\":1868:1909  TaskInformation memory TaskInformationObj */\n      0x00\n        /* \"contracts/TaskMaster.sol\":1912:2179  TaskInformation({... */\n      mload(0x40)\n      dup1\n      0xe0\n      add\n      0x40\n      mstore\n      dup1\n        /* \"contracts/TaskMaster.sol\":1953:1962  ProjectID */\n      dup14\n        /* \"contracts/TaskMaster.sol\":1912:2179  TaskInformation({... */\n      dup2\n      mstore\n      0x20\n      add\n        /* \"contracts/TaskMaster.sol\":1986:1994  Taskname */\n      dup13\n        /* \"contracts/TaskMaster.sol\":1912:2179  TaskInformation({... */\n      dup2\n      mstore\n      0x20\n      add\n        /* \"contracts/TaskMaster.sol\":2021:2032  Description */\n      dup11\n        /* \"contracts/TaskMaster.sol\":1912:2179  TaskInformation({... */\n      dup2\n      mstore\n      0x20\n      add\n        /* \"contracts/TaskMaster.sol\":2056:2064  Priority */\n      dup12\n        /* \"contracts/TaskMaster.sol\":1912:2179  TaskInformation({... */\n      dup2\n      mstore\n      0x20\n      add\n        /* \"contracts/TaskMaster.sol\":2095:2110  ResourceDetails */\n      dup10\n        /* \"contracts/TaskMaster.sol\":1912:2179  TaskInformation({... */\n      dup2\n      mstore\n      0x20\n      add\n        /* \"contracts/TaskMaster.sol\":2132:2138  Status */\n      dup9\n        /* \"contracts/TaskMaster.sol\":1912:2179  TaskInformation({... */\n      dup2\n      mstore\n      0x20\n      add\n        /* \"contracts/TaskMaster.sol\":2161:2168  Remarks */\n      dup8\n        /* \"contracts/TaskMaster.sol\":1912:2179  TaskInformation({... */\n      dup2\n      mstore\n      pop\n        /* \"contracts/TaskMaster.sol\":1868:2179  TaskInformation memory TaskInformationObj = TaskInformation({... */\n      swap1\n      pop\n        /* \"contracts/TaskMaster.sol\":2211:2229  TaskInformationObj */\n      dup1\n        /* \"contracts/TaskMaster.sol\":2189:2200  TaskDetails */\n      0x01\n        /* \"contracts/TaskMaster.sol\":2201:2207  TaskID */\n      dup7\n        /* \"contracts/TaskMaster.sol\":2189:2208  TaskDetails[TaskID] */\n      mload(0x40)\n      tag_93\n      swap2\n      swap1\n      tag_47\n      jump\t// in\n    tag_93:\n      swap1\n      dup2\n      mstore\n      0x20\n      add\n      mload(0x40)\n      dup1\n      swap2\n      sub\n      swap1\n      keccak256\n        /* \"contracts/TaskMaster.sol\":2189:2229  TaskDetails[TaskID] = TaskInformationObj */\n      0x00\n      dup3\n      add\n      mload\n      dup2\n      0x00\n      add\n      swap1\n      dup2\n      tag_94\n      swap2\n      swap1\n      tag_49\n      jump\t// in\n    tag_94:\n      pop\n      0x20\n      dup3\n      add\n      mload\n      dup2\n      0x01\n      add\n      swap1\n      dup2\n      tag_95\n      swap2\n      swap1\n      tag_49\n      jump\t// in\n    tag_95:\n      pop\n      0x40\n      dup3\n      add\n      mload\n      dup2\n      0x02\n      add\n      swap1\n      dup2\n      tag_96\n      swap2\n      swap1\n      tag_49\n      jump\t// in\n    tag_96:\n      pop\n      0x60\n      dup3\n      add\n      mload\n      dup2\n      0x03\n      add\n      sstore\n      0x80\n      dup3\n      add\n      mload\n      dup2\n      0x04\n      add\n      swap1\n      dup2\n      tag_97\n      swap2\n      swap1\n      tag_49\n      jump\t// in\n    tag_97:\n      pop\n      0xa0\n      dup3\n      add\n      mload\n      dup2\n      0x05\n      add\n      sstore\n      0xc0\n      dup3\n      add\n      mload\n      dup2\n      0x06\n      add\n      swap1\n      dup2\n      tag_98\n      swap2\n      swap1\n      tag_49\n      jump\t// in\n    tag_98:\n      pop\n      swap1\n      pop\n      pop\n        /* \"contracts/TaskMaster.sol\":2248:2252  true */\n      0x01\n        /* \"contracts/TaskMaster.sol\":2239:2252  result = true */\n      swap4\n      pop\n        /* \"contracts/TaskMaster.sol\":2262:2294  Message = \"Updated Successfully\" */\n      mload(0x40)\n      dup1\n      0x40\n      add\n      0x40\n      mstore\n      dup1\n      0x14\n      dup2\n      mstore\n      0x20\n      add\n      0x55706461746564205375636365737366756c6c79000000000000000000000000\n      dup2\n      mstore\n      pop\n      swap3\n      pop\n        /* \"contracts/TaskMaster.sol\":1858:2301  {... */\n      pop\n        /* \"contracts/TaskMaster.sol\":1486:2301  function UpdateTask(... */\n      pop\n      swap9\n      pop\n      swap9\n      swap7\n      pop\n      pop\n      pop\n      pop\n      pop\n      pop\n      pop\n      jump\t// out\n        /* \"contracts/TaskMaster.sol\":3794:4051  function isTaskOwnerExists(address _address) public view returns (bool) {... */\n    tag_28:\n        /* \"contracts/TaskMaster.sol\":3860:3864  bool */\n      0x00\n        /* \"contracts/TaskMaster.sol\":3881:3890  uint256 i */\n      dup1\n        /* \"contracts/TaskMaster.sol\":3893:3894  0 */\n      0x00\n        /* \"contracts/TaskMaster.sol\":3881:3894  uint256 i = 0 */\n      swap1\n      pop\n        /* \"contracts/TaskMaster.sol\":3876:4023  for (uint256 i = 0; i < TaskOwners.length; i++) {... */\n    tag_100:\n        /* \"contracts/TaskMaster.sol\":3900:3910  TaskOwners */\n      0x00\n        /* \"contracts/TaskMaster.sol\":3900:3917  TaskOwners.length */\n      dup1\n      sload\n      swap1\n      pop\n        /* \"contracts/TaskMaster.sol\":3896:3897  i */\n      dup2\n        /* \"contracts/TaskMaster.sol\":3896:3917  i < TaskOwners.length */\n      lt\n        /* \"contracts/TaskMaster.sol\":3876:4023  for (uint256 i = 0; i < TaskOwners.length; i++) {... */\n      iszero\n      tag_101\n      jumpi\n        /* \"contracts/TaskMaster.sol\":3959:3967  _address */\n      dup3\n        /* \"contracts/TaskMaster.sol\":3942:3967  TaskOwners[i] == _address */\n      0xffffffffffffffffffffffffffffffffffffffff\n      and\n        /* \"contracts/TaskMaster.sol\":3942:3952  TaskOwners */\n      0x00\n        /* \"contracts/TaskMaster.sol\":3953:3954  i */\n      dup3\n        /* \"contracts/TaskMaster.sol\":3942:3955  TaskOwners[i] */\n      dup2\n      sload\n      dup2\n      lt\n      tag_103\n      jumpi\n      tag_104\n      tag_105\n      jump\t// in\n    tag_104:\n    tag_103:\n      swap1\n      0x00\n      mstore\n      keccak256(0x00, 0x20)\n      add\n      0x00\n      swap1\n      sload\n      swap1\n      0x0100\n      exp\n      swap1\n      div\n      0xffffffffffffffffffffffffffffffffffffffff\n      and\n        /* \"contracts/TaskMaster.sol\":3942:3967  TaskOwners[i] == _address */\n      0xffffffffffffffffffffffffffffffffffffffff\n      and\n      sub\n        /* \"contracts/TaskMaster.sol\":3938:4013  if (TaskOwners[i] == _address) {... */\n      tag_107\n      jumpi\n        /* \"contracts/TaskMaster.sol\":3994:3998  true */\n      0x01\n        /* \"contracts/TaskMaster.sol\":3987:3998  return true */\n      swap2\n      pop\n      pop\n      jump(tag_99)\n        /* \"contracts/TaskMaster.sol\":3938:4013  if (TaskOwners[i] == _address) {... */\n    tag_107:\n        /* \"contracts/TaskMaster.sol\":3919:3922  i++ */\n      dup1\n      dup1\n      0x01\n      add\n      swap2\n      pop\n      pop\n        /* \"contracts/TaskMaster.sol\":3876:4023  for (uint256 i = 0; i < TaskOwners.length; i++) {... */\n      jump(tag_100)\n    tag_101:\n      pop\n        /* \"contracts/TaskMaster.sol\":4039:4044  false */\n      0x00\n        /* \"contracts/TaskMaster.sol\":4032:4044  return false */\n      swap1\n      pop\n        /* \"contracts/TaskMaster.sol\":3794:4051  function isTaskOwnerExists(address _address) public view returns (bool) {... */\n    tag_99:\n      swap2\n      swap1\n      pop\n      jump\t// out\n        /* \"contracts/TaskMaster.sol\":330:383  mapping(string => TaskInformation) public TaskDetails */\n    tag_33:\n      0x01\n      dup2\n      dup1\n      mload\n      0x20\n      dup2\n      add\n      dup3\n      add\n      dup1\n      mload\n      dup5\n      dup3\n      mstore\n      0x20\n      dup4\n      add\n      0x20\n      dup6\n      add\n      keccak256\n      dup2\n      dup4\n      mstore\n      dup1\n      swap6\n      pop\n      pop\n      pop\n      pop\n      pop\n      pop\n      0x00\n      swap2\n      pop\n      swap1\n      pop\n      dup1\n      0x00\n      add\n      dup1\n      sload\n      tag_108\n      swap1\n      tag_61\n      jump\t// in\n    tag_108:\n      dup1\n      0x1f\n      add\n      0x20\n      dup1\n      swap2\n      div\n      mul\n      0x20\n      add\n      mload(0x40)\n      swap1\n      dup2\n      add\n      0x40\n      mstore\n      dup1\n      swap3\n      swap2\n      swap1\n      dup2\n      dup2\n      mstore\n      0x20\n      add\n      dup3\n      dup1\n      sload\n      tag_109\n      swap1\n      tag_61\n      jump\t// in\n    tag_109:\n      dup1\n      iszero\n      tag_110\n      jumpi\n      dup1\n      0x1f\n      lt\n      tag_111\n      jumpi\n      0x0100\n      dup1\n      dup4\n      sload\n      div\n      mul\n      dup4\n      mstore\n      swap2\n      0x20\n      add\n      swap2\n      jump(tag_110)\n    tag_111:\n      dup3\n      add\n      swap2\n      swap1\n      0x00\n      mstore\n      keccak256(0x00, 0x20)\n      swap1\n    tag_112:\n      dup2\n      sload\n      dup2\n      mstore\n      swap1\n      0x01\n      add\n      swap1\n      0x20\n      add\n      dup1\n      dup4\n      gt\n      tag_112\n      jumpi\n      dup3\n      swap1\n      sub\n      0x1f\n      and\n      dup3\n      add\n      swap2\n    tag_110:\n      pop\n      pop\n      pop\n      pop\n      pop\n      swap1\n      dup1\n      0x01\n      add\n      dup1\n      sload\n      tag_113\n      swap1\n      tag_61\n      jump\t// in\n    tag_113:\n      dup1\n      0x1f\n      add\n      0x20\n      dup1\n      swap2\n      div\n      mul\n      0x20\n      add\n      mload(0x40)\n      swap1\n      dup2\n      add\n      0x40\n      mstore\n      dup1\n      swap3\n      swap2\n      swap1\n      dup2\n      dup2\n      mstore\n      0x20\n      add\n      dup3\n      dup1\n      sload\n      tag_114\n      swap1\n      tag_61\n      jump\t// in\n    tag_114:\n      dup1\n      iszero\n      tag_115\n      jumpi\n      dup1\n      0x1f\n      lt\n      tag_116\n      jumpi\n      0x0100\n      dup1\n      dup4\n      sload\n      div\n      mul\n      dup4\n      mstore\n      swap2\n      0x20\n      add\n      swap2\n      jump(tag_115)\n    tag_116:\n      dup3\n      add\n      swap2\n      swap1\n      0x00\n      mstore\n      keccak256(0x00, 0x20)\n      swap1\n    tag_117:\n      dup2\n      sload\n      dup2\n      mstore\n      swap1\n      0x01\n      add\n      swap1\n      0x20\n      add\n      dup1\n      dup4\n      gt\n      tag_117\n      jumpi\n      dup3\n      swap1\n      sub\n      0x1f\n      and\n      dup3\n      add\n      swap2\n    tag_115:\n      pop\n      pop\n      pop\n      pop\n      pop\n      swap1\n      dup1\n      0x02\n      add\n      dup1\n      sload\n      tag_118\n      swap1\n      tag_61\n      jump\t// in\n    tag_118:\n      dup1\n      0x1f\n      add\n      0x20\n      dup1\n      swap2\n      div\n      mul\n      0x20\n      add\n      mload(0x40)\n      swap1\n      dup2\n      add\n      0x40\n      mstore\n      dup1\n      swap3\n      swap2\n      swap1\n      dup2\n      dup2\n      mstore\n      0x20\n      add\n      dup3\n      dup1\n      sload\n      tag_119\n      swap1\n      tag_61\n      jump\t// in\n    tag_119:\n      dup1\n      iszero\n      tag_120\n      jumpi\n      dup1\n      0x1f\n      lt\n      tag_121\n      jumpi\n      0x0100\n      dup1\n      dup4\n      sload\n      div\n      mul\n      dup4\n      mstore\n      swap2\n      0x20\n      add\n      swap2\n      jump(tag_120)\n    tag_121:\n      dup3\n      add\n      swap2\n      swap1\n      0x00\n      mstore\n      keccak256(0x00, 0x20)\n      swap1\n    tag_122:\n      dup2\n      sload\n      dup2\n      mstore\n      swap1\n      0x01\n      add\n      swap1\n      0x20\n      add\n      dup1\n      dup4\n      gt\n      tag_122\n      jumpi\n      dup3\n      swap1\n      sub\n      0x1f\n      and\n      dup3\n      add\n      swap2\n    tag_120:\n      pop\n      pop\n      pop\n      pop\n      pop\n      swap1\n      dup1\n      0x03\n      add\n      sload\n      swap1\n      dup1\n      0x04\n      add\n      dup1\n      sload\n      tag_123\n      swap1\n      tag_61\n      jump\t// in\n    tag_123:\n      dup1\n      0x1f\n      add\n      0x20\n      dup1\n      swap2\n      div\n      mul\n      0x20\n      add\n      mload(0x40)\n      swap1\n      dup2\n      add\n      0x40\n      mstore\n      dup1\n      swap3\n      swap2\n      swap1\n      dup2\n      dup2\n      mstore\n      0x20\n      add\n      dup3\n      dup1\n      sload\n      tag_124\n      swap1\n      tag_61\n      jump\t// in\n    tag_124:\n      dup1\n      iszero\n      tag_125\n      jumpi\n      dup1\n      0x1f\n      lt\n      tag_126\n      jumpi\n      0x0100\n      dup1\n      dup4\n      sload\n      div\n      mul\n      dup4\n      mstore\n      swap2\n      0x20\n      add\n      swap2\n      jump(tag_125)\n    tag_126:\n      dup3\n      add\n      swap2\n      swap1\n      0x00\n      mstore\n      keccak256(0x00, 0x20)\n      swap1\n    tag_127:\n      dup2\n      sload\n      dup2\n      mstore\n      swap1\n      0x01\n      add\n      swap1\n      0x20\n      add\n      dup1\n      dup4\n      gt\n      tag_127\n      jumpi\n      dup3\n      swap1\n      sub\n      0x1f\n      and\n      dup3\n      add\n      swap2\n    tag_125:\n      pop\n      pop\n      pop\n      pop\n      pop\n      swap1\n      dup1\n      0x05\n      add\n      sload\n      swap1\n      dup1\n      0x06\n      add\n      dup1\n      sload\n      tag_128\n      swap1\n      tag_61\n      jump\t// in\n    tag_128:\n      dup1\n      0x1f\n      add\n      0x20\n      dup1\n      swap2\n      div\n      mul\n      0x20\n      add\n      mload(0x40)\n      swap1\n      dup2\n      add\n      0x40\n      mstore\n      dup1\n      swap3\n      swap2\n      swap1\n      dup2\n      dup2\n      mstore\n      0x20\n      add\n      dup3\n      dup1\n      sload\n      tag_129\n      swap1\n      tag_61\n      jump\t// in\n    tag_129:\n      dup1\n      iszero\n      tag_130\n      jumpi\n      dup1\n      0x1f\n      lt\n      tag_131\n      jumpi\n      0x0100\n      dup1\n      dup4\n      sload\n      div\n      mul\n      dup4\n      mstore\n      swap2\n      0x20\n      add\n      swap2\n      jump(tag_130)\n    tag_131:\n      dup3\n      add\n      swap2\n      swap1\n      0x00\n      mstore\n      keccak256(0x00, 0x20)\n      swap1\n    tag_132:\n      dup2\n      sload\n      dup2\n      mstore\n      swap1\n      0x01\n      add\n      swap1\n      0x20\n      add\n      dup1\n      dup4\n      gt\n      tag_132\n      jumpi\n      dup3\n      swap1\n      sub\n      0x1f\n      and\n      dup3\n      add\n      swap2\n    tag_130:\n      pop\n      pop\n      pop\n      pop\n      pop\n      swap1\n      pop\n      dup8\n      jump\t// out\n        /* \"contracts/TaskMaster.sol\":3423:3788  function uintToStringWithZeroPadding(uint256 value, uint256 length)... */\n    tag_45:\n        /* \"contracts/TaskMaster.sol\":3538:3551  string memory */\n      0x60\n        /* \"contracts/TaskMaster.sol\":3567:3586  bytes memory buffer */\n      0x00\n        /* \"contracts/TaskMaster.sol\":3599:3605  length */\n      dup3\n        /* \"contracts/TaskMaster.sol\":3589:3606  new bytes(length) */\n      0xffffffffffffffff\n      dup2\n      gt\n      iszero\n      tag_134\n      jumpi\n      tag_135\n      tag_136\n      jump\t// in\n    tag_135:\n    tag_134:\n      mload(0x40)\n      swap1\n      dup1\n      dup3\n      mstore\n      dup1\n      0x1f\n      add\n      not(0x1f)\n      and\n      0x20\n      add\n      dup3\n      add\n      0x40\n      mstore\n      dup1\n      iszero\n      tag_137\n      jumpi\n      dup2\n      0x20\n      add\n      0x01\n      dup3\n      mul\n      dup1\n      calldatasize\n      dup4\n      calldatacopy\n      dup1\n      dup3\n      add\n      swap2\n      pop\n      pop\n      swap1\n      pop\n    tag_137:\n      pop\n        /* \"contracts/TaskMaster.sol\":3567:3606  bytes memory buffer = new bytes(length) */\n      swap1\n      pop\n        /* \"contracts/TaskMaster.sol\":3621:3630  uint256 i */\n      0x00\n        /* \"contracts/TaskMaster.sol\":3633:3639  length */\n      dup4\n        /* \"contracts/TaskMaster.sol\":3621:3639  uint256 i = length */\n      swap1\n      pop\n        /* \"contracts/TaskMaster.sol\":3616:3751  for (uint256 i = length; i > 0; i--) {... */\n    tag_138:\n        /* \"contracts/TaskMaster.sol\":3645:3646  0 */\n      0x00\n        /* \"contracts/TaskMaster.sol\":3641:3642  i */\n      dup2\n        /* \"contracts/TaskMaster.sol\":3641:3646  i > 0 */\n      gt\n        /* \"contracts/TaskMaster.sol\":3616:3751  for (uint256 i = length; i > 0; i--) {... */\n      iszero\n      tag_139\n      jumpi\n        /* \"contracts/TaskMaster.sol\":3710:3712  10 */\n      0x0a\n        /* \"contracts/TaskMaster.sol\":3702:3707  value */\n      dup6\n        /* \"contracts/TaskMaster.sol\":3702:3712  value % 10 */\n      tag_141\n      swap2\n      swap1\n      tag_142\n      jump\t// in\n    tag_141:\n        /* \"contracts/TaskMaster.sol\":3696:3698  48 */\n      0x30\n        /* \"contracts/TaskMaster.sol\":3696:3713  48 + (value % 10) */\n      tag_143\n      swap2\n      swap1\n      tag_144\n      jump\t// in\n    tag_143:\n        /* \"contracts/TaskMaster.sol\":3683:3715  bytes1(uint8(48 + (value % 10))) */\n      0xf8\n      shl\n        /* \"contracts/TaskMaster.sol\":3667:3673  buffer */\n      dup3\n        /* \"contracts/TaskMaster.sol\":3678:3679  1 */\n      0x01\n        /* \"contracts/TaskMaster.sol\":3674:3675  i */\n      dup4\n        /* \"contracts/TaskMaster.sol\":3674:3679  i - 1 */\n      tag_145\n      swap2\n      swap1\n      tag_146\n      jump\t// in\n    tag_145:\n        /* \"contracts/TaskMaster.sol\":3667:3680  buffer[i - 1] */\n      dup2\n      mload\n      dup2\n      lt\n      tag_147\n      jumpi\n      tag_148\n      tag_105\n      jump\t// in\n    tag_148:\n    tag_147:\n      0x20\n      add\n      add\n        /* \"contracts/TaskMaster.sol\":3667:3715  buffer[i - 1] = bytes1(uint8(48 + (value % 10))) */\n      swap1\n      not(0xffffffffffffffffffffffffffffffffffffffffffffffffffffffffffffff)\n      and\n      swap1\n      dup2\n      0x00\n      byte\n      swap1\n      mstore8\n      pop\n        /* \"contracts/TaskMaster.sol\":3738:3740  10 */\n      0x0a\n        /* \"contracts/TaskMaster.sol\":3729:3740  value /= 10 */\n      dup6\n      tag_149\n      swap2\n      swap1\n      tag_150\n      jump\t// in\n    tag_149:\n      swap5\n      pop\n        /* \"contracts/TaskMaster.sol\":3648:3651  i-- */\n      dup1\n      dup1\n      tag_151\n      swap1\n      tag_152\n      jump\t// in\n    tag_151:\n      swap2\n      pop\n      pop\n        /* \"contracts/TaskMaster.sol\":3616:3751  for (uint256 i = length; i > 0; i--) {... */\n      jump(tag_138)\n    tag_139:\n      pop\n        /* \"contracts/TaskMaster.sol\":3774:3780  buffer */\n      dup1\n        /* \"contracts/TaskMaster.sol\":3760:3781  return string(buffer) */\n      swap2\n      pop\n      pop\n        /* \"contracts/TaskMaster.sol\":3423:3788  function uintToStringWithZeroPadding(uint256 value, uint256 length)... */\n      swap3\n      swap2\n      pop\n      pop\n      jump\t// out\n        /* \"#utility.yul\":7:82   */\n    tag_153:\n        /* \"#utility.yul\":40:46   */\n      0x00\n        /* \"#utility.yul\":73:75   */\n      0x40\n        /* \"#utility.yul\":67:76   */\n      mload\n        /* \"#utility.yul\":57:76   */\n      swap1\n      pop\n        /* \"#utility.yul\":7:82   */\n      swap1\n      jump\t// out\n        /* \"#utility.yul\":88:205   */\n    tag_154:\n        /* \"#utility.yul\":197:198   */\n      0x00\n        /* \"#utility.yul\":194:195   */\n      dup1\n        /* \"#utility.yul\":187:199   */\n      revert\n        /* \"#utility.yul\":211:328   */\n    tag_155:\n        /* \"#utility.yul\":320:321   */\n      0x00\n        /* \"#utility.yul\":317:318   */\n      dup1\n        /* \"#utility.yul\":310:322   */\n      revert\n        /* \"#utility.yul\":334:451   */\n    tag_156:\n        /* \"#utility.yul\":443:444   */\n      0x00\n        /* \"#utility.yul\":440:441   */\n      dup1\n        /* \"#utility.yul\":433:445   */\n      revert\n        /* \"#utility.yul\":457:574   */\n    tag_157:\n        /* \"#utility.yul\":566:567   */\n      0x00\n        /* \"#utility.yul\":563:564   */\n      dup1\n        /* \"#utility.yul\":556:568   */\n      revert\n        /* \"#utility.yul\":580:682   */\n    tag_158:\n        /* \"#utility.yul\":621:627   */\n      0x00\n        /* \"#utility.yul\":672:674   */\n      0x1f\n        /* \"#utility.yul\":668:675   */\n      not\n        /* \"#utility.yul\":663:665   */\n      0x1f\n        /* \"#utility.yul\":656:661   */\n      dup4\n        /* \"#utility.yul\":652:666   */\n      add\n        /* \"#utility.yul\":648:676   */\n      and\n        /* \"#utility.yul\":638:676   */\n      swap1\n      pop\n        /* \"#utility.yul\":580:682   */\n      swap2\n      swap1\n      pop\n      jump\t// out\n        /* \"#utility.yul\":688:868   */\n    tag_136:\n        /* \"#utility.yul\":736:813   */\n      0x4e487b7100000000000000000000000000000000000000000000000000000000\n        /* \"#utility.yul\":733:734   */\n      0x00\n        /* \"#utility.yul\":726:814   */\n      mstore\n        /* \"#utility.yul\":833:837   */\n      0x41\n        /* \"#utility.yul\":830:831   */\n      0x04\n        /* \"#utility.yul\":823:838   */\n      mstore\n        /* \"#utility.yul\":857:861   */\n      0x24\n        /* \"#utility.yul\":854:855   */\n      0x00\n        /* \"#utility.yul\":847:862   */\n      revert\n        /* \"#utility.yul\":874:1155   */\n    tag_159:\n        /* \"#utility.yul\":957:984   */\n      tag_217\n        /* \"#utility.yul\":979:983   */\n      dup3\n        /* \"#utility.yul\":957:984   */\n      tag_158\n      jump\t// in\n    tag_217:\n        /* \"#utility.yul\":949:955   */\n      dup2\n        /* \"#utility.yul\":945:985   */\n      add\n        /* \"#utility.yul\":1087:1093   */\n      dup2\n        /* \"#utility.yul\":1075:1085   */\n      dup2\n        /* \"#utility.yul\":1072:1094   */\n      lt\n        /* \"#utility.yul\":1051:1069   */\n      0xffffffffffffffff\n        /* \"#utility.yul\":1039:1049   */\n      dup3\n        /* \"#utility.yul\":1036:1070   */\n      gt\n        /* \"#utility.yul\":1033:1095   */\n      or\n        /* \"#utility.yul\":1030:1118   */\n      iszero\n      tag_218\n      jumpi\n        /* \"#utility.yul\":1098:1116   */\n      tag_219\n      tag_136\n      jump\t// in\n    tag_219:\n        /* \"#utility.yul\":1030:1118   */\n    tag_218:\n        /* \"#utility.yul\":1138:1148   */\n      dup1\n        /* \"#utility.yul\":1134:1136   */\n      0x40\n        /* \"#utility.yul\":1127:1149   */\n      mstore\n        /* \"#utility.yul\":917:1155   */\n      pop\n        /* \"#utility.yul\":874:1155   */\n      pop\n      pop\n      jump\t// out\n        /* \"#utility.yul\":1161:1290   */\n    tag_160:\n        /* \"#utility.yul\":1195:1201   */\n      0x00\n        /* \"#utility.yul\":1222:1242   */\n      tag_221\n      tag_153\n      jump\t// in\n    tag_221:\n        /* \"#utility.yul\":1212:1242   */\n      swap1\n      pop\n        /* \"#utility.yul\":1251:1284   */\n      tag_222\n        /* \"#utility.yul\":1279:1283   */\n      dup3\n        /* \"#utility.yul\":1271:1277   */\n      dup3\n        /* \"#utility.yul\":1251:1284   */\n      tag_159\n      jump\t// in\n    tag_222:\n        /* \"#utility.yul\":1161:1290   */\n      swap2\n      swap1\n      pop\n      jump\t// out\n        /* \"#utility.yul\":1296:1603   */\n    tag_161:\n        /* \"#utility.yul\":1357:1361   */\n      0x00\n        /* \"#utility.yul\":1447:1465   */\n      0xffffffffffffffff\n        /* \"#utility.yul\":1439:1445   */\n      dup3\n        /* \"#utility.yul\":1436:1466   */\n      gt\n        /* \"#utility.yul\":1433:1489   */\n      iszero\n      tag_224\n      jumpi\n        /* \"#utility.yul\":1469:1487   */\n      tag_225\n      tag_136\n      jump\t// in\n    tag_225:\n        /* \"#utility.yul\":1433:1489   */\n    tag_224:\n        /* \"#utility.yul\":1507:1536   */\n      tag_226\n        /* \"#utility.yul\":1529:1535   */\n      dup3\n        /* \"#utility.yul\":1507:1536   */\n      tag_158\n      jump\t// in\n    tag_226:\n        /* \"#utility.yul\":1499:1536   */\n      swap1\n      pop\n        /* \"#utility.yul\":1591:1595   */\n      0x20\n        /* \"#utility.yul\":1585:1589   */\n      dup2\n        /* \"#utility.yul\":1581:1596   */\n      add\n        /* \"#utility.yul\":1573:1596   */\n      swap1\n      pop\n        /* \"#utility.yul\":1296:1603   */\n      swap2\n      swap1\n      pop\n      jump\t// out\n        /* \"#utility.yul\":1609:1757   */\n    tag_162:\n        /* \"#utility.yul\":1707:1713   */\n      dup3\n        /* \"#utility.yul\":1702:1705   */\n      dup2\n        /* \"#utility.yul\":1697:1700   */\n      dup4\n        /* \"#utility.yul\":1684:1714   */\n      calldatacopy\n        /* \"#utility.yul\":1748:1749   */\n      0x00\n        /* \"#utility.yul\":1739:1745   */\n      dup4\n        /* \"#utility.yul\":1734:1737   */\n      dup4\n        /* \"#utility.yul\":1730:1746   */\n      add\n        /* \"#utility.yul\":1723:1750   */\n      mstore\n        /* \"#utility.yul\":1609:1757   */\n      pop\n      pop\n      pop\n      jump\t// out\n        /* \"#utility.yul\":1763:2186   */\n    tag_163:\n        /* \"#utility.yul\":1840:1845   */\n      0x00\n        /* \"#utility.yul\":1865:1930   */\n      tag_229\n        /* \"#utility.yul\":1881:1929   */\n      tag_230\n        /* \"#utility.yul\":1922:1928   */\n      dup5\n        /* \"#utility.yul\":1881:1929   */\n      tag_161\n      jump\t// in\n    tag_230:\n        /* \"#utility.yul\":1865:1930   */\n      tag_160\n      jump\t// in\n    tag_229:\n        /* \"#utility.yul\":1856:1930   */\n      swap1\n      pop\n        /* \"#utility.yul\":1953:1959   */\n      dup3\n        /* \"#utility.yul\":1946:1951   */\n      dup2\n        /* \"#utility.yul\":1939:1960   */\n      mstore\n        /* \"#utility.yul\":1991:1995   */\n      0x20\n        /* \"#utility.yul\":1984:1989   */\n      dup2\n        /* \"#utility.yul\":1980:1996   */\n      add\n        /* \"#utility.yul\":2029:2032   */\n      dup5\n        /* \"#utility.yul\":2020:2026   */\n      dup5\n        /* \"#utility.yul\":2015:2018   */\n      dup5\n        /* \"#utility.yul\":2011:2027   */\n      add\n        /* \"#utility.yul\":2008:2033   */\n      gt\n        /* \"#utility.yul\":2005:2117   */\n      iszero\n      tag_231\n      jumpi\n        /* \"#utility.yul\":2036:2115   */\n      tag_232\n      tag_157\n      jump\t// in\n    tag_232:\n        /* \"#utility.yul\":2005:2117   */\n    tag_231:\n        /* \"#utility.yul\":2126:2180   */\n      tag_233\n        /* \"#utility.yul\":2173:2179   */\n      dup5\n        /* \"#utility.yul\":2168:2171   */\n      dup3\n        /* \"#utility.yul\":2163:2166   */\n      dup6\n        /* \"#utility.yul\":2126:2180   */\n      tag_162\n      jump\t// in\n    tag_233:\n        /* \"#utility.yul\":1846:2186   */\n      pop\n        /* \"#utility.yul\":1763:2186   */\n      swap4\n      swap3\n      pop\n      pop\n      pop\n      jump\t// out\n        /* \"#utility.yul\":2205:2543   */\n    tag_164:\n        /* \"#utility.yul\":2260:2265   */\n      0x00\n        /* \"#utility.yul\":2309:2312   */\n      dup3\n        /* \"#utility.yul\":2302:2306   */\n      0x1f\n        /* \"#utility.yul\":2294:2300   */\n      dup4\n        /* \"#utility.yul\":2290:2307   */\n      add\n        /* \"#utility.yul\":2286:2313   */\n      slt\n        /* \"#utility.yul\":2276:2398   */\n      tag_235\n      jumpi\n        /* \"#utility.yul\":2317:2396   */\n      tag_236\n      tag_156\n      jump\t// in\n    tag_236:\n        /* \"#utility.yul\":2276:2398   */\n    tag_235:\n        /* \"#utility.yul\":2434:2440   */\n      dup2\n        /* \"#utility.yul\":2421:2441   */\n      calldataload\n        /* \"#utility.yul\":2459:2537   */\n      tag_237\n        /* \"#utility.yul\":2533:2536   */\n      dup5\n        /* \"#utility.yul\":2525:2531   */\n      dup3\n        /* \"#utility.yul\":2518:2522   */\n      0x20\n        /* \"#utility.yul\":2510:2516   */\n      dup7\n        /* \"#utility.yul\":2506:2523   */\n      add\n        /* \"#utility.yul\":2459:2537   */\n      tag_163\n      jump\t// in\n    tag_237:\n        /* \"#utility.yul\":2450:2537   */\n      swap2\n      pop\n        /* \"#utility.yul\":2266:2543   */\n      pop\n        /* \"#utility.yul\":2205:2543   */\n      swap3\n      swap2\n      pop\n      pop\n      jump\t// out\n        /* \"#utility.yul\":2549:2625   */\n    tag_165:\n        /* \"#utility.yul\":2585:2592   */\n      0x00\n        /* \"#utility.yul\":2614:2619   */\n      dup2\n        /* \"#utility.yul\":2603:2619   */\n      swap1\n      pop\n        /* \"#utility.yul\":2549:2625   */\n      swap2\n      swap1\n      pop\n      jump\t// out\n        /* \"#utility.yul\":2631:2751   */\n    tag_166:\n        /* \"#utility.yul\":2703:2726   */\n      tag_240\n        /* \"#utility.yul\":2720:2725   */\n      dup2\n        /* \"#utility.yul\":2703:2726   */\n      tag_165\n      jump\t// in\n    tag_240:\n        /* \"#utility.yul\":2696:2701   */\n      dup2\n        /* \"#utility.yul\":2693:2727   */\n      eq\n        /* \"#utility.yul\":2683:2745   */\n      tag_241\n      jumpi\n        /* \"#utility.yul\":2741:2742   */\n      0x00\n        /* \"#utility.yul\":2738:2739   */\n      dup1\n        /* \"#utility.yul\":2731:2743   */\n      revert\n        /* \"#utility.yul\":2683:2745   */\n    tag_241:\n        /* \"#utility.yul\":2631:2751   */\n      pop\n      jump\t// out\n        /* \"#utility.yul\":2757:2894   */\n    tag_167:\n        /* \"#utility.yul\":2802:2807   */\n      0x00\n        /* \"#utility.yul\":2840:2846   */\n      dup2\n        /* \"#utility.yul\":2827:2847   */\n      calldataload\n        /* \"#utility.yul\":2818:2847   */\n      swap1\n      pop\n        /* \"#utility.yul\":2856:2888   */\n      tag_243\n        /* \"#utility.yul\":2882:2887   */\n      dup2\n        /* \"#utility.yul\":2856:2888   */\n      tag_166\n      jump\t// in\n    tag_243:\n        /* \"#utility.yul\":2757:2894   */\n      swap3\n      swap2\n      pop\n      pop\n      jump\t// out\n        /* \"#utility.yul\":2900:4989   */\n    tag_10:\n        /* \"#utility.yul\":3056:3062   */\n      0x00\n        /* \"#utility.yul\":3064:3070   */\n      dup1\n        /* \"#utility.yul\":3072:3078   */\n      0x00\n        /* \"#utility.yul\":3080:3086   */\n      dup1\n        /* \"#utility.yul\":3088:3094   */\n      0x00\n        /* \"#utility.yul\":3096:3102   */\n      dup1\n        /* \"#utility.yul\":3104:3110   */\n      0x00\n        /* \"#utility.yul\":3153:3156   */\n      0xe0\n        /* \"#utility.yul\":3141:3150   */\n      dup9\n        /* \"#utility.yul\":3132:3139   */\n      dup11\n        /* \"#utility.yul\":3128:3151   */\n      sub\n        /* \"#utility.yul\":3124:3157   */\n      slt\n        /* \"#utility.yul\":3121:3241   */\n      iszero\n      tag_245\n      jumpi\n        /* \"#utility.yul\":3160:3239   */\n      tag_246\n      tag_154\n      jump\t// in\n    tag_246:\n        /* \"#utility.yul\":3121:3241   */\n    tag_245:\n        /* \"#utility.yul\":3308:3309   */\n      0x00\n        /* \"#utility.yul\":3297:3306   */\n      dup9\n        /* \"#utility.yul\":3293:3310   */\n      add\n        /* \"#utility.yul\":3280:3311   */\n      calldataload\n        /* \"#utility.yul\":3338:3356   */\n      0xffffffffffffffff\n        /* \"#utility.yul\":3330:3336   */\n      dup2\n        /* \"#utility.yul\":3327:3357   */\n      gt\n        /* \"#utility.yul\":3324:3441   */\n      iszero\n      tag_247\n      jumpi\n        /* \"#utility.yul\":3360:3439   */\n      tag_248\n      tag_155\n      jump\t// in\n    tag_248:\n        /* \"#utility.yul\":3324:3441   */\n    tag_247:\n        /* \"#utility.yul\":3465:3527   */\n      tag_249\n        /* \"#utility.yul\":3519:3526   */\n      dup11\n        /* \"#utility.yul\":3510:3516   */\n      dup3\n        /* \"#utility.yul\":3499:3508   */\n      dup12\n        /* \"#utility.yul\":3495:3517   */\n      add\n        /* \"#utility.yul\":3465:3527   */\n      tag_164\n      jump\t// in\n    tag_249:\n        /* \"#utility.yul\":3455:3527   */\n      swap8\n      pop\n        /* \"#utility.yul\":3251:3537   */\n      pop\n        /* \"#utility.yul\":3604:3606   */\n      0x20\n        /* \"#utility.yul\":3593:3602   */\n      dup9\n        /* \"#utility.yul\":3589:3607   */\n      add\n        /* \"#utility.yul\":3576:3608   */\n      calldataload\n        /* \"#utility.yul\":3635:3653   */\n      0xffffffffffffffff\n        /* \"#utility.yul\":3627:3633   */\n      dup2\n        /* \"#utility.yul\":3624:3654   */\n      gt\n        /* \"#utility.yul\":3621:3738   */\n      iszero\n      tag_250\n      jumpi\n        /* \"#utility.yul\":3657:3736   */\n      tag_251\n      tag_155\n      jump\t// in\n    tag_251:\n        /* \"#utility.yul\":3621:3738   */\n    tag_250:\n        /* \"#utility.yul\":3762:3824   */\n      tag_252\n        /* \"#utility.yul\":3816:3823   */\n      dup11\n        /* \"#utility.yul\":3807:3813   */\n      dup3\n        /* \"#utility.yul\":3796:3805   */\n      dup12\n        /* \"#utility.yul\":3792:3814   */\n      add\n        /* \"#utility.yul\":3762:3824   */\n      tag_164\n      jump\t// in\n    tag_252:\n        /* \"#utility.yul\":3752:3824   */\n      swap7\n      pop\n        /* \"#utility.yul\":3547:3834   */\n      pop\n        /* \"#utility.yul\":3873:3875   */\n      0x40\n        /* \"#utility.yul\":3899:3951   */\n      tag_253\n        /* \"#utility.yul\":3943:3950   */\n      dup11\n        /* \"#utility.yul\":3934:3940   */\n      dup3\n        /* \"#utility.yul\":3923:3932   */\n      dup12\n        /* \"#utility.yul\":3919:3941   */\n      add\n        /* \"#utility.yul\":3899:3951   */\n      tag_167\n      jump\t// in\n    tag_253:\n        /* \"#utility.yul\":3889:3951   */\n      swap6\n      pop\n        /* \"#utility.yul\":3844:3961   */\n      pop\n        /* \"#utility.yul\":4028:4030   */\n      0x60\n        /* \"#utility.yul\":4017:4026   */\n      dup9\n        /* \"#utility.yul\":4013:4031   */\n      add\n        /* \"#utility.yul\":4000:4032   */\n      calldataload\n        /* \"#utility.yul\":4059:4077   */\n      0xffffffffffffffff\n        /* \"#utility.yul\":4051:4057   */\n      dup2\n        /* \"#utility.yul\":4048:4078   */\n      gt\n        /* \"#utility.yul\":4045:4162   */\n      iszero\n      tag_254\n      jumpi\n        /* \"#utility.yul\":4081:4160   */\n      tag_255\n      tag_155\n      jump\t// in\n    tag_255:\n        /* \"#utility.yul\":4045:4162   */\n    tag_254:\n        /* \"#utility.yul\":4186:4248   */\n      tag_256\n        /* \"#utility.yul\":4240:4247   */\n      dup11\n        /* \"#utility.yul\":4231:4237   */\n      dup3\n        /* \"#utility.yul\":4220:4229   */\n      dup12\n        /* \"#utility.yul\":4216:4238   */\n      add\n        /* \"#utility.yul\":4186:4248   */\n      tag_164\n      jump\t// in\n    tag_256:\n        /* \"#utility.yul\":4176:4248   */\n      swap5\n      pop\n        /* \"#utility.yul\":3971:4258   */\n      pop\n        /* \"#utility.yul\":4325:4328   */\n      0x80\n        /* \"#utility.yul\":4314:4323   */\n      dup9\n        /* \"#utility.yul\":4310:4329   */\n      add\n        /* \"#utility.yul\":4297:4330   */\n      calldataload\n        /* \"#utility.yul\":4357:4375   */\n      0xffffffffffffffff\n        /* \"#utility.yul\":4349:4355   */\n      dup2\n        /* \"#utility.yul\":4346:4376   */\n      gt\n        /* \"#utility.yul\":4343:4460   */\n      iszero\n      tag_257\n      jumpi\n        /* \"#utility.yul\":4379:4458   */\n      tag_258\n      tag_155\n      jump\t// in\n    tag_258:\n        /* \"#utility.yul\":4343:4460   */\n    tag_257:\n        /* \"#utility.yul\":4484:4546   */\n      tag_259\n        /* \"#utility.yul\":4538:4545   */\n      dup11\n        /* \"#utility.yul\":4529:4535   */\n      dup3\n        /* \"#utility.yul\":4518:4527   */\n      dup12\n        /* \"#utility.yul\":4514:4536   */\n      add\n        /* \"#utility.yul\":4484:4546   */\n      tag_164\n      jump\t// in\n    tag_259:\n        /* \"#utility.yul\":4474:4546   */\n      swap4\n      pop\n        /* \"#utility.yul\":4268:4556   */\n      pop\n        /* \"#utility.yul\":4595:4598   */\n      0xa0\n        /* \"#utility.yul\":4622:4674   */\n      tag_260\n        /* \"#utility.yul\":4666:4673   */\n      dup11\n        /* \"#utility.yul\":4657:4663   */\n      dup3\n        /* \"#utility.yul\":4646:4655   */\n      dup12\n        /* \"#utility.yul\":4642:4664   */\n      add\n        /* \"#utility.yul\":4622:4674   */\n      tag_167\n      jump\t// in\n    tag_260:\n        /* \"#utility.yul\":4612:4674   */\n      swap3\n      pop\n        /* \"#utility.yul\":4566:4684   */\n      pop\n        /* \"#utility.yul\":4751:4754   */\n      0xc0\n        /* \"#utility.yul\":4740:4749   */\n      dup9\n        /* \"#utility.yul\":4736:4755   */\n      add\n        /* \"#utility.yul\":4723:4756   */\n      calldataload\n        /* \"#utility.yul\":4783:4801   */\n      0xffffffffffffffff\n        /* \"#utility.yul\":4775:4781   */\n      dup2\n        /* \"#utility.yul\":4772:4802   */\n      gt\n        /* \"#utility.yul\":4769:4886   */\n      iszero\n      tag_261\n      jumpi\n        /* \"#utility.yul\":4805:4884   */\n      tag_262\n      tag_155\n      jump\t// in\n    tag_262:\n        /* \"#utility.yul\":4769:4886   */\n    tag_261:\n        /* \"#utility.yul\":4910:4972   */\n      tag_263\n        /* \"#utility.yul\":4964:4971   */\n      dup11\n        /* \"#utility.yul\":4955:4961   */\n      dup3\n        /* \"#utility.yul\":4944:4953   */\n      dup12\n        /* \"#utility.yul\":4940:4962   */\n      add\n        /* \"#utility.yul\":4910:4972   */\n      tag_164\n      jump\t// in\n    tag_263:\n        /* \"#utility.yul\":4900:4972   */\n      swap2\n      pop\n        /* \"#utility.yul\":4694:4982   */\n      pop\n        /* \"#utility.yul\":2900:4989   */\n      swap3\n      swap6\n      swap9\n      swap2\n      swap5\n      swap8\n      pop\n      swap3\n      swap6\n      pop\n      jump\t// out\n        /* \"#utility.yul\":4995:5085   */\n    tag_168:\n        /* \"#utility.yul\":5029:5036   */\n      0x00\n        /* \"#utility.yul\":5072:5077   */\n      dup2\n        /* \"#utility.yul\":5065:5078   */\n      iszero\n        /* \"#utility.yul\":5058:5079   */\n      iszero\n        /* \"#utility.yul\":5047:5079   */\n      swap1\n      pop\n        /* \"#utility.yul\":4995:5085   */\n      swap2\n      swap1\n      pop\n      jump\t// out\n        /* \"#utility.yul\":5091:5200   */\n    tag_169:\n        /* \"#utility.yul\":5172:5193   */\n      tag_266\n        /* \"#utility.yul\":5187:5192   */\n      dup2\n        /* \"#utility.yul\":5172:5193   */\n      tag_168\n      jump\t// in\n    tag_266:\n        /* \"#utility.yul\":5167:5170   */\n      dup3\n        /* \"#utility.yul\":5160:5194   */\n      mstore\n        /* \"#utility.yul\":5091:5200   */\n      pop\n      pop\n      jump\t// out\n        /* \"#utility.yul\":5206:5305   */\n    tag_170:\n        /* \"#utility.yul\":5258:5264   */\n      0x00\n        /* \"#utility.yul\":5292:5297   */\n      dup2\n        /* \"#utility.yul\":5286:5298   */\n      mload\n        /* \"#utility.yul\":5276:5298   */\n      swap1\n      pop\n        /* \"#utility.yul\":5206:5305   */\n      swap2\n      swap1\n      pop\n      jump\t// out\n        /* \"#utility.yul\":5311:5480   */\n    tag_171:\n        /* \"#utility.yul\":5395:5406   */\n      0x00\n        /* \"#utility.yul\":5429:5435   */\n      dup3\n        /* \"#utility.yul\":5424:5427   */\n      dup3\n        /* \"#utility.yul\":5417:5436   */\n      mstore\n        /* \"#utility.yul\":5469:5473   */\n      0x20\n        /* \"#utility.yul\":5464:5467   */\n      dup3\n        /* \"#utility.yul\":5460:5474   */\n      add\n        /* \"#utility.yul\":5445:5474   */\n      swap1\n      pop\n        /* \"#utility.yul\":5311:5480   */\n      swap3\n      swap2\n      pop\n      pop\n      jump\t// out\n        /* \"#utility.yul\":5486:5625   */\n    tag_172:\n        /* \"#utility.yul\":5575:5581   */\n      dup3\n        /* \"#utility.yul\":5570:5573   */\n      dup2\n        /* \"#utility.yul\":5565:5568   */\n      dup4\n        /* \"#utility.yul\":5559:5582   */\n      mcopy\n        /* \"#utility.yul\":5616:5617   */\n      0x00\n        /* \"#utility.yul\":5607:5613   */\n      dup4\n        /* \"#utility.yul\":5602:5605   */\n      dup4\n        /* \"#utility.yul\":5598:5614   */\n      add\n        /* \"#utility.yul\":5591:5618   */\n      mstore\n        /* \"#utility.yul\":5486:5625   */\n      pop\n      pop\n      pop\n      jump\t// out\n        /* \"#utility.yul\":5631:6008   */\n    tag_173:\n        /* \"#utility.yul\":5719:5722   */\n      0x00\n        /* \"#utility.yul\":5747:5786   */\n      tag_271\n        /* \"#utility.yul\":5780:5785   */\n      dup3\n        /* \"#utility.yul\":5747:5786   */\n      tag_170\n      jump\t// in\n    tag_271:\n        /* \"#utility.yul\":5802:5873   */\n      tag_272\n        /* \"#utility.yul\":5866:5872   */\n      dup2\n        /* \"#utility.yul\":5861:5864   */\n      dup6\n        /* \"#utility.yul\":5802:5873   */\n      tag_171\n      jump\t// in\n    tag_272:\n        /* \"#utility.yul\":5795:5873   */\n      swap4\n      pop\n        /* \"#utility.yul\":5882:5947   */\n      tag_273\n        /* \"#utility.yul\":5940:5946   */\n      dup2\n        /* \"#utility.yul\":5935:5938   */\n      dup6\n        /* \"#utility.yul\":5928:5932   */\n      0x20\n        /* \"#utility.yul\":5921:5926   */\n      dup7\n        /* \"#utility.yul\":5917:5933   */\n      add\n        /* \"#utility.yul\":5882:5947   */\n      tag_172\n      jump\t// in\n    tag_273:\n        /* \"#utility.yul\":5972:6001   */\n      tag_274\n        /* \"#utility.yul\":5994:6000   */\n      dup2\n        /* \"#utility.yul\":5972:6001   */\n      tag_158\n      jump\t// in\n    tag_274:\n        /* \"#utility.yul\":5967:5970   */\n      dup5\n        /* \"#utility.yul\":5963:6002   */\n      add\n        /* \"#utility.yul\":5956:6002   */\n      swap2\n      pop\n        /* \"#utility.yul\":5723:6008   */\n      pop\n        /* \"#utility.yul\":5631:6008   */\n      swap3\n      swap2\n      pop\n      pop\n      jump\t// out\n        /* \"#utility.yul\":6014:6425   */\n    tag_13:\n        /* \"#utility.yul\":6149:6153   */\n      0x00\n        /* \"#utility.yul\":6187:6189   */\n      0x40\n        /* \"#utility.yul\":6176:6185   */\n      dup3\n        /* \"#utility.yul\":6172:6190   */\n      add\n        /* \"#utility.yul\":6164:6190   */\n      swap1\n      pop\n        /* \"#utility.yul\":6200:6265   */\n      tag_276\n        /* \"#utility.yul\":6262:6263   */\n      0x00\n        /* \"#utility.yul\":6251:6260   */\n      dup4\n        /* \"#utility.yul\":6247:6264   */\n      add\n        /* \"#utility.yul\":6238:6244   */\n      dup6\n        /* \"#utility.yul\":6200:6265   */\n      tag_169\n      jump\t// in\n    tag_276:\n        /* \"#utility.yul\":6312:6321   */\n      dup2\n        /* \"#utility.yul\":6306:6310   */\n      dup2\n        /* \"#utility.yul\":6302:6322   */\n      sub\n        /* \"#utility.yul\":6297:6299   */\n      0x20\n        /* \"#utility.yul\":6286:6295   */\n      dup4\n        /* \"#utility.yul\":6282:6300   */\n      add\n        /* \"#utility.yul\":6275:6323   */\n      mstore\n        /* \"#utility.yul\":6340:6418   */\n      tag_277\n        /* \"#utility.yul\":6413:6417   */\n      dup2\n        /* \"#utility.yul\":6404:6410   */\n      dup5\n        /* \"#utility.yul\":6340:6418   */\n      tag_173\n      jump\t// in\n    tag_277:\n        /* \"#utility.yul\":6332:6418   */\n      swap1\n      pop\n        /* \"#utility.yul\":6014:6425   */\n      swap4\n      swap3\n      pop\n      pop\n      pop\n      jump\t// out\n        /* \"#utility.yul\":6431:6739   */\n    tag_174:\n        /* \"#utility.yul\":6493:6497   */\n      0x00\n        /* \"#utility.yul\":6583:6601   */\n      0xffffffffffffffff\n        /* \"#utility.yul\":6575:6581   */\n      dup3\n        /* \"#utility.yul\":6572:6602   */\n      gt\n        /* \"#utility.yul\":6569:6625   */\n      iszero\n      tag_279\n      jumpi\n        /* \"#utility.yul\":6605:6623   */\n      tag_280\n      tag_136\n      jump\t// in\n    tag_280:\n        /* \"#utility.yul\":6569:6625   */\n    tag_279:\n        /* \"#utility.yul\":6643:6672   */\n      tag_281\n        /* \"#utility.yul\":6665:6671   */\n      dup3\n        /* \"#utility.yul\":6643:6672   */\n      tag_158\n      jump\t// in\n    tag_281:\n        /* \"#utility.yul\":6635:6672   */\n      swap1\n      pop\n        /* \"#utility.yul\":6727:6731   */\n      0x20\n        /* \"#utility.yul\":6721:6725   */\n      dup2\n        /* \"#utility.yul\":6717:6732   */\n      add\n        /* \"#utility.yul\":6709:6732   */\n      swap1\n      pop\n        /* \"#utility.yul\":6431:6739   */\n      swap2\n      swap1\n      pop\n      jump\t// out\n        /* \"#utility.yul\":6745:7170   */\n    tag_175:\n        /* \"#utility.yul\":6823:6828   */\n      0x00\n        /* \"#utility.yul\":6848:6914   */\n      tag_283\n        /* \"#utility.yul\":6864:6913   */\n      tag_284\n        /* \"#utility.yul\":6906:6912   */\n      dup5\n        /* \"#utility.yul\":6864:6913   */\n      tag_174\n      jump\t// in\n    tag_284:\n        /* \"#utility.yul\":6848:6914   */\n      tag_160\n      jump\t// in\n    tag_283:\n        /* \"#utility.yul\":6839:6914   */\n      swap1\n      pop\n        /* \"#utility.yul\":6937:6943   */\n      dup3\n        /* \"#utility.yul\":6930:6935   */\n      dup2\n        /* \"#utility.yul\":6923:6944   */\n      mstore\n        /* \"#utility.yul\":6975:6979   */\n      0x20\n        /* \"#utility.yul\":6968:6973   */\n      dup2\n        /* \"#utility.yul\":6964:6980   */\n      add\n        /* \"#utility.yul\":7013:7016   */\n      dup5\n        /* \"#utility.yul\":7004:7010   */\n      dup5\n        /* \"#utility.yul\":6999:7002   */\n      dup5\n        /* \"#utility.yul\":6995:7011   */\n      add\n        /* \"#utility.yul\":6992:7017   */\n      gt\n        /* \"#utility.yul\":6989:7101   */\n      iszero\n      tag_285\n      jumpi\n        /* \"#utility.yul\":7020:7099   */\n      tag_286\n      tag_157\n      jump\t// in\n    tag_286:\n        /* \"#utility.yul\":6989:7101   */\n    tag_285:\n        /* \"#utility.yul\":7110:7164   */\n      tag_287\n        /* \"#utility.yul\":7157:7163   */\n      dup5\n        /* \"#utility.yul\":7152:7155   */\n      dup3\n        /* \"#utility.yul\":7147:7150   */\n      dup6\n        /* \"#utility.yul\":7110:7164   */\n      tag_162\n      jump\t// in\n    tag_287:\n        /* \"#utility.yul\":6829:7170   */\n      pop\n        /* \"#utility.yul\":6745:7170   */\n      swap4\n      swap3\n      pop\n      pop\n      pop\n      jump\t// out\n        /* \"#utility.yul\":7190:7530   */\n    tag_176:\n        /* \"#utility.yul\":7246:7251   */\n      0x00\n        /* \"#utility.yul\":7295:7298   */\n      dup3\n        /* \"#utility.yul\":7288:7292   */\n      0x1f\n        /* \"#utility.yul\":7280:7286   */\n      dup4\n        /* \"#utility.yul\":7276:7293   */\n      add\n        /* \"#utility.yul\":7272:7299   */\n      slt\n        /* \"#utility.yul\":7262:7384   */\n      tag_289\n      jumpi\n        /* \"#utility.yul\":7303:7382   */\n      tag_290\n      tag_156\n      jump\t// in\n    tag_290:\n        /* \"#utility.yul\":7262:7384   */\n    tag_289:\n        /* \"#utility.yul\":7420:7426   */\n      dup2\n        /* \"#utility.yul\":7407:7427   */\n      calldataload\n        /* \"#utility.yul\":7445:7524   */\n      tag_291\n        /* \"#utility.yul\":7520:7523   */\n      dup5\n        /* \"#utility.yul\":7512:7518   */\n      dup3\n        /* \"#utility.yul\":7505:7509   */\n      0x20\n        /* \"#utility.yul\":7497:7503   */\n      dup7\n        /* \"#utility.yul\":7493:7510   */\n      add\n        /* \"#utility.yul\":7445:7524   */\n      tag_175\n      jump\t// in\n    tag_291:\n        /* \"#utility.yul\":7436:7524   */\n      swap2\n      pop\n        /* \"#utility.yul\":7252:7530   */\n      pop\n        /* \"#utility.yul\":7190:7530   */\n      swap3\n      swap2\n      pop\n      pop\n      jump\t// out\n        /* \"#utility.yul\":7536:8045   */\n    tag_16:\n        /* \"#utility.yul\":7605:7611   */\n      0x00\n        /* \"#utility.yul\":7654:7656   */\n      0x20\n        /* \"#utility.yul\":7642:7651   */\n      dup3\n        /* \"#utility.yul\":7633:7640   */\n      dup5\n        /* \"#utility.yul\":7629:7652   */\n      sub\n        /* \"#utility.yul\":7625:7657   */\n      slt\n        /* \"#utility.yul\":7622:7741   */\n      iszero\n      tag_293\n      jumpi\n        /* \"#utility.yul\":7660:7739   */\n      tag_294\n      tag_154\n      jump\t// in\n    tag_294:\n        /* \"#utility.yul\":7622:7741   */\n    tag_293:\n        /* \"#utility.yul\":7808:7809   */\n      0x00\n        /* \"#utility.yul\":7797:7806   */\n      dup3\n        /* \"#utility.yul\":7793:7810   */\n      add\n        /* \"#utility.yul\":7780:7811   */\n      calldataload\n        /* \"#utility.yul\":7838:7856   */\n      0xffffffffffffffff\n        /* \"#utility.yul\":7830:7836   */\n      dup2\n        /* \"#utility.yul\":7827:7857   */\n      gt\n        /* \"#utility.yul\":7824:7941   */\n      iszero\n      tag_295\n      jumpi\n        /* \"#utility.yul\":7860:7939   */\n      tag_296\n      tag_155\n      jump\t// in\n    tag_296:\n        /* \"#utility.yul\":7824:7941   */\n    tag_295:\n        /* \"#utility.yul\":7965:8028   */\n      tag_297\n        /* \"#utility.yul\":8020:8027   */\n      dup5\n        /* \"#utility.yul\":8011:8017   */\n      dup3\n        /* \"#utility.yul\":8000:8009   */\n      dup6\n        /* \"#utility.yul\":7996:8018   */\n      add\n        /* \"#utility.yul\":7965:8028   */\n      tag_176\n      jump\t// in\n    tag_297:\n        /* \"#utility.yul\":7955:8028   */\n      swap2\n      pop\n        /* \"#utility.yul\":7751:8038   */\n      pop\n        /* \"#utility.yul\":7536:8045   */\n      swap3\n      swap2\n      pop\n      pop\n      jump\t// out\n        /* \"#utility.yul\":8051:8166   */\n    tag_177:\n        /* \"#utility.yul\":8136:8159   */\n      tag_299\n        /* \"#utility.yul\":8153:8158   */\n      dup2\n        /* \"#utility.yul\":8136:8159   */\n      tag_165\n      jump\t// in\n    tag_299:\n        /* \"#utility.yul\":8131:8134   */\n      dup3\n        /* \"#utility.yul\":8124:8160   */\n      mstore\n        /* \"#utility.yul\":8051:8166   */\n      pop\n      pop\n      jump\t// out\n        /* \"#utility.yul\":8172:9806   */\n    tag_19:\n        /* \"#utility.yul\":8599:8603   */\n      0x00\n        /* \"#utility.yul\":8637:8640   */\n      0x0120\n        /* \"#utility.yul\":8626:8635   */\n      dup3\n        /* \"#utility.yul\":8622:8641   */\n      add\n        /* \"#utility.yul\":8614:8641   */\n      swap1\n      pop\n        /* \"#utility.yul\":8687:8696   */\n      dup2\n        /* \"#utility.yul\":8681:8685   */\n      dup2\n        /* \"#utility.yul\":8677:8697   */\n      sub\n        /* \"#utility.yul\":8673:8674   */\n      0x00\n        /* \"#utility.yul\":8662:8671   */\n      dup4\n        /* \"#utility.yul\":8658:8675   */\n      add\n        /* \"#utility.yul\":8651:8698   */\n      mstore\n        /* \"#utility.yul\":8715:8793   */\n      tag_301\n        /* \"#utility.yul\":8788:8792   */\n      dup2\n        /* \"#utility.yul\":8779:8785   */\n      dup13\n        /* \"#utility.yul\":8715:8793   */\n      tag_173\n      jump\t// in\n    tag_301:\n        /* \"#utility.yul\":8707:8793   */\n      swap1\n      pop\n        /* \"#utility.yul\":8840:8849   */\n      dup2\n        /* \"#utility.yul\":8834:8838   */\n      dup2\n        /* \"#utility.yul\":8830:8850   */\n      sub\n        /* \"#utility.yul\":8825:8827   */\n      0x20\n        /* \"#utility.yul\":8814:8823   */\n      dup4\n        /* \"#utility.yul\":8810:8828   */\n      add\n        /* \"#utility.yul\":8803:8851   */\n      mstore\n        /* \"#utility.yul\":8868:8946   */\n      tag_302\n        /* \"#utility.yul\":8941:8945   */\n      dup2\n        /* \"#utility.yul\":8932:8938   */\n      dup12\n        /* \"#utility.yul\":8868:8946   */\n      tag_173\n      jump\t// in\n    tag_302:\n        /* \"#utility.yul\":8860:8946   */\n      swap1\n      pop\n        /* \"#utility.yul\":8956:9026   */\n      tag_303\n        /* \"#utility.yul\":9022:9024   */\n      0x40\n        /* \"#utility.yul\":9011:9020   */\n      dup4\n        /* \"#utility.yul\":9007:9025   */\n      add\n        /* \"#utility.yul\":8998:9004   */\n      dup11\n        /* \"#utility.yul\":8956:9026   */\n      tag_177\n      jump\t// in\n    tag_303:\n        /* \"#utility.yul\":9073:9082   */\n      dup2\n        /* \"#utility.yul\":9067:9071   */\n      dup2\n        /* \"#utility.yul\":9063:9083   */\n      sub\n        /* \"#utility.yul\":9058:9060   */\n      0x60\n        /* \"#utility.yul\":9047:9056   */\n      dup4\n        /* \"#utility.yul\":9043:9061   */\n      add\n        /* \"#utility.yul\":9036:9084   */\n      mstore\n        /* \"#utility.yul\":9101:9179   */\n      tag_304\n        /* \"#utility.yul\":9174:9178   */\n      dup2\n        /* \"#utility.yul\":9165:9171   */\n      dup10\n        /* \"#utility.yul\":9101:9179   */\n      tag_173\n      jump\t// in\n    tag_304:\n        /* \"#utility.yul\":9093:9179   */\n      swap1\n      pop\n        /* \"#utility.yul\":9227:9236   */\n      dup2\n        /* \"#utility.yul\":9221:9225   */\n      dup2\n        /* \"#utility.yul\":9217:9237   */\n      sub\n        /* \"#utility.yul\":9211:9214   */\n      0x80\n        /* \"#utility.yul\":9200:9209   */\n      dup4\n        /* \"#utility.yul\":9196:9215   */\n      add\n        /* \"#utility.yul\":9189:9238   */\n      mstore\n        /* \"#utility.yul\":9255:9333   */\n      tag_305\n        /* \"#utility.yul\":9328:9332   */\n      dup2\n        /* \"#utility.yul\":9319:9325   */\n      dup9\n        /* \"#utility.yul\":9255:9333   */\n      tag_173\n      jump\t// in\n    tag_305:\n        /* \"#utility.yul\":9247:9333   */\n      swap1\n      pop\n        /* \"#utility.yul\":9343:9414   */\n      tag_306\n        /* \"#utility.yul\":9409:9412   */\n      0xa0\n        /* \"#utility.yul\":9398:9407   */\n      dup4\n        /* \"#utility.yul\":9394:9413   */\n      add\n        /* \"#utility.yul\":9385:9391   */\n      dup8\n        /* \"#utility.yul\":9343:9414   */\n      tag_177\n      jump\t// in\n    tag_306:\n        /* \"#utility.yul\":9462:9471   */\n      dup2\n        /* \"#utility.yul\":9456:9460   */\n      dup2\n        /* \"#utility.yul\":9452:9472   */\n      sub\n        /* \"#utility.yul\":9446:9449   */\n      0xc0\n        /* \"#utility.yul\":9435:9444   */\n      dup4\n        /* \"#utility.yul\":9431:9450   */\n      add\n        /* \"#utility.yul\":9424:9473   */\n      mstore\n        /* \"#utility.yul\":9490:9568   */\n      tag_307\n        /* \"#utility.yul\":9563:9567   */\n      dup2\n        /* \"#utility.yul\":9554:9560   */\n      dup7\n        /* \"#utility.yul\":9490:9568   */\n      tag_173\n      jump\t// in\n    tag_307:\n        /* \"#utility.yul\":9482:9568   */\n      swap1\n      pop\n        /* \"#utility.yul\":9578:9645   */\n      tag_308\n        /* \"#utility.yul\":9640:9643   */\n      0xe0\n        /* \"#utility.yul\":9629:9638   */\n      dup4\n        /* \"#utility.yul\":9625:9644   */\n      add\n        /* \"#utility.yul\":9616:9622   */\n      dup6\n        /* \"#utility.yul\":9578:9645   */\n      tag_169\n      jump\t// in\n    tag_308:\n        /* \"#utility.yul\":9693:9702   */\n      dup2\n        /* \"#utility.yul\":9687:9691   */\n      dup2\n        /* \"#utility.yul\":9683:9703   */\n      sub\n        /* \"#utility.yul\":9677:9680   */\n      0x0100\n        /* \"#utility.yul\":9666:9675   */\n      dup4\n        /* \"#utility.yul\":9662:9681   */\n      add\n        /* \"#utility.yul\":9655:9704   */\n      mstore\n        /* \"#utility.yul\":9721:9799   */\n      tag_309\n        /* \"#utility.yul\":9794:9798   */\n      dup2\n        /* \"#utility.yul\":9785:9791   */\n      dup5\n        /* \"#utility.yul\":9721:9799   */\n      tag_173\n      jump\t// in\n    tag_309:\n        /* \"#utility.yul\":9713:9799   */\n      swap1\n      pop\n        /* \"#utility.yul\":8172:9806   */\n      swap11\n      swap10\n      pop\n      pop\n      pop\n      pop\n      pop\n      pop\n      pop\n      pop\n      pop\n      pop\n      jump\t// out\n        /* \"#utility.yul\":9812:12227   */\n    tag_22:\n        /* \"#utility.yul\":9987:9993   */\n      0x00\n        /* \"#utility.yul\":9995:10001   */\n      dup1\n        /* \"#utility.yul\":10003:10009   */\n      0x00\n        /* \"#utility.yul\":10011:10017   */\n      dup1\n        /* \"#utility.yul\":10019:10025   */\n      0x00\n        /* \"#utility.yul\":10027:10033   */\n      dup1\n        /* \"#utility.yul\":10035:10041   */\n      0x00\n        /* \"#utility.yul\":10043:10049   */\n      dup1\n        /* \"#utility.yul\":10092:10095   */\n      0x0100\n        /* \"#utility.yul\":10080:10089   */\n      dup10\n        /* \"#utility.yul\":10071:10078   */\n      dup12\n        /* \"#utility.yul\":10067:10090   */\n      sub\n        /* \"#utility.yul\":10063:10096   */\n      slt\n        /* \"#utility.yul\":10060:10180   */\n      iszero\n      tag_311\n      jumpi\n        /* \"#utility.yul\":10099:10178   */\n      tag_312\n      tag_154\n      jump\t// in\n    tag_312:\n        /* \"#utility.yul\":10060:10180   */\n    tag_311:\n        /* \"#utility.yul\":10247:10248   */\n      0x00\n        /* \"#utility.yul\":10236:10245   */\n      dup10\n        /* \"#utility.yul\":10232:10249   */\n      add\n        /* \"#utility.yul\":10219:10250   */\n      calldataload\n        /* \"#utility.yul\":10277:10295   */\n      0xffffffffffffffff\n        /* \"#utility.yul\":10269:10275   */\n      dup2\n        /* \"#utility.yul\":10266:10296   */\n      gt\n        /* \"#utility.yul\":10263:10380   */\n      iszero\n      tag_313\n      jumpi\n        /* \"#utility.yul\":10299:10378   */\n      tag_314\n      tag_155\n      jump\t// in\n    tag_314:\n        /* \"#utility.yul\":10263:10380   */\n    tag_313:\n        /* \"#utility.yul\":10404:10466   */\n      tag_315\n        /* \"#utility.yul\":10458:10465   */\n      dup12\n        /* \"#utility.yul\":10449:10455   */\n      dup3\n        /* \"#utility.yul\":10438:10447   */\n      dup13\n        /* \"#utility.yul\":10434:10456   */\n      add\n        /* \"#utility.yul\":10404:10466   */\n      tag_164\n      jump\t// in\n    tag_315:\n        /* \"#utility.yul\":10394:10466   */\n      swap9\n      pop\n        /* \"#utility.yul\":10190:10476   */\n      pop\n        /* \"#utility.yul\":10543:10545   */\n      0x20\n        /* \"#utility.yul\":10532:10541   */\n      dup10\n        /* \"#utility.yul\":10528:10546   */\n      add\n        /* \"#utility.yul\":10515:10547   */\n      calldataload\n        /* \"#utility.yul\":10574:10592   */\n      0xffffffffffffffff\n        /* \"#utility.yul\":10566:10572   */\n      dup2\n        /* \"#utility.yul\":10563:10593   */\n      gt\n        /* \"#utility.yul\":10560:10677   */\n      iszero\n      tag_316\n      jumpi\n        /* \"#utility.yul\":10596:10675   */\n      tag_317\n      tag_155\n      jump\t// in\n    tag_317:\n        /* \"#utility.yul\":10560:10677   */\n    tag_316:\n        /* \"#utility.yul\":10701:10763   */\n      tag_318\n        /* \"#utility.yul\":10755:10762   */\n      dup12\n        /* \"#utility.yul\":10746:10752   */\n      dup3\n        /* \"#utility.yul\":10735:10744   */\n      dup13\n        /* \"#utility.yul\":10731:10753   */\n      add\n        /* \"#utility.yul\":10701:10763   */\n      tag_164\n      jump\t// in\n    tag_318:\n        /* \"#utility.yul\":10691:10763   */\n      swap8\n      pop\n        /* \"#utility.yul\":10486:10773   */\n      pop\n        /* \"#utility.yul\":10812:10814   */\n      0x40\n        /* \"#utility.yul\":10838:10890   */\n      tag_319\n        /* \"#utility.yul\":10882:10889   */\n      dup12\n        /* \"#utility.yul\":10873:10879   */\n      dup3\n        /* \"#utility.yul\":10862:10871   */\n      dup13\n        /* \"#utility.yul\":10858:10880   */\n      add\n        /* \"#utility.yul\":10838:10890   */\n      tag_167\n      jump\t// in\n    tag_319:\n        /* \"#utility.yul\":10828:10890   */\n      swap7\n      pop\n        /* \"#utility.yul\":10783:10900   */\n      pop\n        /* \"#utility.yul\":10967:10969   */\n      0x60\n        /* \"#utility.yul\":10956:10965   */\n      dup10\n        /* \"#utility.yul\":10952:10970   */\n      add\n        /* \"#utility.yul\":10939:10971   */\n      calldataload\n        /* \"#utility.yul\":10998:11016   */\n      0xffffffffffffffff\n        /* \"#utility.yul\":10990:10996   */\n      dup2\n        /* \"#utility.yul\":10987:11017   */\n      gt\n        /* \"#utility.yul\":10984:11101   */\n      iszero\n      tag_320\n      jumpi\n        /* \"#utility.yul\":11020:11099   */\n      tag_321\n      tag_155\n      jump\t// in\n    tag_321:\n        /* \"#utility.yul\":10984:11101   */\n    tag_320:\n        /* \"#utility.yul\":11125:11187   */\n      tag_322\n        /* \"#utility.yul\":11179:11186   */\n      dup12\n        /* \"#utility.yul\":11170:11176   */\n      dup3\n        /* \"#utility.yul\":11159:11168   */\n      dup13\n        /* \"#utility.yul\":11155:11177   */\n      add\n        /* \"#utility.yul\":11125:11187   */\n      tag_164\n      jump\t// in\n    tag_322:\n        /* \"#utility.yul\":11115:11187   */\n      swap6\n      pop\n        /* \"#utility.yul\":10910:11197   */\n      pop\n        /* \"#utility.yul\":11264:11267   */\n      0x80\n        /* \"#utility.yul\":11253:11262   */\n      dup10\n        /* \"#utility.yul\":11249:11268   */\n      add\n        /* \"#utility.yul\":11236:11269   */\n      calldataload\n        /* \"#utility.yul\":11296:11314   */\n      0xffffffffffffffff\n        /* \"#utility.yul\":11288:11294   */\n      dup2\n        /* \"#utility.yul\":11285:11315   */\n      gt\n        /* \"#utility.yul\":11282:11399   */\n      iszero\n      tag_323\n      jumpi\n        /* \"#utility.yul\":11318:11397   */\n      tag_324\n      tag_155\n      jump\t// in\n    tag_324:\n        /* \"#utility.yul\":11282:11399   */\n    tag_323:\n        /* \"#utility.yul\":11423:11485   */\n      tag_325\n        /* \"#utility.yul\":11477:11484   */\n      dup12\n        /* \"#utility.yul\":11468:11474   */\n      dup3\n        /* \"#utility.yul\":11457:11466   */\n      dup13\n        /* \"#utility.yul\":11453:11475   */\n      add\n        /* \"#utility.yul\":11423:11485   */\n      tag_164\n      jump\t// in\n    tag_325:\n        /* \"#utility.yul\":11413:11485   */\n      swap5\n      pop\n        /* \"#utility.yul\":11207:11495   */\n      pop\n        /* \"#utility.yul\":11534:11537   */\n      0xa0\n        /* \"#utility.yul\":11561:11613   */\n      tag_326\n        /* \"#utility.yul\":11605:11612   */\n      dup12\n        /* \"#utility.yul\":11596:11602   */\n      dup3\n        /* \"#utility.yul\":11585:11594   */\n      dup13\n        /* \"#utility.yul\":11581:11603   */\n      add\n        /* \"#utility.yul\":11561:11613   */\n      tag_167\n      jump\t// in\n    tag_326:\n        /* \"#utility.yul\":11551:11613   */\n      swap4\n      pop\n        /* \"#utility.yul\":11505:11623   */\n      pop\n        /* \"#utility.yul\":11690:11693   */\n      0xc0\n        /* \"#utility.yul\":11679:11688   */\n      dup10\n        /* \"#utility.yul\":11675:11694   */\n      add\n        /* \"#utility.yul\":11662:11695   */\n      calldataload\n        /* \"#utility.yul\":11722:11740   */\n      0xffffffffffffffff\n        /* \"#utility.yul\":11714:11720   */\n      dup2\n        /* \"#utility.yul\":11711:11741   */\n      gt\n        /* \"#utility.yul\":11708:11825   */\n      iszero\n      tag_327\n      jumpi\n        /* \"#utility.yul\":11744:11823   */\n      tag_328\n      tag_155\n      jump\t// in\n    tag_328:\n        /* \"#utility.yul\":11708:11825   */\n    tag_327:\n        /* \"#utility.yul\":11849:11911   */\n      tag_329\n        /* \"#utility.yul\":11903:11910   */\n      dup12\n        /* \"#utility.yul\":11894:11900   */\n      dup3\n        /* \"#utility.yul\":11883:11892   */\n      dup13\n        /* \"#utility.yul\":11879:11901   */\n      add\n        /* \"#utility.yul\":11849:11911   */\n      tag_164\n      jump\t// in\n    tag_329:\n        /* \"#utility.yul\":11839:11911   */\n      swap3\n      pop\n        /* \"#utility.yul\":11633:11921   */\n      pop\n        /* \"#utility.yul\":11988:11991   */\n      0xe0\n        /* \"#utility.yul\":11977:11986   */\n      dup10\n        /* \"#utility.yul\":11973:11992   */\n      add\n        /* \"#utility.yul\":11960:11993   */\n      calldataload\n        /* \"#utility.yul\":12020:12038   */\n      0xffffffffffffffff\n        /* \"#utility.yul\":12012:12018   */\n      dup2\n        /* \"#utility.yul\":12009:12039   */\n      gt\n        /* \"#utility.yul\":12006:12123   */\n      iszero\n      tag_330\n      jumpi\n        /* \"#utility.yul\":12042:12121   */\n      tag_331\n      tag_155\n      jump\t// in\n    tag_331:\n        /* \"#utility.yul\":12006:12123   */\n    tag_330:\n        /* \"#utility.yul\":12147:12210   */\n      tag_332\n        /* \"#utility.yul\":12202:12209   */\n      dup12\n        /* \"#utility.yul\":12193:12199   */\n      dup3\n        /* \"#utility.yul\":12182:12191   */\n      dup13\n        /* \"#utility.yul\":12178:12200   */\n      add\n        /* \"#utility.yul\":12147:12210   */\n      tag_176\n      jump\t// in\n    tag_332:\n        /* \"#utility.yul\":12137:12210   */\n      swap2\n      pop\n        /* \"#utility.yul\":11931:12220   */\n      pop\n        /* \"#utility.yul\":9812:12227   */\n      swap3\n      swap6\n      swap9\n      pop\n      swap3\n      swap6\n      swap9\n      swap1\n      swap4\n      swap7\n      pop\n      jump\t// out\n        /* \"#utility.yul\":12233:12359   */\n    tag_178:\n        /* \"#utility.yul\":12270:12277   */\n      0x00\n        /* \"#utility.yul\":12310:12352   */\n      0xffffffffffffffffffffffffffffffffffffffff\n        /* \"#utility.yul\":12303:12308   */\n      dup3\n        /* \"#utility.yul\":12299:12353   */\n      and\n        /* \"#utility.yul\":12288:12353   */\n      swap1\n      pop\n        /* \"#utility.yul\":12233:12359   */\n      swap2\n      swap1\n      pop\n      jump\t// out\n        /* \"#utility.yul\":12365:12461   */\n    tag_179:\n        /* \"#utility.yul\":12402:12409   */\n      0x00\n        /* \"#utility.yul\":12431:12455   */\n      tag_335\n        /* \"#utility.yul\":12449:12454   */\n      dup3\n        /* \"#utility.yul\":12431:12455   */\n      tag_178\n      jump\t// in\n    tag_335:\n        /* \"#utility.yul\":12420:12455   */\n      swap1\n      pop\n        /* \"#utility.yul\":12365:12461   */\n      swap2\n      swap1\n      pop\n      jump\t// out\n        /* \"#utility.yul\":12467:12589   */\n    tag_180:\n        /* \"#utility.yul\":12540:12564   */\n      tag_337\n        /* \"#utility.yul\":12558:12563   */\n      dup2\n        /* \"#utility.yul\":12540:12564   */\n      tag_179\n      jump\t// in\n    tag_337:\n        /* \"#utility.yul\":12533:12538   */\n      dup2\n        /* \"#utility.yul\":12530:12565   */\n      eq\n        /* \"#utility.yul\":12520:12583   */\n      tag_338\n      jumpi\n        /* \"#utility.yul\":12579:12580   */\n      0x00\n        /* \"#utility.yul\":12576:12577   */\n      dup1\n        /* \"#utility.yul\":12569:12581   */\n      revert\n        /* \"#utility.yul\":12520:12583   */\n    tag_338:\n        /* \"#utility.yul\":12467:12589   */\n      pop\n      jump\t// out\n        /* \"#utility.yul\":12595:12734   */\n    tag_181:\n        /* \"#utility.yul\":12641:12646   */\n      0x00\n        /* \"#utility.yul\":12679:12685   */\n      dup2\n        /* \"#utility.yul\":12666:12686   */\n      calldataload\n        /* \"#utility.yul\":12657:12686   */\n      swap1\n      pop\n        /* \"#utility.yul\":12695:12728   */\n      tag_340\n        /* \"#utility.yul\":12722:12727   */\n      dup2\n        /* \"#utility.yul\":12695:12728   */\n      tag_180\n      jump\t// in\n    tag_340:\n        /* \"#utility.yul\":12595:12734   */\n      swap3\n      swap2\n      pop\n      pop\n      jump\t// out\n        /* \"#utility.yul\":12740:13069   */\n    tag_27:\n        /* \"#utility.yul\":12799:12805   */\n      0x00\n        /* \"#utility.yul\":12848:12850   */\n      0x20\n        /* \"#utility.yul\":12836:12845   */\n      dup3\n        /* \"#utility.yul\":12827:12834   */\n      dup5\n        /* \"#utility.yul\":12823:12846   */\n      sub\n        /* \"#utility.yul\":12819:12851   */\n      slt\n        /* \"#utility.yul\":12816:12935   */\n      iszero\n      tag_342\n      jumpi\n        /* \"#utility.yul\":12854:12933   */\n      tag_343\n      tag_154\n      jump\t// in\n    tag_343:\n        /* \"#utility.yul\":12816:12935   */\n    tag_342:\n        /* \"#utility.yul\":12974:12975   */\n      0x00\n        /* \"#utility.yul\":12999:13052   */\n      tag_344\n        /* \"#utility.yul\":13044:13051   */\n      dup5\n        /* \"#utility.yul\":13035:13041   */\n      dup3\n        /* \"#utility.yul\":13024:13033   */\n      dup6\n        /* \"#utility.yul\":13020:13042   */\n      add\n        /* \"#utility.yul\":12999:13052   */\n      tag_181\n      jump\t// in\n    tag_344:\n        /* \"#utility.yul\":12989:13052   */\n      swap2\n      pop\n        /* \"#utility.yul\":12945:13062   */\n      pop\n        /* \"#utility.yul\":12740:13069   */\n      swap3\n      swap2\n      pop\n      pop\n      jump\t// out\n        /* \"#utility.yul\":13075:13285   */\n    tag_30:\n        /* \"#utility.yul\":13162:13166   */\n      0x00\n        /* \"#utility.yul\":13200:13202   */\n      0x20\n        /* \"#utility.yul\":13189:13198   */\n      dup3\n        /* \"#utility.yul\":13185:13203   */\n      add\n        /* \"#utility.yul\":13177:13203   */\n      swap1\n      pop\n        /* \"#utility.yul\":13213:13278   */\n      tag_346\n        /* \"#utility.yul\":13275:13276   */\n      0x00\n        /* \"#utility.yul\":13264:13273   */\n      dup4\n        /* \"#utility.yul\":13260:13277   */\n      add\n        /* \"#utility.yul\":13251:13257   */\n      dup5\n        /* \"#utility.yul\":13213:13278   */\n      tag_169\n      jump\t// in\n    tag_346:\n        /* \"#utility.yul\":13075:13285   */\n      swap3\n      swap2\n      pop\n      pop\n      jump\t// out\n        /* \"#utility.yul\":13291:13389   */\n    tag_182:\n        /* \"#utility.yul\":13342:13348   */\n      0x00\n        /* \"#utility.yul\":13376:13381   */\n      dup2\n        /* \"#utility.yul\":13370:13382   */\n      mload\n        /* \"#utility.yul\":13360:13382   */\n      swap1\n      pop\n        /* \"#utility.yul\":13291:13389   */\n      swap2\n      swap1\n      pop\n      jump\t// out\n        /* \"#utility.yul\":13395:13563   */\n    tag_183:\n        /* \"#utility.yul\":13478:13489   */\n      0x00\n        /* \"#utility.yul\":13512:13518   */\n      dup3\n        /* \"#utility.yul\":13507:13510   */\n      dup3\n        /* \"#utility.yul\":13500:13519   */\n      mstore\n        /* \"#utility.yul\":13552:13556   */\n      0x20\n        /* \"#utility.yul\":13547:13550   */\n      dup3\n        /* \"#utility.yul\":13543:13557   */\n      add\n        /* \"#utility.yul\":13528:13557   */\n      swap1\n      pop\n        /* \"#utility.yul\":13395:13563   */\n      swap3\n      swap2\n      pop\n      pop\n      jump\t// out\n        /* \"#utility.yul\":13569:13942   */\n    tag_184:\n        /* \"#utility.yul\":13655:13658   */\n      0x00\n        /* \"#utility.yul\":13683:13721   */\n      tag_350\n        /* \"#utility.yul\":13715:13720   */\n      dup3\n        /* \"#utility.yul\":13683:13721   */\n      tag_182\n      jump\t// in\n    tag_350:\n        /* \"#utility.yul\":13737:13807   */\n      tag_351\n        /* \"#utility.yul\":13800:13806   */\n      dup2\n        /* \"#utility.yul\":13795:13798   */\n      dup6\n        /* \"#utility.yul\":13737:13807   */\n      tag_183\n      jump\t// in\n    tag_351:\n        /* \"#utility.yul\":13730:13807   */\n      swap4\n      pop\n        /* \"#utility.yul\":13816:13881   */\n      tag_352\n        /* \"#utility.yul\":13874:13880   */\n      dup2\n        /* \"#utility.yul\":13869:13872   */\n      dup6\n        /* \"#utility.yul\":13862:13866   */\n      0x20\n        /* \"#utility.yul\":13855:13860   */\n      dup7\n        /* \"#utility.yul\":13851:13867   */\n      add\n        /* \"#utility.yul\":13816:13881   */\n      tag_172\n      jump\t// in\n    tag_352:\n        /* \"#utility.yul\":13906:13935   */\n      tag_353\n        /* \"#utility.yul\":13928:13934   */\n      dup2\n        /* \"#utility.yul\":13906:13935   */\n      tag_158\n      jump\t// in\n    tag_353:\n        /* \"#utility.yul\":13901:13904   */\n      dup5\n        /* \"#utility.yul\":13897:13936   */\n      add\n        /* \"#utility.yul\":13890:13936   */\n      swap2\n      pop\n        /* \"#utility.yul\":13659:13942   */\n      pop\n        /* \"#utility.yul\":13569:13942   */\n      swap3\n      swap2\n      pop\n      pop\n      jump\t// out\n        /* \"#utility.yul\":13948:15261   */\n    tag_35:\n        /* \"#utility.yul\":14295:14299   */\n      0x00\n        /* \"#utility.yul\":14333:14336   */\n      0xe0\n        /* \"#utility.yul\":14322:14331   */\n      dup3\n        /* \"#utility.yul\":14318:14337   */\n      add\n        /* \"#utility.yul\":14310:14337   */\n      swap1\n      pop\n        /* \"#utility.yul\":14383:14392   */\n      dup2\n        /* \"#utility.yul\":14377:14381   */\n      dup2\n        /* \"#utility.yul\":14373:14393   */\n      sub\n        /* \"#utility.yul\":14369:14370   */\n      0x00\n        /* \"#utility.yul\":14358:14367   */\n      dup4\n        /* \"#utility.yul\":14354:14371   */\n      add\n        /* \"#utility.yul\":14347:14394   */\n      mstore\n        /* \"#utility.yul\":14411:14487   */\n      tag_355\n        /* \"#utility.yul\":14482:14486   */\n      dup2\n        /* \"#utility.yul\":14473:14479   */\n      dup11\n        /* \"#utility.yul\":14411:14487   */\n      tag_184\n      jump\t// in\n    tag_355:\n        /* \"#utility.yul\":14403:14487   */\n      swap1\n      pop\n        /* \"#utility.yul\":14534:14543   */\n      dup2\n        /* \"#utility.yul\":14528:14532   */\n      dup2\n        /* \"#utility.yul\":14524:14544   */\n      sub\n        /* \"#utility.yul\":14519:14521   */\n      0x20\n        /* \"#utility.yul\":14508:14517   */\n      dup4\n        /* \"#utility.yul\":14504:14522   */\n      add\n        /* \"#utility.yul\":14497:14545   */\n      mstore\n        /* \"#utility.yul\":14562:14638   */\n      tag_356\n        /* \"#utility.yul\":14633:14637   */\n      dup2\n        /* \"#utility.yul\":14624:14630   */\n      dup10\n        /* \"#utility.yul\":14562:14638   */\n      tag_184\n      jump\t// in\n    tag_356:\n        /* \"#utility.yul\":14554:14638   */\n      swap1\n      pop\n        /* \"#utility.yul\":14685:14694   */\n      dup2\n        /* \"#utility.yul\":14679:14683   */\n      dup2\n        /* \"#utility.yul\":14675:14695   */\n      sub\n        /* \"#utility.yul\":14670:14672   */\n      0x40\n        /* \"#utility.yul\":14659:14668   */\n      dup4\n        /* \"#utility.yul\":14655:14673   */\n      add\n        /* \"#utility.yul\":14648:14696   */\n      mstore\n        /* \"#utility.yul\":14713:14789   */\n      tag_357\n        /* \"#utility.yul\":14784:14788   */\n      dup2\n        /* \"#utility.yul\":14775:14781   */\n      dup9\n        /* \"#utility.yul\":14713:14789   */\n      tag_184\n      jump\t// in\n    tag_357:\n        /* \"#utility.yul\":14705:14789   */\n      swap1\n      pop\n        /* \"#utility.yul\":14799:14869   */\n      tag_358\n        /* \"#utility.yul\":14865:14867   */\n      0x60\n        /* \"#utility.yul\":14854:14863   */\n      dup4\n        /* \"#utility.yul\":14850:14868   */\n      add\n        /* \"#utility.yul\":14841:14847   */\n      dup8\n        /* \"#utility.yul\":14799:14869   */\n      tag_177\n      jump\t// in\n    tag_358:\n        /* \"#utility.yul\":14917:14926   */\n      dup2\n        /* \"#utility.yul\":14911:14915   */\n      dup2\n        /* \"#utility.yul\":14907:14927   */\n      sub\n        /* \"#utility.yul\":14901:14904   */\n      0x80\n        /* \"#utility.yul\":14890:14899   */\n      dup4\n        /* \"#utility.yul\":14886:14905   */\n      add\n        /* \"#utility.yul\":14879:14928   */\n      mstore\n        /* \"#utility.yul\":14945:15021   */\n      tag_359\n        /* \"#utility.yul\":15016:15020   */\n      dup2\n        /* \"#utility.yul\":15007:15013   */\n      dup7\n        /* \"#utility.yul\":14945:15021   */\n      tag_184\n      jump\t// in\n    tag_359:\n        /* \"#utility.yul\":14937:15021   */\n      swap1\n      pop\n        /* \"#utility.yul\":15031:15102   */\n      tag_360\n        /* \"#utility.yul\":15097:15100   */\n      0xa0\n        /* \"#utility.yul\":15086:15095   */\n      dup4\n        /* \"#utility.yul\":15082:15101   */\n      add\n        /* \"#utility.yul\":15073:15079   */\n      dup6\n        /* \"#utility.yul\":15031:15102   */\n      tag_177\n      jump\t// in\n    tag_360:\n        /* \"#utility.yul\":15150:15159   */\n      dup2\n        /* \"#utility.yul\":15144:15148   */\n      dup2\n        /* \"#utility.yul\":15140:15160   */\n      sub\n        /* \"#utility.yul\":15134:15137   */\n      0xc0\n        /* \"#utility.yul\":15123:15132   */\n      dup4\n        /* \"#utility.yul\":15119:15138   */\n      add\n        /* \"#utility.yul\":15112:15161   */\n      mstore\n        /* \"#utility.yul\":15178:15254   */\n      tag_361\n        /* \"#utility.yul\":15249:15253   */\n      dup2\n        /* \"#utility.yul\":15240:15246   */\n      dup5\n        /* \"#utility.yul\":15178:15254   */\n      tag_184\n      jump\t// in\n    tag_361:\n        /* \"#utility.yul\":15170:15254   */\n      swap1\n      pop\n        /* \"#utility.yul\":13948:15261   */\n      swap9\n      swap8\n      pop\n      pop\n      pop\n      pop\n      pop\n      pop\n      pop\n      pop\n      jump\t// out\n        /* \"#utility.yul\":15267:15439   */\n    tag_185:\n        /* \"#utility.yul\":15407:15431   */\n      0x596f7520617265206e6f7420617574686f72697a656400000000000000000000\n        /* \"#utility.yul\":15403:15404   */\n      0x00\n        /* \"#utility.yul\":15395:15401   */\n      dup3\n        /* \"#utility.yul\":15391:15405   */\n      add\n        /* \"#utility.yul\":15384:15432   */\n      mstore\n        /* \"#utility.yul\":15267:15439   */\n      pop\n      jump\t// out\n        /* \"#utility.yul\":15445:15811   */\n    tag_186:\n        /* \"#utility.yul\":15587:15590   */\n      0x00\n        /* \"#utility.yul\":15608:15675   */\n      tag_364\n        /* \"#utility.yul\":15672:15674   */\n      0x16\n        /* \"#utility.yul\":15667:15670   */\n      dup4\n        /* \"#utility.yul\":15608:15675   */\n      tag_171\n      jump\t// in\n    tag_364:\n        /* \"#utility.yul\":15601:15675   */\n      swap2\n      pop\n        /* \"#utility.yul\":15684:15777   */\n      tag_365\n        /* \"#utility.yul\":15773:15776   */\n      dup3\n        /* \"#utility.yul\":15684:15777   */\n      tag_185\n      jump\t// in\n    tag_365:\n        /* \"#utility.yul\":15802:15804   */\n      0x20\n        /* \"#utility.yul\":15797:15800   */\n      dup3\n        /* \"#utility.yul\":15793:15805   */\n      add\n        /* \"#utility.yul\":15786:15805   */\n      swap1\n      pop\n        /* \"#utility.yul\":15445:15811   */\n      swap2\n      swap1\n      pop\n      jump\t// out\n        /* \"#utility.yul\":15817:16236   */\n    tag_40:\n        /* \"#utility.yul\":15983:15987   */\n      0x00\n        /* \"#utility.yul\":16021:16023   */\n      0x20\n        /* \"#utility.yul\":16010:16019   */\n      dup3\n        /* \"#utility.yul\":16006:16024   */\n      add\n        /* \"#utility.yul\":15998:16024   */\n      swap1\n      pop\n        /* \"#utility.yul\":16070:16079   */\n      dup2\n        /* \"#utility.yul\":16064:16068   */\n      dup2\n        /* \"#utility.yul\":16060:16080   */\n      sub\n        /* \"#utility.yul\":16056:16057   */\n      0x00\n        /* \"#utility.yul\":16045:16054   */\n      dup4\n        /* \"#utility.yul\":16041:16058   */\n      add\n        /* \"#utility.yul\":16034:16081   */\n      mstore\n        /* \"#utility.yul\":16098:16229   */\n      tag_367\n        /* \"#utility.yul\":16224:16228   */\n      dup2\n        /* \"#utility.yul\":16098:16229   */\n      tag_186\n      jump\t// in\n    tag_367:\n        /* \"#utility.yul\":16090:16229   */\n      swap1\n      pop\n        /* \"#utility.yul\":15817:16236   */\n      swap2\n      swap1\n      pop\n      jump\t// out\n        /* \"#utility.yul\":16242:16422   */\n    tag_187:\n        /* \"#utility.yul\":16290:16367   */\n      0x4e487b7100000000000000000000000000000000000000000000000000000000\n        /* \"#utility.yul\":16287:16288   */\n      0x00\n        /* \"#utility.yul\":16280:16368   */\n      mstore\n        /* \"#utility.yul\":16387:16391   */\n      0x11\n        /* \"#utility.yul\":16384:16385   */\n      0x04\n        /* \"#utility.yul\":16377:16392   */\n      mstore\n        /* \"#utility.yul\":16411:16415   */\n      0x24\n        /* \"#utility.yul\":16408:16409   */\n      0x00\n        /* \"#utility.yul\":16401:16416   */\n      revert\n        /* \"#utility.yul\":16428:16505   */\n    tag_188:\n        /* \"#utility.yul\":16465:16472   */\n      0x00\n        /* \"#utility.yul\":16494:16499   */\n      dup2\n        /* \"#utility.yul\":16483:16499   */\n      swap1\n      pop\n        /* \"#utility.yul\":16428:16505   */\n      swap2\n      swap1\n      pop\n      jump\t// out\n        /* \"#utility.yul\":16511:16744   */\n    tag_43:\n        /* \"#utility.yul\":16550:16553   */\n      0x00\n        /* \"#utility.yul\":16573:16597   */\n      tag_371\n        /* \"#utility.yul\":16591:16596   */\n      dup3\n        /* \"#utility.yul\":16573:16597   */\n      tag_188\n      jump\t// in\n    tag_371:\n        /* \"#utility.yul\":16564:16597   */\n      swap2\n      pop\n        /* \"#utility.yul\":16619:16685   */\n      0xffffffffffffffffffffffffffffffffffffffffffffffffffffffffffffffff\n        /* \"#utility.yul\":16612:16617   */\n      dup3\n        /* \"#utility.yul\":16609:16686   */\n      sub\n        /* \"#utility.yul\":16606:16709   */\n      tag_372\n      jumpi\n        /* \"#utility.yul\":16689:16707   */\n      tag_373\n      tag_187\n      jump\t// in\n    tag_373:\n        /* \"#utility.yul\":16606:16709   */\n    tag_372:\n        /* \"#utility.yul\":16736:16737   */\n      0x01\n        /* \"#utility.yul\":16729:16734   */\n      dup3\n        /* \"#utility.yul\":16725:16738   */\n      add\n        /* \"#utility.yul\":16718:16738   */\n      swap1\n      pop\n        /* \"#utility.yul\":16511:16744   */\n      swap2\n      swap1\n      pop\n      jump\t// out\n        /* \"#utility.yul\":16750:16898   */\n    tag_189:\n        /* \"#utility.yul\":16852:16863   */\n      0x00\n        /* \"#utility.yul\":16889:16892   */\n      dup2\n        /* \"#utility.yul\":16874:16892   */\n      swap1\n      pop\n        /* \"#utility.yul\":16750:16898   */\n      swap3\n      swap2\n      pop\n      pop\n      jump\t// out\n        /* \"#utility.yul\":16904:17294   */\n    tag_190:\n        /* \"#utility.yul\":17010:17013   */\n      0x00\n        /* \"#utility.yul\":17038:17077   */\n      tag_376\n        /* \"#utility.yul\":17071:17076   */\n      dup3\n        /* \"#utility.yul\":17038:17077   */\n      tag_170\n      jump\t// in\n    tag_376:\n        /* \"#utility.yul\":17093:17182   */\n      tag_377\n        /* \"#utility.yul\":17175:17181   */\n      dup2\n        /* \"#utility.yul\":17170:17173   */\n      dup6\n        /* \"#utility.yul\":17093:17182   */\n      tag_189\n      jump\t// in\n    tag_377:\n        /* \"#utility.yul\":17086:17182   */\n      swap4\n      pop\n        /* \"#utility.yul\":17191:17256   */\n      tag_378\n        /* \"#utility.yul\":17249:17255   */\n      dup2\n        /* \"#utility.yul\":17244:17247   */\n      dup6\n        /* \"#utility.yul\":17237:17241   */\n      0x20\n        /* \"#utility.yul\":17230:17235   */\n      dup7\n        /* \"#utility.yul\":17226:17242   */\n      add\n        /* \"#utility.yul\":17191:17256   */\n      tag_172\n      jump\t// in\n    tag_378:\n        /* \"#utility.yul\":17281:17287   */\n      dup1\n        /* \"#utility.yul\":17276:17279   */\n      dup5\n        /* \"#utility.yul\":17272:17288   */\n      add\n        /* \"#utility.yul\":17265:17288   */\n      swap2\n      pop\n        /* \"#utility.yul\":17014:17294   */\n      pop\n        /* \"#utility.yul\":16904:17294   */\n      swap3\n      swap2\n      pop\n      pop\n      jump\t// out\n        /* \"#utility.yul\":17300:17575   */\n    tag_47:\n        /* \"#utility.yul\":17432:17435   */\n      0x00\n        /* \"#utility.yul\":17454:17549   */\n      tag_380\n        /* \"#utility.yul\":17545:17548   */\n      dup3\n        /* \"#utility.yul\":17536:17542   */\n      dup5\n        /* \"#utility.yul\":17454:17549   */\n      tag_190\n      jump\t// in\n    tag_380:\n        /* \"#utility.yul\":17447:17549   */\n      swap2\n      pop\n        /* \"#utility.yul\":17566:17569   */\n      dup2\n        /* \"#utility.yul\":17559:17569   */\n      swap1\n      pop\n        /* \"#utility.yul\":17300:17575   */\n      swap3\n      swap2\n      pop\n      pop\n      jump\t// out\n        /* \"#utility.yul\":17581:17761   */\n    tag_191:\n        /* \"#utility.yul\":17629:17706   */\n      0x4e487b7100000000000000000000000000000000000000000000000000000000\n        /* \"#utility.yul\":17626:17627   */\n      0x00\n        /* \"#utility.yul\":17619:17707   */\n      mstore\n        /* \"#utility.yul\":17726:17730   */\n      0x22\n        /* \"#utility.yul\":17723:17724   */\n      0x04\n        /* \"#utility.yul\":17716:17731   */\n      mstore\n        /* \"#utility.yul\":17750:17754   */\n      0x24\n        /* \"#utility.yul\":17747:17748   */\n      0x00\n        /* \"#utility.yul\":17740:17755   */\n      revert\n        /* \"#utility.yul\":17767:18087   */\n    tag_61:\n        /* \"#utility.yul\":17811:17817   */\n      0x00\n        /* \"#utility.yul\":17848:17849   */\n      0x02\n        /* \"#utility.yul\":17842:17846   */\n      dup3\n        /* \"#utility.yul\":17838:17850   */\n      div\n        /* \"#utility.yul\":17828:17850   */\n      swap1\n      pop\n        /* \"#utility.yul\":17895:17896   */\n      0x01\n        /* \"#utility.yul\":17889:17893   */\n      dup3\n        /* \"#utility.yul\":17885:17897   */\n      and\n        /* \"#utility.yul\":17916:17934   */\n      dup1\n        /* \"#utility.yul\":17906:17987   */\n      tag_383\n      jumpi\n        /* \"#utility.yul\":17972:17976   */\n      0x7f\n        /* \"#utility.yul\":17964:17970   */\n      dup3\n        /* \"#utility.yul\":17960:17977   */\n      and\n        /* \"#utility.yul\":17950:17977   */\n      swap2\n      pop\n        /* \"#utility.yul\":17906:17987   */\n    tag_383:\n        /* \"#utility.yul\":18034:18036   */\n      0x20\n        /* \"#utility.yul\":18026:18032   */\n      dup3\n        /* \"#utility.yul\":18023:18037   */\n      lt\n        /* \"#utility.yul\":18003:18021   */\n      dup2\n        /* \"#utility.yul\":18000:18038   */\n      sub\n        /* \"#utility.yul\":17997:18081   */\n      tag_384\n      jumpi\n        /* \"#utility.yul\":18053:18071   */\n      tag_385\n      tag_191\n      jump\t// in\n    tag_385:\n        /* \"#utility.yul\":17997:18081   */\n    tag_384:\n        /* \"#utility.yul\":17818:18087   */\n      pop\n        /* \"#utility.yul\":17767:18087   */\n      swap2\n      swap1\n      pop\n      jump\t// out\n        /* \"#utility.yul\":18093:18233   */\n    tag_192:\n        /* \"#utility.yul\":18141:18145   */\n      0x00\n        /* \"#utility.yul\":18164:18167   */\n      dup2\n        /* \"#utility.yul\":18156:18167   */\n      swap1\n      pop\n        /* \"#utility.yul\":18187:18190   */\n      dup2\n        /* \"#utility.yul\":18184:18185   */\n      0x00\n        /* \"#utility.yul\":18177:18191   */\n      mstore\n        /* \"#utility.yul\":18221:18225   */\n      0x20\n        /* \"#utility.yul\":18218:18219   */\n      0x00\n        /* \"#utility.yul\":18208:18226   */\n      keccak256\n        /* \"#utility.yul\":18200:18226   */\n      swap1\n      pop\n        /* \"#utility.yul\":18093:18233   */\n      swap2\n      swap1\n      pop\n      jump\t// out\n        /* \"#utility.yul\":18239:18332   */\n    tag_193:\n        /* \"#utility.yul\":18276:18282   */\n      0x00\n        /* \"#utility.yul\":18323:18325   */\n      0x20\n        /* \"#utility.yul\":18318:18320   */\n      0x1f\n        /* \"#utility.yul\":18311:18316   */\n      dup4\n        /* \"#utility.yul\":18307:18321   */\n      add\n        /* \"#utility.yul\":18303:18326   */\n      div\n        /* \"#utility.yul\":18293:18326   */\n      swap1\n      pop\n        /* \"#utility.yul\":18239:18332   */\n      swap2\n      swap1\n      pop\n      jump\t// out\n        /* \"#utility.yul\":18338:18445   */\n    tag_194:\n        /* \"#utility.yul\":18382:18390   */\n      0x00\n        /* \"#utility.yul\":18432:18437   */\n      dup3\n        /* \"#utility.yul\":18426:18430   */\n      dup3\n        /* \"#utility.yul\":18422:18438   */\n      shl\n        /* \"#utility.yul\":18401:18438   */\n      swap1\n      pop\n        /* \"#utility.yul\":18338:18445   */\n      swap3\n      swap2\n      pop\n      pop\n      jump\t// out\n        /* \"#utility.yul\":18451:18844   */\n    tag_195:\n        /* \"#utility.yul\":18520:18526   */\n      0x00\n        /* \"#utility.yul\":18570:18571   */\n      0x08\n        /* \"#utility.yul\":18558:18568   */\n      dup4\n        /* \"#utility.yul\":18554:18572   */\n      mul\n        /* \"#utility.yul\":18593:18690   */\n      tag_390\n        /* \"#utility.yul\":18623:18689   */\n      0xffffffffffffffffffffffffffffffffffffffffffffffffffffffffffffffff\n        /* \"#utility.yul\":18612:18621   */\n      dup3\n        /* \"#utility.yul\":18593:18690   */\n      tag_194\n      jump\t// in\n    tag_390:\n        /* \"#utility.yul\":18711:18750   */\n      tag_391\n        /* \"#utility.yul\":18741:18749   */\n      dup7\n        /* \"#utility.yul\":18730:18739   */\n      dup4\n        /* \"#utility.yul\":18711:18750   */\n      tag_194\n      jump\t// in\n    tag_391:\n        /* \"#utility.yul\":18699:18750   */\n      swap6\n      pop\n        /* \"#utility.yul\":18783:18787   */\n      dup1\n        /* \"#utility.yul\":18779:18788   */\n      not\n        /* \"#utility.yul\":18772:18777   */\n      dup5\n        /* \"#utility.yul\":18768:18789   */\n      and\n        /* \"#utility.yul\":18759:18789   */\n      swap4\n      pop\n        /* \"#utility.yul\":18832:18836   */\n      dup1\n        /* \"#utility.yul\":18822:18830   */\n      dup7\n        /* \"#utility.yul\":18818:18837   */\n      and\n        /* \"#utility.yul\":18811:18816   */\n      dup5\n        /* \"#utility.yul\":18808:18838   */\n      or\n        /* \"#utility.yul\":18798:18838   */\n      swap3\n      pop\n        /* \"#utility.yul\":18527:18844   */\n      pop\n      pop\n        /* \"#utility.yul\":18451:18844   */\n      swap4\n      swap3\n      pop\n      pop\n      pop\n      jump\t// out\n        /* \"#utility.yul\":18850:18910   */\n    tag_196:\n        /* \"#utility.yul\":18878:18881   */\n      0x00\n        /* \"#utility.yul\":18899:18904   */\n      dup2\n        /* \"#utility.yul\":18892:18904   */\n      swap1\n      pop\n        /* \"#utility.yul\":18850:18910   */\n      swap2\n      swap1\n      pop\n      jump\t// out\n        /* \"#utility.yul\":18916:19058   */\n    tag_197:\n        /* \"#utility.yul\":18966:18975   */\n      0x00\n        /* \"#utility.yul\":18999:19052   */\n      tag_394\n        /* \"#utility.yul\":19017:19051   */\n      tag_395\n        /* \"#utility.yul\":19026:19050   */\n      tag_396\n        /* \"#utility.yul\":19044:19049   */\n      dup5\n        /* \"#utility.yul\":19026:19050   */\n      tag_188\n      jump\t// in\n    tag_396:\n        /* \"#utility.yul\":19017:19051   */\n      tag_196\n      jump\t// in\n    tag_395:\n        /* \"#utility.yul\":18999:19052   */\n      tag_188\n      jump\t// in\n    tag_394:\n        /* \"#utility.yul\":18986:19052   */\n      swap1\n      pop\n        /* \"#utility.yul\":18916:19058   */\n      swap2\n      swap1\n      pop\n      jump\t// out\n        /* \"#utility.yul\":19064:19139   */\n    tag_198:\n        /* \"#utility.yul\":19107:19110   */\n      0x00\n        /* \"#utility.yul\":19128:19133   */\n      dup2\n        /* \"#utility.yul\":19121:19133   */\n      swap1\n      pop\n        /* \"#utility.yul\":19064:19139   */\n      swap2\n      swap1\n      pop\n      jump\t// out\n        /* \"#utility.yul\":19145:19414   */\n    tag_199:\n        /* \"#utility.yul\":19255:19294   */\n      tag_399\n        /* \"#utility.yul\":19286:19293   */\n      dup4\n        /* \"#utility.yul\":19255:19294   */\n      tag_197\n      jump\t// in\n    tag_399:\n        /* \"#utility.yul\":19316:19407   */\n      tag_400\n        /* \"#utility.yul\":19365:19406   */\n      tag_401\n        /* \"#utility.yul\":19389:19405   */\n      dup3\n        /* \"#utility.yul\":19365:19406   */\n      tag_198\n      jump\t// in\n    tag_401:\n        /* \"#utility.yul\":19357:19363   */\n      dup5\n        /* \"#utility.yul\":19350:19354   */\n      dup5\n        /* \"#utility.yul\":19344:19355   */\n      sload\n        /* \"#utility.yul\":19316:19407   */\n      tag_195\n      jump\t// in\n    tag_400:\n        /* \"#utility.yul\":19310:19314   */\n      dup3\n        /* \"#utility.yul\":19303:19408   */\n      sstore\n        /* \"#utility.yul\":19221:19414   */\n      pop\n        /* \"#utility.yul\":19145:19414   */\n      pop\n      pop\n      pop\n      jump\t// out\n        /* \"#utility.yul\":19420:19493   */\n    tag_200:\n        /* \"#utility.yul\":19465:19468   */\n      0x00\n        /* \"#utility.yul\":19420:19493   */\n      swap1\n      jump\t// out\n        /* \"#utility.yul\":19499:19688   */\n    tag_201:\n        /* \"#utility.yul\":19576:19608   */\n      tag_404\n      tag_200\n      jump\t// in\n    tag_404:\n        /* \"#utility.yul\":19617:19682   */\n      tag_405\n        /* \"#utility.yul\":19675:19681   */\n      dup2\n        /* \"#utility.yul\":19667:19673   */\n      dup5\n        /* \"#utility.yul\":19661:19665   */\n      dup5\n        /* \"#utility.yul\":19617:19682   */\n      tag_199\n      jump\t// in\n    tag_405:\n        /* \"#utility.yul\":19552:19688   */\n      pop\n        /* \"#utility.yul\":19499:19688   */\n      pop\n      pop\n      jump\t// out\n        /* \"#utility.yul\":19694:19880   */\n    tag_202:\n        /* \"#utility.yul\":19754:19874   */\n    tag_407:\n        /* \"#utility.yul\":19771:19774   */\n      dup2\n        /* \"#utility.yul\":19764:19769   */\n      dup2\n        /* \"#utility.yul\":19761:19775   */\n      lt\n        /* \"#utility.yul\":19754:19874   */\n      iszero\n      tag_409\n      jumpi\n        /* \"#utility.yul\":19825:19864   */\n      tag_410\n        /* \"#utility.yul\":19862:19863   */\n      0x00\n        /* \"#utility.yul\":19855:19860   */\n      dup3\n        /* \"#utility.yul\":19825:19864   */\n      tag_201\n      jump\t// in\n    tag_410:\n        /* \"#utility.yul\":19798:19799   */\n      0x01\n        /* \"#utility.yul\":19791:19796   */\n      dup2\n        /* \"#utility.yul\":19787:19800   */\n      add\n        /* \"#utility.yul\":19778:19800   */\n      swap1\n      pop\n        /* \"#utility.yul\":19754:19874   */\n      jump(tag_407)\n    tag_409:\n        /* \"#utility.yul\":19694:19880   */\n      pop\n      pop\n      jump\t// out\n        /* \"#utility.yul\":19886:20427   */\n    tag_203:\n        /* \"#utility.yul\":19986:19988   */\n      0x1f\n        /* \"#utility.yul\":19981:19984   */\n      dup3\n        /* \"#utility.yul\":19978:19989   */\n      gt\n        /* \"#utility.yul\":19975:20420   */\n      iszero\n      tag_412\n      jumpi\n        /* \"#utility.yul\":20020:20057   */\n      tag_413\n        /* \"#utility.yul\":20051:20056   */\n      dup2\n        /* \"#utility.yul\":20020:20057   */\n      tag_192\n      jump\t// in\n    tag_413:\n        /* \"#utility.yul\":20103:20132   */\n      tag_414\n        /* \"#utility.yul\":20121:20131   */\n      dup5\n        /* \"#utility.yul\":20103:20132   */\n      tag_193\n      jump\t// in\n    tag_414:\n        /* \"#utility.yul\":20093:20101   */\n      dup2\n        /* \"#utility.yul\":20089:20133   */\n      add\n        /* \"#utility.yul\":20286:20288   */\n      0x20\n        /* \"#utility.yul\":20274:20284   */\n      dup6\n        /* \"#utility.yul\":20271:20289   */\n      lt\n        /* \"#utility.yul\":20268:20317   */\n      iszero\n      tag_415\n      jumpi\n        /* \"#utility.yul\":20307:20315   */\n      dup2\n        /* \"#utility.yul\":20292:20315   */\n      swap1\n      pop\n        /* \"#utility.yul\":20268:20317   */\n    tag_415:\n        /* \"#utility.yul\":20330:20410   */\n      tag_416\n        /* \"#utility.yul\":20386:20408   */\n      tag_417\n        /* \"#utility.yul\":20404:20407   */\n      dup6\n        /* \"#utility.yul\":20386:20408   */\n      tag_193\n      jump\t// in\n    tag_417:\n        /* \"#utility.yul\":20376:20384   */\n      dup4\n        /* \"#utility.yul\":20372:20409   */\n      add\n        /* \"#utility.yul\":20359:20370   */\n      dup3\n        /* \"#utility.yul\":20330:20410   */\n      tag_202\n      jump\t// in\n    tag_416:\n        /* \"#utility.yul\":19990:20420   */\n      pop\n      pop\n        /* \"#utility.yul\":19975:20420   */\n    tag_412:\n        /* \"#utility.yul\":19886:20427   */\n      pop\n      pop\n      pop\n      jump\t// out\n        /* \"#utility.yul\":20433:20550   */\n    tag_204:\n        /* \"#utility.yul\":20487:20495   */\n      0x00\n        /* \"#utility.yul\":20537:20542   */\n      dup3\n        /* \"#utility.yul\":20531:20535   */\n      dup3\n        /* \"#utility.yul\":20527:20543   */\n      shr\n        /* \"#utility.yul\":20506:20543   */\n      swap1\n      pop\n        /* \"#utility.yul\":20433:20550   */\n      swap3\n      swap2\n      pop\n      pop\n      jump\t// out\n        /* \"#utility.yul\":20556:20725   */\n    tag_205:\n        /* \"#utility.yul\":20600:20606   */\n      0x00\n        /* \"#utility.yul\":20633:20684   */\n      tag_420\n        /* \"#utility.yul\":20681:20682   */\n      0x00\n        /* \"#utility.yul\":20677:20683   */\n      not\n        /* \"#utility.yul\":20669:20674   */\n      dup5\n        /* \"#utility.yul\":20666:20667   */\n      0x08\n        /* \"#utility.yul\":20662:20675   */\n      mul\n        /* \"#utility.yul\":20633:20684   */\n      tag_204\n      jump\t// in\n    tag_420:\n        /* \"#utility.yul\":20629:20685   */\n      not\n        /* \"#utility.yul\":20714:20718   */\n      dup1\n        /* \"#utility.yul\":20708:20712   */\n      dup4\n        /* \"#utility.yul\":20704:20719   */\n      and\n        /* \"#utility.yul\":20694:20719   */\n      swap2\n      pop\n        /* \"#utility.yul\":20607:20725   */\n      pop\n        /* \"#utility.yul\":20556:20725   */\n      swap3\n      swap2\n      pop\n      pop\n      jump\t// out\n        /* \"#utility.yul\":20730:21025   */\n    tag_206:\n        /* \"#utility.yul\":20806:20810   */\n      0x00\n        /* \"#utility.yul\":20952:20981   */\n      tag_422\n        /* \"#utility.yul\":20977:20980   */\n      dup4\n        /* \"#utility.yul\":20971:20975   */\n      dup4\n        /* \"#utility.yul\":20952:20981   */\n      tag_205\n      jump\t// in\n    tag_422:\n        /* \"#utility.yul\":20944:20981   */\n      swap2\n      pop\n        /* \"#utility.yul\":21014:21017   */\n      dup3\n        /* \"#utility.yul\":21011:21012   */\n      0x02\n        /* \"#utility.yul\":21007:21018   */\n      mul\n        /* \"#utility.yul\":21001:21005   */\n      dup3\n        /* \"#utility.yul\":20998:21019   */\n      or\n        /* \"#utility.yul\":20990:21019   */\n      swap1\n      pop\n        /* \"#utility.yul\":20730:21025   */\n      swap3\n      swap2\n      pop\n      pop\n      jump\t// out\n        /* \"#utility.yul\":21030:22420   */\n    tag_49:\n        /* \"#utility.yul\":21145:21181   */\n      tag_424\n        /* \"#utility.yul\":21177:21180   */\n      dup3\n        /* \"#utility.yul\":21145:21181   */\n      tag_182\n      jump\t// in\n    tag_424:\n        /* \"#utility.yul\":21246:21264   */\n      0xffffffffffffffff\n        /* \"#utility.yul\":21238:21244   */\n      dup2\n        /* \"#utility.yul\":21235:21265   */\n      gt\n        /* \"#utility.yul\":21232:21288   */\n      iszero\n      tag_425\n      jumpi\n        /* \"#utility.yul\":21268:21286   */\n      tag_426\n      tag_136\n      jump\t// in\n    tag_426:\n        /* \"#utility.yul\":21232:21288   */\n    tag_425:\n        /* \"#utility.yul\":21312:21350   */\n      tag_427\n        /* \"#utility.yul\":21344:21348   */\n      dup3\n        /* \"#utility.yul\":21338:21349   */\n      sload\n        /* \"#utility.yul\":21312:21350   */\n      tag_61\n      jump\t// in\n    tag_427:\n        /* \"#utility.yul\":21397:21463   */\n      tag_428\n        /* \"#utility.yul\":21456:21462   */\n      dup3\n        /* \"#utility.yul\":21448:21454   */\n      dup3\n        /* \"#utility.yul\":21442:21446   */\n      dup6\n        /* \"#utility.yul\":21397:21463   */\n      tag_203\n      jump\t// in\n    tag_428:\n        /* \"#utility.yul\":21490:21491   */\n      0x00\n        /* \"#utility.yul\":21514:21518   */\n      0x20\n        /* \"#utility.yul\":21501:21518   */\n      swap1\n      pop\n        /* \"#utility.yul\":21546:21548   */\n      0x1f\n        /* \"#utility.yul\":21538:21544   */\n      dup4\n        /* \"#utility.yul\":21535:21549   */\n      gt\n        /* \"#utility.yul\":21563:21564   */\n      0x01\n        /* \"#utility.yul\":21558:22175   */\n      dup2\n      eq\n      tag_430\n      jumpi\n        /* \"#utility.yul\":22219:22220   */\n      0x00\n        /* \"#utility.yul\":22236:22242   */\n      dup5\n        /* \"#utility.yul\":22233:22310   */\n      iszero\n      tag_431\n      jumpi\n        /* \"#utility.yul\":22285:22294   */\n      dup3\n        /* \"#utility.yul\":22280:22283   */\n      dup8\n        /* \"#utility.yul\":22276:22295   */\n      add\n        /* \"#utility.yul\":22270:22296   */\n      mload\n        /* \"#utility.yul\":22261:22296   */\n      swap1\n      pop\n        /* \"#utility.yul\":22233:22310   */\n    tag_431:\n        /* \"#utility.yul\":22336:22403   */\n      tag_432\n        /* \"#utility.yul\":22396:22402   */\n      dup6\n        /* \"#utility.yul\":22389:22394   */\n      dup3\n        /* \"#utility.yul\":22336:22403   */\n      tag_206\n      jump\t// in\n    tag_432:\n        /* \"#utility.yul\":22330:22334   */\n      dup7\n        /* \"#utility.yul\":22323:22404   */\n      sstore\n        /* \"#utility.yul\":22192:22414   */\n      pop\n        /* \"#utility.yul\":21528:22414   */\n      jump(tag_429)\n        /* \"#utility.yul\":21558:22175   */\n    tag_430:\n        /* \"#utility.yul\":21610:21614   */\n      0x1f\n        /* \"#utility.yul\":21606:21615   */\n      not\n        /* \"#utility.yul\":21598:21604   */\n      dup5\n        /* \"#utility.yul\":21594:21616   */\n      and\n        /* \"#utility.yul\":21644:21680   */\n      tag_433\n        /* \"#utility.yul\":21675:21679   */\n      dup7\n        /* \"#utility.yul\":21644:21680   */\n      tag_192\n      jump\t// in\n    tag_433:\n        /* \"#utility.yul\":21702:21703   */\n      0x00\n        /* \"#utility.yul\":21716:21924   */\n    tag_434:\n        /* \"#utility.yul\":21730:21737   */\n      dup3\n        /* \"#utility.yul\":21727:21728   */\n      dup2\n        /* \"#utility.yul\":21724:21738   */\n      lt\n        /* \"#utility.yul\":21716:21924   */\n      iszero\n      tag_436\n      jumpi\n        /* \"#utility.yul\":21809:21818   */\n      dup5\n        /* \"#utility.yul\":21804:21807   */\n      dup10\n        /* \"#utility.yul\":21800:21819   */\n      add\n        /* \"#utility.yul\":21794:21820   */\n      mload\n        /* \"#utility.yul\":21786:21792   */\n      dup3\n        /* \"#utility.yul\":21779:21821   */\n      sstore\n        /* \"#utility.yul\":21860:21861   */\n      0x01\n        /* \"#utility.yul\":21852:21858   */\n      dup3\n        /* \"#utility.yul\":21848:21862   */\n      add\n        /* \"#utility.yul\":21838:21862   */\n      swap2\n      pop\n        /* \"#utility.yul\":21907:21909   */\n      0x20\n        /* \"#utility.yul\":21896:21905   */\n      dup6\n        /* \"#utility.yul\":21892:21910   */\n      add\n        /* \"#utility.yul\":21879:21910   */\n      swap5\n      pop\n        /* \"#utility.yul\":21753:21757   */\n      0x20\n        /* \"#utility.yul\":21750:21751   */\n      dup2\n        /* \"#utility.yul\":21746:21758   */\n      add\n        /* \"#utility.yul\":21741:21758   */\n      swap1\n      pop\n        /* \"#utility.yul\":21716:21924   */\n      jump(tag_434)\n    tag_436:\n        /* \"#utility.yul\":21952:21958   */\n      dup7\n        /* \"#utility.yul\":21943:21950   */\n      dup4\n        /* \"#utility.yul\":21940:21959   */\n      lt\n        /* \"#utility.yul\":21937:22116   */\n      iszero\n      tag_437\n      jumpi\n        /* \"#utility.yul\":22010:22019   */\n      dup5\n        /* \"#utility.yul\":22005:22008   */\n      dup10\n        /* \"#utility.yul\":22001:22020   */\n      add\n        /* \"#utility.yul\":21995:22021   */\n      mload\n        /* \"#utility.yul\":22053:22101   */\n      tag_438\n        /* \"#utility.yul\":22095:22099   */\n      0x1f\n        /* \"#utility.yul\":22087:22093   */\n      dup10\n        /* \"#utility.yul\":22083:22100   */\n      and\n        /* \"#utility.yul\":22072:22081   */\n      dup3\n        /* \"#utility.yul\":22053:22101   */\n      tag_205\n      jump\t// in\n    tag_438:\n        /* \"#utility.yul\":22045:22051   */\n      dup4\n        /* \"#utility.yul\":22038:22102   */\n      sstore\n        /* \"#utility.yul\":21960:22116   */\n      pop\n        /* \"#utility.yul\":21937:22116   */\n    tag_437:\n        /* \"#utility.yul\":22162:22163   */\n      0x01\n        /* \"#utility.yul\":22158:22159   */\n      0x02\n        /* \"#utility.yul\":22150:22156   */\n      dup9\n        /* \"#utility.yul\":22146:22160   */\n      mul\n        /* \"#utility.yul\":22142:22164   */\n      add\n        /* \"#utility.yul\":22136:22140   */\n      dup9\n        /* \"#utility.yul\":22129:22165   */\n      sstore\n        /* \"#utility.yul\":21565:22175   */\n      pop\n      pop\n      pop\n        /* \"#utility.yul\":21528:22414   */\n    tag_429:\n      pop\n        /* \"#utility.yul\":21120:22420   */\n      pop\n      pop\n      pop\n        /* \"#utility.yul\":21030:22420   */\n      pop\n      pop\n      jump\t// out\n        /* \"#utility.yul\":22426:22606   */\n    tag_105:\n        /* \"#utility.yul\":22474:22551   */\n      0x4e487b7100000000000000000000000000000000000000000000000000000000\n        /* \"#utility.yul\":22471:22472   */\n      0x00\n        /* \"#utility.yul\":22464:22552   */\n      mstore\n        /* \"#utility.yul\":22571:22575   */\n      0x32\n        /* \"#utility.yul\":22568:22569   */\n      0x04\n        /* \"#utility.yul\":22561:22576   */\n      mstore\n        /* \"#utility.yul\":22595:22599   */\n      0x24\n        /* \"#utility.yul\":22592:22593   */\n      0x00\n        /* \"#utility.yul\":22585:22600   */\n      revert\n        /* \"#utility.yul\":22612:22792   */\n    tag_207:\n        /* \"#utility.yul\":22660:22737   */\n      0x4e487b7100000000000000000000000000000000000000000000000000000000\n        /* \"#utility.yul\":22657:22658   */\n      0x00\n        /* \"#utility.yul\":22650:22738   */\n      mstore\n        /* \"#utility.yul\":22757:22761   */\n      0x12\n        /* \"#utility.yul\":22754:22755   */\n      0x04\n        /* \"#utility.yul\":22747:22762   */\n      mstore\n        /* \"#utility.yul\":22781:22785   */\n      0x24\n        /* \"#utility.yul\":22778:22779   */\n      0x00\n        /* \"#utility.yul\":22771:22786   */\n      revert\n        /* \"#utility.yul\":22798:22974   */\n    tag_142:\n        /* \"#utility.yul\":22830:22831   */\n      0x00\n        /* \"#utility.yul\":22847:22867   */\n      tag_442\n        /* \"#utility.yul\":22865:22866   */\n      dup3\n        /* \"#utility.yul\":22847:22867   */\n      tag_188\n      jump\t// in\n    tag_442:\n        /* \"#utility.yul\":22842:22867   */\n      swap2\n      pop\n        /* \"#utility.yul\":22881:22901   */\n      tag_443\n        /* \"#utility.yul\":22899:22900   */\n      dup4\n        /* \"#utility.yul\":22881:22901   */\n      tag_188\n      jump\t// in\n    tag_443:\n        /* \"#utility.yul\":22876:22901   */\n      swap3\n      pop\n        /* \"#utility.yul\":22920:22921   */\n      dup3\n        /* \"#utility.yul\":22910:22945   */\n      tag_444\n      jumpi\n        /* \"#utility.yul\":22925:22943   */\n      tag_445\n      tag_207\n      jump\t// in\n    tag_445:\n        /* \"#utility.yul\":22910:22945   */\n    tag_444:\n        /* \"#utility.yul\":22966:22967   */\n      dup3\n        /* \"#utility.yul\":22963:22964   */\n      dup3\n        /* \"#utility.yul\":22959:22968   */\n      mod\n        /* \"#utility.yul\":22954:22968   */\n      swap1\n      pop\n        /* \"#utility.yul\":22798:22974   */\n      swap3\n      swap2\n      pop\n      pop\n      jump\t// out\n        /* \"#utility.yul\":22980:23171   */\n    tag_144:\n        /* \"#utility.yul\":23020:23023   */\n      0x00\n        /* \"#utility.yul\":23039:23059   */\n      tag_447\n        /* \"#utility.yul\":23057:23058   */\n      dup3\n        /* \"#utility.yul\":23039:23059   */\n      tag_188\n      jump\t// in\n    tag_447:\n        /* \"#utility.yul\":23034:23059   */\n      swap2\n      pop\n        /* \"#utility.yul\":23073:23093   */\n      tag_448\n        /* \"#utility.yul\":23091:23092   */\n      dup4\n        /* \"#utility.yul\":23073:23093   */\n      tag_188\n      jump\t// in\n    tag_448:\n        /* \"#utility.yul\":23068:23093   */\n      swap3\n      pop\n        /* \"#utility.yul\":23116:23117   */\n      dup3\n        /* \"#utility.yul\":23113:23114   */\n      dup3\n        /* \"#utility.yul\":23109:23118   */\n      add\n        /* \"#utility.yul\":23102:23118   */\n      swap1\n      pop\n        /* \"#utility.yul\":23137:23140   */\n      dup1\n        /* \"#utility.yul\":23134:23135   */\n      dup3\n        /* \"#utility.yul\":23131:23141   */\n      gt\n        /* \"#utility.yul\":23128:23164   */\n      iszero\n      tag_449\n      jumpi\n        /* \"#utility.yul\":23144:23162   */\n      tag_450\n      tag_187\n      jump\t// in\n    tag_450:\n        /* \"#utility.yul\":23128:23164   */\n    tag_449:\n        /* \"#utility.yul\":22980:23171   */\n      swap3\n      swap2\n      pop\n      pop\n      jump\t// out\n        /* \"#utility.yul\":23177:23371   */\n    tag_146:\n        /* \"#utility.yul\":23217:23221   */\n      0x00\n        /* \"#utility.yul\":23237:23257   */\n      tag_452\n        /* \"#utility.yul\":23255:23256   */\n      dup3\n        /* \"#utility.yul\":23237:23257   */\n      tag_188\n      jump\t// in\n    tag_452:\n        /* \"#utility.yul\":23232:23257   */\n      swap2\n      pop\n        /* \"#utility.yul\":23271:23291   */\n      tag_453\n        /* \"#utility.yul\":23289:23290   */\n      dup4\n        /* \"#utility.yul\":23271:23291   */\n      tag_188\n      jump\t// in\n    tag_453:\n        /* \"#utility.yul\":23266:23291   */\n      swap3\n      pop\n        /* \"#utility.yul\":23315:23316   */\n      dup3\n        /* \"#utility.yul\":23312:23313   */\n      dup3\n        /* \"#utility.yul\":23308:23317   */\n      sub\n        /* \"#utility.yul\":23300:23317   */\n      swap1\n      pop\n        /* \"#utility.yul\":23339:23340   */\n      dup2\n        /* \"#utility.yul\":23333:23337   */\n      dup2\n        /* \"#utility.yul\":23330:23341   */\n      gt\n        /* \"#utility.yul\":23327:23364   */\n      iszero\n      tag_454\n      jumpi\n        /* \"#utility.yul\":23344:23362   */\n      tag_455\n      tag_187\n      jump\t// in\n    tag_455:\n        /* \"#utility.yul\":23327:23364   */\n    tag_454:\n        /* \"#utility.yul\":23177:23371   */\n      swap3\n      swap2\n      pop\n      pop\n      jump\t// out\n        /* \"#utility.yul\":23377:23562   */\n    tag_150:\n        /* \"#utility.yul\":23417:23418   */\n      0x00\n        /* \"#utility.yul\":23434:23454   */\n      tag_457\n        /* \"#utility.yul\":23452:23453   */\n      dup3\n        /* \"#utility.yul\":23434:23454   */\n      tag_188\n      jump\t// in\n    tag_457:\n        /* \"#utility.yul\":23429:23454   */\n      swap2\n      pop\n        /* \"#utility.yul\":23468:23488   */\n      tag_458\n        /* \"#utility.yul\":23486:23487   */\n      dup4\n        /* \"#utility.yul\":23468:23488   */\n      tag_188\n      jump\t// in\n    tag_458:\n        /* \"#utility.yul\":23463:23488   */\n      swap3\n      pop\n        /* \"#utility.yul\":23507:23508   */\n      dup3\n        /* \"#utility.yul\":23497:23532   */\n      tag_459\n      jumpi\n        /* \"#utility.yul\":23512:23530   */\n      tag_460\n      tag_207\n      jump\t// in\n    tag_460:\n        /* \"#utility.yul\":23497:23532   */\n    tag_459:\n        /* \"#utility.yul\":23554:23555   */\n      dup3\n        /* \"#utility.yul\":23551:23552   */\n      dup3\n        /* \"#utility.yul\":23547:23556   */\n      div\n        /* \"#utility.yul\":23542:23556   */\n      swap1\n      pop\n        /* \"#utility.yul\":23377:23562   */\n      swap3\n      swap2\n      pop\n      pop\n      jump\t// out\n        /* \"#utility.yul\":23568:23739   */\n    tag_152:\n        /* \"#utility.yul\":23607:23610   */\n      0x00\n        /* \"#utility.yul\":23630:23654   */\n      tag_462\n        /* \"#utility.yul\":23648:23653   */\n      dup3\n        /* \"#utility.yul\":23630:23654   */\n      tag_188\n      jump\t// in\n    tag_462:\n        /* \"#utility.yul\":23621:23654   */\n      swap2\n      pop\n        /* \"#utility.yul\":23676:23680   */\n      0x00\n        /* \"#utility.yul\":23669:23674   */\n      dup3\n        /* \"#utility.yul\":23666:23681   */\n      sub\n        /* \"#utility.yul\":23663:23704   */\n      tag_463\n      jumpi\n        /* \"#utility.yul\":23684:23702   */\n      tag_464\n      tag_187\n      jump\t// in\n    tag_464:\n        /* \"#utility.yul\":23663:23704   */\n    tag_463:\n        /* \"#utility.yul\":23731:23732   */\n      0x01\n        /* \"#utility.yul\":23724:23729   */\n      dup3\n        /* \"#utility.yul\":23720:23733   */\n      sub\n        /* \"#utility.yul\":23713:23733   */\n      swap1\n      pop\n        /* \"#utility.yul\":23568:23739   */\n      swap2\n      swap1\n      pop\n      jump\t// out\n\n    auxdata: 0xa264697066735822122002ceecb2b82ae877f513a76250d70a589b019d838f754bd18d0272445f28d4aa64736f6c634300081a0033\n}\n",
				"bytecode": {
					"linkReferences": {},
					"object": "60806040525f600255348015610013575f80fd5b50604051611b4e380380611b4e833981810160405281019061003591906100f2565b805f80815481106100495761004861011d565b5b905f5260205f20015f6101000a81548173ffffffffffffffffffffffffffffffffffffffff021916908373ffffffffffffffffffffffffffffffffffffffff1602179055505061014a565b5f80fd5b5f73ffffffffffffffffffffffffffffffffffffffff82169050919050565b5f6100c182610098565b9050919050565b6100d1816100b7565b81146100db575f80fd5b50565b5f815190506100ec816100c8565b92915050565b5f6020828403121561010757610106610094565b5b5f610114848285016100de565b91505092915050565b7f4e487b71000000000000000000000000000000000000000000000000000000005f52603260045260245ffd5b6119f7806101575f395ff3fe608060405234801561000f575f80fd5b5060043610610055575f3560e01c8063930b5e8014610059578063bd153a841461008a578063ced30d6f146100c2578063d40811cb146100f3578063d8635bad14610123575b5f80fd5b610073600480360381019061006e9190610e29565b610159565b604051610081929190610fcc565b60405180910390f35b6100a4600480360381019061009f9190611098565b6102ba565b6040516100b9999897969594939291906110ee565b60405180910390f35b6100dc60048036038101906100d791906111a3565b6106b1565b6040516100ea929190610fcc565b60405180910390f35b61010d60048036038101906101089190611356565b610820565b60405161011a9190611381565b60405180910390f35b61013d60048036038101906101389190611098565b6108c0565b60405161015097969594939291906113ec565b60405180910390f35b5f60603361016681610820565b6101a5576040517f08c379a000000000000000000000000000000000000000000000000000000000815260040161019c906114c6565b60405180910390fd5b5f6040518060e001604052808c81526020018b81526020018981526020018a815260200188815260200187815260200186815250905060025f8154809291906101ed9061151a565b91905055505f610200600254600a610bb4565b905081600182604051610213919061159b565b90815260200160405180910390205f820151815f01908161023491906117ab565b50602082015181600101908161024a91906117ab565b50604082015181600201908161026091906117ab565b5060608201518160030155608082015181600401908161028091906117ab565b5060a0820151816005015560c08201518160060190816102a091906117ab565b509050506001945080935050505097509795505050505050565b6060805f6060805f60605f6060336102d181610820565b610310576040517f08c379a0000000000000000000000000000000000000000000000000000000008152600401610307906114c6565b60405180910390fd5b5f60018c604051610321919061159b565b90815260200160405180910390206040518060e00160405290815f82018054610349906115de565b80601f0160208091040260200160405190810160405280929190818152602001828054610375906115de565b80156103c05780601f10610397576101008083540402835291602001916103c0565b820191905f5260205f20905b8154815290600101906020018083116103a357829003601f168201915b505050505081526020016001820180546103d9906115de565b80601f0160208091040260200160405190810160405280929190818152602001828054610405906115de565b80156104505780601f1061042757610100808354040283529160200191610450565b820191905f5260205f20905b81548152906001019060200180831161043357829003601f168201915b50505050508152602001600282018054610469906115de565b80601f0160208091040260200160405190810160405280929190818152602001828054610495906115de565b80156104e05780601f106104b7576101008083540402835291602001916104e0565b820191905f5260205f20905b8154815290600101906020018083116104c357829003601f168201915b5050505050815260200160038201548152602001600482018054610503906115de565b80601f016020809104026020016040519081016040528092919081815260200182805461052f906115de565b801561057a5780601f106105515761010080835404028352916020019161057a565b820191905f5260205f20905b81548152906001019060200180831161055d57829003601f168201915b505050505081526020016005820154815260200160068201805461059d906115de565b80601f01602080910402602001604051908101604052809291908181526020018280546105c9906115de565b80156106145780601f106105eb57610100808354040283529160200191610614565b820191905f5260205f20905b8154815290600101906020018083116105f757829003601f168201915b50505050508152505090505f816020015151111561066557805f01519a508060200151995080606001519850806040015197508060a0015195508060c00151945080608001519650600193506106a2565b600193506040518060400160405280600d81526020017f4e6f204461746120466f756e640000000000000000000000000000000000000081525092505b50509193959799909294969850565b5f6060336106be81610820565b6106fd576040517f08c379a00000000000000000000000000000000000000000000000000000000081526004016106f4906114c6565b60405180910390fd5b5f6040518060e001604052808d81526020018c81526020018a81526020018b815260200189815260200188815260200187815250905080600186604051610744919061159b565b90815260200160405180910390205f820151815f01908161076591906117ab565b50602082015181600101908161077b91906117ab565b50604082015181600201908161079191906117ab565b506060820151816003015560808201518160040190816107b191906117ab565b5060a0820151816005015560c08201518160060190816107d191906117ab565b50905050600193506040518060400160405280601481526020017f55706461746564205375636365737366756c6c79000000000000000000000000815250925050509850989650505050505050565b5f805f90505b5f805490508110156108b6578273ffffffffffffffffffffffffffffffffffffffff165f828154811061085c5761085b61187a565b5b905f5260205f20015f9054906101000a900473ffffffffffffffffffffffffffffffffffffffff1673ffffffffffffffffffffffffffffffffffffffff16036108a95760019150506108bb565b8080600101915050610826565b505f90505b919050565b6001818051602081018201805184825260208301602085012081835280955050505050505f91509050805f0180546108f7906115de565b80601f0160208091040260200160405190810160405280929190818152602001828054610923906115de565b801561096e5780601f106109455761010080835404028352916020019161096e565b820191905f5260205f20905b81548152906001019060200180831161095157829003601f168201915b505050505090806001018054610983906115de565b80601f01602080910402602001604051908101604052809291908181526020018280546109af906115de565b80156109fa5780601f106109d1576101008083540402835291602001916109fa565b820191905f5260205f20905b8154815290600101906020018083116109dd57829003601f168201915b505050505090806002018054610a0f906115de565b80601f0160208091040260200160405190810160405280929190818152602001828054610a3b906115de565b8015610a865780601f10610a5d57610100808354040283529160200191610a86565b820191905f5260205f20905b815481529060010190602001808311610a6957829003601f168201915b505050505090806003015490806004018054610aa1906115de565b80601f0160208091040260200160405190810160405280929190818152602001828054610acd906115de565b8015610b185780601f10610aef57610100808354040283529160200191610b18565b820191905f5260205f20905b815481529060010190602001808311610afb57829003601f168201915b505050505090806005015490806006018054610b33906115de565b80601f0160208091040260200160405190810160405280929190818152602001828054610b5f906115de565b8015610baa5780601f10610b8157610100808354040283529160200191610baa565b820191905f5260205f20905b815481529060010190602001808311610b8d57829003601f168201915b5050505050905087565b60605f8267ffffffffffffffff811115610bd157610bd0610cd2565b5b6040519080825280601f01601f191660200182016040528015610c035781602001600182028036833780820191505090505b5090505f8390505b5f811115610c9e57600a85610c2091906118d4565b6030610c2c9190611904565b60f81b82600183610c3d9190611937565b81518110610c4e57610c4d61187a565b5b60200101907effffffffffffffffffffffffffffffffffffffffffffffffffffffffffffff191690815f1a905350600a85610c89919061196a565b94508080610c969061199a565b915050610c0b565b508091505092915050565b5f604051905090565b5f80fd5b5f80fd5b5f80fd5b5f80fd5b5f601f19601f8301169050919050565b7f4e487b71000000000000000000000000000000000000000000000000000000005f52604160045260245ffd5b610d0882610cc2565b810181811067ffffffffffffffff82111715610d2757610d26610cd2565b5b80604052505050565b5f610d39610ca9565b9050610d458282610cff565b919050565b5f67ffffffffffffffff821115610d6457610d63610cd2565b5b610d6d82610cc2565b9050602081019050919050565b828183375f83830152505050565b5f610d9a610d9584610d4a565b610d30565b905082815260208101848484011115610db657610db5610cbe565b5b610dc1848285610d7a565b509392505050565b5f82601f830112610ddd57610ddc610cba565b5b8135610ded848260208601610d88565b91505092915050565b5f819050919050565b610e0881610df6565b8114610e12575f80fd5b50565b5f81359050610e2381610dff565b92915050565b5f805f805f805f60e0888a031215610e4457610e43610cb2565b5b5f88013567ffffffffffffffff811115610e6157610e60610cb6565b5b610e6d8a828b01610dc9565b975050602088013567ffffffffffffffff811115610e8e57610e8d610cb6565b5b610e9a8a828b01610dc9565b9650506040610eab8a828b01610e15565b955050606088013567ffffffffffffffff811115610ecc57610ecb610cb6565b5b610ed88a828b01610dc9565b945050608088013567ffffffffffffffff811115610ef957610ef8610cb6565b5b610f058a828b01610dc9565b93505060a0610f168a828b01610e15565b92505060c088013567ffffffffffffffff811115610f3757610f36610cb6565b5b610f438a828b01610dc9565b91505092959891949750929550565b5f8115159050919050565b610f6681610f52565b82525050565b5f81519050919050565b5f82825260208201905092915050565b8281835e5f83830152505050565b5f610f9e82610f6c565b610fa88185610f76565b9350610fb8818560208601610f86565b610fc181610cc2565b840191505092915050565b5f604082019050610fdf5f830185610f5d565b8181036020830152610ff18184610f94565b90509392505050565b5f67ffffffffffffffff82111561101457611013610cd2565b5b61101d82610cc2565b9050602081019050919050565b5f61103c61103784610ffa565b610d30565b90508281526020810184848401111561105857611057610cbe565b5b611063848285610d7a565b509392505050565b5f82601f83011261107f5761107e610cba565b5b813561108f84826020860161102a565b91505092915050565b5f602082840312156110ad576110ac610cb2565b5b5f82013567ffffffffffffffff8111156110ca576110c9610cb6565b5b6110d68482850161106b565b91505092915050565b6110e881610df6565b82525050565b5f610120820190508181035f830152611107818c610f94565b9050818103602083015261111b818b610f94565b905061112a604083018a6110df565b818103606083015261113c8189610f94565b905081810360808301526111508188610f94565b905061115f60a08301876110df565b81810360c08301526111718186610f94565b905061118060e0830185610f5d565b8181036101008301526111938184610f94565b90509a9950505050505050505050565b5f805f805f805f80610100898b0312156111c0576111bf610cb2565b5b5f89013567ffffffffffffffff8111156111dd576111dc610cb6565b5b6111e98b828c01610dc9565b985050602089013567ffffffffffffffff81111561120a57611209610cb6565b5b6112168b828c01610dc9565b97505060406112278b828c01610e15565b965050606089013567ffffffffffffffff81111561124857611247610cb6565b5b6112548b828c01610dc9565b955050608089013567ffffffffffffffff81111561127557611274610cb6565b5b6112818b828c01610dc9565b94505060a06112928b828c01610e15565b93505060c089013567ffffffffffffffff8111156112b3576112b2610cb6565b5b6112bf8b828c01610dc9565b92505060e089013567ffffffffffffffff8111156112e0576112df610cb6565b5b6112ec8b828c0161106b565b9150509295985092959890939650565b5f73ffffffffffffffffffffffffffffffffffffffff82169050919050565b5f611325826112fc565b9050919050565b6113358161131b565b811461133f575f80fd5b50565b5f813590506113508161132c565b92915050565b5f6020828403121561136b5761136a610cb2565b5b5f61137884828501611342565b91505092915050565b5f6020820190506113945f830184610f5d565b92915050565b5f81519050919050565b5f82825260208201905092915050565b5f6113be8261139a565b6113c881856113a4565b93506113d8818560208601610f86565b6113e181610cc2565b840191505092915050565b5f60e0820190508181035f830152611404818a6113b4565b9050818103602083015261141881896113b4565b9050818103604083015261142c81886113b4565b905061143b60608301876110df565b818103608083015261144d81866113b4565b905061145c60a08301856110df565b81810360c083015261146e81846113b4565b905098975050505050505050565b7f596f7520617265206e6f7420617574686f72697a6564000000000000000000005f82015250565b5f6114b0601683610f76565b91506114bb8261147c565b602082019050919050565b5f6020820190508181035f8301526114dd816114a4565b9050919050565b7f4e487b71000000000000000000000000000000000000000000000000000000005f52601160045260245ffd5b5f819050919050565b5f61152482611511565b91507fffffffffffffffffffffffffffffffffffffffffffffffffffffffffffffffff8203611556576115556114e4565b5b600182019050919050565b5f81905092915050565b5f61157582610f6c565b61157f8185611561565b935061158f818560208601610f86565b80840191505092915050565b5f6115a6828461156b565b915081905092915050565b7f4e487b71000000000000000000000000000000000000000000000000000000005f52602260045260245ffd5b5f60028204905060018216806115f557607f821691505b602082108103611608576116076115b1565b5b50919050565b5f819050815f5260205f209050919050565b5f6020601f8301049050919050565b5f82821b905092915050565b5f6008830261166a7fffffffffffffffffffffffffffffffffffffffffffffffffffffffffffffffff8261162f565b611674868361162f565b95508019841693508086168417925050509392505050565b5f819050919050565b5f6116af6116aa6116a584611511565b61168c565b611511565b9050919050565b5f819050919050565b6116c883611695565b6116dc6116d4826116b6565b84845461163b565b825550505050565b5f90565b6116f06116e4565b6116fb8184846116bf565b505050565b5b8181101561171e576117135f826116e8565b600181019050611701565b5050565b601f821115611763576117348161160e565b61173d84611620565b8101602085101561174c578190505b61176061175885611620565b830182611700565b50505b505050565b5f82821c905092915050565b5f6117835f1984600802611768565b1980831691505092915050565b5f61179b8383611774565b9150826002028217905092915050565b6117b48261139a565b67ffffffffffffffff8111156117cd576117cc610cd2565b5b6117d782546115de565b6117e2828285611722565b5f60209050601f831160018114611813575f8415611801578287015190505b61180b8582611790565b865550611872565b601f1984166118218661160e565b5f5b8281101561184857848901518255600182019150602085019450602081019050611823565b868310156118655784890151611861601f891682611774565b8355505b6001600288020188555050505b505050505050565b7f4e487b71000000000000000000000000000000000000000000000000000000005f52603260045260245ffd5b7f4e487b71000000000000000000000000000000000000000000000000000000005f52601260045260245ffd5b5f6118de82611511565b91506118e983611511565b9250826118f9576118f86118a7565b5b828206905092915050565b5f61190e82611511565b915061191983611511565b9250828201905080821115611931576119306114e4565b5b92915050565b5f61194182611511565b915061194c83611511565b9250828203905081811115611964576119636114e4565b5b92915050565b5f61197482611511565b915061197f83611511565b92508261198f5761198e6118a7565b5b828204905092915050565b5f6119a482611511565b91505f82036119b6576119b56114e4565b5b60018203905091905056fea264697066735822122002ceecb2b82ae877f513a76250d70a589b019d838f754bd18d0272445f28d4aa64736f6c634300081a0033",
					"opcodes": "PUSH1 0x80 PUSH1 0x40 MSTORE PUSH0 PUSH1 0x2 SSTORE CALLVALUE DUP1 ISZERO PUSH2 0x13 JUMPI PUSH0 DUP1 REVERT JUMPDEST POP PUSH1 0x40 MLOAD PUSH2 0x1B4E CODESIZE SUB DUP1 PUSH2 0x1B4E DUP4 CODECOPY DUP2 DUP2 ADD PUSH1 0x40 MSTORE DUP2 ADD SWAP1 PUSH2 0x35 SWAP2 SWAP1 PUSH2 0xF2 JUMP JUMPDEST DUP1 PUSH0 DUP1 DUP2 SLOAD DUP2 LT PUSH2 0x49 JUMPI PUSH2 0x48 PUSH2 0x11D JUMP JUMPDEST JUMPDEST SWAP1 PUSH0 MSTORE PUSH1 0x20 PUSH0 KECCAK256 ADD PUSH0 PUSH2 0x100 EXP DUP2 SLOAD DUP2 PUSH20 0xFFFFFFFFFFFFFFFFFFFFFFFFFFFFFFFFFFFFFFFF MUL NOT AND SWAP1 DUP4 PUSH20 0xFFFFFFFFFFFFFFFFFFFFFFFFFFFFFFFFFFFFFFFF AND MUL OR SWAP1 SSTORE POP POP PUSH2 0x14A JUMP JUMPDEST PUSH0 DUP1 REVERT JUMPDEST PUSH0 PUSH20 0xFFFFFFFFFFFFFFFFFFFFFFFFFFFFFFFFFFFFFFFF DUP3 AND SWAP1 POP SWAP2 SWAP1 POP JUMP JUMPDEST PUSH0 PUSH2 0xC1 DUP3 PUSH2 0x98 JUMP JUMPDEST SWAP1 POP SWAP2 SWAP1 POP JUMP JUMPDEST PUSH2 0xD1 DUP2 PUSH2 0xB7 JUMP JUMPDEST DUP2 EQ PUSH2 0xDB JUMPI PUSH0 DUP1 REVERT JUMPDEST POP JUMP JUMPDEST PUSH0 DUP2 MLOAD SWAP1 POP PUSH2 0xEC DUP2 PUSH2 0xC8 JUMP JUMPDEST SWAP3 SWAP2 POP POP JUMP JUMPDEST PUSH0 PUSH1 0x20 DUP3 DUP5 SUB SLT ISZERO PUSH2 0x107 JUMPI PUSH2 0x106 PUSH2 0x94 JUMP JUMPDEST JUMPDEST PUSH0 PUSH2 0x114 DUP5 DUP3 DUP6 ADD PUSH2 0xDE JUMP JUMPDEST SWAP2 POP POP SWAP3 SWAP2 POP POP JUMP JUMPDEST PUSH32 0x4E487B7100000000000000000000000000000000000000000000000000000000 PUSH0 MSTORE PUSH1 0x32 PUSH1 0x4 MSTORE PUSH1 0x24 PUSH0 REVERT JUMPDEST PUSH2 0x19F7 DUP1 PUSH2 0x157 PUSH0 CODECOPY PUSH0 RETURN INVALID PUSH1 0x80 PUSH1 0x40 MSTORE CALLVALUE DUP1 ISZERO PUSH2 0xF JUMPI PUSH0 DUP1 REVERT JUMPDEST POP PUSH1 0x4 CALLDATASIZE LT PUSH2 0x55 JUMPI PUSH0 CALLDATALOAD PUSH1 0xE0 SHR DUP1 PUSH4 0x930B5E80 EQ PUSH2 0x59 JUMPI DUP1 PUSH4 0xBD153A84 EQ PUSH2 0x8A JUMPI DUP1 PUSH4 0xCED30D6F EQ PUSH2 0xC2 JUMPI DUP1 PUSH4 0xD40811CB EQ PUSH2 0xF3 JUMPI DUP1 PUSH4 0xD8635BAD EQ PUSH2 0x123 JUMPI JUMPDEST PUSH0 DUP1 REVERT JUMPDEST PUSH2 0x73 PUSH1 0x4 DUP1 CALLDATASIZE SUB DUP2 ADD SWAP1 PUSH2 0x6E SWAP2 SWAP1 PUSH2 0xE29 JUMP JUMPDEST PUSH2 0x159 JUMP JUMPDEST PUSH1 0x40 MLOAD PUSH2 0x81 SWAP3 SWAP2 SWAP1 PUSH2 0xFCC JUMP JUMPDEST PUSH1 0x40 MLOAD DUP1 SWAP2 SUB SWAP1 RETURN JUMPDEST PUSH2 0xA4 PUSH1 0x4 DUP1 CALLDATASIZE SUB DUP2 ADD SWAP1 PUSH2 0x9F SWAP2 SWAP1 PUSH2 0x1098 JUMP JUMPDEST PUSH2 0x2BA JUMP JUMPDEST PUSH1 0x40 MLOAD PUSH2 0xB9 SWAP10 SWAP9 SWAP8 SWAP7 SWAP6 SWAP5 SWAP4 SWAP3 SWAP2 SWAP1 PUSH2 0x10EE JUMP JUMPDEST PUSH1 0x40 MLOAD DUP1 SWAP2 SUB SWAP1 RETURN JUMPDEST PUSH2 0xDC PUSH1 0x4 DUP1 CALLDATASIZE SUB DUP2 ADD SWAP1 PUSH2 0xD7 SWAP2 SWAP1 PUSH2 0x11A3 JUMP JUMPDEST PUSH2 0x6B1 JUMP JUMPDEST PUSH1 0x40 MLOAD PUSH2 0xEA SWAP3 SWAP2 SWAP1 PUSH2 0xFCC JUMP JUMPDEST PUSH1 0x40 MLOAD DUP1 SWAP2 SUB SWAP1 RETURN JUMPDEST PUSH2 0x10D PUSH1 0x4 DUP1 CALLDATASIZE SUB DUP2 ADD SWAP1 PUSH2 0x108 SWAP2 SWAP1 PUSH2 0x1356 JUMP JUMPDEST PUSH2 0x820 JUMP JUMPDEST PUSH1 0x40 MLOAD PUSH2 0x11A SWAP2 SWAP1 PUSH2 0x1381 JUMP JUMPDEST PUSH1 0x40 MLOAD DUP1 SWAP2 SUB SWAP1 RETURN JUMPDEST PUSH2 0x13D PUSH1 0x4 DUP1 CALLDATASIZE SUB DUP2 ADD SWAP1 PUSH2 0x138 SWAP2 SWAP1 PUSH2 0x1098 JUMP JUMPDEST PUSH2 0x8C0 JUMP JUMPDEST PUSH1 0x40 MLOAD PUSH2 0x150 SWAP8 SWAP7 SWAP6 SWAP5 SWAP4 SWAP3 SWAP2 SWAP1 PUSH2 0x13EC JUMP JUMPDEST PUSH1 0x40 MLOAD DUP1 SWAP2 SUB SWAP1 RETURN JUMPDEST PUSH0 PUSH1 0x60 CALLER PUSH2 0x166 DUP2 PUSH2 0x820 JUMP JUMPDEST PUSH2 0x1A5 JUMPI PUSH1 0x40 MLOAD PUSH32 0x8C379A000000000000000000000000000000000000000000000000000000000 DUP2 MSTORE PUSH1 0x4 ADD PUSH2 0x19C SWAP1 PUSH2 0x14C6 JUMP JUMPDEST PUSH1 0x40 MLOAD DUP1 SWAP2 SUB SWAP1 REVERT JUMPDEST PUSH0 PUSH1 0x40 MLOAD DUP1 PUSH1 0xE0 ADD PUSH1 0x40 MSTORE DUP1 DUP13 DUP2 MSTORE PUSH1 0x20 ADD DUP12 DUP2 MSTORE PUSH1 0x20 ADD DUP10 DUP2 MSTORE PUSH1 0x20 ADD DUP11 DUP2 MSTORE PUSH1 0x20 ADD DUP9 DUP2 MSTORE PUSH1 0x20 ADD DUP8 DUP2 MSTORE PUSH1 0x20 ADD DUP7 DUP2 MSTORE POP SWAP1 POP PUSH1 0x2 PUSH0 DUP2 SLOAD DUP1 SWAP3 SWAP2 SWAP1 PUSH2 0x1ED SWAP1 PUSH2 0x151A JUMP JUMPDEST SWAP2 SWAP1 POP SSTORE POP PUSH0 PUSH2 0x200 PUSH1 0x2 SLOAD PUSH1 0xA PUSH2 0xBB4 JUMP JUMPDEST SWAP1 POP DUP2 PUSH1 0x1 DUP3 PUSH1 0x40 MLOAD PUSH2 0x213 SWAP2 SWAP1 PUSH2 0x159B JUMP JUMPDEST SWAP1 DUP2 MSTORE PUSH1 0x20 ADD PUSH1 0x40 MLOAD DUP1 SWAP2 SUB SWAP1 KECCAK256 PUSH0 DUP3 ADD MLOAD DUP2 PUSH0 ADD SWAP1 DUP2 PUSH2 0x234 SWAP2 SWAP1 PUSH2 0x17AB JUMP JUMPDEST POP PUSH1 0x20 DUP3 ADD MLOAD DUP2 PUSH1 0x1 ADD SWAP1 DUP2 PUSH2 0x24A SWAP2 SWAP1 PUSH2 0x17AB JUMP JUMPDEST POP PUSH1 0x40 DUP3 ADD MLOAD DUP2 PUSH1 0x2 ADD SWAP1 DUP2 PUSH2 0x260 SWAP2 SWAP1 PUSH2 0x17AB JUMP JUMPDEST POP PUSH1 0x60 DUP3 ADD MLOAD DUP2 PUSH1 0x3 ADD SSTORE PUSH1 0x80 DUP3 ADD MLOAD DUP2 PUSH1 0x4 ADD SWAP1 DUP2 PUSH2 0x280 SWAP2 SWAP1 PUSH2 0x17AB JUMP JUMPDEST POP PUSH1 0xA0 DUP3 ADD MLOAD DUP2 PUSH1 0x5 ADD SSTORE PUSH1 0xC0 DUP3 ADD MLOAD DUP2 PUSH1 0x6 ADD SWAP1 DUP2 PUSH2 0x2A0 SWAP2 SWAP1 PUSH2 0x17AB JUMP JUMPDEST POP SWAP1 POP POP PUSH1 0x1 SWAP5 POP DUP1 SWAP4 POP POP POP POP SWAP8 POP SWAP8 SWAP6 POP POP POP POP POP POP JUMP JUMPDEST PUSH1 0x60 DUP1 PUSH0 PUSH1 0x60 DUP1 PUSH0 PUSH1 0x60 PUSH0 PUSH1 0x60 CALLER PUSH2 0x2D1 DUP2 PUSH2 0x820 JUMP JUMPDEST PUSH2 0x310 JUMPI PUSH1 0x40 MLOAD PUSH32 0x8C379A000000000000000000000000000000000000000000000000000000000 DUP2 MSTORE PUSH1 0x4 ADD PUSH2 0x307 SWAP1 PUSH2 0x14C6 JUMP JUMPDEST PUSH1 0x40 MLOAD DUP1 SWAP2 SUB SWAP1 REVERT JUMPDEST PUSH0 PUSH1 0x1 DUP13 PUSH1 0x40 MLOAD PUSH2 0x321 SWAP2 SWAP1 PUSH2 0x159B JUMP JUMPDEST SWAP1 DUP2 MSTORE PUSH1 0x20 ADD PUSH1 0x40 MLOAD DUP1 SWAP2 SUB SWAP1 KECCAK256 PUSH1 0x40 MLOAD DUP1 PUSH1 0xE0 ADD PUSH1 0x40 MSTORE SWAP1 DUP2 PUSH0 DUP3 ADD DUP1 SLOAD PUSH2 0x349 SWAP1 PUSH2 0x15DE JUMP JUMPDEST DUP1 PUSH1 0x1F ADD PUSH1 0x20 DUP1 SWAP2 DIV MUL PUSH1 0x20 ADD PUSH1 0x40 MLOAD SWAP1 DUP2 ADD PUSH1 0x40 MSTORE DUP1 SWAP3 SWAP2 SWAP1 DUP2 DUP2 MSTORE PUSH1 0x20 ADD DUP3 DUP1 SLOAD PUSH2 0x375 SWAP1 PUSH2 0x15DE JUMP JUMPDEST DUP1 ISZERO PUSH2 0x3C0 JUMPI DUP1 PUSH1 0x1F LT PUSH2 0x397 JUMPI PUSH2 0x100 DUP1 DUP4 SLOAD DIV MUL DUP4 MSTORE SWAP2 PUSH1 0x20 ADD SWAP2 PUSH2 0x3C0 JUMP JUMPDEST DUP3 ADD SWAP2 SWAP1 PUSH0 MSTORE PUSH1 0x20 PUSH0 KECCAK256 SWAP1 JUMPDEST DUP2 SLOAD DUP2 MSTORE SWAP1 PUSH1 0x1 ADD SWAP1 PUSH1 0x20 ADD DUP1 DUP4 GT PUSH2 0x3A3 JUMPI DUP3 SWAP1 SUB PUSH1 0x1F AND DUP3 ADD SWAP2 JUMPDEST POP POP POP POP POP DUP2 MSTORE PUSH1 0x20 ADD PUSH1 0x1 DUP3 ADD DUP1 SLOAD PUSH2 0x3D9 SWAP1 PUSH2 0x15DE JUMP JUMPDEST DUP1 PUSH1 0x1F ADD PUSH1 0x20 DUP1 SWAP2 DIV MUL PUSH1 0x20 ADD PUSH1 0x40 MLOAD SWAP1 DUP2 ADD PUSH1 0x40 MSTORE DUP1 SWAP3 SWAP2 SWAP1 DUP2 DUP2 MSTORE PUSH1 0x20 ADD DUP3 DUP1 SLOAD PUSH2 0x405 SWAP1 PUSH2 0x15DE JUMP JUMPDEST DUP1 ISZERO PUSH2 0x450 JUMPI DUP1 PUSH1 0x1F LT PUSH2 0x427 JUMPI PUSH2 0x100 DUP1 DUP4 SLOAD DIV MUL DUP4 MSTORE SWAP2 PUSH1 0x20 ADD SWAP2 PUSH2 0x450 JUMP JUMPDEST DUP3 ADD SWAP2 SWAP1 PUSH0 MSTORE PUSH1 0x20 PUSH0 KECCAK256 SWAP1 JUMPDEST DUP2 SLOAD DUP2 MSTORE SWAP1 PUSH1 0x1 ADD SWAP1 PUSH1 0x20 ADD DUP1 DUP4 GT PUSH2 0x433 JUMPI DUP3 SWAP1 SUB PUSH1 0x1F AND DUP3 ADD SWAP2 JUMPDEST POP POP POP POP POP DUP2 MSTORE PUSH1 0x20 ADD PUSH1 0x2 DUP3 ADD DUP1 SLOAD PUSH2 0x469 SWAP1 PUSH2 0x15DE JUMP JUMPDEST DUP1 PUSH1 0x1F ADD PUSH1 0x20 DUP1 SWAP2 DIV MUL PUSH1 0x20 ADD PUSH1 0x40 MLOAD SWAP1 DUP2 ADD PUSH1 0x40 MSTORE DUP1 SWAP3 SWAP2 SWAP1 DUP2 DUP2 MSTORE PUSH1 0x20 ADD DUP3 DUP1 SLOAD PUSH2 0x495 SWAP1 PUSH2 0x15DE JUMP JUMPDEST DUP1 ISZERO PUSH2 0x4E0 JUMPI DUP1 PUSH1 0x1F LT PUSH2 0x4B7 JUMPI PUSH2 0x100 DUP1 DUP4 SLOAD DIV MUL DUP4 MSTORE SWAP2 PUSH1 0x20 ADD SWAP2 PUSH2 0x4E0 JUMP JUMPDEST DUP3 ADD SWAP2 SWAP1 PUSH0 MSTORE PUSH1 0x20 PUSH0 KECCAK256 SWAP1 JUMPDEST DUP2 SLOAD DUP2 MSTORE SWAP1 PUSH1 0x1 ADD SWAP1 PUSH1 0x20 ADD DUP1 DUP4 GT PUSH2 0x4C3 JUMPI DUP3 SWAP1 SUB PUSH1 0x1F AND DUP3 ADD SWAP2 JUMPDEST POP POP POP POP POP DUP2 MSTORE PUSH1 0x20 ADD PUSH1 0x3 DUP3 ADD SLOAD DUP2 MSTORE PUSH1 0x20 ADD PUSH1 0x4 DUP3 ADD DUP1 SLOAD PUSH2 0x503 SWAP1 PUSH2 0x15DE JUMP JUMPDEST DUP1 PUSH1 0x1F ADD PUSH1 0x20 DUP1 SWAP2 DIV MUL PUSH1 0x20 ADD PUSH1 0x40 MLOAD SWAP1 DUP2 ADD PUSH1 0x40 MSTORE DUP1 SWAP3 SWAP2 SWAP1 DUP2 DUP2 MSTORE PUSH1 0x20 ADD DUP3 DUP1 SLOAD PUSH2 0x52F SWAP1 PUSH2 0x15DE JUMP JUMPDEST DUP1 ISZERO PUSH2 0x57A JUMPI DUP1 PUSH1 0x1F LT PUSH2 0x551 JUMPI PUSH2 0x100 DUP1 DUP4 SLOAD DIV MUL DUP4 MSTORE SWAP2 PUSH1 0x20 ADD SWAP2 PUSH2 0x57A JUMP JUMPDEST DUP3 ADD SWAP2 SWAP1 PUSH0 MSTORE PUSH1 0x20 PUSH0 KECCAK256 SWAP1 JUMPDEST DUP2 SLOAD DUP2 MSTORE SWAP1 PUSH1 0x1 ADD SWAP1 PUSH1 0x20 ADD DUP1 DUP4 GT PUSH2 0x55D JUMPI DUP3 SWAP1 SUB PUSH1 0x1F AND DUP3 ADD SWAP2 JUMPDEST POP POP POP POP POP DUP2 MSTORE PUSH1 0x20 ADD PUSH1 0x5 DUP3 ADD SLOAD DUP2 MSTORE PUSH1 0x20 ADD PUSH1 0x6 DUP3 ADD DUP1 SLOAD PUSH2 0x59D SWAP1 PUSH2 0x15DE JUMP JUMPDEST DUP1 PUSH1 0x1F ADD PUSH1 0x20 DUP1 SWAP2 DIV MUL PUSH1 0x20 ADD PUSH1 0x40 MLOAD SWAP1 DUP2 ADD PUSH1 0x40 MSTORE DUP1 SWAP3 SWAP2 SWAP1 DUP2 DUP2 MSTORE PUSH1 0x20 ADD DUP3 DUP1 SLOAD PUSH2 0x5C9 SWAP1 PUSH2 0x15DE JUMP JUMPDEST DUP1 ISZERO PUSH2 0x614 JUMPI DUP1 PUSH1 0x1F LT PUSH2 0x5EB JUMPI PUSH2 0x100 DUP1 DUP4 SLOAD DIV MUL DUP4 MSTORE SWAP2 PUSH1 0x20 ADD SWAP2 PUSH2 0x614 JUMP JUMPDEST DUP3 ADD SWAP2 SWAP1 PUSH0 MSTORE PUSH1 0x20 PUSH0 KECCAK256 SWAP1 JUMPDEST DUP2 SLOAD DUP2 MSTORE SWAP1 PUSH1 0x1 ADD SWAP1 PUSH1 0x20 ADD DUP1 DUP4 GT PUSH2 0x5F7 JUMPI DUP3 SWAP1 SUB PUSH1 0x1F AND DUP3 ADD SWAP2 JUMPDEST POP POP POP POP POP DUP2 MSTORE POP POP SWAP1 POP PUSH0 DUP2 PUSH1 0x20 ADD MLOAD MLOAD GT ISZERO PUSH2 0x665 JUMPI DUP1 PUSH0 ADD MLOAD SWAP11 POP DUP1 PUSH1 0x20 ADD MLOAD SWAP10 POP DUP1 PUSH1 0x60 ADD MLOAD SWAP9 POP DUP1 PUSH1 0x40 ADD MLOAD SWAP8 POP DUP1 PUSH1 0xA0 ADD MLOAD SWAP6 POP DUP1 PUSH1 0xC0 ADD MLOAD SWAP5 POP DUP1 PUSH1 0x80 ADD MLOAD SWAP7 POP PUSH1 0x1 SWAP4 POP PUSH2 0x6A2 JUMP JUMPDEST PUSH1 0x1 SWAP4 POP PUSH1 0x40 MLOAD DUP1 PUSH1 0x40 ADD PUSH1 0x40 MSTORE DUP1 PUSH1 0xD DUP2 MSTORE PUSH1 0x20 ADD PUSH32 0x4E6F204461746120466F756E6400000000000000000000000000000000000000 DUP2 MSTORE POP SWAP3 POP JUMPDEST POP POP SWAP2 SWAP4 SWAP6 SWAP8 SWAP10 SWAP1 SWAP3 SWAP5 SWAP7 SWAP9 POP JUMP JUMPDEST PUSH0 PUSH1 0x60 CALLER PUSH2 0x6BE DUP2 PUSH2 0x820 JUMP JUMPDEST PUSH2 0x6FD JUMPI PUSH1 0x40 MLOAD PUSH32 0x8C379A000000000000000000000000000000000000000000000000000000000 DUP2 MSTORE PUSH1 0x4 ADD PUSH2 0x6F4 SWAP1 PUSH2 0x14C6 JUMP JUMPDEST PUSH1 0x40 MLOAD DUP1 SWAP2 SUB SWAP1 REVERT JUMPDEST PUSH0 PUSH1 0x40 MLOAD DUP1 PUSH1 0xE0 ADD PUSH1 0x40 MSTORE DUP1 DUP14 DUP2 MSTORE PUSH1 0x20 ADD DUP13 DUP2 MSTORE PUSH1 0x20 ADD DUP11 DUP2 MSTORE PUSH1 0x20 ADD DUP12 DUP2 MSTORE PUSH1 0x20 ADD DUP10 DUP2 MSTORE PUSH1 0x20 ADD DUP9 DUP2 MSTORE PUSH1 0x20 ADD DUP8 DUP2 MSTORE POP SWAP1 POP DUP1 PUSH1 0x1 DUP7 PUSH1 0x40 MLOAD PUSH2 0x744 SWAP2 SWAP1 PUSH2 0x159B JUMP JUMPDEST SWAP1 DUP2 MSTORE PUSH1 0x20 ADD PUSH1 0x40 MLOAD DUP1 SWAP2 SUB SWAP1 KECCAK256 PUSH0 DUP3 ADD MLOAD DUP2 PUSH0 ADD SWAP1 DUP2 PUSH2 0x765 SWAP2 SWAP1 PUSH2 0x17AB JUMP JUMPDEST POP PUSH1 0x20 DUP3 ADD MLOAD DUP2 PUSH1 0x1 ADD SWAP1 DUP2 PUSH2 0x77B SWAP2 SWAP1 PUSH2 0x17AB JUMP JUMPDEST POP PUSH1 0x40 DUP3 ADD MLOAD DUP2 PUSH1 0x2 ADD SWAP1 DUP2 PUSH2 0x791 SWAP2 SWAP1 PUSH2 0x17AB JUMP JUMPDEST POP PUSH1 0x60 DUP3 ADD MLOAD DUP2 PUSH1 0x3 ADD SSTORE PUSH1 0x80 DUP3 ADD MLOAD DUP2 PUSH1 0x4 ADD SWAP1 DUP2 PUSH2 0x7B1 SWAP2 SWAP1 PUSH2 0x17AB JUMP JUMPDEST POP PUSH1 0xA0 DUP3 ADD MLOAD DUP2 PUSH1 0x5 ADD SSTORE PUSH1 0xC0 DUP3 ADD MLOAD DUP2 PUSH1 0x6 ADD SWAP1 DUP2 PUSH2 0x7D1 SWAP2 SWAP1 PUSH2 0x17AB JUMP JUMPDEST POP SWAP1 POP POP PUSH1 0x1 SWAP4 POP PUSH1 0x40 MLOAD DUP1 PUSH1 0x40 ADD PUSH1 0x40 MSTORE DUP1 PUSH1 0x14 DUP2 MSTORE PUSH1 0x20 ADD PUSH32 0x55706461746564205375636365737366756C6C79000000000000000000000000 DUP2 MSTORE POP SWAP3 POP POP POP SWAP9 POP SWAP9 SWAP7 POP POP POP POP POP POP POP JUMP JUMPDEST PUSH0 DUP1 PUSH0 SWAP1 POP JUMPDEST PUSH0 DUP1 SLOAD SWAP1 POP DUP2 LT ISZERO PUSH2 0x8B6 JUMPI DUP3 PUSH20 0xFFFFFFFFFFFFFFFFFFFFFFFFFFFFFFFFFFFFFFFF AND PUSH0 DUP3 DUP2 SLOAD DUP2 LT PUSH2 0x85C JUMPI PUSH2 0x85B PUSH2 0x187A JUMP JUMPDEST JUMPDEST SWAP1 PUSH0 MSTORE PUSH1 0x20 PUSH0 KECCAK256 ADD PUSH0 SWAP1 SLOAD SWAP1 PUSH2 0x100 EXP SWAP1 DIV PUSH20 0xFFFFFFFFFFFFFFFFFFFFFFFFFFFFFFFFFFFFFFFF AND PUSH20 0xFFFFFFFFFFFFFFFFFFFFFFFFFFFFFFFFFFFFFFFF AND SUB PUSH2 0x8A9 JUMPI PUSH1 0x1 SWAP2 POP POP PUSH2 0x8BB JUMP JUMPDEST DUP1 DUP1 PUSH1 0x1 ADD SWAP2 POP POP PUSH2 0x826 JUMP JUMPDEST POP PUSH0 SWAP1 POP JUMPDEST SWAP2 SWAP1 POP JUMP JUMPDEST PUSH1 0x1 DUP2 DUP1 MLOAD PUSH1 0x20 DUP2 ADD DUP3 ADD DUP1 MLOAD DUP5 DUP3 MSTORE PUSH1 0x20 DUP4 ADD PUSH1 0x20 DUP6 ADD KECCAK256 DUP2 DUP4 MSTORE DUP1 SWAP6 POP POP POP POP POP POP PUSH0 SWAP2 POP SWAP1 POP DUP1 PUSH0 ADD DUP1 SLOAD PUSH2 0x8F7 SWAP1 PUSH2 0x15DE JUMP JUMPDEST DUP1 PUSH1 0x1F ADD PUSH1 0x20 DUP1 SWAP2 DIV MUL PUSH1 0x20 ADD PUSH1 0x40 MLOAD SWAP1 DUP2 ADD PUSH1 0x40 MSTORE DUP1 SWAP3 SWAP2 SWAP1 DUP2 DUP2 MSTORE PUSH1 0x20 ADD DUP3 DUP1 SLOAD PUSH2 0x923 SWAP1 PUSH2 0x15DE JUMP JUMPDEST DUP1 ISZERO PUSH2 0x96E JUMPI DUP1 PUSH1 0x1F LT PUSH2 0x945 JUMPI PUSH2 0x100 DUP1 DUP4 SLOAD DIV MUL DUP4 MSTORE SWAP2 PUSH1 0x20 ADD SWAP2 PUSH2 0x96E JUMP JUMPDEST DUP3 ADD SWAP2 SWAP1 PUSH0 MSTORE PUSH1 0x20 PUSH0 KECCAK256 SWAP1 JUMPDEST DUP2 SLOAD DUP2 MSTORE SWAP1 PUSH1 0x1 ADD SWAP1 PUSH1 0x20 ADD DUP1 DUP4 GT PUSH2 0x951 JUMPI DUP3 SWAP1 SUB PUSH1 0x1F AND DUP3 ADD SWAP2 JUMPDEST POP POP POP POP POP SWAP1 DUP1 PUSH1 0x1 ADD DUP1 SLOAD PUSH2 0x983 SWAP1 PUSH2 0x15DE JUMP JUMPDEST DUP1 PUSH1 0x1F ADD PUSH1 0x20 DUP1 SWAP2 DIV MUL PUSH1 0x20 ADD PUSH1 0x40 MLOAD SWAP1 DUP2 ADD PUSH1 0x40 MSTORE DUP1 SWAP3 SWAP2 SWAP1 DUP2 DUP2 MSTORE PUSH1 0x20 ADD DUP3 DUP1 SLOAD PUSH2 0x9AF SWAP1 PUSH2 0x15DE JUMP JUMPDEST DUP1 ISZERO PUSH2 0x9FA JUMPI DUP1 PUSH1 0x1F LT PUSH2 0x9D1 JUMPI PUSH2 0x100 DUP1 DUP4 SLOAD DIV MUL DUP4 MSTORE SWAP2 PUSH1 0x20 ADD SWAP2 PUSH2 0x9FA JUMP JUMPDEST DUP3 ADD SWAP2 SWAP1 PUSH0 MSTORE PUSH1 0x20 PUSH0 KECCAK256 SWAP1 JUMPDEST DUP2 SLOAD DUP2 MSTORE SWAP1 PUSH1 0x1 ADD SWAP1 PUSH1 0x20 ADD DUP1 DUP4 GT PUSH2 0x9DD JUMPI DUP3 SWAP1 SUB PUSH1 0x1F AND DUP3 ADD SWAP2 JUMPDEST POP POP POP POP POP SWAP1 DUP1 PUSH1 0x2 ADD DUP1 SLOAD PUSH2 0xA0F SWAP1 PUSH2 0x15DE JUMP JUMPDEST DUP1 PUSH1 0x1F ADD PUSH1 0x20 DUP1 SWAP2 DIV MUL PUSH1 0x20 ADD PUSH1 0x40 MLOAD SWAP1 DUP2 ADD PUSH1 0x40 MSTORE DUP1 SWAP3 SWAP2 SWAP1 DUP2 DUP2 MSTORE PUSH1 0x20 ADD DUP3 DUP1 SLOAD PUSH2 0xA3B SWAP1 PUSH2 0x15DE JUMP JUMPDEST DUP1 ISZERO PUSH2 0xA86 JUMPI DUP1 PUSH1 0x1F LT PUSH2 0xA5D JUMPI PUSH2 0x100 DUP1 DUP4 SLOAD DIV MUL DUP4 MSTORE SWAP2 PUSH1 0x20 ADD SWAP2 PUSH2 0xA86 JUMP JUMPDEST DUP3 ADD SWAP2 SWAP1 PUSH0 MSTORE PUSH1 0x20 PUSH0 KECCAK256 SWAP1 JUMPDEST DUP2 SLOAD DUP2 MSTORE SWAP1 PUSH1 0x1 ADD SWAP1 PUSH1 0x20 ADD DUP1 DUP4 GT PUSH2 0xA69 JUMPI DUP3 SWAP1 SUB PUSH1 0x1F AND DUP3 ADD SWAP2 JUMPDEST POP POP POP POP POP SWAP1 DUP1 PUSH1 0x3 ADD SLOAD SWAP1 DUP1 PUSH1 0x4 ADD DUP1 SLOAD PUSH2 0xAA1 SWAP1 PUSH2 0x15DE JUMP JUMPDEST DUP1 PUSH1 0x1F ADD PUSH1 0x20 DUP1 SWAP2 DIV MUL PUSH1 0x20 ADD PUSH1 0x40 MLOAD SWAP1 DUP2 ADD PUSH1 0x40 MSTORE DUP1 SWAP3 SWAP2 SWAP1 DUP2 DUP2 MSTORE PUSH1 0x20 ADD DUP3 DUP1 SLOAD PUSH2 0xACD SWAP1 PUSH2 0x15DE JUMP JUMPDEST DUP1 ISZERO PUSH2 0xB18 JUMPI DUP1 PUSH1 0x1F LT PUSH2 0xAEF JUMPI PUSH2 0x100 DUP1 DUP4 SLOAD DIV MUL DUP4 MSTORE SWAP2 PUSH1 0x20 ADD SWAP2 PUSH2 0xB18 JUMP JUMPDEST DUP3 ADD SWAP2 SWAP1 PUSH0 MSTORE PUSH1 0x20 PUSH0 KECCAK256 SWAP1 JUMPDEST DUP2 SLOAD DUP2 MSTORE SWAP1 PUSH1 0x1 ADD SWAP1 PUSH1 0x20 ADD DUP1 DUP4 GT PUSH2 0xAFB JUMPI DUP3 SWAP1 SUB PUSH1 0x1F AND DUP3 ADD SWAP2 JUMPDEST POP POP POP POP POP SWAP1 DUP1 PUSH1 0x5 ADD SLOAD SWAP1 DUP1 PUSH1 0x6 ADD DUP1 SLOAD PUSH2 0xB33 SWAP1 PUSH2 0x15DE JUMP JUMPDEST DUP1 PUSH1 0x1F ADD PUSH1 0x20 DUP1 SWAP2 DIV MUL PUSH1 0x20 ADD PUSH1 0x40 MLOAD SWAP1 DUP2 ADD PUSH1 0x40 MSTORE DUP1 SWAP3 SWAP2 SWAP1 DUP2 DUP2 MSTORE PUSH1 0x20 ADD DUP3 DUP1 SLOAD PUSH2 0xB5F SWAP1 PUSH2 0x15DE JUMP JUMPDEST DUP1 ISZERO PUSH2 0xBAA JUMPI DUP1 PUSH1 0x1F LT PUSH2 0xB81 JUMPI PUSH2 0x100 DUP1 DUP4 SLOAD DIV MUL DUP4 MSTORE SWAP2 PUSH1 0x20 ADD SWAP2 PUSH2 0xBAA JUMP JUMPDEST DUP3 ADD SWAP2 SWAP1 PUSH0 MSTORE PUSH1 0x20 PUSH0 KECCAK256 SWAP1 JUMPDEST DUP2 SLOAD DUP2 MSTORE SWAP1 PUSH1 0x1 ADD SWAP1 PUSH1 0x20 ADD DUP1 DUP4 GT PUSH2 0xB8D JUMPI DUP3 SWAP1 SUB PUSH1 0x1F AND DUP3 ADD SWAP2 JUMPDEST POP POP POP POP POP SWAP1 POP DUP8 JUMP JUMPDEST PUSH1 0x60 PUSH0 DUP3 PUSH8 0xFFFFFFFFFFFFFFFF DUP2 GT ISZERO PUSH2 0xBD1 JUMPI PUSH2 0xBD0 PUSH2 0xCD2 JUMP JUMPDEST JUMPDEST PUSH1 0x40 MLOAD SWAP1 DUP1 DUP3 MSTORE DUP1 PUSH1 0x1F ADD PUSH1 0x1F NOT AND PUSH1 0x20 ADD DUP3 ADD PUSH1 0x40 MSTORE DUP1 ISZERO PUSH2 0xC03 JUMPI DUP2 PUSH1 0x20 ADD PUSH1 0x1 DUP3 MUL DUP1 CALLDATASIZE DUP4 CALLDATACOPY DUP1 DUP3 ADD SWAP2 POP POP SWAP1 POP JUMPDEST POP SWAP1 POP PUSH0 DUP4 SWAP1 POP JUMPDEST PUSH0 DUP2 GT ISZERO PUSH2 0xC9E JUMPI PUSH1 0xA DUP6 PUSH2 0xC20 SWAP2 SWAP1 PUSH2 0x18D4 JUMP JUMPDEST PUSH1 0x30 PUSH2 0xC2C SWAP2 SWAP1 PUSH2 0x1904 JUMP JUMPDEST PUSH1 0xF8 SHL DUP3 PUSH1 0x1 DUP4 PUSH2 0xC3D SWAP2 SWAP1 PUSH2 0x1937 JUMP JUMPDEST DUP2 MLOAD DUP2 LT PUSH2 0xC4E JUMPI PUSH2 0xC4D PUSH2 0x187A JUMP JUMPDEST JUMPDEST PUSH1 0x20 ADD ADD SWAP1 PUSH31 0xFFFFFFFFFFFFFFFFFFFFFFFFFFFFFFFFFFFFFFFFFFFFFFFFFFFFFFFFFFFFFF NOT AND SWAP1 DUP2 PUSH0 BYTE SWAP1 MSTORE8 POP PUSH1 0xA DUP6 PUSH2 0xC89 SWAP2 SWAP1 PUSH2 0x196A JUMP JUMPDEST SWAP5 POP DUP1 DUP1 PUSH2 0xC96 SWAP1 PUSH2 0x199A JUMP JUMPDEST SWAP2 POP POP PUSH2 0xC0B JUMP JUMPDEST POP DUP1 SWAP2 POP POP SWAP3 SWAP2 POP POP JUMP JUMPDEST PUSH0 PUSH1 0x40 MLOAD SWAP1 POP SWAP1 JUMP JUMPDEST PUSH0 DUP1 REVERT JUMPDEST PUSH0 DUP1 REVERT JUMPDEST PUSH0 DUP1 REVERT JUMPDEST PUSH0 DUP1 REVERT JUMPDEST PUSH0 PUSH1 0x1F NOT PUSH1 0x1F DUP4 ADD AND SWAP1 POP SWAP2 SWAP1 POP JUMP JUMPDEST PUSH32 0x4E487B7100000000000000000000000000000000000000000000000000000000 PUSH0 MSTORE PUSH1 0x41 PUSH1 0x4 MSTORE PUSH1 0x24 PUSH0 REVERT JUMPDEST PUSH2 0xD08 DUP3 PUSH2 0xCC2 JUMP JUMPDEST DUP2 ADD DUP2 DUP2 LT PUSH8 0xFFFFFFFFFFFFFFFF DUP3 GT OR ISZERO PUSH2 0xD27 JUMPI PUSH2 0xD26 PUSH2 0xCD2 JUMP JUMPDEST JUMPDEST DUP1 PUSH1 0x40 MSTORE POP POP POP JUMP JUMPDEST PUSH0 PUSH2 0xD39 PUSH2 0xCA9 JUMP JUMPDEST SWAP1 POP PUSH2 0xD45 DUP3 DUP3 PUSH2 0xCFF JUMP JUMPDEST SWAP2 SWAP1 POP JUMP JUMPDEST PUSH0 PUSH8 0xFFFFFFFFFFFFFFFF DUP3 GT ISZERO PUSH2 0xD64 JUMPI PUSH2 0xD63 PUSH2 0xCD2 JUMP JUMPDEST JUMPDEST PUSH2 0xD6D DUP3 PUSH2 0xCC2 JUMP JUMPDEST SWAP1 POP PUSH1 0x20 DUP2 ADD SWAP1 POP SWAP2 SWAP1 POP JUMP JUMPDEST DUP3 DUP2 DUP4 CALLDATACOPY PUSH0 DUP4 DUP4 ADD MSTORE POP POP POP JUMP JUMPDEST PUSH0 PUSH2 0xD9A PUSH2 0xD95 DUP5 PUSH2 0xD4A JUMP JUMPDEST PUSH2 0xD30 JUMP JUMPDEST SWAP1 POP DUP3 DUP2 MSTORE PUSH1 0x20 DUP2 ADD DUP5 DUP5 DUP5 ADD GT ISZERO PUSH2 0xDB6 JUMPI PUSH2 0xDB5 PUSH2 0xCBE JUMP JUMPDEST JUMPDEST PUSH2 0xDC1 DUP5 DUP3 DUP6 PUSH2 0xD7A JUMP JUMPDEST POP SWAP4 SWAP3 POP POP POP JUMP JUMPDEST PUSH0 DUP3 PUSH1 0x1F DUP4 ADD SLT PUSH2 0xDDD JUMPI PUSH2 0xDDC PUSH2 0xCBA JUMP JUMPDEST JUMPDEST DUP2 CALLDATALOAD PUSH2 0xDED DUP5 DUP3 PUSH1 0x20 DUP7 ADD PUSH2 0xD88 JUMP JUMPDEST SWAP2 POP POP SWAP3 SWAP2 POP POP JUMP JUMPDEST PUSH0 DUP2 SWAP1 POP SWAP2 SWAP1 POP JUMP JUMPDEST PUSH2 0xE08 DUP2 PUSH2 0xDF6 JUMP JUMPDEST DUP2 EQ PUSH2 0xE12 JUMPI PUSH0 DUP1 REVERT JUMPDEST POP JUMP JUMPDEST PUSH0 DUP2 CALLDATALOAD SWAP1 POP PUSH2 0xE23 DUP2 PUSH2 0xDFF JUMP JUMPDEST SWAP3 SWAP2 POP POP JUMP JUMPDEST PUSH0 DUP1 PUSH0 DUP1 PUSH0 DUP1 PUSH0 PUSH1 0xE0 DUP9 DUP11 SUB SLT ISZERO PUSH2 0xE44 JUMPI PUSH2 0xE43 PUSH2 0xCB2 JUMP JUMPDEST JUMPDEST PUSH0 DUP9 ADD CALLDATALOAD PUSH8 0xFFFFFFFFFFFFFFFF DUP2 GT ISZERO PUSH2 0xE61 JUMPI PUSH2 0xE60 PUSH2 0xCB6 JUMP JUMPDEST JUMPDEST PUSH2 0xE6D DUP11 DUP3 DUP12 ADD PUSH2 0xDC9 JUMP JUMPDEST SWAP8 POP POP PUSH1 0x20 DUP9 ADD CALLDATALOAD PUSH8 0xFFFFFFFFFFFFFFFF DUP2 GT ISZERO PUSH2 0xE8E JUMPI PUSH2 0xE8D PUSH2 0xCB6 JUMP JUMPDEST JUMPDEST PUSH2 0xE9A DUP11 DUP3 DUP12 ADD PUSH2 0xDC9 JUMP JUMPDEST SWAP7 POP POP PUSH1 0x40 PUSH2 0xEAB DUP11 DUP3 DUP12 ADD PUSH2 0xE15 JUMP JUMPDEST SWAP6 POP POP PUSH1 0x60 DUP9 ADD CALLDATALOAD PUSH8 0xFFFFFFFFFFFFFFFF DUP2 GT ISZERO PUSH2 0xECC JUMPI PUSH2 0xECB PUSH2 0xCB6 JUMP JUMPDEST JUMPDEST PUSH2 0xED8 DUP11 DUP3 DUP12 ADD PUSH2 0xDC9 JUMP JUMPDEST SWAP5 POP POP PUSH1 0x80 DUP9 ADD CALLDATALOAD PUSH8 0xFFFFFFFFFFFFFFFF DUP2 GT ISZERO PUSH2 0xEF9 JUMPI PUSH2 0xEF8 PUSH2 0xCB6 JUMP JUMPDEST JUMPDEST PUSH2 0xF05 DUP11 DUP3 DUP12 ADD PUSH2 0xDC9 JUMP JUMPDEST SWAP4 POP POP PUSH1 0xA0 PUSH2 0xF16 DUP11 DUP3 DUP12 ADD PUSH2 0xE15 JUMP JUMPDEST SWAP3 POP POP PUSH1 0xC0 DUP9 ADD CALLDATALOAD PUSH8 0xFFFFFFFFFFFFFFFF DUP2 GT ISZERO PUSH2 0xF37 JUMPI PUSH2 0xF36 PUSH2 0xCB6 JUMP JUMPDEST JUMPDEST PUSH2 0xF43 DUP11 DUP3 DUP12 ADD PUSH2 0xDC9 JUMP JUMPDEST SWAP2 POP POP SWAP3 SWAP6 SWAP9 SWAP2 SWAP5 SWAP8 POP SWAP3 SWAP6 POP JUMP JUMPDEST PUSH0 DUP2 ISZERO ISZERO SWAP1 POP SWAP2 SWAP1 POP JUMP JUMPDEST PUSH2 0xF66 DUP2 PUSH2 0xF52 JUMP JUMPDEST DUP3 MSTORE POP POP JUMP JUMPDEST PUSH0 DUP2 MLOAD SWAP1 POP SWAP2 SWAP1 POP JUMP JUMPDEST PUSH0 DUP3 DUP3 MSTORE PUSH1 0x20 DUP3 ADD SWAP1 POP SWAP3 SWAP2 POP POP JUMP JUMPDEST DUP3 DUP2 DUP4 MCOPY PUSH0 DUP4 DUP4 ADD MSTORE POP POP POP JUMP JUMPDEST PUSH0 PUSH2 0xF9E DUP3 PUSH2 0xF6C JUMP JUMPDEST PUSH2 0xFA8 DUP2 DUP6 PUSH2 0xF76 JUMP JUMPDEST SWAP4 POP PUSH2 0xFB8 DUP2 DUP6 PUSH1 0x20 DUP7 ADD PUSH2 0xF86 JUMP JUMPDEST PUSH2 0xFC1 DUP2 PUSH2 0xCC2 JUMP JUMPDEST DUP5 ADD SWAP2 POP POP SWAP3 SWAP2 POP POP JUMP JUMPDEST PUSH0 PUSH1 0x40 DUP3 ADD SWAP1 POP PUSH2 0xFDF PUSH0 DUP4 ADD DUP6 PUSH2 0xF5D JUMP JUMPDEST DUP2 DUP2 SUB PUSH1 0x20 DUP4 ADD MSTORE PUSH2 0xFF1 DUP2 DUP5 PUSH2 0xF94 JUMP JUMPDEST SWAP1 POP SWAP4 SWAP3 POP POP POP JUMP JUMPDEST PUSH0 PUSH8 0xFFFFFFFFFFFFFFFF DUP3 GT ISZERO PUSH2 0x1014 JUMPI PUSH2 0x1013 PUSH2 0xCD2 JUMP JUMPDEST JUMPDEST PUSH2 0x101D DUP3 PUSH2 0xCC2 JUMP JUMPDEST SWAP1 POP PUSH1 0x20 DUP2 ADD SWAP1 POP SWAP2 SWAP1 POP JUMP JUMPDEST PUSH0 PUSH2 0x103C PUSH2 0x1037 DUP5 PUSH2 0xFFA JUMP JUMPDEST PUSH2 0xD30 JUMP JUMPDEST SWAP1 POP DUP3 DUP2 MSTORE PUSH1 0x20 DUP2 ADD DUP5 DUP5 DUP5 ADD GT ISZERO PUSH2 0x1058 JUMPI PUSH2 0x1057 PUSH2 0xCBE JUMP JUMPDEST JUMPDEST PUSH2 0x1063 DUP5 DUP3 DUP6 PUSH2 0xD7A JUMP JUMPDEST POP SWAP4 SWAP3 POP POP POP JUMP JUMPDEST PUSH0 DUP3 PUSH1 0x1F DUP4 ADD SLT PUSH2 0x107F JUMPI PUSH2 0x107E PUSH2 0xCBA JUMP JUMPDEST JUMPDEST DUP2 CALLDATALOAD PUSH2 0x108F DUP5 DUP3 PUSH1 0x20 DUP7 ADD PUSH2 0x102A JUMP JUMPDEST SWAP2 POP POP SWAP3 SWAP2 POP POP JUMP JUMPDEST PUSH0 PUSH1 0x20 DUP3 DUP5 SUB SLT ISZERO PUSH2 0x10AD JUMPI PUSH2 0x10AC PUSH2 0xCB2 JUMP JUMPDEST JUMPDEST PUSH0 DUP3 ADD CALLDATALOAD PUSH8 0xFFFFFFFFFFFFFFFF DUP2 GT ISZERO PUSH2 0x10CA JUMPI PUSH2 0x10C9 PUSH2 0xCB6 JUMP JUMPDEST JUMPDEST PUSH2 0x10D6 DUP5 DUP3 DUP6 ADD PUSH2 0x106B JUMP JUMPDEST SWAP2 POP POP SWAP3 SWAP2 POP POP JUMP JUMPDEST PUSH2 0x10E8 DUP2 PUSH2 0xDF6 JUMP JUMPDEST DUP3 MSTORE POP POP JUMP JUMPDEST PUSH0 PUSH2 0x120 DUP3 ADD SWAP1 POP DUP2 DUP2 SUB PUSH0 DUP4 ADD MSTORE PUSH2 0x1107 DUP2 DUP13 PUSH2 0xF94 JUMP JUMPDEST SWAP1 POP DUP2 DUP2 SUB PUSH1 0x20 DUP4 ADD MSTORE PUSH2 0x111B DUP2 DUP12 PUSH2 0xF94 JUMP JUMPDEST SWAP1 POP PUSH2 0x112A PUSH1 0x40 DUP4 ADD DUP11 PUSH2 0x10DF JUMP JUMPDEST DUP2 DUP2 SUB PUSH1 0x60 DUP4 ADD MSTORE PUSH2 0x113C DUP2 DUP10 PUSH2 0xF94 JUMP JUMPDEST SWAP1 POP DUP2 DUP2 SUB PUSH1 0x80 DUP4 ADD MSTORE PUSH2 0x1150 DUP2 DUP9 PUSH2 0xF94 JUMP JUMPDEST SWAP1 POP PUSH2 0x115F PUSH1 0xA0 DUP4 ADD DUP8 PUSH2 0x10DF JUMP JUMPDEST DUP2 DUP2 SUB PUSH1 0xC0 DUP4 ADD MSTORE PUSH2 0x1171 DUP2 DUP7 PUSH2 0xF94 JUMP JUMPDEST SWAP1 POP PUSH2 0x1180 PUSH1 0xE0 DUP4 ADD DUP6 PUSH2 0xF5D JUMP JUMPDEST DUP2 DUP2 SUB PUSH2 0x100 DUP4 ADD MSTORE PUSH2 0x1193 DUP2 DUP5 PUSH2 0xF94 JUMP JUMPDEST SWAP1 POP SWAP11 SWAP10 POP POP POP POP POP POP POP POP POP POP JUMP JUMPDEST PUSH0 DUP1 PUSH0 DUP1 PUSH0 DUP1 PUSH0 DUP1 PUSH2 0x100 DUP10 DUP12 SUB SLT ISZERO PUSH2 0x11C0 JUMPI PUSH2 0x11BF PUSH2 0xCB2 JUMP JUMPDEST JUMPDEST PUSH0 DUP10 ADD CALLDATALOAD PUSH8 0xFFFFFFFFFFFFFFFF DUP2 GT ISZERO PUSH2 0x11DD JUMPI PUSH2 0x11DC PUSH2 0xCB6 JUMP JUMPDEST JUMPDEST PUSH2 0x11E9 DUP12 DUP3 DUP13 ADD PUSH2 0xDC9 JUMP JUMPDEST SWAP9 POP POP PUSH1 0x20 DUP10 ADD CALLDATALOAD PUSH8 0xFFFFFFFFFFFFFFFF DUP2 GT ISZERO PUSH2 0x120A JUMPI PUSH2 0x1209 PUSH2 0xCB6 JUMP JUMPDEST JUMPDEST PUSH2 0x1216 DUP12 DUP3 DUP13 ADD PUSH2 0xDC9 JUMP JUMPDEST SWAP8 POP POP PUSH1 0x40 PUSH2 0x1227 DUP12 DUP3 DUP13 ADD PUSH2 0xE15 JUMP JUMPDEST SWAP7 POP POP PUSH1 0x60 DUP10 ADD CALLDATALOAD PUSH8 0xFFFFFFFFFFFFFFFF DUP2 GT ISZERO PUSH2 0x1248 JUMPI PUSH2 0x1247 PUSH2 0xCB6 JUMP JUMPDEST JUMPDEST PUSH2 0x1254 DUP12 DUP3 DUP13 ADD PUSH2 0xDC9 JUMP JUMPDEST SWAP6 POP POP PUSH1 0x80 DUP10 ADD CALLDATALOAD PUSH8 0xFFFFFFFFFFFFFFFF DUP2 GT ISZERO PUSH2 0x1275 JUMPI PUSH2 0x1274 PUSH2 0xCB6 JUMP JUMPDEST JUMPDEST PUSH2 0x1281 DUP12 DUP3 DUP13 ADD PUSH2 0xDC9 JUMP JUMPDEST SWAP5 POP POP PUSH1 0xA0 PUSH2 0x1292 DUP12 DUP3 DUP13 ADD PUSH2 0xE15 JUMP JUMPDEST SWAP4 POP POP PUSH1 0xC0 DUP10 ADD CALLDATALOAD PUSH8 0xFFFFFFFFFFFFFFFF DUP2 GT ISZERO PUSH2 0x12B3 JUMPI PUSH2 0x12B2 PUSH2 0xCB6 JUMP JUMPDEST JUMPDEST PUSH2 0x12BF DUP12 DUP3 DUP13 ADD PUSH2 0xDC9 JUMP JUMPDEST SWAP3 POP POP PUSH1 0xE0 DUP10 ADD CALLDATALOAD PUSH8 0xFFFFFFFFFFFFFFFF DUP2 GT ISZERO PUSH2 0x12E0 JUMPI PUSH2 0x12DF PUSH2 0xCB6 JUMP JUMPDEST JUMPDEST PUSH2 0x12EC DUP12 DUP3 DUP13 ADD PUSH2 0x106B JUMP JUMPDEST SWAP2 POP POP SWAP3 SWAP6 SWAP9 POP SWAP3 SWAP6 SWAP9 SWAP1 SWAP4 SWAP7 POP JUMP JUMPDEST PUSH0 PUSH20 0xFFFFFFFFFFFFFFFFFFFFFFFFFFFFFFFFFFFFFFFF DUP3 AND SWAP1 POP SWAP2 SWAP1 POP JUMP JUMPDEST PUSH0 PUSH2 0x1325 DUP3 PUSH2 0x12FC JUMP JUMPDEST SWAP1 POP SWAP2 SWAP1 POP JUMP JUMPDEST PUSH2 0x1335 DUP2 PUSH2 0x131B JUMP JUMPDEST DUP2 EQ PUSH2 0x133F JUMPI PUSH0 DUP1 REVERT JUMPDEST POP JUMP JUMPDEST PUSH0 DUP2 CALLDATALOAD SWAP1 POP PUSH2 0x1350 DUP2 PUSH2 0x132C JUMP JUMPDEST SWAP3 SWAP2 POP POP JUMP JUMPDEST PUSH0 PUSH1 0x20 DUP3 DUP5 SUB SLT ISZERO PUSH2 0x136B JUMPI PUSH2 0x136A PUSH2 0xCB2 JUMP JUMPDEST JUMPDEST PUSH0 PUSH2 0x1378 DUP5 DUP3 DUP6 ADD PUSH2 0x1342 JUMP JUMPDEST SWAP2 POP POP SWAP3 SWAP2 POP POP JUMP JUMPDEST PUSH0 PUSH1 0x20 DUP3 ADD SWAP1 POP PUSH2 0x1394 PUSH0 DUP4 ADD DUP5 PUSH2 0xF5D JUMP JUMPDEST SWAP3 SWAP2 POP POP JUMP JUMPDEST PUSH0 DUP2 MLOAD SWAP1 POP SWAP2 SWAP1 POP JUMP JUMPDEST PUSH0 DUP3 DUP3 MSTORE PUSH1 0x20 DUP3 ADD SWAP1 POP SWAP3 SWAP2 POP POP JUMP JUMPDEST PUSH0 PUSH2 0x13BE DUP3 PUSH2 0x139A JUMP JUMPDEST PUSH2 0x13C8 DUP2 DUP6 PUSH2 0x13A4 JUMP JUMPDEST SWAP4 POP PUSH2 0x13D8 DUP2 DUP6 PUSH1 0x20 DUP7 ADD PUSH2 0xF86 JUMP JUMPDEST PUSH2 0x13E1 DUP2 PUSH2 0xCC2 JUMP JUMPDEST DUP5 ADD SWAP2 POP POP SWAP3 SWAP2 POP POP JUMP JUMPDEST PUSH0 PUSH1 0xE0 DUP3 ADD SWAP1 POP DUP2 DUP2 SUB PUSH0 DUP4 ADD MSTORE PUSH2 0x1404 DUP2 DUP11 PUSH2 0x13B4 JUMP JUMPDEST SWAP1 POP DUP2 DUP2 SUB PUSH1 0x20 DUP4 ADD MSTORE PUSH2 0x1418 DUP2 DUP10 PUSH2 0x13B4 JUMP JUMPDEST SWAP1 POP DUP2 DUP2 SUB PUSH1 0x40 DUP4 ADD MSTORE PUSH2 0x142C DUP2 DUP9 PUSH2 0x13B4 JUMP JUMPDEST SWAP1 POP PUSH2 0x143B PUSH1 0x60 DUP4 ADD DUP8 PUSH2 0x10DF JUMP JUMPDEST DUP2 DUP2 SUB PUSH1 0x80 DUP4 ADD MSTORE PUSH2 0x144D DUP2 DUP7 PUSH2 0x13B4 JUMP JUMPDEST SWAP1 POP PUSH2 0x145C PUSH1 0xA0 DUP4 ADD DUP6 PUSH2 0x10DF JUMP JUMPDEST DUP2 DUP2 SUB PUSH1 0xC0 DUP4 ADD MSTORE PUSH2 0x146E DUP2 DUP5 PUSH2 0x13B4 JUMP JUMPDEST SWAP1 POP SWAP9 SWAP8 POP POP POP POP POP POP POP POP JUMP JUMPDEST PUSH32 0x596F7520617265206E6F7420617574686F72697A656400000000000000000000 PUSH0 DUP3 ADD MSTORE POP JUMP JUMPDEST PUSH0 PUSH2 0x14B0 PUSH1 0x16 DUP4 PUSH2 0xF76 JUMP JUMPDEST SWAP2 POP PUSH2 0x14BB DUP3 PUSH2 0x147C JUMP JUMPDEST PUSH1 0x20 DUP3 ADD SWAP1 POP SWAP2 SWAP1 POP JUMP JUMPDEST PUSH0 PUSH1 0x20 DUP3 ADD SWAP1 POP DUP2 DUP2 SUB PUSH0 DUP4 ADD MSTORE PUSH2 0x14DD DUP2 PUSH2 0x14A4 JUMP JUMPDEST SWAP1 POP SWAP2 SWAP1 POP JUMP JUMPDEST PUSH32 0x4E487B7100000000000000000000000000000000000000000000000000000000 PUSH0 MSTORE PUSH1 0x11 PUSH1 0x4 MSTORE PUSH1 0x24 PUSH0 REVERT JUMPDEST PUSH0 DUP2 SWAP1 POP SWAP2 SWAP1 POP JUMP JUMPDEST PUSH0 PUSH2 0x1524 DUP3 PUSH2 0x1511 JUMP JUMPDEST SWAP2 POP PUSH32 0xFFFFFFFFFFFFFFFFFFFFFFFFFFFFFFFFFFFFFFFFFFFFFFFFFFFFFFFFFFFFFFFF DUP3 SUB PUSH2 0x1556 JUMPI PUSH2 0x1555 PUSH2 0x14E4 JUMP JUMPDEST JUMPDEST PUSH1 0x1 DUP3 ADD SWAP1 POP SWAP2 SWAP1 POP JUMP JUMPDEST PUSH0 DUP2 SWAP1 POP SWAP3 SWAP2 POP POP JUMP JUMPDEST PUSH0 PUSH2 0x1575 DUP3 PUSH2 0xF6C JUMP JUMPDEST PUSH2 0x157F DUP2 DUP6 PUSH2 0x1561 JUMP JUMPDEST SWAP4 POP PUSH2 0x158F DUP2 DUP6 PUSH1 0x20 DUP7 ADD PUSH2 0xF86 JUMP JUMPDEST DUP1 DUP5 ADD SWAP2 POP POP SWAP3 SWAP2 POP POP JUMP JUMPDEST PUSH0 PUSH2 0x15A6 DUP3 DUP5 PUSH2 0x156B JUMP JUMPDEST SWAP2 POP DUP2 SWAP1 POP SWAP3 SWAP2 POP POP JUMP JUMPDEST PUSH32 0x4E487B7100000000000000000000000000000000000000000000000000000000 PUSH0 MSTORE PUSH1 0x22 PUSH1 0x4 MSTORE PUSH1 0x24 PUSH0 REVERT JUMPDEST PUSH0 PUSH1 0x2 DUP3 DIV SWAP1 POP PUSH1 0x1 DUP3 AND DUP1 PUSH2 0x15F5 JUMPI PUSH1 0x7F DUP3 AND SWAP2 POP JUMPDEST PUSH1 0x20 DUP3 LT DUP2 SUB PUSH2 0x1608 JUMPI PUSH2 0x1607 PUSH2 0x15B1 JUMP JUMPDEST JUMPDEST POP SWAP2 SWAP1 POP JUMP JUMPDEST PUSH0 DUP2 SWAP1 POP DUP2 PUSH0 MSTORE PUSH1 0x20 PUSH0 KECCAK256 SWAP1 POP SWAP2 SWAP1 POP JUMP JUMPDEST PUSH0 PUSH1 0x20 PUSH1 0x1F DUP4 ADD DIV SWAP1 POP SWAP2 SWAP1 POP JUMP JUMPDEST PUSH0 DUP3 DUP3 SHL SWAP1 POP SWAP3 SWAP2 POP POP JUMP JUMPDEST PUSH0 PUSH1 0x8 DUP4 MUL PUSH2 0x166A PUSH32 0xFFFFFFFFFFFFFFFFFFFFFFFFFFFFFFFFFFFFFFFFFFFFFFFFFFFFFFFFFFFFFFFF DUP3 PUSH2 0x162F JUMP JUMPDEST PUSH2 0x1674 DUP7 DUP4 PUSH2 0x162F JUMP JUMPDEST SWAP6 POP DUP1 NOT DUP5 AND SWAP4 POP DUP1 DUP7 AND DUP5 OR SWAP3 POP POP POP SWAP4 SWAP3 POP POP POP JUMP JUMPDEST PUSH0 DUP2 SWAP1 POP SWAP2 SWAP1 POP JUMP JUMPDEST PUSH0 PUSH2 0x16AF PUSH2 0x16AA PUSH2 0x16A5 DUP5 PUSH2 0x1511 JUMP JUMPDEST PUSH2 0x168C JUMP JUMPDEST PUSH2 0x1511 JUMP JUMPDEST SWAP1 POP SWAP2 SWAP1 POP JUMP JUMPDEST PUSH0 DUP2 SWAP1 POP SWAP2 SWAP1 POP JUMP JUMPDEST PUSH2 0x16C8 DUP4 PUSH2 0x1695 JUMP JUMPDEST PUSH2 0x16DC PUSH2 0x16D4 DUP3 PUSH2 0x16B6 JUMP JUMPDEST DUP5 DUP5 SLOAD PUSH2 0x163B JUMP JUMPDEST DUP3 SSTORE POP POP POP POP JUMP JUMPDEST PUSH0 SWAP1 JUMP JUMPDEST PUSH2 0x16F0 PUSH2 0x16E4 JUMP JUMPDEST PUSH2 0x16FB DUP2 DUP5 DUP5 PUSH2 0x16BF JUMP JUMPDEST POP POP POP JUMP JUMPDEST JUMPDEST DUP2 DUP2 LT ISZERO PUSH2 0x171E JUMPI PUSH2 0x1713 PUSH0 DUP3 PUSH2 0x16E8 JUMP JUMPDEST PUSH1 0x1 DUP2 ADD SWAP1 POP PUSH2 0x1701 JUMP JUMPDEST POP POP JUMP JUMPDEST PUSH1 0x1F DUP3 GT ISZERO PUSH2 0x1763 JUMPI PUSH2 0x1734 DUP2 PUSH2 0x160E JUMP JUMPDEST PUSH2 0x173D DUP5 PUSH2 0x1620 JUMP JUMPDEST DUP2 ADD PUSH1 0x20 DUP6 LT ISZERO PUSH2 0x174C JUMPI DUP2 SWAP1 POP JUMPDEST PUSH2 0x1760 PUSH2 0x1758 DUP6 PUSH2 0x1620 JUMP JUMPDEST DUP4 ADD DUP3 PUSH2 0x1700 JUMP JUMPDEST POP POP JUMPDEST POP POP POP JUMP JUMPDEST PUSH0 DUP3 DUP3 SHR SWAP1 POP SWAP3 SWAP2 POP POP JUMP JUMPDEST PUSH0 PUSH2 0x1783 PUSH0 NOT DUP5 PUSH1 0x8 MUL PUSH2 0x1768 JUMP JUMPDEST NOT DUP1 DUP4 AND SWAP2 POP POP SWAP3 SWAP2 POP POP JUMP JUMPDEST PUSH0 PUSH2 0x179B DUP4 DUP4 PUSH2 0x1774 JUMP JUMPDEST SWAP2 POP DUP3 PUSH1 0x2 MUL DUP3 OR SWAP1 POP SWAP3 SWAP2 POP POP JUMP JUMPDEST PUSH2 0x17B4 DUP3 PUSH2 0x139A JUMP JUMPDEST PUSH8 0xFFFFFFFFFFFFFFFF DUP2 GT ISZERO PUSH2 0x17CD JUMPI PUSH2 0x17CC PUSH2 0xCD2 JUMP JUMPDEST JUMPDEST PUSH2 0x17D7 DUP3 SLOAD PUSH2 0x15DE JUMP JUMPDEST PUSH2 0x17E2 DUP3 DUP3 DUP6 PUSH2 0x1722 JUMP JUMPDEST PUSH0 PUSH1 0x20 SWAP1 POP PUSH1 0x1F DUP4 GT PUSH1 0x1 DUP2 EQ PUSH2 0x1813 JUMPI PUSH0 DUP5 ISZERO PUSH2 0x1801 JUMPI DUP3 DUP8 ADD MLOAD SWAP1 POP JUMPDEST PUSH2 0x180B DUP6 DUP3 PUSH2 0x1790 JUMP JUMPDEST DUP7 SSTORE POP PUSH2 0x1872 JUMP JUMPDEST PUSH1 0x1F NOT DUP5 AND PUSH2 0x1821 DUP7 PUSH2 0x160E JUMP JUMPDEST PUSH0 JUMPDEST DUP3 DUP2 LT ISZERO PUSH2 0x1848 JUMPI DUP5 DUP10 ADD MLOAD DUP3 SSTORE PUSH1 0x1 DUP3 ADD SWAP2 POP PUSH1 0x20 DUP6 ADD SWAP5 POP PUSH1 0x20 DUP2 ADD SWAP1 POP PUSH2 0x1823 JUMP JUMPDEST DUP7 DUP4 LT ISZERO PUSH2 0x1865 JUMPI DUP5 DUP10 ADD MLOAD PUSH2 0x1861 PUSH1 0x1F DUP10 AND DUP3 PUSH2 0x1774 JUMP JUMPDEST DUP4 SSTORE POP JUMPDEST PUSH1 0x1 PUSH1 0x2 DUP9 MUL ADD DUP9 SSTORE POP POP POP JUMPDEST POP POP POP POP POP POP JUMP JUMPDEST PUSH32 0x4E487B7100000000000000000000000000000000000000000000000000000000 PUSH0 MSTORE PUSH1 0x32 PUSH1 0x4 MSTORE PUSH1 0x24 PUSH0 REVERT JUMPDEST PUSH32 0x4E487B7100000000000000000000000000000000000000000000000000000000 PUSH0 MSTORE PUSH1 0x12 PUSH1 0x4 MSTORE PUSH1 0x24 PUSH0 REVERT JUMPDEST PUSH0 PUSH2 0x18DE DUP3 PUSH2 0x1511 JUMP JUMPDEST SWAP2 POP PUSH2 0x18E9 DUP4 PUSH2 0x1511 JUMP JUMPDEST SWAP3 POP DUP3 PUSH2 0x18F9 JUMPI PUSH2 0x18F8 PUSH2 0x18A7 JUMP JUMPDEST JUMPDEST DUP3 DUP3 MOD SWAP1 POP SWAP3 SWAP2 POP POP JUMP JUMPDEST PUSH0 PUSH2 0x190E DUP3 PUSH2 0x1511 JUMP JUMPDEST SWAP2 POP PUSH2 0x1919 DUP4 PUSH2 0x1511 JUMP JUMPDEST SWAP3 POP DUP3 DUP3 ADD SWAP1 POP DUP1 DUP3 GT ISZERO PUSH2 0x1931 JUMPI PUSH2 0x1930 PUSH2 0x14E4 JUMP JUMPDEST JUMPDEST SWAP3 SWAP2 POP POP JUMP JUMPDEST PUSH0 PUSH2 0x1941 DUP3 PUSH2 0x1511 JUMP JUMPDEST SWAP2 POP PUSH2 0x194C DUP4 PUSH2 0x1511 JUMP JUMPDEST SWAP3 POP DUP3 DUP3 SUB SWAP1 POP DUP2 DUP2 GT ISZERO PUSH2 0x1964 JUMPI PUSH2 0x1963 PUSH2 0x14E4 JUMP JUMPDEST JUMPDEST SWAP3 SWAP2 POP POP JUMP JUMPDEST PUSH0 PUSH2 0x1974 DUP3 PUSH2 0x1511 JUMP JUMPDEST SWAP2 POP PUSH2 0x197F DUP4 PUSH2 0x1511 JUMP JUMPDEST SWAP3 POP DUP3 PUSH2 0x198F JUMPI PUSH2 0x198E PUSH2 0x18A7 JUMP JUMPDEST JUMPDEST DUP3 DUP3 DIV SWAP1 POP SWAP3 SWAP2 POP POP JUMP JUMPDEST PUSH0 PUSH2 0x19A4 DUP3 PUSH2 0x1511 JUMP JUMPDEST SWAP2 POP PUSH0 DUP3 SUB PUSH2 0x19B6 JUMPI PUSH2 0x19B5 PUSH2 0x14E4 JUMP JUMPDEST JUMPDEST PUSH1 0x1 DUP3 SUB SWAP1 POP SWAP2 SWAP1 POP JUMP INVALID LOG2 PUSH5 0x6970667358 0x22 SLT KECCAK256 MUL 0xCE 0xEC 0xB2 0xB8 0x2A 0xE8 PUSH24 0xF513A76250D70A589B019D838F754BD18D0272445F28D4AA PUSH5 0x736F6C6343 STOP ADDMOD BYTE STOP CALLER "
				},
				"gasEstimates": {
					"creation": {
						"codeDepositCost": "1329400",
						"executionCost": "infinite",
						"totalCost": "infinite"
					},
					"external": {
						"CreateTask(bytes,bytes,int256,bytes,bytes,int256,bytes)": "infinite",
						"GetTask(string)": "infinite",
						"TaskDetails(string)": "infinite",
						"UpdateTask(bytes,bytes,int256,bytes,bytes,int256,bytes,string)": "infinite",
						"isTaskOwnerExists(address)": "infinite"
					},
					"internal": {
						"uintToStringWithZeroPadding(uint256,uint256)": "infinite"
					}
				},
				"methodIdentifiers": {
					"CreateTask(bytes,bytes,int256,bytes,bytes,int256,bytes)": "930b5e80",
					"GetTask(string)": "bd153a84",
					"TaskDetails(string)": "d8635bad",
					"UpdateTask(bytes,bytes,int256,bytes,bytes,int256,bytes,string)": "ced30d6f",
					"isTaskOwnerExists(address)": "d40811cb"
				}
			},
			"storageLayout": {
				"storage": [
					{
						"astId": 4,
						"contract": "contracts/TaskMaster.sol:TaskMaster",
						"label": "TaskOwners",
						"offset": 0,
						"slot": "0",
						"type": "t_array(t_address)dyn_storage"
					},
					{
						"astId": 24,
						"contract": "contracts/TaskMaster.sol:TaskMaster",
						"label": "TaskDetails",
						"offset": 0,
						"slot": "1",
						"type": "t_mapping(t_string_memory_ptr,t_struct(TaskInformation)19_storage)"
					},
					{
						"astId": 27,
						"contract": "contracts/TaskMaster.sol:TaskMaster",
						"label": "TaskCount",
						"offset": 0,
						"slot": "2",
						"type": "t_uint256"
					}
				],
				"types": {
					"t_address": {
						"encoding": "inplace",
						"label": "address",
						"numberOfBytes": "20"
					},
					"t_array(t_address)dyn_storage": {
						"base": "t_address",
						"encoding": "dynamic_array",
						"label": "address[]",
						"numberOfBytes": "32"
					},
					"t_bytes_storage": {
						"encoding": "bytes",
						"label": "bytes",
						"numberOfBytes": "32"
					},
					"t_int256": {
						"encoding": "inplace",
						"label": "int256",
						"numberOfBytes": "32"
					},
					"t_mapping(t_string_memory_ptr,t_struct(TaskInformation)19_storage)": {
						"encoding": "mapping",
						"key": "t_string_memory_ptr",
						"label": "mapping(string => struct TaskMaster.TaskInformation)",
						"numberOfBytes": "32",
						"value": "t_struct(TaskInformation)19_storage"
					},
					"t_string_memory_ptr": {
						"encoding": "bytes",
						"label": "string",
						"numberOfBytes": "32"
					},
					"t_struct(TaskInformation)19_storage": {
						"encoding": "inplace",
						"label": "struct TaskMaster.TaskInformation",
						"members": [
							{
								"astId": 6,
								"contract": "contracts/TaskMaster.sol:TaskMaster",
								"label": "ProjectID",
								"offset": 0,
								"slot": "0",
								"type": "t_bytes_storage"
							},
							{
								"astId": 8,
								"contract": "contracts/TaskMaster.sol:TaskMaster",
								"label": "Taskname",
								"offset": 0,
								"slot": "1",
								"type": "t_bytes_storage"
							},
							{
								"astId": 10,
								"contract": "contracts/TaskMaster.sol:TaskMaster",
								"label": "Description",
								"offset": 0,
								"slot": "2",
								"type": "t_bytes_storage"
							},
							{
								"astId": 12,
								"contract": "contracts/TaskMaster.sol:TaskMaster",
								"label": "Priority",
								"offset": 0,
								"slot": "3",
								"type": "t_int256"
							},
							{
								"astId": 14,
								"contract": "contracts/TaskMaster.sol:TaskMaster",
								"label": "ResourceDetails",
								"offset": 0,
								"slot": "4",
								"type": "t_bytes_storage"
							},
							{
								"astId": 16,
								"contract": "contracts/TaskMaster.sol:TaskMaster",
								"label": "Status",
								"offset": 0,
								"slot": "5",
								"type": "t_int256"
							},
							{
								"astId": 18,
								"contract": "contracts/TaskMaster.sol:TaskMaster",
								"label": "Remarks",
								"offset": 0,
								"slot": "6",
								"type": "t_bytes_storage"
							}
						],
						"numberOfBytes": "224"
					},
					"t_uint256": {
						"encoding": "inplace",
						"label": "uint256",
						"numberOfBytes": "32"
					}
				}
			},
			"userdoc": {
				"kind": "user",
				"methods": {},
				"version": 1
			}
		}
	}
}