{
	"contracts/ProjectManager.sol": {
		"ProjectManager": {
			"abi": [
				{
					"inputs": [
						{
							"internalType": "address",
							"name": "_Admin",
							"type": "address"
						}
					],
					"stateMutability": "nonpayable",
					"type": "constructor"
				},
				{
					"inputs": [
						{
							"internalType": "string",
							"name": "ProjectName",
							"type": "string"
						},
						{
							"internalType": "uint256",
							"name": "Budget",
							"type": "uint256"
						},
						{
							"internalType": "uint256",
							"name": "ResourceCount",
							"type": "uint256"
						},
						{
							"internalType": "string",
							"name": "ResourceDetails",
							"type": "string"
						},
						{
							"internalType": "int256",
							"name": "Status",
							"type": "int256"
						},
						{
							"internalType": "string",
							"name": "Remarks",
							"type": "string"
						}
					],
					"name": "CreateProject",
					"outputs": [
						{
							"internalType": "bool",
							"name": "result",
							"type": "bool"
						},
						{
							"internalType": "string",
							"name": "Message",
							"type": "string"
						}
					],
					"stateMutability": "nonpayable",
					"type": "function"
				},
				{
					"inputs": [
						{
							"internalType": "string",
							"name": "ProjectID",
							"type": "string"
						}
					],
					"name": "GetProjectData",
					"outputs": [
						{
							"internalType": "string",
							"name": "ProjectName",
							"type": "string"
						},
						{
							"internalType": "uint256",
							"name": "Budget",
							"type": "uint256"
						},
						{
							"internalType": "uint256",
							"name": "ResourceCount",
							"type": "uint256"
						},
						{
							"internalType": "string",
							"name": "ResourceDetails",
							"type": "string"
						},
						{
							"internalType": "int256",
							"name": "Status",
							"type": "int256"
						},
						{
							"internalType": "string",
							"name": "Remarks",
							"type": "string"
						},
						{
							"internalType": "bool",
							"name": "result",
							"type": "bool"
						},
						{
							"internalType": "string",
							"name": "Message",
							"type": "string"
						}
					],
					"stateMutability": "view",
					"type": "function"
				},
				{
					"inputs": [],
					"name": "Manager",
					"outputs": [
						{
							"internalType": "address",
							"name": "",
							"type": "address"
						}
					],
					"stateMutability": "view",
					"type": "function"
				},
				{
					"inputs": [
						{
							"internalType": "string",
							"name": "",
							"type": "string"
						}
					],
					"name": "ProjectDetails",
					"outputs": [
						{
							"internalType": "bytes",
							"name": "ProjectName",
							"type": "bytes"
						},
						{
							"internalType": "uint256",
							"name": "Budget",
							"type": "uint256"
						},
						{
							"internalType": "uint256",
							"name": "ResourceCount",
							"type": "uint256"
						},
						{
							"internalType": "bytes",
							"name": "ResourceDetails",
							"type": "bytes"
						},
						{
							"internalType": "int256",
							"name": "Status",
							"type": "int256"
						},
						{
							"internalType": "bytes",
							"name": "Remarks",
							"type": "bytes"
						}
					],
					"stateMutability": "view",
					"type": "function"
				},
				{
					"inputs": [
						{
							"internalType": "string",
							"name": "ProjectName",
							"type": "string"
						},
						{
							"internalType": "uint256",
							"name": "Budget",
							"type": "uint256"
						},
						{
							"internalType": "uint256",
							"name": "ResourceCount",
							"type": "uint256"
						},
						{
							"internalType": "string",
							"name": "ResourceDetails",
							"type": "string"
						},
						{
							"internalType": "int256",
							"name": "Status",
							"type": "int256"
						},
						{
							"internalType": "string",
							"name": "Remarks",
							"type": "string"
						},
						{
							"internalType": "string",
							"name": "ProjectID",
							"type": "string"
						}
					],
					"name": "UpdatedProject",
					"outputs": [
						{
							"internalType": "bool",
							"name": "result",
							"type": "bool"
						},
						{
							"internalType": "string",
							"name": "Message",
							"type": "string"
						}
					],
					"stateMutability": "nonpayable",
					"type": "function"
				}
			],
			"devdoc": {
				"kind": "dev",
				"methods": {},
				"version": 1
			},
			"evm": {
				"assembly": "    /* \"contracts/ProjectManager.sol\":65:3737  contract ProjectManager {... */\n  mstore(0x40, 0x80)\n    /* \"contracts/ProjectManager.sol\":380:381  0 */\n  0x00\n    /* \"contracts/ProjectManager.sol\":357:381  uint256 ProjectCount = 0 */\n  0x01\n  sstore\n    /* \"contracts/ProjectManager.sol\":416:513  constructor(address _Admin) {... */\n  callvalue\n  dup1\n  iszero\n  tag_1\n  jumpi\n  0x00\n  dup1\n  revert\ntag_1:\n  pop\n  mload(0x40)\n  sub(codesize, bytecodeSize)\n  dup1\n  bytecodeSize\n  dup4\n  codecopy\n  dup2\n  dup2\n  add\n  0x40\n  mstore\n  dup2\n  add\n  swap1\n  tag_2\n  swap2\n  swap1\n  tag_3\n  jump\t// in\ntag_2:\n    /* \"contracts/ProjectManager.sol\":478:484  _Admin */\n  dup1\n    /* \"contracts/ProjectManager.sol\":464:484  address(0) == _Admin */\n  0xffffffffffffffffffffffffffffffffffffffff\n  and\n    /* \"contracts/ProjectManager.sol\":472:473  0 */\n  0x00\n    /* \"contracts/ProjectManager.sol\":464:484  address(0) == _Admin */\n  0xffffffffffffffffffffffffffffffffffffffff\n  and\n  eq\n    /* \"contracts/ProjectManager.sol\":464:506  address(0) == _Admin ? msg.sender : _Admin */\n  tag_6\n  jumpi\n    /* \"contracts/ProjectManager.sol\":500:506  _Admin */\n  dup1\n    /* \"contracts/ProjectManager.sol\":464:506  address(0) == _Admin ? msg.sender : _Admin */\n  jump(tag_7)\ntag_6:\n    /* \"contracts/ProjectManager.sol\":487:497  msg.sender */\n  caller\n    /* \"contracts/ProjectManager.sol\":464:506  address(0) == _Admin ? msg.sender : _Admin */\ntag_7:\n    /* \"contracts/ProjectManager.sol\":454:461  Manager */\n  0x02\n  0x00\n    /* \"contracts/ProjectManager.sol\":454:506  Manager = address(0) == _Admin ? msg.sender : _Admin */\n  0x0100\n  exp\n  dup2\n  sload\n  dup2\n  0xffffffffffffffffffffffffffffffffffffffff\n  mul\n  not\n  and\n  swap1\n  dup4\n  0xffffffffffffffffffffffffffffffffffffffff\n  and\n  mul\n  or\n  swap1\n  sstore\n  pop\n    /* \"contracts/ProjectManager.sol\":416:513  constructor(address _Admin) {... */\n  pop\n    /* \"contracts/ProjectManager.sol\":65:3737  contract ProjectManager {... */\n  jump(tag_8)\n    /* \"#utility.yul\":88:205   */\ntag_10:\n    /* \"#utility.yul\":197:198   */\n  0x00\n    /* \"#utility.yul\":194:195   */\n  dup1\n    /* \"#utility.yul\":187:199   */\n  revert\n    /* \"#utility.yul\":334:460   */\ntag_12:\n    /* \"#utility.yul\":371:378   */\n  0x00\n    /* \"#utility.yul\":411:453   */\n  0xffffffffffffffffffffffffffffffffffffffff\n    /* \"#utility.yul\":404:409   */\n  dup3\n    /* \"#utility.yul\":400:454   */\n  and\n    /* \"#utility.yul\":389:454   */\n  swap1\n  pop\n    /* \"#utility.yul\":334:460   */\n  swap2\n  swap1\n  pop\n  jump\t// out\n    /* \"#utility.yul\":466:562   */\ntag_13:\n    /* \"#utility.yul\":503:510   */\n  0x00\n    /* \"#utility.yul\":532:556   */\n  tag_22\n    /* \"#utility.yul\":550:555   */\n  dup3\n    /* \"#utility.yul\":532:556   */\n  tag_12\n  jump\t// in\ntag_22:\n    /* \"#utility.yul\":521:556   */\n  swap1\n  pop\n    /* \"#utility.yul\":466:562   */\n  swap2\n  swap1\n  pop\n  jump\t// out\n    /* \"#utility.yul\":568:690   */\ntag_14:\n    /* \"#utility.yul\":641:665   */\n  tag_24\n    /* \"#utility.yul\":659:664   */\n  dup2\n    /* \"#utility.yul\":641:665   */\n  tag_13\n  jump\t// in\ntag_24:\n    /* \"#utility.yul\":634:639   */\n  dup2\n    /* \"#utility.yul\":631:666   */\n  eq\n    /* \"#utility.yul\":621:684   */\n  tag_25\n  jumpi\n    /* \"#utility.yul\":680:681   */\n  0x00\n    /* \"#utility.yul\":677:678   */\n  dup1\n    /* \"#utility.yul\":670:682   */\n  revert\n    /* \"#utility.yul\":621:684   */\ntag_25:\n    /* \"#utility.yul\":568:690   */\n  pop\n  jump\t// out\n    /* \"#utility.yul\":696:839   */\ntag_15:\n    /* \"#utility.yul\":753:758   */\n  0x00\n    /* \"#utility.yul\":784:790   */\n  dup2\n    /* \"#utility.yul\":778:791   */\n  mload\n    /* \"#utility.yul\":769:791   */\n  swap1\n  pop\n    /* \"#utility.yul\":800:833   */\n  tag_27\n    /* \"#utility.yul\":827:832   */\n  dup2\n    /* \"#utility.yul\":800:833   */\n  tag_14\n  jump\t// in\ntag_27:\n    /* \"#utility.yul\":696:839   */\n  swap3\n  swap2\n  pop\n  pop\n  jump\t// out\n    /* \"#utility.yul\":845:1196   */\ntag_3:\n    /* \"#utility.yul\":915:921   */\n  0x00\n    /* \"#utility.yul\":964:966   */\n  0x20\n    /* \"#utility.yul\":952:961   */\n  dup3\n    /* \"#utility.yul\":943:950   */\n  dup5\n    /* \"#utility.yul\":939:962   */\n  sub\n    /* \"#utility.yul\":935:967   */\n  slt\n    /* \"#utility.yul\":932:1051   */\n  iszero\n  tag_29\n  jumpi\n    /* \"#utility.yul\":970:1049   */\n  tag_30\n  tag_10\n  jump\t// in\ntag_30:\n    /* \"#utility.yul\":932:1051   */\ntag_29:\n    /* \"#utility.yul\":1090:1091   */\n  0x00\n    /* \"#utility.yul\":1115:1179   */\n  tag_31\n    /* \"#utility.yul\":1171:1178   */\n  dup5\n    /* \"#utility.yul\":1162:1168   */\n  dup3\n    /* \"#utility.yul\":1151:1160   */\n  dup6\n    /* \"#utility.yul\":1147:1169   */\n  add\n    /* \"#utility.yul\":1115:1179   */\n  tag_15\n  jump\t// in\ntag_31:\n    /* \"#utility.yul\":1105:1179   */\n  swap2\n  pop\n    /* \"#utility.yul\":1061:1189   */\n  pop\n    /* \"#utility.yul\":845:1196   */\n  swap3\n  swap2\n  pop\n  pop\n  jump\t// out\n    /* \"contracts/ProjectManager.sol\":65:3737  contract ProjectManager {... */\ntag_8:\n  dataSize(sub_0)\n  dup1\n  dataOffset(sub_0)\n  0x00\n  codecopy\n  0x00\n  return\nstop\n\nsub_0: assembly {\n        /* \"contracts/ProjectManager.sol\":65:3737  contract ProjectManager {... */\n      mstore(0x40, 0x80)\n      callvalue\n      dup1\n      iszero\n      tag_1\n      jumpi\n      0x00\n      dup1\n      revert\n    tag_1:\n      pop\n      jumpi(tag_2, lt(calldatasize, 0x04))\n      shr(0xe0, calldataload(0x00))\n      dup1\n      0x29014dca\n      eq\n      tag_3\n      jumpi\n      dup1\n      0x78357e53\n      eq\n      tag_4\n      jumpi\n      dup1\n      0xae04477e\n      eq\n      tag_5\n      jumpi\n      dup1\n      0xdd29bb1b\n      eq\n      tag_6\n      jumpi\n      dup1\n      0xe82c4d90\n      eq\n      tag_7\n      jumpi\n    tag_2:\n      0x00\n      dup1\n      revert\n        /* \"contracts/ProjectManager.sol\":1420:2491  function GetProjectData(string memory ProjectID)... */\n    tag_3:\n      tag_8\n      0x04\n      dup1\n      calldatasize\n      sub\n      dup2\n      add\n      swap1\n      tag_9\n      swap2\n      swap1\n      tag_10\n      jump\t// in\n    tag_9:\n      tag_11\n      jump\t// in\n    tag_8:\n      mload(0x40)\n      tag_12\n      swap9\n      swap8\n      swap7\n      swap6\n      swap5\n      swap4\n      swap3\n      swap2\n      swap1\n      tag_13\n      jump\t// in\n    tag_12:\n      mload(0x40)\n      dup1\n      swap2\n      sub\n      swap1\n      return\n        /* \"contracts/ProjectManager.sol\":387:409  address public Manager */\n    tag_4:\n      tag_14\n      tag_15\n      jump\t// in\n    tag_14:\n      mload(0x40)\n      tag_16\n      swap2\n      swap1\n      tag_17\n      jump\t// in\n    tag_16:\n      mload(0x40)\n      dup1\n      swap2\n      sub\n      swap1\n      return\n        /* \"contracts/ProjectManager.sol\":647:1414  function UpdatedProject(... */\n    tag_5:\n      tag_18\n      0x04\n      dup1\n      calldatasize\n      sub\n      dup2\n      add\n      swap1\n      tag_19\n      swap2\n      swap1\n      tag_20\n      jump\t// in\n    tag_19:\n      tag_21\n      jump\t// in\n    tag_18:\n      mload(0x40)\n      tag_22\n      swap3\n      swap2\n      swap1\n      tag_23\n      jump\t// in\n    tag_22:\n      mload(0x40)\n      dup1\n      swap2\n      sub\n      swap1\n      return\n        /* \"contracts/ProjectManager.sol\":2497:3340  function CreateProject(... */\n    tag_6:\n      tag_24\n      0x04\n      dup1\n      calldatasize\n      sub\n      dup2\n      add\n      swap1\n      tag_25\n      swap2\n      swap1\n      tag_26\n      jump\t// in\n    tag_25:\n      tag_27\n      jump\t// in\n    tag_24:\n      mload(0x40)\n      tag_28\n      swap3\n      swap2\n      swap1\n      tag_23\n      jump\t// in\n    tag_28:\n      mload(0x40)\n      dup1\n      swap2\n      sub\n      swap1\n      return\n        /* \"contracts/ProjectManager.sol\":292:351  mapping(string => ProjectInformation) public ProjectDetails */\n    tag_7:\n      tag_29\n      0x04\n      dup1\n      calldatasize\n      sub\n      dup2\n      add\n      swap1\n      tag_30\n      swap2\n      swap1\n      tag_10\n      jump\t// in\n    tag_30:\n      tag_31\n      jump\t// in\n    tag_29:\n      mload(0x40)\n      tag_32\n      swap7\n      swap6\n      swap5\n      swap4\n      swap3\n      swap2\n      swap1\n      tag_33\n      jump\t// in\n    tag_32:\n      mload(0x40)\n      dup1\n      swap2\n      sub\n      swap1\n      return\n        /* \"contracts/ProjectManager.sol\":1420:2491  function GetProjectData(string memory ProjectID)... */\n    tag_11:\n        /* \"contracts/ProjectManager.sol\":1555:1580  string memory ProjectName */\n      0x60\n        /* \"contracts/ProjectManager.sol\":1594:1608  uint256 Budget */\n      0x00\n        /* \"contracts/ProjectManager.sol\":1622:1643  uint256 ResourceCount */\n      dup1\n        /* \"contracts/ProjectManager.sol\":1657:1686  string memory ResourceDetails */\n      0x60\n        /* \"contracts/ProjectManager.sol\":1700:1713  int256 Status */\n      0x00\n        /* \"contracts/ProjectManager.sol\":1727:1748  string memory Remarks */\n      0x60\n        /* \"contracts/ProjectManager.sol\":1762:1773  bool result */\n      0x00\n        /* \"contracts/ProjectManager.sol\":1787:1808  string memory Message */\n      0x60\n        /* \"contracts/ProjectManager.sol\":1500:1510  msg.sender */\n      caller\n        /* \"contracts/ProjectManager.sol\":578:585  Manager */\n      0x02\n      0x00\n      swap1\n      sload\n      swap1\n      0x0100\n      exp\n      swap1\n      div\n      0xffffffffffffffffffffffffffffffffffffffff\n      and\n        /* \"contracts/ProjectManager.sol\":569:585  Admin == Manager */\n      0xffffffffffffffffffffffffffffffffffffffff\n      and\n        /* \"contracts/ProjectManager.sol\":569:574  Admin */\n      dup2\n        /* \"contracts/ProjectManager.sol\":569:585  Admin == Manager */\n      0xffffffffffffffffffffffffffffffffffffffff\n      and\n      eq\n        /* \"contracts/ProjectManager.sol\":561:623  require(Admin == Manager, \"You are not allowed to manupulate\") */\n      tag_35\n      jumpi\n      mload(0x40)\n      0x08c379a000000000000000000000000000000000000000000000000000000000\n      dup2\n      mstore\n      0x04\n      add\n      tag_36\n      swap1\n      tag_37\n      jump\t// in\n    tag_36:\n      mload(0x40)\n      dup1\n      swap2\n      sub\n      swap1\n      revert\n    tag_35:\n        /* \"contracts/ProjectManager.sol\":1833:1880  ProjectInformation memory ProjectInformationObj */\n      0x00\n        /* \"contracts/ProjectManager.sol\":1883:1897  ProjectDetails */\n      dup1\n        /* \"contracts/ProjectManager.sol\":1911:1920  ProjectID */\n      dup12\n        /* \"contracts/ProjectManager.sol\":1883:1930  ProjectDetails[... */\n      mload(0x40)\n      tag_39\n      swap2\n      swap1\n      tag_40\n      jump\t// in\n    tag_39:\n      swap1\n      dup2\n      mstore\n      0x20\n      add\n      mload(0x40)\n      dup1\n      swap2\n      sub\n      swap1\n      keccak256\n        /* \"contracts/ProjectManager.sol\":1833:1930  ProjectInformation memory ProjectInformationObj = ProjectDetails[... */\n      mload(0x40)\n      dup1\n      0xc0\n      add\n      0x40\n      mstore\n      swap1\n      dup2\n      0x00\n      dup3\n      add\n      dup1\n      sload\n      tag_41\n      swap1\n      tag_42\n      jump\t// in\n    tag_41:\n      dup1\n      0x1f\n      add\n      0x20\n      dup1\n      swap2\n      div\n      mul\n      0x20\n      add\n      mload(0x40)\n      swap1\n      dup2\n      add\n      0x40\n      mstore\n      dup1\n      swap3\n      swap2\n      swap1\n      dup2\n      dup2\n      mstore\n      0x20\n      add\n      dup3\n      dup1\n      sload\n      tag_43\n      swap1\n      tag_42\n      jump\t// in\n    tag_43:\n      dup1\n      iszero\n      tag_44\n      jumpi\n      dup1\n      0x1f\n      lt\n      tag_45\n      jumpi\n      0x0100\n      dup1\n      dup4\n      sload\n      div\n      mul\n      dup4\n      mstore\n      swap2\n      0x20\n      add\n      swap2\n      jump(tag_44)\n    tag_45:\n      dup3\n      add\n      swap2\n      swap1\n      0x00\n      mstore\n      keccak256(0x00, 0x20)\n      swap1\n    tag_46:\n      dup2\n      sload\n      dup2\n      mstore\n      swap1\n      0x01\n      add\n      swap1\n      0x20\n      add\n      dup1\n      dup4\n      gt\n      tag_46\n      jumpi\n      dup3\n      swap1\n      sub\n      0x1f\n      and\n      dup3\n      add\n      swap2\n    tag_44:\n      pop\n      pop\n      pop\n      pop\n      pop\n      dup2\n      mstore\n      0x20\n      add\n      0x01\n      dup3\n      add\n      sload\n      dup2\n      mstore\n      0x20\n      add\n      0x02\n      dup3\n      add\n      sload\n      dup2\n      mstore\n      0x20\n      add\n      0x03\n      dup3\n      add\n      dup1\n      sload\n      tag_47\n      swap1\n      tag_42\n      jump\t// in\n    tag_47:\n      dup1\n      0x1f\n      add\n      0x20\n      dup1\n      swap2\n      div\n      mul\n      0x20\n      add\n      mload(0x40)\n      swap1\n      dup2\n      add\n      0x40\n      mstore\n      dup1\n      swap3\n      swap2\n      swap1\n      dup2\n      dup2\n      mstore\n      0x20\n      add\n      dup3\n      dup1\n      sload\n      tag_48\n      swap1\n      tag_42\n      jump\t// in\n    tag_48:\n      dup1\n      iszero\n      tag_49\n      jumpi\n      dup1\n      0x1f\n      lt\n      tag_50\n      jumpi\n      0x0100\n      dup1\n      dup4\n      sload\n      div\n      mul\n      dup4\n      mstore\n      swap2\n      0x20\n      add\n      swap2\n      jump(tag_49)\n    tag_50:\n      dup3\n      add\n      swap2\n      swap1\n      0x00\n      mstore\n      keccak256(0x00, 0x20)\n      swap1\n    tag_51:\n      dup2\n      sload\n      dup2\n      mstore\n      swap1\n      0x01\n      add\n      swap1\n      0x20\n      add\n      dup1\n      dup4\n      gt\n      tag_51\n      jumpi\n      dup3\n      swap1\n      sub\n      0x1f\n      and\n      dup3\n      add\n      swap2\n    tag_49:\n      pop\n      pop\n      pop\n      pop\n      pop\n      dup2\n      mstore\n      0x20\n      add\n      0x04\n      dup3\n      add\n      sload\n      dup2\n      mstore\n      0x20\n      add\n      0x05\n      dup3\n      add\n      dup1\n      sload\n      tag_52\n      swap1\n      tag_42\n      jump\t// in\n    tag_52:\n      dup1\n      0x1f\n      add\n      0x20\n      dup1\n      swap2\n      div\n      mul\n      0x20\n      add\n      mload(0x40)\n      swap1\n      dup2\n      add\n      0x40\n      mstore\n      dup1\n      swap3\n      swap2\n      swap1\n      dup2\n      dup2\n      mstore\n      0x20\n      add\n      dup3\n      dup1\n      sload\n      tag_53\n      swap1\n      tag_42\n      jump\t// in\n    tag_53:\n      dup1\n      iszero\n      tag_54\n      jumpi\n      dup1\n      0x1f\n      lt\n      tag_55\n      jumpi\n      0x0100\n      dup1\n      dup4\n      sload\n      div\n      mul\n      dup4\n      mstore\n      swap2\n      0x20\n      add\n      swap2\n      jump(tag_54)\n    tag_55:\n      dup3\n      add\n      swap2\n      swap1\n      0x00\n      mstore\n      keccak256(0x00, 0x20)\n      swap1\n    tag_56:\n      dup2\n      sload\n      dup2\n      mstore\n      swap1\n      0x01\n      add\n      swap1\n      0x20\n      add\n      dup1\n      dup4\n      gt\n      tag_56\n      jumpi\n      dup3\n      swap1\n      sub\n      0x1f\n      and\n      dup3\n      add\n      swap2\n    tag_54:\n      pop\n      pop\n      pop\n      pop\n      pop\n      dup2\n      mstore\n      pop\n      pop\n      swap1\n      pop\n        /* \"contracts/ProjectManager.sol\":1987:1988  0 */\n      0x00\n        /* \"contracts/ProjectManager.sol\":1944:1965  ProjectInformationObj */\n      dup2\n        /* \"contracts/ProjectManager.sol\":1944:1977  ProjectInformationObj.ProjectName */\n      0x00\n      add\n      mload\n        /* \"contracts/ProjectManager.sol\":1944:1984  ProjectInformationObj.ProjectName.length */\n      mload\n        /* \"contracts/ProjectManager.sol\":1944:1988  ProjectInformationObj.ProjectName.length > 0 */\n      gt\n        /* \"contracts/ProjectManager.sol\":1940:2485  if (ProjectInformationObj.ProjectName.length > 0) {... */\n      iszero\n      tag_57\n      jumpi\n        /* \"contracts/ProjectManager.sol\":2025:2046  ProjectInformationObj */\n      dup1\n        /* \"contracts/ProjectManager.sol\":2025:2058  ProjectInformationObj.ProjectName */\n      0x00\n      add\n      mload\n        /* \"contracts/ProjectManager.sol\":2004:2059  ProjectName = string(ProjectInformationObj.ProjectName) */\n      swap10\n      pop\n        /* \"contracts/ProjectManager.sol\":2082:2103  ProjectInformationObj */\n      dup1\n        /* \"contracts/ProjectManager.sol\":2082:2110  ProjectInformationObj.Budget */\n      0x20\n      add\n      mload\n        /* \"contracts/ProjectManager.sol\":2073:2110  Budget = ProjectInformationObj.Budget */\n      swap9\n      pop\n        /* \"contracts/ProjectManager.sol\":2140:2161  ProjectInformationObj */\n      dup1\n        /* \"contracts/ProjectManager.sol\":2140:2175  ProjectInformationObj.ResourceCount */\n      0x40\n      add\n      mload\n        /* \"contracts/ProjectManager.sol\":2124:2175  ResourceCount = ProjectInformationObj.ResourceCount */\n      swap8\n      pop\n        /* \"contracts/ProjectManager.sol\":2214:2235  ProjectInformationObj */\n      dup1\n        /* \"contracts/ProjectManager.sol\":2214:2251  ProjectInformationObj.ResourceDetails */\n      0x60\n      add\n      mload\n        /* \"contracts/ProjectManager.sol\":2189:2252  ResourceDetails = string(ProjectInformationObj.ResourceDetails) */\n      swap7\n      pop\n        /* \"contracts/ProjectManager.sol\":2275:2296  ProjectInformationObj */\n      dup1\n        /* \"contracts/ProjectManager.sol\":2275:2303  ProjectInformationObj.Status */\n      0x80\n      add\n      mload\n        /* \"contracts/ProjectManager.sol\":2266:2303  Status = ProjectInformationObj.Status */\n      swap6\n      pop\n        /* \"contracts/ProjectManager.sol\":2334:2355  ProjectInformationObj */\n      dup1\n        /* \"contracts/ProjectManager.sol\":2334:2363  ProjectInformationObj.Remarks */\n      0xa0\n      add\n      mload\n        /* \"contracts/ProjectManager.sol\":2317:2364  Remarks = string(ProjectInformationObj.Remarks) */\n      swap5\n      pop\n        /* \"contracts/ProjectManager.sol\":2387:2391  true */\n      0x01\n        /* \"contracts/ProjectManager.sol\":2378:2391  result = true */\n      swap4\n      pop\n        /* \"contracts/ProjectManager.sol\":1940:2485  if (ProjectInformationObj.ProjectName.length > 0) {... */\n      jump(tag_58)\n    tag_57:\n        /* \"contracts/ProjectManager.sol\":2431:2435  true */\n      0x01\n        /* \"contracts/ProjectManager.sol\":2422:2435  result = true */\n      swap4\n      pop\n        /* \"contracts/ProjectManager.sol\":2449:2474  Message = \"No Data Found\" */\n      mload(0x40)\n      dup1\n      0x40\n      add\n      0x40\n      mstore\n      dup1\n      0x0d\n      dup2\n      mstore\n      0x20\n      add\n      0x4e6f204461746120466f756e6400000000000000000000000000000000000000\n      dup2\n      mstore\n      pop\n      swap3\n      pop\n        /* \"contracts/ProjectManager.sol\":1940:2485  if (ProjectInformationObj.ProjectName.length > 0) {... */\n    tag_58:\n        /* \"contracts/ProjectManager.sol\":1823:2491  {... */\n      pop\n        /* \"contracts/ProjectManager.sol\":1420:2491  function GetProjectData(string memory ProjectID)... */\n      pop\n      swap2\n      swap4\n      swap6\n      swap8\n      pop\n      swap2\n      swap4\n      swap6\n      swap8\n      jump\t// out\n        /* \"contracts/ProjectManager.sol\":387:409  address public Manager */\n    tag_15:\n      0x02\n      0x00\n      swap1\n      sload\n      swap1\n      0x0100\n      exp\n      swap1\n      div\n      0xffffffffffffffffffffffffffffffffffffffff\n      and\n      dup2\n      jump\t// out\n        /* \"contracts/ProjectManager.sol\":647:1414  function UpdatedProject(... */\n    tag_21:\n        /* \"contracts/ProjectManager.sol\":929:940  bool result */\n      0x00\n        /* \"contracts/ProjectManager.sol\":942:963  string memory Message */\n      0x60\n        /* \"contracts/ProjectManager.sol\":908:918  msg.sender */\n      caller\n        /* \"contracts/ProjectManager.sol\":578:585  Manager */\n      0x02\n      0x00\n      swap1\n      sload\n      swap1\n      0x0100\n      exp\n      swap1\n      div\n      0xffffffffffffffffffffffffffffffffffffffff\n      and\n        /* \"contracts/ProjectManager.sol\":569:585  Admin == Manager */\n      0xffffffffffffffffffffffffffffffffffffffff\n      and\n        /* \"contracts/ProjectManager.sol\":569:574  Admin */\n      dup2\n        /* \"contracts/ProjectManager.sol\":569:585  Admin == Manager */\n      0xffffffffffffffffffffffffffffffffffffffff\n      and\n      eq\n        /* \"contracts/ProjectManager.sol\":561:623  require(Admin == Manager, \"You are not allowed to manupulate\") */\n      tag_60\n      jumpi\n      mload(0x40)\n      0x08c379a000000000000000000000000000000000000000000000000000000000\n      dup2\n      mstore\n      0x04\n      add\n      tag_61\n      swap1\n      tag_37\n      jump\t// in\n    tag_61:\n      mload(0x40)\n      dup1\n      swap2\n      sub\n      swap1\n      revert\n    tag_60:\n        /* \"contracts/ProjectManager.sol\":975:1022  ProjectInformation memory ProjectInformationObj */\n      0x00\n        /* \"contracts/ProjectManager.sol\":1025:1288  ProjectInformation({... */\n      mload(0x40)\n      dup1\n      0xc0\n      add\n      0x40\n      mstore\n      dup1\n        /* \"contracts/ProjectManager.sol\":1077:1088  ProjectName */\n      dup13\n        /* \"contracts/ProjectManager.sol\":1025:1288  ProjectInformation({... */\n      dup2\n      mstore\n      0x20\n      add\n        /* \"contracts/ProjectManager.sol\":1111:1117  Budget */\n      dup12\n        /* \"contracts/ProjectManager.sol\":1025:1288  ProjectInformation({... */\n      dup2\n      mstore\n      0x20\n      add\n        /* \"contracts/ProjectManager.sol\":1146:1159  ResourceCount */\n      dup11\n        /* \"contracts/ProjectManager.sol\":1025:1288  ProjectInformation({... */\n      dup2\n      mstore\n      0x20\n      add\n        /* \"contracts/ProjectManager.sol\":1196:1211  ResourceDetails */\n      dup10\n        /* \"contracts/ProjectManager.sol\":1025:1288  ProjectInformation({... */\n      dup2\n      mstore\n      0x20\n      add\n        /* \"contracts/ProjectManager.sol\":1234:1240  Status */\n      dup9\n        /* \"contracts/ProjectManager.sol\":1025:1288  ProjectInformation({... */\n      dup2\n      mstore\n      0x20\n      add\n        /* \"contracts/ProjectManager.sol\":1269:1276  Remarks */\n      dup8\n        /* \"contracts/ProjectManager.sol\":1025:1288  ProjectInformation({... */\n      dup2\n      mstore\n      pop\n        /* \"contracts/ProjectManager.sol\":975:1288  ProjectInformation memory ProjectInformationObj = ProjectInformation({... */\n      swap1\n      pop\n        /* \"contracts/ProjectManager.sol\":1326:1347  ProjectInformationObj */\n      dup1\n        /* \"contracts/ProjectManager.sol\":1298:1312  ProjectDetails */\n      0x00\n        /* \"contracts/ProjectManager.sol\":1313:1322  ProjectID */\n      dup7\n        /* \"contracts/ProjectManager.sol\":1298:1323  ProjectDetails[ProjectID] */\n      mload(0x40)\n      tag_63\n      swap2\n      swap1\n      tag_40\n      jump\t// in\n    tag_63:\n      swap1\n      dup2\n      mstore\n      0x20\n      add\n      mload(0x40)\n      dup1\n      swap2\n      sub\n      swap1\n      keccak256\n        /* \"contracts/ProjectManager.sol\":1298:1347  ProjectDetails[ProjectID] = ProjectInformationObj */\n      0x00\n      dup3\n      add\n      mload\n      dup2\n      0x00\n      add\n      swap1\n      dup2\n      tag_64\n      swap2\n      swap1\n      tag_65\n      jump\t// in\n    tag_64:\n      pop\n      0x20\n      dup3\n      add\n      mload\n      dup2\n      0x01\n      add\n      sstore\n      0x40\n      dup3\n      add\n      mload\n      dup2\n      0x02\n      add\n      sstore\n      0x60\n      dup3\n      add\n      mload\n      dup2\n      0x03\n      add\n      swap1\n      dup2\n      tag_66\n      swap2\n      swap1\n      tag_65\n      jump\t// in\n    tag_66:\n      pop\n      0x80\n      dup3\n      add\n      mload\n      dup2\n      0x04\n      add\n      sstore\n      0xa0\n      dup3\n      add\n      mload\n      dup2\n      0x05\n      add\n      swap1\n      dup2\n      tag_67\n      swap2\n      swap1\n      tag_65\n      jump\t// in\n    tag_67:\n      pop\n      swap1\n      pop\n      pop\n        /* \"contracts/ProjectManager.sol\":1366:1370  true */\n      0x01\n        /* \"contracts/ProjectManager.sol\":1357:1370  result = true */\n      swap4\n      pop\n        /* \"contracts/ProjectManager.sol\":1380:1407  Message = \"Updated Created\" */\n      mload(0x40)\n      dup1\n      0x40\n      add\n      0x40\n      mstore\n      dup1\n      0x0f\n      dup2\n      mstore\n      0x20\n      add\n      0x5570646174656420437265617465640000000000000000000000000000000000\n      dup2\n      mstore\n      pop\n      swap3\n      pop\n        /* \"contracts/ProjectManager.sol\":965:1414  {... */\n      pop\n        /* \"contracts/ProjectManager.sol\":647:1414  function UpdatedProject(... */\n      pop\n      swap8\n      pop\n      swap8\n      swap6\n      pop\n      pop\n      pop\n      pop\n      pop\n      pop\n      jump\t// out\n        /* \"contracts/ProjectManager.sol\":2497:3340  function CreateProject(... */\n    tag_27:\n        /* \"contracts/ProjectManager.sol\":2745:2756  bool result */\n      0x00\n        /* \"contracts/ProjectManager.sol\":2758:2779  string memory Message */\n      0x60\n        /* \"contracts/ProjectManager.sol\":2724:2734  msg.sender */\n      caller\n        /* \"contracts/ProjectManager.sol\":578:585  Manager */\n      0x02\n      0x00\n      swap1\n      sload\n      swap1\n      0x0100\n      exp\n      swap1\n      div\n      0xffffffffffffffffffffffffffffffffffffffff\n      and\n        /* \"contracts/ProjectManager.sol\":569:585  Admin == Manager */\n      0xffffffffffffffffffffffffffffffffffffffff\n      and\n        /* \"contracts/ProjectManager.sol\":569:574  Admin */\n      dup2\n        /* \"contracts/ProjectManager.sol\":569:585  Admin == Manager */\n      0xffffffffffffffffffffffffffffffffffffffff\n      and\n      eq\n        /* \"contracts/ProjectManager.sol\":561:623  require(Admin == Manager, \"You are not allowed to manupulate\") */\n      tag_69\n      jumpi\n      mload(0x40)\n      0x08c379a000000000000000000000000000000000000000000000000000000000\n      dup2\n      mstore\n      0x04\n      add\n      tag_70\n      swap1\n      tag_37\n      jump\t// in\n    tag_70:\n      mload(0x40)\n      dup1\n      swap2\n      sub\n      swap1\n      revert\n    tag_69:\n        /* \"contracts/ProjectManager.sol\":2791:2838  ProjectInformation memory ProjectInformationObj */\n      0x00\n        /* \"contracts/ProjectManager.sol\":2841:3104  ProjectInformation({... */\n      mload(0x40)\n      dup1\n      0xc0\n      add\n      0x40\n      mstore\n      dup1\n        /* \"contracts/ProjectManager.sol\":2893:2904  ProjectName */\n      dup12\n        /* \"contracts/ProjectManager.sol\":2841:3104  ProjectInformation({... */\n      dup2\n      mstore\n      0x20\n      add\n        /* \"contracts/ProjectManager.sol\":2927:2933  Budget */\n      dup11\n        /* \"contracts/ProjectManager.sol\":2841:3104  ProjectInformation({... */\n      dup2\n      mstore\n      0x20\n      add\n        /* \"contracts/ProjectManager.sol\":2962:2975  ResourceCount */\n      dup10\n        /* \"contracts/ProjectManager.sol\":2841:3104  ProjectInformation({... */\n      dup2\n      mstore\n      0x20\n      add\n        /* \"contracts/ProjectManager.sol\":3012:3027  ResourceDetails */\n      dup9\n        /* \"contracts/ProjectManager.sol\":2841:3104  ProjectInformation({... */\n      dup2\n      mstore\n      0x20\n      add\n        /* \"contracts/ProjectManager.sol\":3050:3056  Status */\n      dup8\n        /* \"contracts/ProjectManager.sol\":2841:3104  ProjectInformation({... */\n      dup2\n      mstore\n      0x20\n      add\n        /* \"contracts/ProjectManager.sol\":3085:3092  Remarks */\n      dup7\n        /* \"contracts/ProjectManager.sol\":2841:3104  ProjectInformation({... */\n      dup2\n      mstore\n      pop\n        /* \"contracts/ProjectManager.sol\":2791:3104  ProjectInformation memory ProjectInformationObj = ProjectInformation({... */\n      swap1\n      pop\n        /* \"contracts/ProjectManager.sol\":3114:3126  ProjectCount */\n      0x01\n      0x00\n        /* \"contracts/ProjectManager.sol\":3114:3128  ProjectCount++ */\n      dup2\n      sload\n      dup1\n      swap3\n      swap2\n      swap1\n      tag_72\n      swap1\n      tag_73\n      jump\t// in\n    tag_72:\n      swap2\n      swap1\n      pop\n      sstore\n      pop\n        /* \"contracts/ProjectManager.sol\":3138:3161  string memory ProjectID */\n      0x00\n        /* \"contracts/ProjectManager.sol\":3164:3209  uintToStringWithZeroPadding(ProjectCount, 10) */\n      tag_74\n        /* \"contracts/ProjectManager.sol\":3192:3204  ProjectCount */\n      sload(0x01)\n        /* \"contracts/ProjectManager.sol\":3206:3208  10 */\n      0x0a\n        /* \"contracts/ProjectManager.sol\":3164:3191  uintToStringWithZeroPadding */\n      tag_75\n        /* \"contracts/ProjectManager.sol\":3164:3209  uintToStringWithZeroPadding(ProjectCount, 10) */\n      jump\t// in\n    tag_74:\n        /* \"contracts/ProjectManager.sol\":3138:3209  string memory ProjectID = uintToStringWithZeroPadding(ProjectCount, 10) */\n      swap1\n      pop\n        /* \"contracts/ProjectManager.sol\":3247:3268  ProjectInformationObj */\n      dup2\n        /* \"contracts/ProjectManager.sol\":3219:3233  ProjectDetails */\n      0x00\n        /* \"contracts/ProjectManager.sol\":3234:3243  ProjectID */\n      dup3\n        /* \"contracts/ProjectManager.sol\":3219:3244  ProjectDetails[ProjectID] */\n      mload(0x40)\n      tag_76\n      swap2\n      swap1\n      tag_40\n      jump\t// in\n    tag_76:\n      swap1\n      dup2\n      mstore\n      0x20\n      add\n      mload(0x40)\n      dup1\n      swap2\n      sub\n      swap1\n      keccak256\n        /* \"contracts/ProjectManager.sol\":3219:3268  ProjectDetails[ProjectID] = ProjectInformationObj */\n      0x00\n      dup3\n      add\n      mload\n      dup2\n      0x00\n      add\n      swap1\n      dup2\n      tag_77\n      swap2\n      swap1\n      tag_65\n      jump\t// in\n    tag_77:\n      pop\n      0x20\n      dup3\n      add\n      mload\n      dup2\n      0x01\n      add\n      sstore\n      0x40\n      dup3\n      add\n      mload\n      dup2\n      0x02\n      add\n      sstore\n      0x60\n      dup3\n      add\n      mload\n      dup2\n      0x03\n      add\n      swap1\n      dup2\n      tag_78\n      swap2\n      swap1\n      tag_65\n      jump\t// in\n    tag_78:\n      pop\n      0x80\n      dup3\n      add\n      mload\n      dup2\n      0x04\n      add\n      sstore\n      0xa0\n      dup3\n      add\n      mload\n      dup2\n      0x05\n      add\n      swap1\n      dup2\n      tag_79\n      swap2\n      swap1\n      tag_65\n      jump\t// in\n    tag_79:\n      pop\n      swap1\n      pop\n      pop\n        /* \"contracts/ProjectManager.sol\":3287:3291  true */\n      0x01\n        /* \"contracts/ProjectManager.sol\":3278:3291  result = true */\n      swap5\n      pop\n        /* \"contracts/ProjectManager.sol\":3301:3333  Message = \"Successfully Created\" */\n      mload(0x40)\n      dup1\n      0x40\n      add\n      0x40\n      mstore\n      dup1\n      0x14\n      dup2\n      mstore\n      0x20\n      add\n      0x5375636365737366756c6c792043726561746564000000000000000000000000\n      dup2\n      mstore\n      pop\n      swap4\n      pop\n        /* \"contracts/ProjectManager.sol\":2781:3340  {... */\n      pop\n      pop\n        /* \"contracts/ProjectManager.sol\":2497:3340  function CreateProject(... */\n      pop\n      swap7\n      pop\n      swap7\n      swap5\n      pop\n      pop\n      pop\n      pop\n      pop\n      jump\t// out\n        /* \"contracts/ProjectManager.sol\":292:351  mapping(string => ProjectInformation) public ProjectDetails */\n    tag_31:\n      0x00\n      dup2\n      dup1\n      mload\n      0x20\n      dup2\n      add\n      dup3\n      add\n      dup1\n      mload\n      dup5\n      dup3\n      mstore\n      0x20\n      dup4\n      add\n      0x20\n      dup6\n      add\n      keccak256\n      dup2\n      dup4\n      mstore\n      dup1\n      swap6\n      pop\n      pop\n      pop\n      pop\n      pop\n      pop\n      0x00\n      swap2\n      pop\n      swap1\n      pop\n      dup1\n      0x00\n      add\n      dup1\n      sload\n      tag_80\n      swap1\n      tag_42\n      jump\t// in\n    tag_80:\n      dup1\n      0x1f\n      add\n      0x20\n      dup1\n      swap2\n      div\n      mul\n      0x20\n      add\n      mload(0x40)\n      swap1\n      dup2\n      add\n      0x40\n      mstore\n      dup1\n      swap3\n      swap2\n      swap1\n      dup2\n      dup2\n      mstore\n      0x20\n      add\n      dup3\n      dup1\n      sload\n      tag_81\n      swap1\n      tag_42\n      jump\t// in\n    tag_81:\n      dup1\n      iszero\n      tag_82\n      jumpi\n      dup1\n      0x1f\n      lt\n      tag_83\n      jumpi\n      0x0100\n      dup1\n      dup4\n      sload\n      div\n      mul\n      dup4\n      mstore\n      swap2\n      0x20\n      add\n      swap2\n      jump(tag_82)\n    tag_83:\n      dup3\n      add\n      swap2\n      swap1\n      0x00\n      mstore\n      keccak256(0x00, 0x20)\n      swap1\n    tag_84:\n      dup2\n      sload\n      dup2\n      mstore\n      swap1\n      0x01\n      add\n      swap1\n      0x20\n      add\n      dup1\n      dup4\n      gt\n      tag_84\n      jumpi\n      dup3\n      swap1\n      sub\n      0x1f\n      and\n      dup3\n      add\n      swap2\n    tag_82:\n      pop\n      pop\n      pop\n      pop\n      pop\n      swap1\n      dup1\n      0x01\n      add\n      sload\n      swap1\n      dup1\n      0x02\n      add\n      sload\n      swap1\n      dup1\n      0x03\n      add\n      dup1\n      sload\n      tag_85\n      swap1\n      tag_42\n      jump\t// in\n    tag_85:\n      dup1\n      0x1f\n      add\n      0x20\n      dup1\n      swap2\n      div\n      mul\n      0x20\n      add\n      mload(0x40)\n      swap1\n      dup2\n      add\n      0x40\n      mstore\n      dup1\n      swap3\n      swap2\n      swap1\n      dup2\n      dup2\n      mstore\n      0x20\n      add\n      dup3\n      dup1\n      sload\n      tag_86\n      swap1\n      tag_42\n      jump\t// in\n    tag_86:\n      dup1\n      iszero\n      tag_87\n      jumpi\n      dup1\n      0x1f\n      lt\n      tag_88\n      jumpi\n      0x0100\n      dup1\n      dup4\n      sload\n      div\n      mul\n      dup4\n      mstore\n      swap2\n      0x20\n      add\n      swap2\n      jump(tag_87)\n    tag_88:\n      dup3\n      add\n      swap2\n      swap1\n      0x00\n      mstore\n      keccak256(0x00, 0x20)\n      swap1\n    tag_89:\n      dup2\n      sload\n      dup2\n      mstore\n      swap1\n      0x01\n      add\n      swap1\n      0x20\n      add\n      dup1\n      dup4\n      gt\n      tag_89\n      jumpi\n      dup3\n      swap1\n      sub\n      0x1f\n      and\n      dup3\n      add\n      swap2\n    tag_87:\n      pop\n      pop\n      pop\n      pop\n      pop\n      swap1\n      dup1\n      0x04\n      add\n      sload\n      swap1\n      dup1\n      0x05\n      add\n      dup1\n      sload\n      tag_90\n      swap1\n      tag_42\n      jump\t// in\n    tag_90:\n      dup1\n      0x1f\n      add\n      0x20\n      dup1\n      swap2\n      div\n      mul\n      0x20\n      add\n      mload(0x40)\n      swap1\n      dup2\n      add\n      0x40\n      mstore\n      dup1\n      swap3\n      swap2\n      swap1\n      dup2\n      dup2\n      mstore\n      0x20\n      add\n      dup3\n      dup1\n      sload\n      tag_91\n      swap1\n      tag_42\n      jump\t// in\n    tag_91:\n      dup1\n      iszero\n      tag_92\n      jumpi\n      dup1\n      0x1f\n      lt\n      tag_93\n      jumpi\n      0x0100\n      dup1\n      dup4\n      sload\n      div\n      mul\n      dup4\n      mstore\n      swap2\n      0x20\n      add\n      swap2\n      jump(tag_92)\n    tag_93:\n      dup3\n      add\n      swap2\n      swap1\n      0x00\n      mstore\n      keccak256(0x00, 0x20)\n      swap1\n    tag_94:\n      dup2\n      sload\n      dup2\n      mstore\n      swap1\n      0x01\n      add\n      swap1\n      0x20\n      add\n      dup1\n      dup4\n      gt\n      tag_94\n      jumpi\n      dup3\n      swap1\n      sub\n      0x1f\n      and\n      dup3\n      add\n      swap2\n    tag_92:\n      pop\n      pop\n      pop\n      pop\n      pop\n      swap1\n      pop\n      dup7\n      jump\t// out\n        /* \"contracts/ProjectManager.sol\":3370:3735  function uintToStringWithZeroPadding(uint256 value, uint256 length)... */\n    tag_75:\n        /* \"contracts/ProjectManager.sol\":3485:3498  string memory */\n      0x60\n        /* \"contracts/ProjectManager.sol\":3514:3533  bytes memory buffer */\n      0x00\n        /* \"contracts/ProjectManager.sol\":3546:3552  length */\n      dup3\n        /* \"contracts/ProjectManager.sol\":3536:3553  new bytes(length) */\n      0xffffffffffffffff\n      dup2\n      gt\n      iszero\n      tag_96\n      jumpi\n      tag_97\n      tag_98\n      jump\t// in\n    tag_97:\n    tag_96:\n      mload(0x40)\n      swap1\n      dup1\n      dup3\n      mstore\n      dup1\n      0x1f\n      add\n      not(0x1f)\n      and\n      0x20\n      add\n      dup3\n      add\n      0x40\n      mstore\n      dup1\n      iszero\n      tag_99\n      jumpi\n      dup2\n      0x20\n      add\n      0x01\n      dup3\n      mul\n      dup1\n      calldatasize\n      dup4\n      calldatacopy\n      dup1\n      dup3\n      add\n      swap2\n      pop\n      pop\n      swap1\n      pop\n    tag_99:\n      pop\n        /* \"contracts/ProjectManager.sol\":3514:3553  bytes memory buffer = new bytes(length) */\n      swap1\n      pop\n        /* \"contracts/ProjectManager.sol\":3568:3577  uint256 i */\n      0x00\n        /* \"contracts/ProjectManager.sol\":3580:3586  length */\n      dup4\n        /* \"contracts/ProjectManager.sol\":3568:3586  uint256 i = length */\n      swap1\n      pop\n        /* \"contracts/ProjectManager.sol\":3563:3698  for (uint256 i = length; i > 0; i--) {... */\n    tag_100:\n        /* \"contracts/ProjectManager.sol\":3592:3593  0 */\n      0x00\n        /* \"contracts/ProjectManager.sol\":3588:3589  i */\n      dup2\n        /* \"contracts/ProjectManager.sol\":3588:3593  i > 0 */\n      gt\n        /* \"contracts/ProjectManager.sol\":3563:3698  for (uint256 i = length; i > 0; i--) {... */\n      iszero\n      tag_101\n      jumpi\n        /* \"contracts/ProjectManager.sol\":3657:3659  10 */\n      0x0a\n        /* \"contracts/ProjectManager.sol\":3649:3654  value */\n      dup6\n        /* \"contracts/ProjectManager.sol\":3649:3659  value % 10 */\n      tag_103\n      swap2\n      swap1\n      tag_104\n      jump\t// in\n    tag_103:\n        /* \"contracts/ProjectManager.sol\":3643:3645  48 */\n      0x30\n        /* \"contracts/ProjectManager.sol\":3643:3660  48 + (value % 10) */\n      tag_105\n      swap2\n      swap1\n      tag_106\n      jump\t// in\n    tag_105:\n        /* \"contracts/ProjectManager.sol\":3630:3662  bytes1(uint8(48 + (value % 10))) */\n      0xf8\n      shl\n        /* \"contracts/ProjectManager.sol\":3614:3620  buffer */\n      dup3\n        /* \"contracts/ProjectManager.sol\":3625:3626  1 */\n      0x01\n        /* \"contracts/ProjectManager.sol\":3621:3622  i */\n      dup4\n        /* \"contracts/ProjectManager.sol\":3621:3626  i - 1 */\n      tag_107\n      swap2\n      swap1\n      tag_108\n      jump\t// in\n    tag_107:\n        /* \"contracts/ProjectManager.sol\":3614:3627  buffer[i - 1] */\n      dup2\n      mload\n      dup2\n      lt\n      tag_109\n      jumpi\n      tag_110\n      tag_111\n      jump\t// in\n    tag_110:\n    tag_109:\n      0x20\n      add\n      add\n        /* \"contracts/ProjectManager.sol\":3614:3662  buffer[i - 1] = bytes1(uint8(48 + (value % 10))) */\n      swap1\n      not(0xffffffffffffffffffffffffffffffffffffffffffffffffffffffffffffff)\n      and\n      swap1\n      dup2\n      0x00\n      byte\n      swap1\n      mstore8\n      pop\n        /* \"contracts/ProjectManager.sol\":3685:3687  10 */\n      0x0a\n        /* \"contracts/ProjectManager.sol\":3676:3687  value /= 10 */\n      dup6\n      tag_112\n      swap2\n      swap1\n      tag_113\n      jump\t// in\n    tag_112:\n      swap5\n      pop\n        /* \"contracts/ProjectManager.sol\":3595:3598  i-- */\n      dup1\n      dup1\n      tag_114\n      swap1\n      tag_115\n      jump\t// in\n    tag_114:\n      swap2\n      pop\n      pop\n        /* \"contracts/ProjectManager.sol\":3563:3698  for (uint256 i = length; i > 0; i--) {... */\n      jump(tag_100)\n    tag_101:\n      pop\n        /* \"contracts/ProjectManager.sol\":3721:3727  buffer */\n      dup1\n        /* \"contracts/ProjectManager.sol\":3707:3728  return string(buffer) */\n      swap2\n      pop\n      pop\n        /* \"contracts/ProjectManager.sol\":3370:3735  function uintToStringWithZeroPadding(uint256 value, uint256 length)... */\n      swap3\n      swap2\n      pop\n      pop\n      jump\t// out\n        /* \"#utility.yul\":7:82   */\n    tag_116:\n        /* \"#utility.yul\":40:46   */\n      0x00\n        /* \"#utility.yul\":73:75   */\n      0x40\n        /* \"#utility.yul\":67:76   */\n      mload\n        /* \"#utility.yul\":57:76   */\n      swap1\n      pop\n        /* \"#utility.yul\":7:82   */\n      swap1\n      jump\t// out\n        /* \"#utility.yul\":88:205   */\n    tag_117:\n        /* \"#utility.yul\":197:198   */\n      0x00\n        /* \"#utility.yul\":194:195   */\n      dup1\n        /* \"#utility.yul\":187:199   */\n      revert\n        /* \"#utility.yul\":211:328   */\n    tag_118:\n        /* \"#utility.yul\":320:321   */\n      0x00\n        /* \"#utility.yul\":317:318   */\n      dup1\n        /* \"#utility.yul\":310:322   */\n      revert\n        /* \"#utility.yul\":334:451   */\n    tag_119:\n        /* \"#utility.yul\":443:444   */\n      0x00\n        /* \"#utility.yul\":440:441   */\n      dup1\n        /* \"#utility.yul\":433:445   */\n      revert\n        /* \"#utility.yul\":457:574   */\n    tag_120:\n        /* \"#utility.yul\":566:567   */\n      0x00\n        /* \"#utility.yul\":563:564   */\n      dup1\n        /* \"#utility.yul\":556:568   */\n      revert\n        /* \"#utility.yul\":580:682   */\n    tag_121:\n        /* \"#utility.yul\":621:627   */\n      0x00\n        /* \"#utility.yul\":672:674   */\n      0x1f\n        /* \"#utility.yul\":668:675   */\n      not\n        /* \"#utility.yul\":663:665   */\n      0x1f\n        /* \"#utility.yul\":656:661   */\n      dup4\n        /* \"#utility.yul\":652:666   */\n      add\n        /* \"#utility.yul\":648:676   */\n      and\n        /* \"#utility.yul\":638:676   */\n      swap1\n      pop\n        /* \"#utility.yul\":580:682   */\n      swap2\n      swap1\n      pop\n      jump\t// out\n        /* \"#utility.yul\":688:868   */\n    tag_98:\n        /* \"#utility.yul\":736:813   */\n      0x4e487b7100000000000000000000000000000000000000000000000000000000\n        /* \"#utility.yul\":733:734   */\n      0x00\n        /* \"#utility.yul\":726:814   */\n      mstore\n        /* \"#utility.yul\":833:837   */\n      0x41\n        /* \"#utility.yul\":830:831   */\n      0x04\n        /* \"#utility.yul\":823:838   */\n      mstore\n        /* \"#utility.yul\":857:861   */\n      0x24\n        /* \"#utility.yul\":854:855   */\n      0x00\n        /* \"#utility.yul\":847:862   */\n      revert\n        /* \"#utility.yul\":874:1155   */\n    tag_122:\n        /* \"#utility.yul\":957:984   */\n      tag_179\n        /* \"#utility.yul\":979:983   */\n      dup3\n        /* \"#utility.yul\":957:984   */\n      tag_121\n      jump\t// in\n    tag_179:\n        /* \"#utility.yul\":949:955   */\n      dup2\n        /* \"#utility.yul\":945:985   */\n      add\n        /* \"#utility.yul\":1087:1093   */\n      dup2\n        /* \"#utility.yul\":1075:1085   */\n      dup2\n        /* \"#utility.yul\":1072:1094   */\n      lt\n        /* \"#utility.yul\":1051:1069   */\n      0xffffffffffffffff\n        /* \"#utility.yul\":1039:1049   */\n      dup3\n        /* \"#utility.yul\":1036:1070   */\n      gt\n        /* \"#utility.yul\":1033:1095   */\n      or\n        /* \"#utility.yul\":1030:1118   */\n      iszero\n      tag_180\n      jumpi\n        /* \"#utility.yul\":1098:1116   */\n      tag_181\n      tag_98\n      jump\t// in\n    tag_181:\n        /* \"#utility.yul\":1030:1118   */\n    tag_180:\n        /* \"#utility.yul\":1138:1148   */\n      dup1\n        /* \"#utility.yul\":1134:1136   */\n      0x40\n        /* \"#utility.yul\":1127:1149   */\n      mstore\n        /* \"#utility.yul\":917:1155   */\n      pop\n        /* \"#utility.yul\":874:1155   */\n      pop\n      pop\n      jump\t// out\n        /* \"#utility.yul\":1161:1290   */\n    tag_123:\n        /* \"#utility.yul\":1195:1201   */\n      0x00\n        /* \"#utility.yul\":1222:1242   */\n      tag_183\n      tag_116\n      jump\t// in\n    tag_183:\n        /* \"#utility.yul\":1212:1242   */\n      swap1\n      pop\n        /* \"#utility.yul\":1251:1284   */\n      tag_184\n        /* \"#utility.yul\":1279:1283   */\n      dup3\n        /* \"#utility.yul\":1271:1277   */\n      dup3\n        /* \"#utility.yul\":1251:1284   */\n      tag_122\n      jump\t// in\n    tag_184:\n        /* \"#utility.yul\":1161:1290   */\n      swap2\n      swap1\n      pop\n      jump\t// out\n        /* \"#utility.yul\":1296:1604   */\n    tag_124:\n        /* \"#utility.yul\":1358:1362   */\n      0x00\n        /* \"#utility.yul\":1448:1466   */\n      0xffffffffffffffff\n        /* \"#utility.yul\":1440:1446   */\n      dup3\n        /* \"#utility.yul\":1437:1467   */\n      gt\n        /* \"#utility.yul\":1434:1490   */\n      iszero\n      tag_186\n      jumpi\n        /* \"#utility.yul\":1470:1488   */\n      tag_187\n      tag_98\n      jump\t// in\n    tag_187:\n        /* \"#utility.yul\":1434:1490   */\n    tag_186:\n        /* \"#utility.yul\":1508:1537   */\n      tag_188\n        /* \"#utility.yul\":1530:1536   */\n      dup3\n        /* \"#utility.yul\":1508:1537   */\n      tag_121\n      jump\t// in\n    tag_188:\n        /* \"#utility.yul\":1500:1537   */\n      swap1\n      pop\n        /* \"#utility.yul\":1592:1596   */\n      0x20\n        /* \"#utility.yul\":1586:1590   */\n      dup2\n        /* \"#utility.yul\":1582:1597   */\n      add\n        /* \"#utility.yul\":1574:1597   */\n      swap1\n      pop\n        /* \"#utility.yul\":1296:1604   */\n      swap2\n      swap1\n      pop\n      jump\t// out\n        /* \"#utility.yul\":1610:1758   */\n    tag_125:\n        /* \"#utility.yul\":1708:1714   */\n      dup3\n        /* \"#utility.yul\":1703:1706   */\n      dup2\n        /* \"#utility.yul\":1698:1701   */\n      dup4\n        /* \"#utility.yul\":1685:1715   */\n      calldatacopy\n        /* \"#utility.yul\":1749:1750   */\n      0x00\n        /* \"#utility.yul\":1740:1746   */\n      dup4\n        /* \"#utility.yul\":1735:1738   */\n      dup4\n        /* \"#utility.yul\":1731:1747   */\n      add\n        /* \"#utility.yul\":1724:1751   */\n      mstore\n        /* \"#utility.yul\":1610:1758   */\n      pop\n      pop\n      pop\n      jump\t// out\n        /* \"#utility.yul\":1764:2189   */\n    tag_126:\n        /* \"#utility.yul\":1842:1847   */\n      0x00\n        /* \"#utility.yul\":1867:1933   */\n      tag_191\n        /* \"#utility.yul\":1883:1932   */\n      tag_192\n        /* \"#utility.yul\":1925:1931   */\n      dup5\n        /* \"#utility.yul\":1883:1932   */\n      tag_124\n      jump\t// in\n    tag_192:\n        /* \"#utility.yul\":1867:1933   */\n      tag_123\n      jump\t// in\n    tag_191:\n        /* \"#utility.yul\":1858:1933   */\n      swap1\n      pop\n        /* \"#utility.yul\":1956:1962   */\n      dup3\n        /* \"#utility.yul\":1949:1954   */\n      dup2\n        /* \"#utility.yul\":1942:1963   */\n      mstore\n        /* \"#utility.yul\":1994:1998   */\n      0x20\n        /* \"#utility.yul\":1987:1992   */\n      dup2\n        /* \"#utility.yul\":1983:1999   */\n      add\n        /* \"#utility.yul\":2032:2035   */\n      dup5\n        /* \"#utility.yul\":2023:2029   */\n      dup5\n        /* \"#utility.yul\":2018:2021   */\n      dup5\n        /* \"#utility.yul\":2014:2030   */\n      add\n        /* \"#utility.yul\":2011:2036   */\n      gt\n        /* \"#utility.yul\":2008:2120   */\n      iszero\n      tag_193\n      jumpi\n        /* \"#utility.yul\":2039:2118   */\n      tag_194\n      tag_120\n      jump\t// in\n    tag_194:\n        /* \"#utility.yul\":2008:2120   */\n    tag_193:\n        /* \"#utility.yul\":2129:2183   */\n      tag_195\n        /* \"#utility.yul\":2176:2182   */\n      dup5\n        /* \"#utility.yul\":2171:2174   */\n      dup3\n        /* \"#utility.yul\":2166:2169   */\n      dup6\n        /* \"#utility.yul\":2129:2183   */\n      tag_125\n      jump\t// in\n    tag_195:\n        /* \"#utility.yul\":1848:2189   */\n      pop\n        /* \"#utility.yul\":1764:2189   */\n      swap4\n      swap3\n      pop\n      pop\n      pop\n      jump\t// out\n        /* \"#utility.yul\":2209:2549   */\n    tag_127:\n        /* \"#utility.yul\":2265:2270   */\n      0x00\n        /* \"#utility.yul\":2314:2317   */\n      dup3\n        /* \"#utility.yul\":2307:2311   */\n      0x1f\n        /* \"#utility.yul\":2299:2305   */\n      dup4\n        /* \"#utility.yul\":2295:2312   */\n      add\n        /* \"#utility.yul\":2291:2318   */\n      slt\n        /* \"#utility.yul\":2281:2403   */\n      tag_197\n      jumpi\n        /* \"#utility.yul\":2322:2401   */\n      tag_198\n      tag_119\n      jump\t// in\n    tag_198:\n        /* \"#utility.yul\":2281:2403   */\n    tag_197:\n        /* \"#utility.yul\":2439:2445   */\n      dup2\n        /* \"#utility.yul\":2426:2446   */\n      calldataload\n        /* \"#utility.yul\":2464:2543   */\n      tag_199\n        /* \"#utility.yul\":2539:2542   */\n      dup5\n        /* \"#utility.yul\":2531:2537   */\n      dup3\n        /* \"#utility.yul\":2524:2528   */\n      0x20\n        /* \"#utility.yul\":2516:2522   */\n      dup7\n        /* \"#utility.yul\":2512:2529   */\n      add\n        /* \"#utility.yul\":2464:2543   */\n      tag_126\n      jump\t// in\n    tag_199:\n        /* \"#utility.yul\":2455:2543   */\n      swap2\n      pop\n        /* \"#utility.yul\":2271:2549   */\n      pop\n        /* \"#utility.yul\":2209:2549   */\n      swap3\n      swap2\n      pop\n      pop\n      jump\t// out\n        /* \"#utility.yul\":2555:3064   */\n    tag_10:\n        /* \"#utility.yul\":2624:2630   */\n      0x00\n        /* \"#utility.yul\":2673:2675   */\n      0x20\n        /* \"#utility.yul\":2661:2670   */\n      dup3\n        /* \"#utility.yul\":2652:2659   */\n      dup5\n        /* \"#utility.yul\":2648:2671   */\n      sub\n        /* \"#utility.yul\":2644:2676   */\n      slt\n        /* \"#utility.yul\":2641:2760   */\n      iszero\n      tag_201\n      jumpi\n        /* \"#utility.yul\":2679:2758   */\n      tag_202\n      tag_117\n      jump\t// in\n    tag_202:\n        /* \"#utility.yul\":2641:2760   */\n    tag_201:\n        /* \"#utility.yul\":2827:2828   */\n      0x00\n        /* \"#utility.yul\":2816:2825   */\n      dup3\n        /* \"#utility.yul\":2812:2829   */\n      add\n        /* \"#utility.yul\":2799:2830   */\n      calldataload\n        /* \"#utility.yul\":2857:2875   */\n      0xffffffffffffffff\n        /* \"#utility.yul\":2849:2855   */\n      dup2\n        /* \"#utility.yul\":2846:2876   */\n      gt\n        /* \"#utility.yul\":2843:2960   */\n      iszero\n      tag_203\n      jumpi\n        /* \"#utility.yul\":2879:2958   */\n      tag_204\n      tag_118\n      jump\t// in\n    tag_204:\n        /* \"#utility.yul\":2843:2960   */\n    tag_203:\n        /* \"#utility.yul\":2984:3047   */\n      tag_205\n        /* \"#utility.yul\":3039:3046   */\n      dup5\n        /* \"#utility.yul\":3030:3036   */\n      dup3\n        /* \"#utility.yul\":3019:3028   */\n      dup6\n        /* \"#utility.yul\":3015:3037   */\n      add\n        /* \"#utility.yul\":2984:3047   */\n      tag_127\n      jump\t// in\n    tag_205:\n        /* \"#utility.yul\":2974:3047   */\n      swap2\n      pop\n        /* \"#utility.yul\":2770:3057   */\n      pop\n        /* \"#utility.yul\":2555:3064   */\n      swap3\n      swap2\n      pop\n      pop\n      jump\t// out\n        /* \"#utility.yul\":3070:3169   */\n    tag_128:\n        /* \"#utility.yul\":3122:3128   */\n      0x00\n        /* \"#utility.yul\":3156:3161   */\n      dup2\n        /* \"#utility.yul\":3150:3162   */\n      mload\n        /* \"#utility.yul\":3140:3162   */\n      swap1\n      pop\n        /* \"#utility.yul\":3070:3169   */\n      swap2\n      swap1\n      pop\n      jump\t// out\n        /* \"#utility.yul\":3175:3344   */\n    tag_129:\n        /* \"#utility.yul\":3259:3270   */\n      0x00\n        /* \"#utility.yul\":3293:3299   */\n      dup3\n        /* \"#utility.yul\":3288:3291   */\n      dup3\n        /* \"#utility.yul\":3281:3300   */\n      mstore\n        /* \"#utility.yul\":3333:3337   */\n      0x20\n        /* \"#utility.yul\":3328:3331   */\n      dup3\n        /* \"#utility.yul\":3324:3338   */\n      add\n        /* \"#utility.yul\":3309:3338   */\n      swap1\n      pop\n        /* \"#utility.yul\":3175:3344   */\n      swap3\n      swap2\n      pop\n      pop\n      jump\t// out\n        /* \"#utility.yul\":3350:3489   */\n    tag_130:\n        /* \"#utility.yul\":3439:3445   */\n      dup3\n        /* \"#utility.yul\":3434:3437   */\n      dup2\n        /* \"#utility.yul\":3429:3432   */\n      dup4\n        /* \"#utility.yul\":3423:3446   */\n      mcopy\n        /* \"#utility.yul\":3480:3481   */\n      0x00\n        /* \"#utility.yul\":3471:3477   */\n      dup4\n        /* \"#utility.yul\":3466:3469   */\n      dup4\n        /* \"#utility.yul\":3462:3478   */\n      add\n        /* \"#utility.yul\":3455:3482   */\n      mstore\n        /* \"#utility.yul\":3350:3489   */\n      pop\n      pop\n      pop\n      jump\t// out\n        /* \"#utility.yul\":3495:3872   */\n    tag_131:\n        /* \"#utility.yul\":3583:3586   */\n      0x00\n        /* \"#utility.yul\":3611:3650   */\n      tag_210\n        /* \"#utility.yul\":3644:3649   */\n      dup3\n        /* \"#utility.yul\":3611:3650   */\n      tag_128\n      jump\t// in\n    tag_210:\n        /* \"#utility.yul\":3666:3737   */\n      tag_211\n        /* \"#utility.yul\":3730:3736   */\n      dup2\n        /* \"#utility.yul\":3725:3728   */\n      dup6\n        /* \"#utility.yul\":3666:3737   */\n      tag_129\n      jump\t// in\n    tag_211:\n        /* \"#utility.yul\":3659:3737   */\n      swap4\n      pop\n        /* \"#utility.yul\":3746:3811   */\n      tag_212\n        /* \"#utility.yul\":3804:3810   */\n      dup2\n        /* \"#utility.yul\":3799:3802   */\n      dup6\n        /* \"#utility.yul\":3792:3796   */\n      0x20\n        /* \"#utility.yul\":3785:3790   */\n      dup7\n        /* \"#utility.yul\":3781:3797   */\n      add\n        /* \"#utility.yul\":3746:3811   */\n      tag_130\n      jump\t// in\n    tag_212:\n        /* \"#utility.yul\":3836:3865   */\n      tag_213\n        /* \"#utility.yul\":3858:3864   */\n      dup2\n        /* \"#utility.yul\":3836:3865   */\n      tag_121\n      jump\t// in\n    tag_213:\n        /* \"#utility.yul\":3831:3834   */\n      dup5\n        /* \"#utility.yul\":3827:3866   */\n      add\n        /* \"#utility.yul\":3820:3866   */\n      swap2\n      pop\n        /* \"#utility.yul\":3587:3872   */\n      pop\n        /* \"#utility.yul\":3495:3872   */\n      swap3\n      swap2\n      pop\n      pop\n      jump\t// out\n        /* \"#utility.yul\":3878:3955   */\n    tag_132:\n        /* \"#utility.yul\":3915:3922   */\n      0x00\n        /* \"#utility.yul\":3944:3949   */\n      dup2\n        /* \"#utility.yul\":3933:3949   */\n      swap1\n      pop\n        /* \"#utility.yul\":3878:3955   */\n      swap2\n      swap1\n      pop\n      jump\t// out\n        /* \"#utility.yul\":3961:4079   */\n    tag_133:\n        /* \"#utility.yul\":4048:4072   */\n      tag_216\n        /* \"#utility.yul\":4066:4071   */\n      dup2\n        /* \"#utility.yul\":4048:4072   */\n      tag_132\n      jump\t// in\n    tag_216:\n        /* \"#utility.yul\":4043:4046   */\n      dup3\n        /* \"#utility.yul\":4036:4073   */\n      mstore\n        /* \"#utility.yul\":3961:4079   */\n      pop\n      pop\n      jump\t// out\n        /* \"#utility.yul\":4085:4161   */\n    tag_134:\n        /* \"#utility.yul\":4121:4128   */\n      0x00\n        /* \"#utility.yul\":4150:4155   */\n      dup2\n        /* \"#utility.yul\":4139:4155   */\n      swap1\n      pop\n        /* \"#utility.yul\":4085:4161   */\n      swap2\n      swap1\n      pop\n      jump\t// out\n        /* \"#utility.yul\":4167:4282   */\n    tag_135:\n        /* \"#utility.yul\":4252:4275   */\n      tag_219\n        /* \"#utility.yul\":4269:4274   */\n      dup2\n        /* \"#utility.yul\":4252:4275   */\n      tag_134\n      jump\t// in\n    tag_219:\n        /* \"#utility.yul\":4247:4250   */\n      dup3\n        /* \"#utility.yul\":4240:4276   */\n      mstore\n        /* \"#utility.yul\":4167:4282   */\n      pop\n      pop\n      jump\t// out\n        /* \"#utility.yul\":4288:4378   */\n    tag_136:\n        /* \"#utility.yul\":4322:4329   */\n      0x00\n        /* \"#utility.yul\":4365:4370   */\n      dup2\n        /* \"#utility.yul\":4358:4371   */\n      iszero\n        /* \"#utility.yul\":4351:4372   */\n      iszero\n        /* \"#utility.yul\":4340:4372   */\n      swap1\n      pop\n        /* \"#utility.yul\":4288:4378   */\n      swap2\n      swap1\n      pop\n      jump\t// out\n        /* \"#utility.yul\":4384:4493   */\n    tag_137:\n        /* \"#utility.yul\":4465:4486   */\n      tag_222\n        /* \"#utility.yul\":4480:4485   */\n      dup2\n        /* \"#utility.yul\":4465:4486   */\n      tag_136\n      jump\t// in\n    tag_222:\n        /* \"#utility.yul\":4460:4463   */\n      dup3\n        /* \"#utility.yul\":4453:4487   */\n      mstore\n        /* \"#utility.yul\":4384:4493   */\n      pop\n      pop\n      jump\t// out\n        /* \"#utility.yul\":4499:5844   */\n    tag_13:\n        /* \"#utility.yul\":4860:4864   */\n      0x00\n        /* \"#utility.yul\":4898:4901   */\n      0x0100\n        /* \"#utility.yul\":4887:4896   */\n      dup3\n        /* \"#utility.yul\":4883:4902   */\n      add\n        /* \"#utility.yul\":4875:4902   */\n      swap1\n      pop\n        /* \"#utility.yul\":4948:4957   */\n      dup2\n        /* \"#utility.yul\":4942:4946   */\n      dup2\n        /* \"#utility.yul\":4938:4958   */\n      sub\n        /* \"#utility.yul\":4934:4935   */\n      0x00\n        /* \"#utility.yul\":4923:4932   */\n      dup4\n        /* \"#utility.yul\":4919:4936   */\n      add\n        /* \"#utility.yul\":4912:4959   */\n      mstore\n        /* \"#utility.yul\":4976:5054   */\n      tag_224\n        /* \"#utility.yul\":5049:5053   */\n      dup2\n        /* \"#utility.yul\":5040:5046   */\n      dup12\n        /* \"#utility.yul\":4976:5054   */\n      tag_131\n      jump\t// in\n    tag_224:\n        /* \"#utility.yul\":4968:5054   */\n      swap1\n      pop\n        /* \"#utility.yul\":5064:5136   */\n      tag_225\n        /* \"#utility.yul\":5132:5134   */\n      0x20\n        /* \"#utility.yul\":5121:5130   */\n      dup4\n        /* \"#utility.yul\":5117:5135   */\n      add\n        /* \"#utility.yul\":5108:5114   */\n      dup11\n        /* \"#utility.yul\":5064:5136   */\n      tag_133\n      jump\t// in\n    tag_225:\n        /* \"#utility.yul\":5146:5218   */\n      tag_226\n        /* \"#utility.yul\":5214:5216   */\n      0x40\n        /* \"#utility.yul\":5203:5212   */\n      dup4\n        /* \"#utility.yul\":5199:5217   */\n      add\n        /* \"#utility.yul\":5190:5196   */\n      dup10\n        /* \"#utility.yul\":5146:5218   */\n      tag_133\n      jump\t// in\n    tag_226:\n        /* \"#utility.yul\":5265:5274   */\n      dup2\n        /* \"#utility.yul\":5259:5263   */\n      dup2\n        /* \"#utility.yul\":5255:5275   */\n      sub\n        /* \"#utility.yul\":5250:5252   */\n      0x60\n        /* \"#utility.yul\":5239:5248   */\n      dup4\n        /* \"#utility.yul\":5235:5253   */\n      add\n        /* \"#utility.yul\":5228:5276   */\n      mstore\n        /* \"#utility.yul\":5293:5371   */\n      tag_227\n        /* \"#utility.yul\":5366:5370   */\n      dup2\n        /* \"#utility.yul\":5357:5363   */\n      dup9\n        /* \"#utility.yul\":5293:5371   */\n      tag_131\n      jump\t// in\n    tag_227:\n        /* \"#utility.yul\":5285:5371   */\n      swap1\n      pop\n        /* \"#utility.yul\":5381:5452   */\n      tag_228\n        /* \"#utility.yul\":5447:5450   */\n      0x80\n        /* \"#utility.yul\":5436:5445   */\n      dup4\n        /* \"#utility.yul\":5432:5451   */\n      add\n        /* \"#utility.yul\":5423:5429   */\n      dup8\n        /* \"#utility.yul\":5381:5452   */\n      tag_135\n      jump\t// in\n    tag_228:\n        /* \"#utility.yul\":5500:5509   */\n      dup2\n        /* \"#utility.yul\":5494:5498   */\n      dup2\n        /* \"#utility.yul\":5490:5510   */\n      sub\n        /* \"#utility.yul\":5484:5487   */\n      0xa0\n        /* \"#utility.yul\":5473:5482   */\n      dup4\n        /* \"#utility.yul\":5469:5488   */\n      add\n        /* \"#utility.yul\":5462:5511   */\n      mstore\n        /* \"#utility.yul\":5528:5606   */\n      tag_229\n        /* \"#utility.yul\":5601:5605   */\n      dup2\n        /* \"#utility.yul\":5592:5598   */\n      dup7\n        /* \"#utility.yul\":5528:5606   */\n      tag_131\n      jump\t// in\n    tag_229:\n        /* \"#utility.yul\":5520:5606   */\n      swap1\n      pop\n        /* \"#utility.yul\":5616:5683   */\n      tag_230\n        /* \"#utility.yul\":5678:5681   */\n      0xc0\n        /* \"#utility.yul\":5667:5676   */\n      dup4\n        /* \"#utility.yul\":5663:5682   */\n      add\n        /* \"#utility.yul\":5654:5660   */\n      dup6\n        /* \"#utility.yul\":5616:5683   */\n      tag_137\n      jump\t// in\n    tag_230:\n        /* \"#utility.yul\":5731:5740   */\n      dup2\n        /* \"#utility.yul\":5725:5729   */\n      dup2\n        /* \"#utility.yul\":5721:5741   */\n      sub\n        /* \"#utility.yul\":5715:5718   */\n      0xe0\n        /* \"#utility.yul\":5704:5713   */\n      dup4\n        /* \"#utility.yul\":5700:5719   */\n      add\n        /* \"#utility.yul\":5693:5742   */\n      mstore\n        /* \"#utility.yul\":5759:5837   */\n      tag_231\n        /* \"#utility.yul\":5832:5836   */\n      dup2\n        /* \"#utility.yul\":5823:5829   */\n      dup5\n        /* \"#utility.yul\":5759:5837   */\n      tag_131\n      jump\t// in\n    tag_231:\n        /* \"#utility.yul\":5751:5837   */\n      swap1\n      pop\n        /* \"#utility.yul\":4499:5844   */\n      swap10\n      swap9\n      pop\n      pop\n      pop\n      pop\n      pop\n      pop\n      pop\n      pop\n      pop\n      jump\t// out\n        /* \"#utility.yul\":5850:5976   */\n    tag_138:\n        /* \"#utility.yul\":5887:5894   */\n      0x00\n        /* \"#utility.yul\":5927:5969   */\n      0xffffffffffffffffffffffffffffffffffffffff\n        /* \"#utility.yul\":5920:5925   */\n      dup3\n        /* \"#utility.yul\":5916:5970   */\n      and\n        /* \"#utility.yul\":5905:5970   */\n      swap1\n      pop\n        /* \"#utility.yul\":5850:5976   */\n      swap2\n      swap1\n      pop\n      jump\t// out\n        /* \"#utility.yul\":5982:6078   */\n    tag_139:\n        /* \"#utility.yul\":6019:6026   */\n      0x00\n        /* \"#utility.yul\":6048:6072   */\n      tag_234\n        /* \"#utility.yul\":6066:6071   */\n      dup3\n        /* \"#utility.yul\":6048:6072   */\n      tag_138\n      jump\t// in\n    tag_234:\n        /* \"#utility.yul\":6037:6072   */\n      swap1\n      pop\n        /* \"#utility.yul\":5982:6078   */\n      swap2\n      swap1\n      pop\n      jump\t// out\n        /* \"#utility.yul\":6084:6202   */\n    tag_140:\n        /* \"#utility.yul\":6171:6195   */\n      tag_236\n        /* \"#utility.yul\":6189:6194   */\n      dup2\n        /* \"#utility.yul\":6171:6195   */\n      tag_139\n      jump\t// in\n    tag_236:\n        /* \"#utility.yul\":6166:6169   */\n      dup3\n        /* \"#utility.yul\":6159:6196   */\n      mstore\n        /* \"#utility.yul\":6084:6202   */\n      pop\n      pop\n      jump\t// out\n        /* \"#utility.yul\":6208:6430   */\n    tag_17:\n        /* \"#utility.yul\":6301:6305   */\n      0x00\n        /* \"#utility.yul\":6339:6341   */\n      0x20\n        /* \"#utility.yul\":6328:6337   */\n      dup3\n        /* \"#utility.yul\":6324:6342   */\n      add\n        /* \"#utility.yul\":6316:6342   */\n      swap1\n      pop\n        /* \"#utility.yul\":6352:6423   */\n      tag_238\n        /* \"#utility.yul\":6420:6421   */\n      0x00\n        /* \"#utility.yul\":6409:6418   */\n      dup4\n        /* \"#utility.yul\":6405:6422   */\n      add\n        /* \"#utility.yul\":6396:6402   */\n      dup5\n        /* \"#utility.yul\":6352:6423   */\n      tag_140\n      jump\t// in\n    tag_238:\n        /* \"#utility.yul\":6208:6430   */\n      swap3\n      swap2\n      pop\n      pop\n      jump\t// out\n        /* \"#utility.yul\":6436:6558   */\n    tag_141:\n        /* \"#utility.yul\":6509:6533   */\n      tag_240\n        /* \"#utility.yul\":6527:6532   */\n      dup2\n        /* \"#utility.yul\":6509:6533   */\n      tag_132\n      jump\t// in\n    tag_240:\n        /* \"#utility.yul\":6502:6507   */\n      dup2\n        /* \"#utility.yul\":6499:6534   */\n      eq\n        /* \"#utility.yul\":6489:6552   */\n      tag_241\n      jumpi\n        /* \"#utility.yul\":6548:6549   */\n      0x00\n        /* \"#utility.yul\":6545:6546   */\n      dup1\n        /* \"#utility.yul\":6538:6550   */\n      revert\n        /* \"#utility.yul\":6489:6552   */\n    tag_241:\n        /* \"#utility.yul\":6436:6558   */\n      pop\n      jump\t// out\n        /* \"#utility.yul\":6564:6703   */\n    tag_142:\n        /* \"#utility.yul\":6610:6615   */\n      0x00\n        /* \"#utility.yul\":6648:6654   */\n      dup2\n        /* \"#utility.yul\":6635:6655   */\n      calldataload\n        /* \"#utility.yul\":6626:6655   */\n      swap1\n      pop\n        /* \"#utility.yul\":6664:6697   */\n      tag_243\n        /* \"#utility.yul\":6691:6696   */\n      dup2\n        /* \"#utility.yul\":6664:6697   */\n      tag_141\n      jump\t// in\n    tag_243:\n        /* \"#utility.yul\":6564:6703   */\n      swap3\n      swap2\n      pop\n      pop\n      jump\t// out\n        /* \"#utility.yul\":6709:6829   */\n    tag_143:\n        /* \"#utility.yul\":6781:6804   */\n      tag_245\n        /* \"#utility.yul\":6798:6803   */\n      dup2\n        /* \"#utility.yul\":6781:6804   */\n      tag_134\n      jump\t// in\n    tag_245:\n        /* \"#utility.yul\":6774:6779   */\n      dup2\n        /* \"#utility.yul\":6771:6805   */\n      eq\n        /* \"#utility.yul\":6761:6823   */\n      tag_246\n      jumpi\n        /* \"#utility.yul\":6819:6820   */\n      0x00\n        /* \"#utility.yul\":6816:6817   */\n      dup1\n        /* \"#utility.yul\":6809:6821   */\n      revert\n        /* \"#utility.yul\":6761:6823   */\n    tag_246:\n        /* \"#utility.yul\":6709:6829   */\n      pop\n      jump\t// out\n        /* \"#utility.yul\":6835:6972   */\n    tag_144:\n        /* \"#utility.yul\":6880:6885   */\n      0x00\n        /* \"#utility.yul\":6918:6924   */\n      dup2\n        /* \"#utility.yul\":6905:6925   */\n      calldataload\n        /* \"#utility.yul\":6896:6925   */\n      swap1\n      pop\n        /* \"#utility.yul\":6934:6966   */\n      tag_248\n        /* \"#utility.yul\":6960:6965   */\n      dup2\n        /* \"#utility.yul\":6934:6966   */\n      tag_143\n      jump\t// in\n    tag_248:\n        /* \"#utility.yul\":6835:6972   */\n      swap3\n      swap2\n      pop\n      pop\n      jump\t// out\n        /* \"#utility.yul\":6978:8899   */\n    tag_20:\n        /* \"#utility.yul\":7130:7136   */\n      0x00\n        /* \"#utility.yul\":7138:7144   */\n      dup1\n        /* \"#utility.yul\":7146:7152   */\n      0x00\n        /* \"#utility.yul\":7154:7160   */\n      dup1\n        /* \"#utility.yul\":7162:7168   */\n      0x00\n        /* \"#utility.yul\":7170:7176   */\n      dup1\n        /* \"#utility.yul\":7178:7184   */\n      0x00\n        /* \"#utility.yul\":7227:7230   */\n      0xe0\n        /* \"#utility.yul\":7215:7224   */\n      dup9\n        /* \"#utility.yul\":7206:7213   */\n      dup11\n        /* \"#utility.yul\":7202:7225   */\n      sub\n        /* \"#utility.yul\":7198:7231   */\n      slt\n        /* \"#utility.yul\":7195:7315   */\n      iszero\n      tag_250\n      jumpi\n        /* \"#utility.yul\":7234:7313   */\n      tag_251\n      tag_117\n      jump\t// in\n    tag_251:\n        /* \"#utility.yul\":7195:7315   */\n    tag_250:\n        /* \"#utility.yul\":7382:7383   */\n      0x00\n        /* \"#utility.yul\":7371:7380   */\n      dup9\n        /* \"#utility.yul\":7367:7384   */\n      add\n        /* \"#utility.yul\":7354:7385   */\n      calldataload\n        /* \"#utility.yul\":7412:7430   */\n      0xffffffffffffffff\n        /* \"#utility.yul\":7404:7410   */\n      dup2\n        /* \"#utility.yul\":7401:7431   */\n      gt\n        /* \"#utility.yul\":7398:7515   */\n      iszero\n      tag_252\n      jumpi\n        /* \"#utility.yul\":7434:7513   */\n      tag_253\n      tag_118\n      jump\t// in\n    tag_253:\n        /* \"#utility.yul\":7398:7515   */\n    tag_252:\n        /* \"#utility.yul\":7539:7602   */\n      tag_254\n        /* \"#utility.yul\":7594:7601   */\n      dup11\n        /* \"#utility.yul\":7585:7591   */\n      dup3\n        /* \"#utility.yul\":7574:7583   */\n      dup12\n        /* \"#utility.yul\":7570:7592   */\n      add\n        /* \"#utility.yul\":7539:7602   */\n      tag_127\n      jump\t// in\n    tag_254:\n        /* \"#utility.yul\":7529:7602   */\n      swap8\n      pop\n        /* \"#utility.yul\":7325:7612   */\n      pop\n        /* \"#utility.yul\":7651:7653   */\n      0x20\n        /* \"#utility.yul\":7677:7730   */\n      tag_255\n        /* \"#utility.yul\":7722:7729   */\n      dup11\n        /* \"#utility.yul\":7713:7719   */\n      dup3\n        /* \"#utility.yul\":7702:7711   */\n      dup12\n        /* \"#utility.yul\":7698:7720   */\n      add\n        /* \"#utility.yul\":7677:7730   */\n      tag_142\n      jump\t// in\n    tag_255:\n        /* \"#utility.yul\":7667:7730   */\n      swap7\n      pop\n        /* \"#utility.yul\":7622:7740   */\n      pop\n        /* \"#utility.yul\":7779:7781   */\n      0x40\n        /* \"#utility.yul\":7805:7858   */\n      tag_256\n        /* \"#utility.yul\":7850:7857   */\n      dup11\n        /* \"#utility.yul\":7841:7847   */\n      dup3\n        /* \"#utility.yul\":7830:7839   */\n      dup12\n        /* \"#utility.yul\":7826:7848   */\n      add\n        /* \"#utility.yul\":7805:7858   */\n      tag_142\n      jump\t// in\n    tag_256:\n        /* \"#utility.yul\":7795:7858   */\n      swap6\n      pop\n        /* \"#utility.yul\":7750:7868   */\n      pop\n        /* \"#utility.yul\":7935:7937   */\n      0x60\n        /* \"#utility.yul\":7924:7933   */\n      dup9\n        /* \"#utility.yul\":7920:7938   */\n      add\n        /* \"#utility.yul\":7907:7939   */\n      calldataload\n        /* \"#utility.yul\":7966:7984   */\n      0xffffffffffffffff\n        /* \"#utility.yul\":7958:7964   */\n      dup2\n        /* \"#utility.yul\":7955:7985   */\n      gt\n        /* \"#utility.yul\":7952:8069   */\n      iszero\n      tag_257\n      jumpi\n        /* \"#utility.yul\":7988:8067   */\n      tag_258\n      tag_118\n      jump\t// in\n    tag_258:\n        /* \"#utility.yul\":7952:8069   */\n    tag_257:\n        /* \"#utility.yul\":8093:8156   */\n      tag_259\n        /* \"#utility.yul\":8148:8155   */\n      dup11\n        /* \"#utility.yul\":8139:8145   */\n      dup3\n        /* \"#utility.yul\":8128:8137   */\n      dup12\n        /* \"#utility.yul\":8124:8146   */\n      add\n        /* \"#utility.yul\":8093:8156   */\n      tag_127\n      jump\t// in\n    tag_259:\n        /* \"#utility.yul\":8083:8156   */\n      swap5\n      pop\n        /* \"#utility.yul\":7878:8166   */\n      pop\n        /* \"#utility.yul\":8205:8208   */\n      0x80\n        /* \"#utility.yul\":8232:8284   */\n      tag_260\n        /* \"#utility.yul\":8276:8283   */\n      dup11\n        /* \"#utility.yul\":8267:8273   */\n      dup3\n        /* \"#utility.yul\":8256:8265   */\n      dup12\n        /* \"#utility.yul\":8252:8274   */\n      add\n        /* \"#utility.yul\":8232:8284   */\n      tag_144\n      jump\t// in\n    tag_260:\n        /* \"#utility.yul\":8222:8284   */\n      swap4\n      pop\n        /* \"#utility.yul\":8176:8294   */\n      pop\n        /* \"#utility.yul\":8361:8364   */\n      0xa0\n        /* \"#utility.yul\":8350:8359   */\n      dup9\n        /* \"#utility.yul\":8346:8365   */\n      add\n        /* \"#utility.yul\":8333:8366   */\n      calldataload\n        /* \"#utility.yul\":8393:8411   */\n      0xffffffffffffffff\n        /* \"#utility.yul\":8385:8391   */\n      dup2\n        /* \"#utility.yul\":8382:8412   */\n      gt\n        /* \"#utility.yul\":8379:8496   */\n      iszero\n      tag_261\n      jumpi\n        /* \"#utility.yul\":8415:8494   */\n      tag_262\n      tag_118\n      jump\t// in\n    tag_262:\n        /* \"#utility.yul\":8379:8496   */\n    tag_261:\n        /* \"#utility.yul\":8520:8583   */\n      tag_263\n        /* \"#utility.yul\":8575:8582   */\n      dup11\n        /* \"#utility.yul\":8566:8572   */\n      dup3\n        /* \"#utility.yul\":8555:8564   */\n      dup12\n        /* \"#utility.yul\":8551:8573   */\n      add\n        /* \"#utility.yul\":8520:8583   */\n      tag_127\n      jump\t// in\n    tag_263:\n        /* \"#utility.yul\":8510:8583   */\n      swap3\n      pop\n        /* \"#utility.yul\":8304:8593   */\n      pop\n        /* \"#utility.yul\":8660:8663   */\n      0xc0\n        /* \"#utility.yul\":8649:8658   */\n      dup9\n        /* \"#utility.yul\":8645:8664   */\n      add\n        /* \"#utility.yul\":8632:8665   */\n      calldataload\n        /* \"#utility.yul\":8692:8710   */\n      0xffffffffffffffff\n        /* \"#utility.yul\":8684:8690   */\n      dup2\n        /* \"#utility.yul\":8681:8711   */\n      gt\n        /* \"#utility.yul\":8678:8795   */\n      iszero\n      tag_264\n      jumpi\n        /* \"#utility.yul\":8714:8793   */\n      tag_265\n      tag_118\n      jump\t// in\n    tag_265:\n        /* \"#utility.yul\":8678:8795   */\n    tag_264:\n        /* \"#utility.yul\":8819:8882   */\n      tag_266\n        /* \"#utility.yul\":8874:8881   */\n      dup11\n        /* \"#utility.yul\":8865:8871   */\n      dup3\n        /* \"#utility.yul\":8854:8863   */\n      dup12\n        /* \"#utility.yul\":8850:8872   */\n      add\n        /* \"#utility.yul\":8819:8882   */\n      tag_127\n      jump\t// in\n    tag_266:\n        /* \"#utility.yul\":8809:8882   */\n      swap2\n      pop\n        /* \"#utility.yul\":8603:8892   */\n      pop\n        /* \"#utility.yul\":6978:8899   */\n      swap3\n      swap6\n      swap9\n      swap2\n      swap5\n      swap8\n      pop\n      swap3\n      swap6\n      pop\n      jump\t// out\n        /* \"#utility.yul\":8905:9316   */\n    tag_23:\n        /* \"#utility.yul\":9040:9044   */\n      0x00\n        /* \"#utility.yul\":9078:9080   */\n      0x40\n        /* \"#utility.yul\":9067:9076   */\n      dup3\n        /* \"#utility.yul\":9063:9081   */\n      add\n        /* \"#utility.yul\":9055:9081   */\n      swap1\n      pop\n        /* \"#utility.yul\":9091:9156   */\n      tag_268\n        /* \"#utility.yul\":9153:9154   */\n      0x00\n        /* \"#utility.yul\":9142:9151   */\n      dup4\n        /* \"#utility.yul\":9138:9155   */\n      add\n        /* \"#utility.yul\":9129:9135   */\n      dup6\n        /* \"#utility.yul\":9091:9156   */\n      tag_137\n      jump\t// in\n    tag_268:\n        /* \"#utility.yul\":9203:9212   */\n      dup2\n        /* \"#utility.yul\":9197:9201   */\n      dup2\n        /* \"#utility.yul\":9193:9213   */\n      sub\n        /* \"#utility.yul\":9188:9190   */\n      0x20\n        /* \"#utility.yul\":9177:9186   */\n      dup4\n        /* \"#utility.yul\":9173:9191   */\n      add\n        /* \"#utility.yul\":9166:9214   */\n      mstore\n        /* \"#utility.yul\":9231:9309   */\n      tag_269\n        /* \"#utility.yul\":9304:9308   */\n      dup2\n        /* \"#utility.yul\":9295:9301   */\n      dup5\n        /* \"#utility.yul\":9231:9309   */\n      tag_131\n      jump\t// in\n    tag_269:\n        /* \"#utility.yul\":9223:9309   */\n      swap1\n      pop\n        /* \"#utility.yul\":8905:9316   */\n      swap4\n      swap3\n      pop\n      pop\n      pop\n      jump\t// out\n        /* \"#utility.yul\":9322:10917   */\n    tag_26:\n        /* \"#utility.yul\":9455:9461   */\n      0x00\n        /* \"#utility.yul\":9463:9469   */\n      dup1\n        /* \"#utility.yul\":9471:9477   */\n      0x00\n        /* \"#utility.yul\":9479:9485   */\n      dup1\n        /* \"#utility.yul\":9487:9493   */\n      0x00\n        /* \"#utility.yul\":9495:9501   */\n      dup1\n        /* \"#utility.yul\":9544:9547   */\n      0xc0\n        /* \"#utility.yul\":9532:9541   */\n      dup8\n        /* \"#utility.yul\":9523:9530   */\n      dup10\n        /* \"#utility.yul\":9519:9542   */\n      sub\n        /* \"#utility.yul\":9515:9548   */\n      slt\n        /* \"#utility.yul\":9512:9632   */\n      iszero\n      tag_271\n      jumpi\n        /* \"#utility.yul\":9551:9630   */\n      tag_272\n      tag_117\n      jump\t// in\n    tag_272:\n        /* \"#utility.yul\":9512:9632   */\n    tag_271:\n        /* \"#utility.yul\":9699:9700   */\n      0x00\n        /* \"#utility.yul\":9688:9697   */\n      dup8\n        /* \"#utility.yul\":9684:9701   */\n      add\n        /* \"#utility.yul\":9671:9702   */\n      calldataload\n        /* \"#utility.yul\":9729:9747   */\n      0xffffffffffffffff\n        /* \"#utility.yul\":9721:9727   */\n      dup2\n        /* \"#utility.yul\":9718:9748   */\n      gt\n        /* \"#utility.yul\":9715:9832   */\n      iszero\n      tag_273\n      jumpi\n        /* \"#utility.yul\":9751:9830   */\n      tag_274\n      tag_118\n      jump\t// in\n    tag_274:\n        /* \"#utility.yul\":9715:9832   */\n    tag_273:\n        /* \"#utility.yul\":9856:9919   */\n      tag_275\n        /* \"#utility.yul\":9911:9918   */\n      dup10\n        /* \"#utility.yul\":9902:9908   */\n      dup3\n        /* \"#utility.yul\":9891:9900   */\n      dup11\n        /* \"#utility.yul\":9887:9909   */\n      add\n        /* \"#utility.yul\":9856:9919   */\n      tag_127\n      jump\t// in\n    tag_275:\n        /* \"#utility.yul\":9846:9919   */\n      swap7\n      pop\n        /* \"#utility.yul\":9642:9929   */\n      pop\n        /* \"#utility.yul\":9968:9970   */\n      0x20\n        /* \"#utility.yul\":9994:10047   */\n      tag_276\n        /* \"#utility.yul\":10039:10046   */\n      dup10\n        /* \"#utility.yul\":10030:10036   */\n      dup3\n        /* \"#utility.yul\":10019:10028   */\n      dup11\n        /* \"#utility.yul\":10015:10037   */\n      add\n        /* \"#utility.yul\":9994:10047   */\n      tag_142\n      jump\t// in\n    tag_276:\n        /* \"#utility.yul\":9984:10047   */\n      swap6\n      pop\n        /* \"#utility.yul\":9939:10057   */\n      pop\n        /* \"#utility.yul\":10096:10098   */\n      0x40\n        /* \"#utility.yul\":10122:10175   */\n      tag_277\n        /* \"#utility.yul\":10167:10174   */\n      dup10\n        /* \"#utility.yul\":10158:10164   */\n      dup3\n        /* \"#utility.yul\":10147:10156   */\n      dup11\n        /* \"#utility.yul\":10143:10165   */\n      add\n        /* \"#utility.yul\":10122:10175   */\n      tag_142\n      jump\t// in\n    tag_277:\n        /* \"#utility.yul\":10112:10175   */\n      swap5\n      pop\n        /* \"#utility.yul\":10067:10185   */\n      pop\n        /* \"#utility.yul\":10252:10254   */\n      0x60\n        /* \"#utility.yul\":10241:10250   */\n      dup8\n        /* \"#utility.yul\":10237:10255   */\n      add\n        /* \"#utility.yul\":10224:10256   */\n      calldataload\n        /* \"#utility.yul\":10283:10301   */\n      0xffffffffffffffff\n        /* \"#utility.yul\":10275:10281   */\n      dup2\n        /* \"#utility.yul\":10272:10302   */\n      gt\n        /* \"#utility.yul\":10269:10386   */\n      iszero\n      tag_278\n      jumpi\n        /* \"#utility.yul\":10305:10384   */\n      tag_279\n      tag_118\n      jump\t// in\n    tag_279:\n        /* \"#utility.yul\":10269:10386   */\n    tag_278:\n        /* \"#utility.yul\":10410:10473   */\n      tag_280\n        /* \"#utility.yul\":10465:10472   */\n      dup10\n        /* \"#utility.yul\":10456:10462   */\n      dup3\n        /* \"#utility.yul\":10445:10454   */\n      dup11\n        /* \"#utility.yul\":10441:10463   */\n      add\n        /* \"#utility.yul\":10410:10473   */\n      tag_127\n      jump\t// in\n    tag_280:\n        /* \"#utility.yul\":10400:10473   */\n      swap4\n      pop\n        /* \"#utility.yul\":10195:10483   */\n      pop\n        /* \"#utility.yul\":10522:10525   */\n      0x80\n        /* \"#utility.yul\":10549:10601   */\n      tag_281\n        /* \"#utility.yul\":10593:10600   */\n      dup10\n        /* \"#utility.yul\":10584:10590   */\n      dup3\n        /* \"#utility.yul\":10573:10582   */\n      dup11\n        /* \"#utility.yul\":10569:10591   */\n      add\n        /* \"#utility.yul\":10549:10601   */\n      tag_144\n      jump\t// in\n    tag_281:\n        /* \"#utility.yul\":10539:10601   */\n      swap3\n      pop\n        /* \"#utility.yul\":10493:10611   */\n      pop\n        /* \"#utility.yul\":10678:10681   */\n      0xa0\n        /* \"#utility.yul\":10667:10676   */\n      dup8\n        /* \"#utility.yul\":10663:10682   */\n      add\n        /* \"#utility.yul\":10650:10683   */\n      calldataload\n        /* \"#utility.yul\":10710:10728   */\n      0xffffffffffffffff\n        /* \"#utility.yul\":10702:10708   */\n      dup2\n        /* \"#utility.yul\":10699:10729   */\n      gt\n        /* \"#utility.yul\":10696:10813   */\n      iszero\n      tag_282\n      jumpi\n        /* \"#utility.yul\":10732:10811   */\n      tag_283\n      tag_118\n      jump\t// in\n    tag_283:\n        /* \"#utility.yul\":10696:10813   */\n    tag_282:\n        /* \"#utility.yul\":10837:10900   */\n      tag_284\n        /* \"#utility.yul\":10892:10899   */\n      dup10\n        /* \"#utility.yul\":10883:10889   */\n      dup3\n        /* \"#utility.yul\":10872:10881   */\n      dup11\n        /* \"#utility.yul\":10868:10890   */\n      add\n        /* \"#utility.yul\":10837:10900   */\n      tag_127\n      jump\t// in\n    tag_284:\n        /* \"#utility.yul\":10827:10900   */\n      swap2\n      pop\n        /* \"#utility.yul\":10621:10910   */\n      pop\n        /* \"#utility.yul\":9322:10917   */\n      swap3\n      swap6\n      pop\n      swap3\n      swap6\n      pop\n      swap3\n      swap6\n      jump\t// out\n        /* \"#utility.yul\":10923:11021   */\n    tag_145:\n        /* \"#utility.yul\":10974:10980   */\n      0x00\n        /* \"#utility.yul\":11008:11013   */\n      dup2\n        /* \"#utility.yul\":11002:11014   */\n      mload\n        /* \"#utility.yul\":10992:11014   */\n      swap1\n      pop\n        /* \"#utility.yul\":10923:11021   */\n      swap2\n      swap1\n      pop\n      jump\t// out\n        /* \"#utility.yul\":11027:11195   */\n    tag_146:\n        /* \"#utility.yul\":11110:11121   */\n      0x00\n        /* \"#utility.yul\":11144:11150   */\n      dup3\n        /* \"#utility.yul\":11139:11142   */\n      dup3\n        /* \"#utility.yul\":11132:11151   */\n      mstore\n        /* \"#utility.yul\":11184:11188   */\n      0x20\n        /* \"#utility.yul\":11179:11182   */\n      dup3\n        /* \"#utility.yul\":11175:11189   */\n      add\n        /* \"#utility.yul\":11160:11189   */\n      swap1\n      pop\n        /* \"#utility.yul\":11027:11195   */\n      swap3\n      swap2\n      pop\n      pop\n      jump\t// out\n        /* \"#utility.yul\":11201:11574   */\n    tag_147:\n        /* \"#utility.yul\":11287:11290   */\n      0x00\n        /* \"#utility.yul\":11315:11353   */\n      tag_288\n        /* \"#utility.yul\":11347:11352   */\n      dup3\n        /* \"#utility.yul\":11315:11353   */\n      tag_145\n      jump\t// in\n    tag_288:\n        /* \"#utility.yul\":11369:11439   */\n      tag_289\n        /* \"#utility.yul\":11432:11438   */\n      dup2\n        /* \"#utility.yul\":11427:11430   */\n      dup6\n        /* \"#utility.yul\":11369:11439   */\n      tag_146\n      jump\t// in\n    tag_289:\n        /* \"#utility.yul\":11362:11439   */\n      swap4\n      pop\n        /* \"#utility.yul\":11448:11513   */\n      tag_290\n        /* \"#utility.yul\":11506:11512   */\n      dup2\n        /* \"#utility.yul\":11501:11504   */\n      dup6\n        /* \"#utility.yul\":11494:11498   */\n      0x20\n        /* \"#utility.yul\":11487:11492   */\n      dup7\n        /* \"#utility.yul\":11483:11499   */\n      add\n        /* \"#utility.yul\":11448:11513   */\n      tag_130\n      jump\t// in\n    tag_290:\n        /* \"#utility.yul\":11538:11567   */\n      tag_291\n        /* \"#utility.yul\":11560:11566   */\n      dup2\n        /* \"#utility.yul\":11538:11567   */\n      tag_121\n      jump\t// in\n    tag_291:\n        /* \"#utility.yul\":11533:11536   */\n      dup5\n        /* \"#utility.yul\":11529:11568   */\n      add\n        /* \"#utility.yul\":11522:11568   */\n      swap2\n      pop\n        /* \"#utility.yul\":11291:11574   */\n      pop\n        /* \"#utility.yul\":11201:11574   */\n      swap3\n      swap2\n      pop\n      pop\n      jump\t// out\n        /* \"#utility.yul\":11580:12612   */\n    tag_33:\n        /* \"#utility.yul\":11865:11869   */\n      0x00\n        /* \"#utility.yul\":11903:11906   */\n      0xc0\n        /* \"#utility.yul\":11892:11901   */\n      dup3\n        /* \"#utility.yul\":11888:11907   */\n      add\n        /* \"#utility.yul\":11880:11907   */\n      swap1\n      pop\n        /* \"#utility.yul\":11953:11962   */\n      dup2\n        /* \"#utility.yul\":11947:11951   */\n      dup2\n        /* \"#utility.yul\":11943:11963   */\n      sub\n        /* \"#utility.yul\":11939:11940   */\n      0x00\n        /* \"#utility.yul\":11928:11937   */\n      dup4\n        /* \"#utility.yul\":11924:11941   */\n      add\n        /* \"#utility.yul\":11917:11964   */\n      mstore\n        /* \"#utility.yul\":11981:12057   */\n      tag_293\n        /* \"#utility.yul\":12052:12056   */\n      dup2\n        /* \"#utility.yul\":12043:12049   */\n      dup10\n        /* \"#utility.yul\":11981:12057   */\n      tag_147\n      jump\t// in\n    tag_293:\n        /* \"#utility.yul\":11973:12057   */\n      swap1\n      pop\n        /* \"#utility.yul\":12067:12139   */\n      tag_294\n        /* \"#utility.yul\":12135:12137   */\n      0x20\n        /* \"#utility.yul\":12124:12133   */\n      dup4\n        /* \"#utility.yul\":12120:12138   */\n      add\n        /* \"#utility.yul\":12111:12117   */\n      dup9\n        /* \"#utility.yul\":12067:12139   */\n      tag_133\n      jump\t// in\n    tag_294:\n        /* \"#utility.yul\":12149:12221   */\n      tag_295\n        /* \"#utility.yul\":12217:12219   */\n      0x40\n        /* \"#utility.yul\":12206:12215   */\n      dup4\n        /* \"#utility.yul\":12202:12220   */\n      add\n        /* \"#utility.yul\":12193:12199   */\n      dup8\n        /* \"#utility.yul\":12149:12221   */\n      tag_133\n      jump\t// in\n    tag_295:\n        /* \"#utility.yul\":12268:12277   */\n      dup2\n        /* \"#utility.yul\":12262:12266   */\n      dup2\n        /* \"#utility.yul\":12258:12278   */\n      sub\n        /* \"#utility.yul\":12253:12255   */\n      0x60\n        /* \"#utility.yul\":12242:12251   */\n      dup4\n        /* \"#utility.yul\":12238:12256   */\n      add\n        /* \"#utility.yul\":12231:12279   */\n      mstore\n        /* \"#utility.yul\":12296:12372   */\n      tag_296\n        /* \"#utility.yul\":12367:12371   */\n      dup2\n        /* \"#utility.yul\":12358:12364   */\n      dup7\n        /* \"#utility.yul\":12296:12372   */\n      tag_147\n      jump\t// in\n    tag_296:\n        /* \"#utility.yul\":12288:12372   */\n      swap1\n      pop\n        /* \"#utility.yul\":12382:12453   */\n      tag_297\n        /* \"#utility.yul\":12448:12451   */\n      0x80\n        /* \"#utility.yul\":12437:12446   */\n      dup4\n        /* \"#utility.yul\":12433:12452   */\n      add\n        /* \"#utility.yul\":12424:12430   */\n      dup6\n        /* \"#utility.yul\":12382:12453   */\n      tag_135\n      jump\t// in\n    tag_297:\n        /* \"#utility.yul\":12501:12510   */\n      dup2\n        /* \"#utility.yul\":12495:12499   */\n      dup2\n        /* \"#utility.yul\":12491:12511   */\n      sub\n        /* \"#utility.yul\":12485:12488   */\n      0xa0\n        /* \"#utility.yul\":12474:12483   */\n      dup4\n        /* \"#utility.yul\":12470:12489   */\n      add\n        /* \"#utility.yul\":12463:12512   */\n      mstore\n        /* \"#utility.yul\":12529:12605   */\n      tag_298\n        /* \"#utility.yul\":12600:12604   */\n      dup2\n        /* \"#utility.yul\":12591:12597   */\n      dup5\n        /* \"#utility.yul\":12529:12605   */\n      tag_147\n      jump\t// in\n    tag_298:\n        /* \"#utility.yul\":12521:12605   */\n      swap1\n      pop\n        /* \"#utility.yul\":11580:12612   */\n      swap8\n      swap7\n      pop\n      pop\n      pop\n      pop\n      pop\n      pop\n      pop\n      jump\t// out\n        /* \"#utility.yul\":12618:12838   */\n    tag_148:\n        /* \"#utility.yul\":12758:12792   */\n      0x596f7520617265206e6f7420616c6c6f77656420746f206d616e7570756c6174\n        /* \"#utility.yul\":12754:12755   */\n      0x00\n        /* \"#utility.yul\":12746:12752   */\n      dup3\n        /* \"#utility.yul\":12742:12756   */\n      add\n        /* \"#utility.yul\":12735:12793   */\n      mstore\n        /* \"#utility.yul\":12827:12830   */\n      0x6500000000000000000000000000000000000000000000000000000000000000\n        /* \"#utility.yul\":12822:12824   */\n      0x20\n        /* \"#utility.yul\":12814:12820   */\n      dup3\n        /* \"#utility.yul\":12810:12825   */\n      add\n        /* \"#utility.yul\":12803:12831   */\n      mstore\n        /* \"#utility.yul\":12618:12838   */\n      pop\n      jump\t// out\n        /* \"#utility.yul\":12844:13210   */\n    tag_149:\n        /* \"#utility.yul\":12986:12989   */\n      0x00\n        /* \"#utility.yul\":13007:13074   */\n      tag_301\n        /* \"#utility.yul\":13071:13073   */\n      0x21\n        /* \"#utility.yul\":13066:13069   */\n      dup4\n        /* \"#utility.yul\":13007:13074   */\n      tag_129\n      jump\t// in\n    tag_301:\n        /* \"#utility.yul\":13000:13074   */\n      swap2\n      pop\n        /* \"#utility.yul\":13083:13176   */\n      tag_302\n        /* \"#utility.yul\":13172:13175   */\n      dup3\n        /* \"#utility.yul\":13083:13176   */\n      tag_148\n      jump\t// in\n    tag_302:\n        /* \"#utility.yul\":13201:13203   */\n      0x40\n        /* \"#utility.yul\":13196:13199   */\n      dup3\n        /* \"#utility.yul\":13192:13204   */\n      add\n        /* \"#utility.yul\":13185:13204   */\n      swap1\n      pop\n        /* \"#utility.yul\":12844:13210   */\n      swap2\n      swap1\n      pop\n      jump\t// out\n        /* \"#utility.yul\":13216:13635   */\n    tag_37:\n        /* \"#utility.yul\":13382:13386   */\n      0x00\n        /* \"#utility.yul\":13420:13422   */\n      0x20\n        /* \"#utility.yul\":13409:13418   */\n      dup3\n        /* \"#utility.yul\":13405:13423   */\n      add\n        /* \"#utility.yul\":13397:13423   */\n      swap1\n      pop\n        /* \"#utility.yul\":13469:13478   */\n      dup2\n        /* \"#utility.yul\":13463:13467   */\n      dup2\n        /* \"#utility.yul\":13459:13479   */\n      sub\n        /* \"#utility.yul\":13455:13456   */\n      0x00\n        /* \"#utility.yul\":13444:13453   */\n      dup4\n        /* \"#utility.yul\":13440:13457   */\n      add\n        /* \"#utility.yul\":13433:13480   */\n      mstore\n        /* \"#utility.yul\":13497:13628   */\n      tag_304\n        /* \"#utility.yul\":13623:13627   */\n      dup2\n        /* \"#utility.yul\":13497:13628   */\n      tag_149\n      jump\t// in\n    tag_304:\n        /* \"#utility.yul\":13489:13628   */\n      swap1\n      pop\n        /* \"#utility.yul\":13216:13635   */\n      swap2\n      swap1\n      pop\n      jump\t// out\n        /* \"#utility.yul\":13641:13789   */\n    tag_150:\n        /* \"#utility.yul\":13743:13754   */\n      0x00\n        /* \"#utility.yul\":13780:13783   */\n      dup2\n        /* \"#utility.yul\":13765:13783   */\n      swap1\n      pop\n        /* \"#utility.yul\":13641:13789   */\n      swap3\n      swap2\n      pop\n      pop\n      jump\t// out\n        /* \"#utility.yul\":13795:14185   */\n    tag_151:\n        /* \"#utility.yul\":13901:13904   */\n      0x00\n        /* \"#utility.yul\":13929:13968   */\n      tag_307\n        /* \"#utility.yul\":13962:13967   */\n      dup3\n        /* \"#utility.yul\":13929:13968   */\n      tag_128\n      jump\t// in\n    tag_307:\n        /* \"#utility.yul\":13984:14073   */\n      tag_308\n        /* \"#utility.yul\":14066:14072   */\n      dup2\n        /* \"#utility.yul\":14061:14064   */\n      dup6\n        /* \"#utility.yul\":13984:14073   */\n      tag_150\n      jump\t// in\n    tag_308:\n        /* \"#utility.yul\":13977:14073   */\n      swap4\n      pop\n        /* \"#utility.yul\":14082:14147   */\n      tag_309\n        /* \"#utility.yul\":14140:14146   */\n      dup2\n        /* \"#utility.yul\":14135:14138   */\n      dup6\n        /* \"#utility.yul\":14128:14132   */\n      0x20\n        /* \"#utility.yul\":14121:14126   */\n      dup7\n        /* \"#utility.yul\":14117:14133   */\n      add\n        /* \"#utility.yul\":14082:14147   */\n      tag_130\n      jump\t// in\n    tag_309:\n        /* \"#utility.yul\":14172:14178   */\n      dup1\n        /* \"#utility.yul\":14167:14170   */\n      dup5\n        /* \"#utility.yul\":14163:14179   */\n      add\n        /* \"#utility.yul\":14156:14179   */\n      swap2\n      pop\n        /* \"#utility.yul\":13905:14185   */\n      pop\n        /* \"#utility.yul\":13795:14185   */\n      swap3\n      swap2\n      pop\n      pop\n      jump\t// out\n        /* \"#utility.yul\":14191:14466   */\n    tag_40:\n        /* \"#utility.yul\":14323:14326   */\n      0x00\n        /* \"#utility.yul\":14345:14440   */\n      tag_311\n        /* \"#utility.yul\":14436:14439   */\n      dup3\n        /* \"#utility.yul\":14427:14433   */\n      dup5\n        /* \"#utility.yul\":14345:14440   */\n      tag_151\n      jump\t// in\n    tag_311:\n        /* \"#utility.yul\":14338:14440   */\n      swap2\n      pop\n        /* \"#utility.yul\":14457:14460   */\n      dup2\n        /* \"#utility.yul\":14450:14460   */\n      swap1\n      pop\n        /* \"#utility.yul\":14191:14466   */\n      swap3\n      swap2\n      pop\n      pop\n      jump\t// out\n        /* \"#utility.yul\":14472:14652   */\n    tag_152:\n        /* \"#utility.yul\":14520:14597   */\n      0x4e487b7100000000000000000000000000000000000000000000000000000000\n        /* \"#utility.yul\":14517:14518   */\n      0x00\n        /* \"#utility.yul\":14510:14598   */\n      mstore\n        /* \"#utility.yul\":14617:14621   */\n      0x22\n        /* \"#utility.yul\":14614:14615   */\n      0x04\n        /* \"#utility.yul\":14607:14622   */\n      mstore\n        /* \"#utility.yul\":14641:14645   */\n      0x24\n        /* \"#utility.yul\":14638:14639   */\n      0x00\n        /* \"#utility.yul\":14631:14646   */\n      revert\n        /* \"#utility.yul\":14658:14978   */\n    tag_42:\n        /* \"#utility.yul\":14702:14708   */\n      0x00\n        /* \"#utility.yul\":14739:14740   */\n      0x02\n        /* \"#utility.yul\":14733:14737   */\n      dup3\n        /* \"#utility.yul\":14729:14741   */\n      div\n        /* \"#utility.yul\":14719:14741   */\n      swap1\n      pop\n        /* \"#utility.yul\":14786:14787   */\n      0x01\n        /* \"#utility.yul\":14780:14784   */\n      dup3\n        /* \"#utility.yul\":14776:14788   */\n      and\n        /* \"#utility.yul\":14807:14825   */\n      dup1\n        /* \"#utility.yul\":14797:14878   */\n      tag_314\n      jumpi\n        /* \"#utility.yul\":14863:14867   */\n      0x7f\n        /* \"#utility.yul\":14855:14861   */\n      dup3\n        /* \"#utility.yul\":14851:14868   */\n      and\n        /* \"#utility.yul\":14841:14868   */\n      swap2\n      pop\n        /* \"#utility.yul\":14797:14878   */\n    tag_314:\n        /* \"#utility.yul\":14925:14927   */\n      0x20\n        /* \"#utility.yul\":14917:14923   */\n      dup3\n        /* \"#utility.yul\":14914:14928   */\n      lt\n        /* \"#utility.yul\":14894:14912   */\n      dup2\n        /* \"#utility.yul\":14891:14929   */\n      sub\n        /* \"#utility.yul\":14888:14972   */\n      tag_315\n      jumpi\n        /* \"#utility.yul\":14944:14962   */\n      tag_316\n      tag_152\n      jump\t// in\n    tag_316:\n        /* \"#utility.yul\":14888:14972   */\n    tag_315:\n        /* \"#utility.yul\":14709:14978   */\n      pop\n        /* \"#utility.yul\":14658:14978   */\n      swap2\n      swap1\n      pop\n      jump\t// out\n        /* \"#utility.yul\":14984:15124   */\n    tag_153:\n        /* \"#utility.yul\":15032:15036   */\n      0x00\n        /* \"#utility.yul\":15055:15058   */\n      dup2\n        /* \"#utility.yul\":15047:15058   */\n      swap1\n      pop\n        /* \"#utility.yul\":15078:15081   */\n      dup2\n        /* \"#utility.yul\":15075:15076   */\n      0x00\n        /* \"#utility.yul\":15068:15082   */\n      mstore\n        /* \"#utility.yul\":15112:15116   */\n      0x20\n        /* \"#utility.yul\":15109:15110   */\n      0x00\n        /* \"#utility.yul\":15099:15117   */\n      keccak256\n        /* \"#utility.yul\":15091:15117   */\n      swap1\n      pop\n        /* \"#utility.yul\":14984:15124   */\n      swap2\n      swap1\n      pop\n      jump\t// out\n        /* \"#utility.yul\":15130:15223   */\n    tag_154:\n        /* \"#utility.yul\":15167:15173   */\n      0x00\n        /* \"#utility.yul\":15214:15216   */\n      0x20\n        /* \"#utility.yul\":15209:15211   */\n      0x1f\n        /* \"#utility.yul\":15202:15207   */\n      dup4\n        /* \"#utility.yul\":15198:15212   */\n      add\n        /* \"#utility.yul\":15194:15217   */\n      div\n        /* \"#utility.yul\":15184:15217   */\n      swap1\n      pop\n        /* \"#utility.yul\":15130:15223   */\n      swap2\n      swap1\n      pop\n      jump\t// out\n        /* \"#utility.yul\":15229:15336   */\n    tag_155:\n        /* \"#utility.yul\":15273:15281   */\n      0x00\n        /* \"#utility.yul\":15323:15328   */\n      dup3\n        /* \"#utility.yul\":15317:15321   */\n      dup3\n        /* \"#utility.yul\":15313:15329   */\n      shl\n        /* \"#utility.yul\":15292:15329   */\n      swap1\n      pop\n        /* \"#utility.yul\":15229:15336   */\n      swap3\n      swap2\n      pop\n      pop\n      jump\t// out\n        /* \"#utility.yul\":15342:15735   */\n    tag_156:\n        /* \"#utility.yul\":15411:15417   */\n      0x00\n        /* \"#utility.yul\":15461:15462   */\n      0x08\n        /* \"#utility.yul\":15449:15459   */\n      dup4\n        /* \"#utility.yul\":15445:15463   */\n      mul\n        /* \"#utility.yul\":15484:15581   */\n      tag_321\n        /* \"#utility.yul\":15514:15580   */\n      0xffffffffffffffffffffffffffffffffffffffffffffffffffffffffffffffff\n        /* \"#utility.yul\":15503:15512   */\n      dup3\n        /* \"#utility.yul\":15484:15581   */\n      tag_155\n      jump\t// in\n    tag_321:\n        /* \"#utility.yul\":15602:15641   */\n      tag_322\n        /* \"#utility.yul\":15632:15640   */\n      dup7\n        /* \"#utility.yul\":15621:15630   */\n      dup4\n        /* \"#utility.yul\":15602:15641   */\n      tag_155\n      jump\t// in\n    tag_322:\n        /* \"#utility.yul\":15590:15641   */\n      swap6\n      pop\n        /* \"#utility.yul\":15674:15678   */\n      dup1\n        /* \"#utility.yul\":15670:15679   */\n      not\n        /* \"#utility.yul\":15663:15668   */\n      dup5\n        /* \"#utility.yul\":15659:15680   */\n      and\n        /* \"#utility.yul\":15650:15680   */\n      swap4\n      pop\n        /* \"#utility.yul\":15723:15727   */\n      dup1\n        /* \"#utility.yul\":15713:15721   */\n      dup7\n        /* \"#utility.yul\":15709:15728   */\n      and\n        /* \"#utility.yul\":15702:15707   */\n      dup5\n        /* \"#utility.yul\":15699:15729   */\n      or\n        /* \"#utility.yul\":15689:15729   */\n      swap3\n      pop\n        /* \"#utility.yul\":15418:15735   */\n      pop\n      pop\n        /* \"#utility.yul\":15342:15735   */\n      swap4\n      swap3\n      pop\n      pop\n      pop\n      jump\t// out\n        /* \"#utility.yul\":15741:15801   */\n    tag_157:\n        /* \"#utility.yul\":15769:15772   */\n      0x00\n        /* \"#utility.yul\":15790:15795   */\n      dup2\n        /* \"#utility.yul\":15783:15795   */\n      swap1\n      pop\n        /* \"#utility.yul\":15741:15801   */\n      swap2\n      swap1\n      pop\n      jump\t// out\n        /* \"#utility.yul\":15807:15949   */\n    tag_158:\n        /* \"#utility.yul\":15857:15866   */\n      0x00\n        /* \"#utility.yul\":15890:15943   */\n      tag_325\n        /* \"#utility.yul\":15908:15942   */\n      tag_326\n        /* \"#utility.yul\":15917:15941   */\n      tag_327\n        /* \"#utility.yul\":15935:15940   */\n      dup5\n        /* \"#utility.yul\":15917:15941   */\n      tag_132\n      jump\t// in\n    tag_327:\n        /* \"#utility.yul\":15908:15942   */\n      tag_157\n      jump\t// in\n    tag_326:\n        /* \"#utility.yul\":15890:15943   */\n      tag_132\n      jump\t// in\n    tag_325:\n        /* \"#utility.yul\":15877:15943   */\n      swap1\n      pop\n        /* \"#utility.yul\":15807:15949   */\n      swap2\n      swap1\n      pop\n      jump\t// out\n        /* \"#utility.yul\":15955:16030   */\n    tag_159:\n        /* \"#utility.yul\":15998:16001   */\n      0x00\n        /* \"#utility.yul\":16019:16024   */\n      dup2\n        /* \"#utility.yul\":16012:16024   */\n      swap1\n      pop\n        /* \"#utility.yul\":15955:16030   */\n      swap2\n      swap1\n      pop\n      jump\t// out\n        /* \"#utility.yul\":16036:16305   */\n    tag_160:\n        /* \"#utility.yul\":16146:16185   */\n      tag_330\n        /* \"#utility.yul\":16177:16184   */\n      dup4\n        /* \"#utility.yul\":16146:16185   */\n      tag_158\n      jump\t// in\n    tag_330:\n        /* \"#utility.yul\":16207:16298   */\n      tag_331\n        /* \"#utility.yul\":16256:16297   */\n      tag_332\n        /* \"#utility.yul\":16280:16296   */\n      dup3\n        /* \"#utility.yul\":16256:16297   */\n      tag_159\n      jump\t// in\n    tag_332:\n        /* \"#utility.yul\":16248:16254   */\n      dup5\n        /* \"#utility.yul\":16241:16245   */\n      dup5\n        /* \"#utility.yul\":16235:16246   */\n      sload\n        /* \"#utility.yul\":16207:16298   */\n      tag_156\n      jump\t// in\n    tag_331:\n        /* \"#utility.yul\":16201:16205   */\n      dup3\n        /* \"#utility.yul\":16194:16299   */\n      sstore\n        /* \"#utility.yul\":16112:16305   */\n      pop\n        /* \"#utility.yul\":16036:16305   */\n      pop\n      pop\n      pop\n      jump\t// out\n        /* \"#utility.yul\":16311:16384   */\n    tag_161:\n        /* \"#utility.yul\":16356:16359   */\n      0x00\n        /* \"#utility.yul\":16311:16384   */\n      swap1\n      jump\t// out\n        /* \"#utility.yul\":16390:16579   */\n    tag_162:\n        /* \"#utility.yul\":16467:16499   */\n      tag_335\n      tag_161\n      jump\t// in\n    tag_335:\n        /* \"#utility.yul\":16508:16573   */\n      tag_336\n        /* \"#utility.yul\":16566:16572   */\n      dup2\n        /* \"#utility.yul\":16558:16564   */\n      dup5\n        /* \"#utility.yul\":16552:16556   */\n      dup5\n        /* \"#utility.yul\":16508:16573   */\n      tag_160\n      jump\t// in\n    tag_336:\n        /* \"#utility.yul\":16443:16579   */\n      pop\n        /* \"#utility.yul\":16390:16579   */\n      pop\n      pop\n      jump\t// out\n        /* \"#utility.yul\":16585:16771   */\n    tag_163:\n        /* \"#utility.yul\":16645:16765   */\n    tag_338:\n        /* \"#utility.yul\":16662:16665   */\n      dup2\n        /* \"#utility.yul\":16655:16660   */\n      dup2\n        /* \"#utility.yul\":16652:16666   */\n      lt\n        /* \"#utility.yul\":16645:16765   */\n      iszero\n      tag_340\n      jumpi\n        /* \"#utility.yul\":16716:16755   */\n      tag_341\n        /* \"#utility.yul\":16753:16754   */\n      0x00\n        /* \"#utility.yul\":16746:16751   */\n      dup3\n        /* \"#utility.yul\":16716:16755   */\n      tag_162\n      jump\t// in\n    tag_341:\n        /* \"#utility.yul\":16689:16690   */\n      0x01\n        /* \"#utility.yul\":16682:16687   */\n      dup2\n        /* \"#utility.yul\":16678:16691   */\n      add\n        /* \"#utility.yul\":16669:16691   */\n      swap1\n      pop\n        /* \"#utility.yul\":16645:16765   */\n      jump(tag_338)\n    tag_340:\n        /* \"#utility.yul\":16585:16771   */\n      pop\n      pop\n      jump\t// out\n        /* \"#utility.yul\":16777:17318   */\n    tag_164:\n        /* \"#utility.yul\":16877:16879   */\n      0x1f\n        /* \"#utility.yul\":16872:16875   */\n      dup3\n        /* \"#utility.yul\":16869:16880   */\n      gt\n        /* \"#utility.yul\":16866:17311   */\n      iszero\n      tag_343\n      jumpi\n        /* \"#utility.yul\":16911:16948   */\n      tag_344\n        /* \"#utility.yul\":16942:16947   */\n      dup2\n        /* \"#utility.yul\":16911:16948   */\n      tag_153\n      jump\t// in\n    tag_344:\n        /* \"#utility.yul\":16994:17023   */\n      tag_345\n        /* \"#utility.yul\":17012:17022   */\n      dup5\n        /* \"#utility.yul\":16994:17023   */\n      tag_154\n      jump\t// in\n    tag_345:\n        /* \"#utility.yul\":16984:16992   */\n      dup2\n        /* \"#utility.yul\":16980:17024   */\n      add\n        /* \"#utility.yul\":17177:17179   */\n      0x20\n        /* \"#utility.yul\":17165:17175   */\n      dup6\n        /* \"#utility.yul\":17162:17180   */\n      lt\n        /* \"#utility.yul\":17159:17208   */\n      iszero\n      tag_346\n      jumpi\n        /* \"#utility.yul\":17198:17206   */\n      dup2\n        /* \"#utility.yul\":17183:17206   */\n      swap1\n      pop\n        /* \"#utility.yul\":17159:17208   */\n    tag_346:\n        /* \"#utility.yul\":17221:17301   */\n      tag_347\n        /* \"#utility.yul\":17277:17299   */\n      tag_348\n        /* \"#utility.yul\":17295:17298   */\n      dup6\n        /* \"#utility.yul\":17277:17299   */\n      tag_154\n      jump\t// in\n    tag_348:\n        /* \"#utility.yul\":17267:17275   */\n      dup4\n        /* \"#utility.yul\":17263:17300   */\n      add\n        /* \"#utility.yul\":17250:17261   */\n      dup3\n        /* \"#utility.yul\":17221:17301   */\n      tag_163\n      jump\t// in\n    tag_347:\n        /* \"#utility.yul\":16881:17311   */\n      pop\n      pop\n        /* \"#utility.yul\":16866:17311   */\n    tag_343:\n        /* \"#utility.yul\":16777:17318   */\n      pop\n      pop\n      pop\n      jump\t// out\n        /* \"#utility.yul\":17324:17441   */\n    tag_165:\n        /* \"#utility.yul\":17378:17386   */\n      0x00\n        /* \"#utility.yul\":17428:17433   */\n      dup3\n        /* \"#utility.yul\":17422:17426   */\n      dup3\n        /* \"#utility.yul\":17418:17434   */\n      shr\n        /* \"#utility.yul\":17397:17434   */\n      swap1\n      pop\n        /* \"#utility.yul\":17324:17441   */\n      swap3\n      swap2\n      pop\n      pop\n      jump\t// out\n        /* \"#utility.yul\":17447:17616   */\n    tag_166:\n        /* \"#utility.yul\":17491:17497   */\n      0x00\n        /* \"#utility.yul\":17524:17575   */\n      tag_351\n        /* \"#utility.yul\":17572:17573   */\n      0x00\n        /* \"#utility.yul\":17568:17574   */\n      not\n        /* \"#utility.yul\":17560:17565   */\n      dup5\n        /* \"#utility.yul\":17557:17558   */\n      0x08\n        /* \"#utility.yul\":17553:17566   */\n      mul\n        /* \"#utility.yul\":17524:17575   */\n      tag_165\n      jump\t// in\n    tag_351:\n        /* \"#utility.yul\":17520:17576   */\n      not\n        /* \"#utility.yul\":17605:17609   */\n      dup1\n        /* \"#utility.yul\":17599:17603   */\n      dup4\n        /* \"#utility.yul\":17595:17610   */\n      and\n        /* \"#utility.yul\":17585:17610   */\n      swap2\n      pop\n        /* \"#utility.yul\":17498:17616   */\n      pop\n        /* \"#utility.yul\":17447:17616   */\n      swap3\n      swap2\n      pop\n      pop\n      jump\t// out\n        /* \"#utility.yul\":17621:17916   */\n    tag_167:\n        /* \"#utility.yul\":17697:17701   */\n      0x00\n        /* \"#utility.yul\":17843:17872   */\n      tag_353\n        /* \"#utility.yul\":17868:17871   */\n      dup4\n        /* \"#utility.yul\":17862:17866   */\n      dup4\n        /* \"#utility.yul\":17843:17872   */\n      tag_166\n      jump\t// in\n    tag_353:\n        /* \"#utility.yul\":17835:17872   */\n      swap2\n      pop\n        /* \"#utility.yul\":17905:17908   */\n      dup3\n        /* \"#utility.yul\":17902:17903   */\n      0x02\n        /* \"#utility.yul\":17898:17909   */\n      mul\n        /* \"#utility.yul\":17892:17896   */\n      dup3\n        /* \"#utility.yul\":17889:17910   */\n      or\n        /* \"#utility.yul\":17881:17910   */\n      swap1\n      pop\n        /* \"#utility.yul\":17621:17916   */\n      swap3\n      swap2\n      pop\n      pop\n      jump\t// out\n        /* \"#utility.yul\":17921:19311   */\n    tag_65:\n        /* \"#utility.yul\":18036:18072   */\n      tag_355\n        /* \"#utility.yul\":18068:18071   */\n      dup3\n        /* \"#utility.yul\":18036:18072   */\n      tag_145\n      jump\t// in\n    tag_355:\n        /* \"#utility.yul\":18137:18155   */\n      0xffffffffffffffff\n        /* \"#utility.yul\":18129:18135   */\n      dup2\n        /* \"#utility.yul\":18126:18156   */\n      gt\n        /* \"#utility.yul\":18123:18179   */\n      iszero\n      tag_356\n      jumpi\n        /* \"#utility.yul\":18159:18177   */\n      tag_357\n      tag_98\n      jump\t// in\n    tag_357:\n        /* \"#utility.yul\":18123:18179   */\n    tag_356:\n        /* \"#utility.yul\":18203:18241   */\n      tag_358\n        /* \"#utility.yul\":18235:18239   */\n      dup3\n        /* \"#utility.yul\":18229:18240   */\n      sload\n        /* \"#utility.yul\":18203:18241   */\n      tag_42\n      jump\t// in\n    tag_358:\n        /* \"#utility.yul\":18288:18354   */\n      tag_359\n        /* \"#utility.yul\":18347:18353   */\n      dup3\n        /* \"#utility.yul\":18339:18345   */\n      dup3\n        /* \"#utility.yul\":18333:18337   */\n      dup6\n        /* \"#utility.yul\":18288:18354   */\n      tag_164\n      jump\t// in\n    tag_359:\n        /* \"#utility.yul\":18381:18382   */\n      0x00\n        /* \"#utility.yul\":18405:18409   */\n      0x20\n        /* \"#utility.yul\":18392:18409   */\n      swap1\n      pop\n        /* \"#utility.yul\":18437:18439   */\n      0x1f\n        /* \"#utility.yul\":18429:18435   */\n      dup4\n        /* \"#utility.yul\":18426:18440   */\n      gt\n        /* \"#utility.yul\":18454:18455   */\n      0x01\n        /* \"#utility.yul\":18449:19066   */\n      dup2\n      eq\n      tag_361\n      jumpi\n        /* \"#utility.yul\":19110:19111   */\n      0x00\n        /* \"#utility.yul\":19127:19133   */\n      dup5\n        /* \"#utility.yul\":19124:19201   */\n      iszero\n      tag_362\n      jumpi\n        /* \"#utility.yul\":19176:19185   */\n      dup3\n        /* \"#utility.yul\":19171:19174   */\n      dup8\n        /* \"#utility.yul\":19167:19186   */\n      add\n        /* \"#utility.yul\":19161:19187   */\n      mload\n        /* \"#utility.yul\":19152:19187   */\n      swap1\n      pop\n        /* \"#utility.yul\":19124:19201   */\n    tag_362:\n        /* \"#utility.yul\":19227:19294   */\n      tag_363\n        /* \"#utility.yul\":19287:19293   */\n      dup6\n        /* \"#utility.yul\":19280:19285   */\n      dup3\n        /* \"#utility.yul\":19227:19294   */\n      tag_167\n      jump\t// in\n    tag_363:\n        /* \"#utility.yul\":19221:19225   */\n      dup7\n        /* \"#utility.yul\":19214:19295   */\n      sstore\n        /* \"#utility.yul\":19083:19305   */\n      pop\n        /* \"#utility.yul\":18419:19305   */\n      jump(tag_360)\n        /* \"#utility.yul\":18449:19066   */\n    tag_361:\n        /* \"#utility.yul\":18501:18505   */\n      0x1f\n        /* \"#utility.yul\":18497:18506   */\n      not\n        /* \"#utility.yul\":18489:18495   */\n      dup5\n        /* \"#utility.yul\":18485:18507   */\n      and\n        /* \"#utility.yul\":18535:18571   */\n      tag_364\n        /* \"#utility.yul\":18566:18570   */\n      dup7\n        /* \"#utility.yul\":18535:18571   */\n      tag_153\n      jump\t// in\n    tag_364:\n        /* \"#utility.yul\":18593:18594   */\n      0x00\n        /* \"#utility.yul\":18607:18815   */\n    tag_365:\n        /* \"#utility.yul\":18621:18628   */\n      dup3\n        /* \"#utility.yul\":18618:18619   */\n      dup2\n        /* \"#utility.yul\":18615:18629   */\n      lt\n        /* \"#utility.yul\":18607:18815   */\n      iszero\n      tag_367\n      jumpi\n        /* \"#utility.yul\":18700:18709   */\n      dup5\n        /* \"#utility.yul\":18695:18698   */\n      dup10\n        /* \"#utility.yul\":18691:18710   */\n      add\n        /* \"#utility.yul\":18685:18711   */\n      mload\n        /* \"#utility.yul\":18677:18683   */\n      dup3\n        /* \"#utility.yul\":18670:18712   */\n      sstore\n        /* \"#utility.yul\":18751:18752   */\n      0x01\n        /* \"#utility.yul\":18743:18749   */\n      dup3\n        /* \"#utility.yul\":18739:18753   */\n      add\n        /* \"#utility.yul\":18729:18753   */\n      swap2\n      pop\n        /* \"#utility.yul\":18798:18800   */\n      0x20\n        /* \"#utility.yul\":18787:18796   */\n      dup6\n        /* \"#utility.yul\":18783:18801   */\n      add\n        /* \"#utility.yul\":18770:18801   */\n      swap5\n      pop\n        /* \"#utility.yul\":18644:18648   */\n      0x20\n        /* \"#utility.yul\":18641:18642   */\n      dup2\n        /* \"#utility.yul\":18637:18649   */\n      add\n        /* \"#utility.yul\":18632:18649   */\n      swap1\n      pop\n        /* \"#utility.yul\":18607:18815   */\n      jump(tag_365)\n    tag_367:\n        /* \"#utility.yul\":18843:18849   */\n      dup7\n        /* \"#utility.yul\":18834:18841   */\n      dup4\n        /* \"#utility.yul\":18831:18850   */\n      lt\n        /* \"#utility.yul\":18828:19007   */\n      iszero\n      tag_368\n      jumpi\n        /* \"#utility.yul\":18901:18910   */\n      dup5\n        /* \"#utility.yul\":18896:18899   */\n      dup10\n        /* \"#utility.yul\":18892:18911   */\n      add\n        /* \"#utility.yul\":18886:18912   */\n      mload\n        /* \"#utility.yul\":18944:18992   */\n      tag_369\n        /* \"#utility.yul\":18986:18990   */\n      0x1f\n        /* \"#utility.yul\":18978:18984   */\n      dup10\n        /* \"#utility.yul\":18974:18991   */\n      and\n        /* \"#utility.yul\":18963:18972   */\n      dup3\n        /* \"#utility.yul\":18944:18992   */\n      tag_166\n      jump\t// in\n    tag_369:\n        /* \"#utility.yul\":18936:18942   */\n      dup4\n        /* \"#utility.yul\":18929:18993   */\n      sstore\n        /* \"#utility.yul\":18851:19007   */\n      pop\n        /* \"#utility.yul\":18828:19007   */\n    tag_368:\n        /* \"#utility.yul\":19053:19054   */\n      0x01\n        /* \"#utility.yul\":19049:19050   */\n      0x02\n        /* \"#utility.yul\":19041:19047   */\n      dup9\n        /* \"#utility.yul\":19037:19051   */\n      mul\n        /* \"#utility.yul\":19033:19055   */\n      add\n        /* \"#utility.yul\":19027:19031   */\n      dup9\n        /* \"#utility.yul\":19020:19056   */\n      sstore\n        /* \"#utility.yul\":18456:19066   */\n      pop\n      pop\n      pop\n        /* \"#utility.yul\":18419:19305   */\n    tag_360:\n      pop\n        /* \"#utility.yul\":18011:19311   */\n      pop\n      pop\n      pop\n        /* \"#utility.yul\":17921:19311   */\n      pop\n      pop\n      jump\t// out\n        /* \"#utility.yul\":19317:19497   */\n    tag_168:\n        /* \"#utility.yul\":19365:19442   */\n      0x4e487b7100000000000000000000000000000000000000000000000000000000\n        /* \"#utility.yul\":19362:19363   */\n      0x00\n        /* \"#utility.yul\":19355:19443   */\n      mstore\n        /* \"#utility.yul\":19462:19466   */\n      0x11\n        /* \"#utility.yul\":19459:19460   */\n      0x04\n        /* \"#utility.yul\":19452:19467   */\n      mstore\n        /* \"#utility.yul\":19486:19490   */\n      0x24\n        /* \"#utility.yul\":19483:19484   */\n      0x00\n        /* \"#utility.yul\":19476:19491   */\n      revert\n        /* \"#utility.yul\":19503:19736   */\n    tag_73:\n        /* \"#utility.yul\":19542:19545   */\n      0x00\n        /* \"#utility.yul\":19565:19589   */\n      tag_372\n        /* \"#utility.yul\":19583:19588   */\n      dup3\n        /* \"#utility.yul\":19565:19589   */\n      tag_132\n      jump\t// in\n    tag_372:\n        /* \"#utility.yul\":19556:19589   */\n      swap2\n      pop\n        /* \"#utility.yul\":19611:19677   */\n      0xffffffffffffffffffffffffffffffffffffffffffffffffffffffffffffffff\n        /* \"#utility.yul\":19604:19609   */\n      dup3\n        /* \"#utility.yul\":19601:19678   */\n      sub\n        /* \"#utility.yul\":19598:19701   */\n      tag_373\n      jumpi\n        /* \"#utility.yul\":19681:19699   */\n      tag_374\n      tag_168\n      jump\t// in\n    tag_374:\n        /* \"#utility.yul\":19598:19701   */\n    tag_373:\n        /* \"#utility.yul\":19728:19729   */\n      0x01\n        /* \"#utility.yul\":19721:19726   */\n      dup3\n        /* \"#utility.yul\":19717:19730   */\n      add\n        /* \"#utility.yul\":19710:19730   */\n      swap1\n      pop\n        /* \"#utility.yul\":19503:19736   */\n      swap2\n      swap1\n      pop\n      jump\t// out\n        /* \"#utility.yul\":19742:19922   */\n    tag_169:\n        /* \"#utility.yul\":19790:19867   */\n      0x4e487b7100000000000000000000000000000000000000000000000000000000\n        /* \"#utility.yul\":19787:19788   */\n      0x00\n        /* \"#utility.yul\":19780:19868   */\n      mstore\n        /* \"#utility.yul\":19887:19891   */\n      0x12\n        /* \"#utility.yul\":19884:19885   */\n      0x04\n        /* \"#utility.yul\":19877:19892   */\n      mstore\n        /* \"#utility.yul\":19911:19915   */\n      0x24\n        /* \"#utility.yul\":19908:19909   */\n      0x00\n        /* \"#utility.yul\":19901:19916   */\n      revert\n        /* \"#utility.yul\":19928:20104   */\n    tag_104:\n        /* \"#utility.yul\":19960:19961   */\n      0x00\n        /* \"#utility.yul\":19977:19997   */\n      tag_377\n        /* \"#utility.yul\":19995:19996   */\n      dup3\n        /* \"#utility.yul\":19977:19997   */\n      tag_132\n      jump\t// in\n    tag_377:\n        /* \"#utility.yul\":19972:19997   */\n      swap2\n      pop\n        /* \"#utility.yul\":20011:20031   */\n      tag_378\n        /* \"#utility.yul\":20029:20030   */\n      dup4\n        /* \"#utility.yul\":20011:20031   */\n      tag_132\n      jump\t// in\n    tag_378:\n        /* \"#utility.yul\":20006:20031   */\n      swap3\n      pop\n        /* \"#utility.yul\":20050:20051   */\n      dup3\n        /* \"#utility.yul\":20040:20075   */\n      tag_379\n      jumpi\n        /* \"#utility.yul\":20055:20073   */\n      tag_380\n      tag_169\n      jump\t// in\n    tag_380:\n        /* \"#utility.yul\":20040:20075   */\n    tag_379:\n        /* \"#utility.yul\":20096:20097   */\n      dup3\n        /* \"#utility.yul\":20093:20094   */\n      dup3\n        /* \"#utility.yul\":20089:20098   */\n      mod\n        /* \"#utility.yul\":20084:20098   */\n      swap1\n      pop\n        /* \"#utility.yul\":19928:20104   */\n      swap3\n      swap2\n      pop\n      pop\n      jump\t// out\n        /* \"#utility.yul\":20110:20301   */\n    tag_106:\n        /* \"#utility.yul\":20150:20153   */\n      0x00\n        /* \"#utility.yul\":20169:20189   */\n      tag_382\n        /* \"#utility.yul\":20187:20188   */\n      dup3\n        /* \"#utility.yul\":20169:20189   */\n      tag_132\n      jump\t// in\n    tag_382:\n        /* \"#utility.yul\":20164:20189   */\n      swap2\n      pop\n        /* \"#utility.yul\":20203:20223   */\n      tag_383\n        /* \"#utility.yul\":20221:20222   */\n      dup4\n        /* \"#utility.yul\":20203:20223   */\n      tag_132\n      jump\t// in\n    tag_383:\n        /* \"#utility.yul\":20198:20223   */\n      swap3\n      pop\n        /* \"#utility.yul\":20246:20247   */\n      dup3\n        /* \"#utility.yul\":20243:20244   */\n      dup3\n        /* \"#utility.yul\":20239:20248   */\n      add\n        /* \"#utility.yul\":20232:20248   */\n      swap1\n      pop\n        /* \"#utility.yul\":20267:20270   */\n      dup1\n        /* \"#utility.yul\":20264:20265   */\n      dup3\n        /* \"#utility.yul\":20261:20271   */\n      gt\n        /* \"#utility.yul\":20258:20294   */\n      iszero\n      tag_384\n      jumpi\n        /* \"#utility.yul\":20274:20292   */\n      tag_385\n      tag_168\n      jump\t// in\n    tag_385:\n        /* \"#utility.yul\":20258:20294   */\n    tag_384:\n        /* \"#utility.yul\":20110:20301   */\n      swap3\n      swap2\n      pop\n      pop\n      jump\t// out\n        /* \"#utility.yul\":20307:20501   */\n    tag_108:\n        /* \"#utility.yul\":20347:20351   */\n      0x00\n        /* \"#utility.yul\":20367:20387   */\n      tag_387\n        /* \"#utility.yul\":20385:20386   */\n      dup3\n        /* \"#utility.yul\":20367:20387   */\n      tag_132\n      jump\t// in\n    tag_387:\n        /* \"#utility.yul\":20362:20387   */\n      swap2\n      pop\n        /* \"#utility.yul\":20401:20421   */\n      tag_388\n        /* \"#utility.yul\":20419:20420   */\n      dup4\n        /* \"#utility.yul\":20401:20421   */\n      tag_132\n      jump\t// in\n    tag_388:\n        /* \"#utility.yul\":20396:20421   */\n      swap3\n      pop\n        /* \"#utility.yul\":20445:20446   */\n      dup3\n        /* \"#utility.yul\":20442:20443   */\n      dup3\n        /* \"#utility.yul\":20438:20447   */\n      sub\n        /* \"#utility.yul\":20430:20447   */\n      swap1\n      pop\n        /* \"#utility.yul\":20469:20470   */\n      dup2\n        /* \"#utility.yul\":20463:20467   */\n      dup2\n        /* \"#utility.yul\":20460:20471   */\n      gt\n        /* \"#utility.yul\":20457:20494   */\n      iszero\n      tag_389\n      jumpi\n        /* \"#utility.yul\":20474:20492   */\n      tag_390\n      tag_168\n      jump\t// in\n    tag_390:\n        /* \"#utility.yul\":20457:20494   */\n    tag_389:\n        /* \"#utility.yul\":20307:20501   */\n      swap3\n      swap2\n      pop\n      pop\n      jump\t// out\n        /* \"#utility.yul\":20507:20687   */\n    tag_111:\n        /* \"#utility.yul\":20555:20632   */\n      0x4e487b7100000000000000000000000000000000000000000000000000000000\n        /* \"#utility.yul\":20552:20553   */\n      0x00\n        /* \"#utility.yul\":20545:20633   */\n      mstore\n        /* \"#utility.yul\":20652:20656   */\n      0x32\n        /* \"#utility.yul\":20649:20650   */\n      0x04\n        /* \"#utility.yul\":20642:20657   */\n      mstore\n        /* \"#utility.yul\":20676:20680   */\n      0x24\n        /* \"#utility.yul\":20673:20674   */\n      0x00\n        /* \"#utility.yul\":20666:20681   */\n      revert\n        /* \"#utility.yul\":20693:20878   */\n    tag_113:\n        /* \"#utility.yul\":20733:20734   */\n      0x00\n        /* \"#utility.yul\":20750:20770   */\n      tag_393\n        /* \"#utility.yul\":20768:20769   */\n      dup3\n        /* \"#utility.yul\":20750:20770   */\n      tag_132\n      jump\t// in\n    tag_393:\n        /* \"#utility.yul\":20745:20770   */\n      swap2\n      pop\n        /* \"#utility.yul\":20784:20804   */\n      tag_394\n        /* \"#utility.yul\":20802:20803   */\n      dup4\n        /* \"#utility.yul\":20784:20804   */\n      tag_132\n      jump\t// in\n    tag_394:\n        /* \"#utility.yul\":20779:20804   */\n      swap3\n      pop\n        /* \"#utility.yul\":20823:20824   */\n      dup3\n        /* \"#utility.yul\":20813:20848   */\n      tag_395\n      jumpi\n        /* \"#utility.yul\":20828:20846   */\n      tag_396\n      tag_169\n      jump\t// in\n    tag_396:\n        /* \"#utility.yul\":20813:20848   */\n    tag_395:\n        /* \"#utility.yul\":20870:20871   */\n      dup3\n        /* \"#utility.yul\":20867:20868   */\n      dup3\n        /* \"#utility.yul\":20863:20872   */\n      div\n        /* \"#utility.yul\":20858:20872   */\n      swap1\n      pop\n        /* \"#utility.yul\":20693:20878   */\n      swap3\n      swap2\n      pop\n      pop\n      jump\t// out\n        /* \"#utility.yul\":20884:21055   */\n    tag_115:\n        /* \"#utility.yul\":20923:20926   */\n      0x00\n        /* \"#utility.yul\":20946:20970   */\n      tag_398\n        /* \"#utility.yul\":20964:20969   */\n      dup3\n        /* \"#utility.yul\":20946:20970   */\n      tag_132\n      jump\t// in\n    tag_398:\n        /* \"#utility.yul\":20937:20970   */\n      swap2\n      pop\n        /* \"#utility.yul\":20992:20996   */\n      0x00\n        /* \"#utility.yul\":20985:20990   */\n      dup3\n        /* \"#utility.yul\":20982:20997   */\n      sub\n        /* \"#utility.yul\":20979:21020   */\n      tag_399\n      jumpi\n        /* \"#utility.yul\":21000:21018   */\n      tag_400\n      tag_168\n      jump\t// in\n    tag_400:\n        /* \"#utility.yul\":20979:21020   */\n    tag_399:\n        /* \"#utility.yul\":21047:21048   */\n      0x01\n        /* \"#utility.yul\":21040:21045   */\n      dup3\n        /* \"#utility.yul\":21036:21049   */\n      sub\n        /* \"#utility.yul\":21029:21049   */\n      swap1\n      pop\n        /* \"#utility.yul\":20884:21055   */\n      swap2\n      swap1\n      pop\n      jump\t// out\n\n    auxdata: 0xa2646970667358221220779889b56f77c248935527ed907125c8ac3024ee0f9cd60cd91b87445757586764736f6c634300081a0033\n}\n",
				"bytecode": {
					"linkReferences": {},
					"object": "60806040525f600155348015610013575f80fd5b506040516117de3803806117de83398181016040528101906100359190610113565b8073ffffffffffffffffffffffffffffffffffffffff165f73ffffffffffffffffffffffffffffffffffffffff161461006e5780610070565b335b60025f6101000a81548173ffffffffffffffffffffffffffffffffffffffff021916908373ffffffffffffffffffffffffffffffffffffffff1602179055505061013e565b5f80fd5b5f73ffffffffffffffffffffffffffffffffffffffff82169050919050565b5f6100e2826100b9565b9050919050565b6100f2816100d8565b81146100fc575f80fd5b50565b5f8151905061010d816100e9565b92915050565b5f60208284031215610128576101276100b5565b5b5f610135848285016100ff565b91505092915050565b6116938061014b5f395ff3fe608060405234801561000f575f80fd5b5060043610610055575f3560e01c806329014dca1461005957806378357e5314610090578063ae04477e146100ae578063dd29bb1b146100df578063e82c4d9014610110575b5f80fd5b610073600480360381019061006e9190610be8565b610145565b604051610087989796959493929190610cd9565b60405180910390f35b610098610461565b6040516100a59190610db0565b60405180910390f35b6100c860048036038101906100c39190610e1d565b610486565b6040516100d6929190610f2a565b60405180910390f35b6100f960048036038101906100f49190610f58565b610612565b604051610107929190610f2a565b60405180910390f35b61012a60048036038101906101259190610be8565b6107c5565b60405161013c96959493929190611087565b60405180910390f35b60605f8060605f60605f60603360025f9054906101000a900473ffffffffffffffffffffffffffffffffffffffff1673ffffffffffffffffffffffffffffffffffffffff168173ffffffffffffffffffffffffffffffffffffffff16146101e1576040517f08c379a00000000000000000000000000000000000000000000000000000000081526004016101d89061116b565b60405180910390fd5b5f808b6040516101f191906111c3565b90815260200160405180910390206040518060c00160405290815f8201805461021990611206565b80601f016020809104026020016040519081016040528092919081815260200182805461024590611206565b80156102905780601f1061026757610100808354040283529160200191610290565b820191905f5260205f20905b81548152906001019060200180831161027357829003601f168201915b5050505050815260200160018201548152602001600282015481526020016003820180546102bd90611206565b80601f01602080910402602001604051908101604052809291908181526020018280546102e990611206565b80156103345780601f1061030b57610100808354040283529160200191610334565b820191905f5260205f20905b81548152906001019060200180831161031757829003601f168201915b505050505081526020016004820154815260200160058201805461035790611206565b80601f016020809104026020016040519081016040528092919081815260200182805461038390611206565b80156103ce5780601f106103a5576101008083540402835291602001916103ce565b820191905f5260205f20905b8154815290600101906020018083116103b157829003601f168201915b50505050508152505090505f815f015151111561041757805f01519950806020015198508060400151975080606001519650806080015195508060a00151945060019350610454565b600193506040518060400160405280600d81526020017f4e6f204461746120466f756e640000000000000000000000000000000000000081525092505b5050919395975091939597565b60025f9054906101000a900473ffffffffffffffffffffffffffffffffffffffff1681565b5f60603360025f9054906101000a900473ffffffffffffffffffffffffffffffffffffffff1673ffffffffffffffffffffffffffffffffffffffff168173ffffffffffffffffffffffffffffffffffffffff1614610519576040517f08c379a00000000000000000000000000000000000000000000000000000000081526004016105109061116b565b60405180910390fd5b5f6040518060c001604052808c81526020018b81526020018a8152602001898152602001888152602001878152509050805f8660405161055991906111c3565b90815260200160405180910390205f820151815f01908161057a91906113d3565b50602082015181600101556040820151816002015560608201518160030190816105a491906113d3565b506080820151816004015560a08201518160050190816105c491906113d3565b50905050600193506040518060400160405280600f81526020017f55706461746564204372656174656400000000000000000000000000000000008152509250505097509795505050505050565b5f60603360025f9054906101000a900473ffffffffffffffffffffffffffffffffffffffff1673ffffffffffffffffffffffffffffffffffffffff168173ffffffffffffffffffffffffffffffffffffffff16146106a5576040517f08c379a000000000000000000000000000000000000000000000000000000000815260040161069c9061116b565b60405180910390fd5b5f6040518060c001604052808b81526020018a815260200189815260200188815260200187815260200186815250905060015f8154809291906106e7906114cf565b91905055505f6106fa600154600a6109a6565b9050815f8260405161070c91906111c3565b90815260200160405180910390205f820151815f01908161072d91906113d3565b506020820151816001015560408201518160020155606082015181600301908161075791906113d3565b506080820151816004015560a082015181600501908161077791906113d3565b50905050600194506040518060400160405280601481526020017f5375636365737366756c6c7920437265617465640000000000000000000000008152509350505050965096945050505050565b5f818051602081018201805184825260208301602085012081835280955050505050505f91509050805f0180546107fb90611206565b80601f016020809104026020016040519081016040528092919081815260200182805461082790611206565b80156108725780601f1061084957610100808354040283529160200191610872565b820191905f5260205f20905b81548152906001019060200180831161085557829003601f168201915b50505050509080600101549080600201549080600301805461089390611206565b80601f01602080910402602001604051908101604052809291908181526020018280546108bf90611206565b801561090a5780601f106108e15761010080835404028352916020019161090a565b820191905f5260205f20905b8154815290600101906020018083116108ed57829003601f168201915b50505050509080600401549080600501805461092590611206565b80601f016020809104026020016040519081016040528092919081815260200182805461095190611206565b801561099c5780601f106109735761010080835404028352916020019161099c565b820191905f5260205f20905b81548152906001019060200180831161097f57829003601f168201915b5050505050905086565b60605f8267ffffffffffffffff8111156109c3576109c2610ac4565b5b6040519080825280601f01601f1916602001820160405280156109f55781602001600182028036833780820191505090505b5090505f8390505b5f811115610a9057600a85610a129190611543565b6030610a1e9190611573565b60f81b82600183610a2f91906115a6565b81518110610a4057610a3f6115d9565b5b60200101907effffffffffffffffffffffffffffffffffffffffffffffffffffffffffffff191690815f1a905350600a85610a7b9190611606565b94508080610a8890611636565b9150506109fd565b508091505092915050565b5f604051905090565b5f80fd5b5f80fd5b5f80fd5b5f80fd5b5f601f19601f8301169050919050565b7f4e487b71000000000000000000000000000000000000000000000000000000005f52604160045260245ffd5b610afa82610ab4565b810181811067ffffffffffffffff82111715610b1957610b18610ac4565b5b80604052505050565b5f610b2b610a9b565b9050610b378282610af1565b919050565b5f67ffffffffffffffff821115610b5657610b55610ac4565b5b610b5f82610ab4565b9050602081019050919050565b828183375f83830152505050565b5f610b8c610b8784610b3c565b610b22565b905082815260208101848484011115610ba857610ba7610ab0565b5b610bb3848285610b6c565b509392505050565b5f82601f830112610bcf57610bce610aac565b5b8135610bdf848260208601610b7a565b91505092915050565b5f60208284031215610bfd57610bfc610aa4565b5b5f82013567ffffffffffffffff811115610c1a57610c19610aa8565b5b610c2684828501610bbb565b91505092915050565b5f81519050919050565b5f82825260208201905092915050565b8281835e5f83830152505050565b5f610c6182610c2f565b610c6b8185610c39565b9350610c7b818560208601610c49565b610c8481610ab4565b840191505092915050565b5f819050919050565b610ca181610c8f565b82525050565b5f819050919050565b610cb981610ca7565b82525050565b5f8115159050919050565b610cd381610cbf565b82525050565b5f610100820190508181035f830152610cf2818b610c57565b9050610d01602083018a610c98565b610d0e6040830189610c98565b8181036060830152610d208188610c57565b9050610d2f6080830187610cb0565b81810360a0830152610d418186610c57565b9050610d5060c0830185610cca565b81810360e0830152610d628184610c57565b90509998505050505050505050565b5f73ffffffffffffffffffffffffffffffffffffffff82169050919050565b5f610d9a82610d71565b9050919050565b610daa81610d90565b82525050565b5f602082019050610dc35f830184610da1565b92915050565b610dd281610c8f565b8114610ddc575f80fd5b50565b5f81359050610ded81610dc9565b92915050565b610dfc81610ca7565b8114610e06575f80fd5b50565b5f81359050610e1781610df3565b92915050565b5f805f805f805f60e0888a031215610e3857610e37610aa4565b5b5f88013567ffffffffffffffff811115610e5557610e54610aa8565b5b610e618a828b01610bbb565b9750506020610e728a828b01610ddf565b9650506040610e838a828b01610ddf565b955050606088013567ffffffffffffffff811115610ea457610ea3610aa8565b5b610eb08a828b01610bbb565b9450506080610ec18a828b01610e09565b93505060a088013567ffffffffffffffff811115610ee257610ee1610aa8565b5b610eee8a828b01610bbb565b92505060c088013567ffffffffffffffff811115610f0f57610f0e610aa8565b5b610f1b8a828b01610bbb565b91505092959891949750929550565b5f604082019050610f3d5f830185610cca565b8181036020830152610f4f8184610c57565b90509392505050565b5f805f805f8060c08789031215610f7257610f71610aa4565b5b5f87013567ffffffffffffffff811115610f8f57610f8e610aa8565b5b610f9b89828a01610bbb565b9650506020610fac89828a01610ddf565b9550506040610fbd89828a01610ddf565b945050606087013567ffffffffffffffff811115610fde57610fdd610aa8565b5b610fea89828a01610bbb565b9350506080610ffb89828a01610e09565b92505060a087013567ffffffffffffffff81111561101c5761101b610aa8565b5b61102889828a01610bbb565b9150509295509295509295565b5f81519050919050565b5f82825260208201905092915050565b5f61105982611035565b611063818561103f565b9350611073818560208601610c49565b61107c81610ab4565b840191505092915050565b5f60c0820190508181035f83015261109f818961104f565b90506110ae6020830188610c98565b6110bb6040830187610c98565b81810360608301526110cd818661104f565b90506110dc6080830185610cb0565b81810360a08301526110ee818461104f565b9050979650505050505050565b7f596f7520617265206e6f7420616c6c6f77656420746f206d616e7570756c61745f8201527f6500000000000000000000000000000000000000000000000000000000000000602082015250565b5f611155602183610c39565b9150611160826110fb565b604082019050919050565b5f6020820190508181035f83015261118281611149565b9050919050565b5f81905092915050565b5f61119d82610c2f565b6111a78185611189565b93506111b7818560208601610c49565b80840191505092915050565b5f6111ce8284611193565b915081905092915050565b7f4e487b71000000000000000000000000000000000000000000000000000000005f52602260045260245ffd5b5f600282049050600182168061121d57607f821691505b6020821081036112305761122f6111d9565b5b50919050565b5f819050815f5260205f209050919050565b5f6020601f8301049050919050565b5f82821b905092915050565b5f600883026112927fffffffffffffffffffffffffffffffffffffffffffffffffffffffffffffffff82611257565b61129c8683611257565b95508019841693508086168417925050509392505050565b5f819050919050565b5f6112d76112d26112cd84610c8f565b6112b4565b610c8f565b9050919050565b5f819050919050565b6112f0836112bd565b6113046112fc826112de565b848454611263565b825550505050565b5f90565b61131861130c565b6113238184846112e7565b505050565b5b818110156113465761133b5f82611310565b600181019050611329565b5050565b601f82111561138b5761135c81611236565b61136584611248565b81016020851015611374578190505b61138861138085611248565b830182611328565b50505b505050565b5f82821c905092915050565b5f6113ab5f1984600802611390565b1980831691505092915050565b5f6113c3838361139c565b9150826002028217905092915050565b6113dc82611035565b67ffffffffffffffff8111156113f5576113f4610ac4565b5b6113ff8254611206565b61140a82828561134a565b5f60209050601f83116001811461143b575f8415611429578287015190505b61143385826113b8565b86555061149a565b601f19841661144986611236565b5f5b828110156114705784890151825560018201915060208501945060208101905061144b565b8683101561148d5784890151611489601f89168261139c565b8355505b6001600288020188555050505b505050505050565b7f4e487b71000000000000000000000000000000000000000000000000000000005f52601160045260245ffd5b5f6114d982610c8f565b91507fffffffffffffffffffffffffffffffffffffffffffffffffffffffffffffffff820361150b5761150a6114a2565b5b600182019050919050565b7f4e487b71000000000000000000000000000000000000000000000000000000005f52601260045260245ffd5b5f61154d82610c8f565b915061155883610c8f565b92508261156857611567611516565b5b828206905092915050565b5f61157d82610c8f565b915061158883610c8f565b92508282019050808211156115a05761159f6114a2565b5b92915050565b5f6115b082610c8f565b91506115bb83610c8f565b92508282039050818111156115d3576115d26114a2565b5b92915050565b7f4e487b71000000000000000000000000000000000000000000000000000000005f52603260045260245ffd5b5f61161082610c8f565b915061161b83610c8f565b92508261162b5761162a611516565b5b828204905092915050565b5f61164082610c8f565b91505f8203611652576116516114a2565b5b60018203905091905056fea2646970667358221220779889b56f77c248935527ed907125c8ac3024ee0f9cd60cd91b87445757586764736f6c634300081a0033",
					"opcodes": "PUSH1 0x80 PUSH1 0x40 MSTORE PUSH0 PUSH1 0x1 SSTORE CALLVALUE DUP1 ISZERO PUSH2 0x13 JUMPI PUSH0 DUP1 REVERT JUMPDEST POP PUSH1 0x40 MLOAD PUSH2 0x17DE CODESIZE SUB DUP1 PUSH2 0x17DE DUP4 CODECOPY DUP2 DUP2 ADD PUSH1 0x40 MSTORE DUP2 ADD SWAP1 PUSH2 0x35 SWAP2 SWAP1 PUSH2 0x113 JUMP JUMPDEST DUP1 PUSH20 0xFFFFFFFFFFFFFFFFFFFFFFFFFFFFFFFFFFFFFFFF AND PUSH0 PUSH20 0xFFFFFFFFFFFFFFFFFFFFFFFFFFFFFFFFFFFFFFFF AND EQ PUSH2 0x6E JUMPI DUP1 PUSH2 0x70 JUMP JUMPDEST CALLER JUMPDEST PUSH1 0x2 PUSH0 PUSH2 0x100 EXP DUP2 SLOAD DUP2 PUSH20 0xFFFFFFFFFFFFFFFFFFFFFFFFFFFFFFFFFFFFFFFF MUL NOT AND SWAP1 DUP4 PUSH20 0xFFFFFFFFFFFFFFFFFFFFFFFFFFFFFFFFFFFFFFFF AND MUL OR SWAP1 SSTORE POP POP PUSH2 0x13E JUMP JUMPDEST PUSH0 DUP1 REVERT JUMPDEST PUSH0 PUSH20 0xFFFFFFFFFFFFFFFFFFFFFFFFFFFFFFFFFFFFFFFF DUP3 AND SWAP1 POP SWAP2 SWAP1 POP JUMP JUMPDEST PUSH0 PUSH2 0xE2 DUP3 PUSH2 0xB9 JUMP JUMPDEST SWAP1 POP SWAP2 SWAP1 POP JUMP JUMPDEST PUSH2 0xF2 DUP2 PUSH2 0xD8 JUMP JUMPDEST DUP2 EQ PUSH2 0xFC JUMPI PUSH0 DUP1 REVERT JUMPDEST POP JUMP JUMPDEST PUSH0 DUP2 MLOAD SWAP1 POP PUSH2 0x10D DUP2 PUSH2 0xE9 JUMP JUMPDEST SWAP3 SWAP2 POP POP JUMP JUMPDEST PUSH0 PUSH1 0x20 DUP3 DUP5 SUB SLT ISZERO PUSH2 0x128 JUMPI PUSH2 0x127 PUSH2 0xB5 JUMP JUMPDEST JUMPDEST PUSH0 PUSH2 0x135 DUP5 DUP3 DUP6 ADD PUSH2 0xFF JUMP JUMPDEST SWAP2 POP POP SWAP3 SWAP2 POP POP JUMP JUMPDEST PUSH2 0x1693 DUP1 PUSH2 0x14B PUSH0 CODECOPY PUSH0 RETURN INVALID PUSH1 0x80 PUSH1 0x40 MSTORE CALLVALUE DUP1 ISZERO PUSH2 0xF JUMPI PUSH0 DUP1 REVERT JUMPDEST POP PUSH1 0x4 CALLDATASIZE LT PUSH2 0x55 JUMPI PUSH0 CALLDATALOAD PUSH1 0xE0 SHR DUP1 PUSH4 0x29014DCA EQ PUSH2 0x59 JUMPI DUP1 PUSH4 0x78357E53 EQ PUSH2 0x90 JUMPI DUP1 PUSH4 0xAE04477E EQ PUSH2 0xAE JUMPI DUP1 PUSH4 0xDD29BB1B EQ PUSH2 0xDF JUMPI DUP1 PUSH4 0xE82C4D90 EQ PUSH2 0x110 JUMPI JUMPDEST PUSH0 DUP1 REVERT JUMPDEST PUSH2 0x73 PUSH1 0x4 DUP1 CALLDATASIZE SUB DUP2 ADD SWAP1 PUSH2 0x6E SWAP2 SWAP1 PUSH2 0xBE8 JUMP JUMPDEST PUSH2 0x145 JUMP JUMPDEST PUSH1 0x40 MLOAD PUSH2 0x87 SWAP9 SWAP8 SWAP7 SWAP6 SWAP5 SWAP4 SWAP3 SWAP2 SWAP1 PUSH2 0xCD9 JUMP JUMPDEST PUSH1 0x40 MLOAD DUP1 SWAP2 SUB SWAP1 RETURN JUMPDEST PUSH2 0x98 PUSH2 0x461 JUMP JUMPDEST PUSH1 0x40 MLOAD PUSH2 0xA5 SWAP2 SWAP1 PUSH2 0xDB0 JUMP JUMPDEST PUSH1 0x40 MLOAD DUP1 SWAP2 SUB SWAP1 RETURN JUMPDEST PUSH2 0xC8 PUSH1 0x4 DUP1 CALLDATASIZE SUB DUP2 ADD SWAP1 PUSH2 0xC3 SWAP2 SWAP1 PUSH2 0xE1D JUMP JUMPDEST PUSH2 0x486 JUMP JUMPDEST PUSH1 0x40 MLOAD PUSH2 0xD6 SWAP3 SWAP2 SWAP1 PUSH2 0xF2A JUMP JUMPDEST PUSH1 0x40 MLOAD DUP1 SWAP2 SUB SWAP1 RETURN JUMPDEST PUSH2 0xF9 PUSH1 0x4 DUP1 CALLDATASIZE SUB DUP2 ADD SWAP1 PUSH2 0xF4 SWAP2 SWAP1 PUSH2 0xF58 JUMP JUMPDEST PUSH2 0x612 JUMP JUMPDEST PUSH1 0x40 MLOAD PUSH2 0x107 SWAP3 SWAP2 SWAP1 PUSH2 0xF2A JUMP JUMPDEST PUSH1 0x40 MLOAD DUP1 SWAP2 SUB SWAP1 RETURN JUMPDEST PUSH2 0x12A PUSH1 0x4 DUP1 CALLDATASIZE SUB DUP2 ADD SWAP1 PUSH2 0x125 SWAP2 SWAP1 PUSH2 0xBE8 JUMP JUMPDEST PUSH2 0x7C5 JUMP JUMPDEST PUSH1 0x40 MLOAD PUSH2 0x13C SWAP7 SWAP6 SWAP5 SWAP4 SWAP3 SWAP2 SWAP1 PUSH2 0x1087 JUMP JUMPDEST PUSH1 0x40 MLOAD DUP1 SWAP2 SUB SWAP1 RETURN JUMPDEST PUSH1 0x60 PUSH0 DUP1 PUSH1 0x60 PUSH0 PUSH1 0x60 PUSH0 PUSH1 0x60 CALLER PUSH1 0x2 PUSH0 SWAP1 SLOAD SWAP1 PUSH2 0x100 EXP SWAP1 DIV PUSH20 0xFFFFFFFFFFFFFFFFFFFFFFFFFFFFFFFFFFFFFFFF AND PUSH20 0xFFFFFFFFFFFFFFFFFFFFFFFFFFFFFFFFFFFFFFFF AND DUP2 PUSH20 0xFFFFFFFFFFFFFFFFFFFFFFFFFFFFFFFFFFFFFFFF AND EQ PUSH2 0x1E1 JUMPI PUSH1 0x40 MLOAD PUSH32 0x8C379A000000000000000000000000000000000000000000000000000000000 DUP2 MSTORE PUSH1 0x4 ADD PUSH2 0x1D8 SWAP1 PUSH2 0x116B JUMP JUMPDEST PUSH1 0x40 MLOAD DUP1 SWAP2 SUB SWAP1 REVERT JUMPDEST PUSH0 DUP1 DUP12 PUSH1 0x40 MLOAD PUSH2 0x1F1 SWAP2 SWAP1 PUSH2 0x11C3 JUMP JUMPDEST SWAP1 DUP2 MSTORE PUSH1 0x20 ADD PUSH1 0x40 MLOAD DUP1 SWAP2 SUB SWAP1 KECCAK256 PUSH1 0x40 MLOAD DUP1 PUSH1 0xC0 ADD PUSH1 0x40 MSTORE SWAP1 DUP2 PUSH0 DUP3 ADD DUP1 SLOAD PUSH2 0x219 SWAP1 PUSH2 0x1206 JUMP JUMPDEST DUP1 PUSH1 0x1F ADD PUSH1 0x20 DUP1 SWAP2 DIV MUL PUSH1 0x20 ADD PUSH1 0x40 MLOAD SWAP1 DUP2 ADD PUSH1 0x40 MSTORE DUP1 SWAP3 SWAP2 SWAP1 DUP2 DUP2 MSTORE PUSH1 0x20 ADD DUP3 DUP1 SLOAD PUSH2 0x245 SWAP1 PUSH2 0x1206 JUMP JUMPDEST DUP1 ISZERO PUSH2 0x290 JUMPI DUP1 PUSH1 0x1F LT PUSH2 0x267 JUMPI PUSH2 0x100 DUP1 DUP4 SLOAD DIV MUL DUP4 MSTORE SWAP2 PUSH1 0x20 ADD SWAP2 PUSH2 0x290 JUMP JUMPDEST DUP3 ADD SWAP2 SWAP1 PUSH0 MSTORE PUSH1 0x20 PUSH0 KECCAK256 SWAP1 JUMPDEST DUP2 SLOAD DUP2 MSTORE SWAP1 PUSH1 0x1 ADD SWAP1 PUSH1 0x20 ADD DUP1 DUP4 GT PUSH2 0x273 JUMPI DUP3 SWAP1 SUB PUSH1 0x1F AND DUP3 ADD SWAP2 JUMPDEST POP POP POP POP POP DUP2 MSTORE PUSH1 0x20 ADD PUSH1 0x1 DUP3 ADD SLOAD DUP2 MSTORE PUSH1 0x20 ADD PUSH1 0x2 DUP3 ADD SLOAD DUP2 MSTORE PUSH1 0x20 ADD PUSH1 0x3 DUP3 ADD DUP1 SLOAD PUSH2 0x2BD SWAP1 PUSH2 0x1206 JUMP JUMPDEST DUP1 PUSH1 0x1F ADD PUSH1 0x20 DUP1 SWAP2 DIV MUL PUSH1 0x20 ADD PUSH1 0x40 MLOAD SWAP1 DUP2 ADD PUSH1 0x40 MSTORE DUP1 SWAP3 SWAP2 SWAP1 DUP2 DUP2 MSTORE PUSH1 0x20 ADD DUP3 DUP1 SLOAD PUSH2 0x2E9 SWAP1 PUSH2 0x1206 JUMP JUMPDEST DUP1 ISZERO PUSH2 0x334 JUMPI DUP1 PUSH1 0x1F LT PUSH2 0x30B JUMPI PUSH2 0x100 DUP1 DUP4 SLOAD DIV MUL DUP4 MSTORE SWAP2 PUSH1 0x20 ADD SWAP2 PUSH2 0x334 JUMP JUMPDEST DUP3 ADD SWAP2 SWAP1 PUSH0 MSTORE PUSH1 0x20 PUSH0 KECCAK256 SWAP1 JUMPDEST DUP2 SLOAD DUP2 MSTORE SWAP1 PUSH1 0x1 ADD SWAP1 PUSH1 0x20 ADD DUP1 DUP4 GT PUSH2 0x317 JUMPI DUP3 SWAP1 SUB PUSH1 0x1F AND DUP3 ADD SWAP2 JUMPDEST POP POP POP POP POP DUP2 MSTORE PUSH1 0x20 ADD PUSH1 0x4 DUP3 ADD SLOAD DUP2 MSTORE PUSH1 0x20 ADD PUSH1 0x5 DUP3 ADD DUP1 SLOAD PUSH2 0x357 SWAP1 PUSH2 0x1206 JUMP JUMPDEST DUP1 PUSH1 0x1F ADD PUSH1 0x20 DUP1 SWAP2 DIV MUL PUSH1 0x20 ADD PUSH1 0x40 MLOAD SWAP1 DUP2 ADD PUSH1 0x40 MSTORE DUP1 SWAP3 SWAP2 SWAP1 DUP2 DUP2 MSTORE PUSH1 0x20 ADD DUP3 DUP1 SLOAD PUSH2 0x383 SWAP1 PUSH2 0x1206 JUMP JUMPDEST DUP1 ISZERO PUSH2 0x3CE JUMPI DUP1 PUSH1 0x1F LT PUSH2 0x3A5 JUMPI PUSH2 0x100 DUP1 DUP4 SLOAD DIV MUL DUP4 MSTORE SWAP2 PUSH1 0x20 ADD SWAP2 PUSH2 0x3CE JUMP JUMPDEST DUP3 ADD SWAP2 SWAP1 PUSH0 MSTORE PUSH1 0x20 PUSH0 KECCAK256 SWAP1 JUMPDEST DUP2 SLOAD DUP2 MSTORE SWAP1 PUSH1 0x1 ADD SWAP1 PUSH1 0x20 ADD DUP1 DUP4 GT PUSH2 0x3B1 JUMPI DUP3 SWAP1 SUB PUSH1 0x1F AND DUP3 ADD SWAP2 JUMPDEST POP POP POP POP POP DUP2 MSTORE POP POP SWAP1 POP PUSH0 DUP2 PUSH0 ADD MLOAD MLOAD GT ISZERO PUSH2 0x417 JUMPI DUP1 PUSH0 ADD MLOAD SWAP10 POP DUP1 PUSH1 0x20 ADD MLOAD SWAP9 POP DUP1 PUSH1 0x40 ADD MLOAD SWAP8 POP DUP1 PUSH1 0x60 ADD MLOAD SWAP7 POP DUP1 PUSH1 0x80 ADD MLOAD SWAP6 POP DUP1 PUSH1 0xA0 ADD MLOAD SWAP5 POP PUSH1 0x1 SWAP4 POP PUSH2 0x454 JUMP JUMPDEST PUSH1 0x1 SWAP4 POP PUSH1 0x40 MLOAD DUP1 PUSH1 0x40 ADD PUSH1 0x40 MSTORE DUP1 PUSH1 0xD DUP2 MSTORE PUSH1 0x20 ADD PUSH32 0x4E6F204461746120466F756E6400000000000000000000000000000000000000 DUP2 MSTORE POP SWAP3 POP JUMPDEST POP POP SWAP2 SWAP4 SWAP6 SWAP8 POP SWAP2 SWAP4 SWAP6 SWAP8 JUMP JUMPDEST PUSH1 0x2 PUSH0 SWAP1 SLOAD SWAP1 PUSH2 0x100 EXP SWAP1 DIV PUSH20 0xFFFFFFFFFFFFFFFFFFFFFFFFFFFFFFFFFFFFFFFF AND DUP2 JUMP JUMPDEST PUSH0 PUSH1 0x60 CALLER PUSH1 0x2 PUSH0 SWAP1 SLOAD SWAP1 PUSH2 0x100 EXP SWAP1 DIV PUSH20 0xFFFFFFFFFFFFFFFFFFFFFFFFFFFFFFFFFFFFFFFF AND PUSH20 0xFFFFFFFFFFFFFFFFFFFFFFFFFFFFFFFFFFFFFFFF AND DUP2 PUSH20 0xFFFFFFFFFFFFFFFFFFFFFFFFFFFFFFFFFFFFFFFF AND EQ PUSH2 0x519 JUMPI PUSH1 0x40 MLOAD PUSH32 0x8C379A000000000000000000000000000000000000000000000000000000000 DUP2 MSTORE PUSH1 0x4 ADD PUSH2 0x510 SWAP1 PUSH2 0x116B JUMP JUMPDEST PUSH1 0x40 MLOAD DUP1 SWAP2 SUB SWAP1 REVERT JUMPDEST PUSH0 PUSH1 0x40 MLOAD DUP1 PUSH1 0xC0 ADD PUSH1 0x40 MSTORE DUP1 DUP13 DUP2 MSTORE PUSH1 0x20 ADD DUP12 DUP2 MSTORE PUSH1 0x20 ADD DUP11 DUP2 MSTORE PUSH1 0x20 ADD DUP10 DUP2 MSTORE PUSH1 0x20 ADD DUP9 DUP2 MSTORE PUSH1 0x20 ADD DUP8 DUP2 MSTORE POP SWAP1 POP DUP1 PUSH0 DUP7 PUSH1 0x40 MLOAD PUSH2 0x559 SWAP2 SWAP1 PUSH2 0x11C3 JUMP JUMPDEST SWAP1 DUP2 MSTORE PUSH1 0x20 ADD PUSH1 0x40 MLOAD DUP1 SWAP2 SUB SWAP1 KECCAK256 PUSH0 DUP3 ADD MLOAD DUP2 PUSH0 ADD SWAP1 DUP2 PUSH2 0x57A SWAP2 SWAP1 PUSH2 0x13D3 JUMP JUMPDEST POP PUSH1 0x20 DUP3 ADD MLOAD DUP2 PUSH1 0x1 ADD SSTORE PUSH1 0x40 DUP3 ADD MLOAD DUP2 PUSH1 0x2 ADD SSTORE PUSH1 0x60 DUP3 ADD MLOAD DUP2 PUSH1 0x3 ADD SWAP1 DUP2 PUSH2 0x5A4 SWAP2 SWAP1 PUSH2 0x13D3 JUMP JUMPDEST POP PUSH1 0x80 DUP3 ADD MLOAD DUP2 PUSH1 0x4 ADD SSTORE PUSH1 0xA0 DUP3 ADD MLOAD DUP2 PUSH1 0x5 ADD SWAP1 DUP2 PUSH2 0x5C4 SWAP2 SWAP1 PUSH2 0x13D3 JUMP JUMPDEST POP SWAP1 POP POP PUSH1 0x1 SWAP4 POP PUSH1 0x40 MLOAD DUP1 PUSH1 0x40 ADD PUSH1 0x40 MSTORE DUP1 PUSH1 0xF DUP2 MSTORE PUSH1 0x20 ADD PUSH32 0x5570646174656420437265617465640000000000000000000000000000000000 DUP2 MSTORE POP SWAP3 POP POP POP SWAP8 POP SWAP8 SWAP6 POP POP POP POP POP POP JUMP JUMPDEST PUSH0 PUSH1 0x60 CALLER PUSH1 0x2 PUSH0 SWAP1 SLOAD SWAP1 PUSH2 0x100 EXP SWAP1 DIV PUSH20 0xFFFFFFFFFFFFFFFFFFFFFFFFFFFFFFFFFFFFFFFF AND PUSH20 0xFFFFFFFFFFFFFFFFFFFFFFFFFFFFFFFFFFFFFFFF AND DUP2 PUSH20 0xFFFFFFFFFFFFFFFFFFFFFFFFFFFFFFFFFFFFFFFF AND EQ PUSH2 0x6A5 JUMPI PUSH1 0x40 MLOAD PUSH32 0x8C379A000000000000000000000000000000000000000000000000000000000 DUP2 MSTORE PUSH1 0x4 ADD PUSH2 0x69C SWAP1 PUSH2 0x116B JUMP JUMPDEST PUSH1 0x40 MLOAD DUP1 SWAP2 SUB SWAP1 REVERT JUMPDEST PUSH0 PUSH1 0x40 MLOAD DUP1 PUSH1 0xC0 ADD PUSH1 0x40 MSTORE DUP1 DUP12 DUP2 MSTORE PUSH1 0x20 ADD DUP11 DUP2 MSTORE PUSH1 0x20 ADD DUP10 DUP2 MSTORE PUSH1 0x20 ADD DUP9 DUP2 MSTORE PUSH1 0x20 ADD DUP8 DUP2 MSTORE PUSH1 0x20 ADD DUP7 DUP2 MSTORE POP SWAP1 POP PUSH1 0x1 PUSH0 DUP2 SLOAD DUP1 SWAP3 SWAP2 SWAP1 PUSH2 0x6E7 SWAP1 PUSH2 0x14CF JUMP JUMPDEST SWAP2 SWAP1 POP SSTORE POP PUSH0 PUSH2 0x6FA PUSH1 0x1 SLOAD PUSH1 0xA PUSH2 0x9A6 JUMP JUMPDEST SWAP1 POP DUP2 PUSH0 DUP3 PUSH1 0x40 MLOAD PUSH2 0x70C SWAP2 SWAP1 PUSH2 0x11C3 JUMP JUMPDEST SWAP1 DUP2 MSTORE PUSH1 0x20 ADD PUSH1 0x40 MLOAD DUP1 SWAP2 SUB SWAP1 KECCAK256 PUSH0 DUP3 ADD MLOAD DUP2 PUSH0 ADD SWAP1 DUP2 PUSH2 0x72D SWAP2 SWAP1 PUSH2 0x13D3 JUMP JUMPDEST POP PUSH1 0x20 DUP3 ADD MLOAD DUP2 PUSH1 0x1 ADD SSTORE PUSH1 0x40 DUP3 ADD MLOAD DUP2 PUSH1 0x2 ADD SSTORE PUSH1 0x60 DUP3 ADD MLOAD DUP2 PUSH1 0x3 ADD SWAP1 DUP2 PUSH2 0x757 SWAP2 SWAP1 PUSH2 0x13D3 JUMP JUMPDEST POP PUSH1 0x80 DUP3 ADD MLOAD DUP2 PUSH1 0x4 ADD SSTORE PUSH1 0xA0 DUP3 ADD MLOAD DUP2 PUSH1 0x5 ADD SWAP1 DUP2 PUSH2 0x777 SWAP2 SWAP1 PUSH2 0x13D3 JUMP JUMPDEST POP SWAP1 POP POP PUSH1 0x1 SWAP5 POP PUSH1 0x40 MLOAD DUP1 PUSH1 0x40 ADD PUSH1 0x40 MSTORE DUP1 PUSH1 0x14 DUP2 MSTORE PUSH1 0x20 ADD PUSH32 0x5375636365737366756C6C792043726561746564000000000000000000000000 DUP2 MSTORE POP SWAP4 POP POP POP POP SWAP7 POP SWAP7 SWAP5 POP POP POP POP POP JUMP JUMPDEST PUSH0 DUP2 DUP1 MLOAD PUSH1 0x20 DUP2 ADD DUP3 ADD DUP1 MLOAD DUP5 DUP3 MSTORE PUSH1 0x20 DUP4 ADD PUSH1 0x20 DUP6 ADD KECCAK256 DUP2 DUP4 MSTORE DUP1 SWAP6 POP POP POP POP POP POP PUSH0 SWAP2 POP SWAP1 POP DUP1 PUSH0 ADD DUP1 SLOAD PUSH2 0x7FB SWAP1 PUSH2 0x1206 JUMP JUMPDEST DUP1 PUSH1 0x1F ADD PUSH1 0x20 DUP1 SWAP2 DIV MUL PUSH1 0x20 ADD PUSH1 0x40 MLOAD SWAP1 DUP2 ADD PUSH1 0x40 MSTORE DUP1 SWAP3 SWAP2 SWAP1 DUP2 DUP2 MSTORE PUSH1 0x20 ADD DUP3 DUP1 SLOAD PUSH2 0x827 SWAP1 PUSH2 0x1206 JUMP JUMPDEST DUP1 ISZERO PUSH2 0x872 JUMPI DUP1 PUSH1 0x1F LT PUSH2 0x849 JUMPI PUSH2 0x100 DUP1 DUP4 SLOAD DIV MUL DUP4 MSTORE SWAP2 PUSH1 0x20 ADD SWAP2 PUSH2 0x872 JUMP JUMPDEST DUP3 ADD SWAP2 SWAP1 PUSH0 MSTORE PUSH1 0x20 PUSH0 KECCAK256 SWAP1 JUMPDEST DUP2 SLOAD DUP2 MSTORE SWAP1 PUSH1 0x1 ADD SWAP1 PUSH1 0x20 ADD DUP1 DUP4 GT PUSH2 0x855 JUMPI DUP3 SWAP1 SUB PUSH1 0x1F AND DUP3 ADD SWAP2 JUMPDEST POP POP POP POP POP SWAP1 DUP1 PUSH1 0x1 ADD SLOAD SWAP1 DUP1 PUSH1 0x2 ADD SLOAD SWAP1 DUP1 PUSH1 0x3 ADD DUP1 SLOAD PUSH2 0x893 SWAP1 PUSH2 0x1206 JUMP JUMPDEST DUP1 PUSH1 0x1F ADD PUSH1 0x20 DUP1 SWAP2 DIV MUL PUSH1 0x20 ADD PUSH1 0x40 MLOAD SWAP1 DUP2 ADD PUSH1 0x40 MSTORE DUP1 SWAP3 SWAP2 SWAP1 DUP2 DUP2 MSTORE PUSH1 0x20 ADD DUP3 DUP1 SLOAD PUSH2 0x8BF SWAP1 PUSH2 0x1206 JUMP JUMPDEST DUP1 ISZERO PUSH2 0x90A JUMPI DUP1 PUSH1 0x1F LT PUSH2 0x8E1 JUMPI PUSH2 0x100 DUP1 DUP4 SLOAD DIV MUL DUP4 MSTORE SWAP2 PUSH1 0x20 ADD SWAP2 PUSH2 0x90A JUMP JUMPDEST DUP3 ADD SWAP2 SWAP1 PUSH0 MSTORE PUSH1 0x20 PUSH0 KECCAK256 SWAP1 JUMPDEST DUP2 SLOAD DUP2 MSTORE SWAP1 PUSH1 0x1 ADD SWAP1 PUSH1 0x20 ADD DUP1 DUP4 GT PUSH2 0x8ED JUMPI DUP3 SWAP1 SUB PUSH1 0x1F AND DUP3 ADD SWAP2 JUMPDEST POP POP POP POP POP SWAP1 DUP1 PUSH1 0x4 ADD SLOAD SWAP1 DUP1 PUSH1 0x5 ADD DUP1 SLOAD PUSH2 0x925 SWAP1 PUSH2 0x1206 JUMP JUMPDEST DUP1 PUSH1 0x1F ADD PUSH1 0x20 DUP1 SWAP2 DIV MUL PUSH1 0x20 ADD PUSH1 0x40 MLOAD SWAP1 DUP2 ADD PUSH1 0x40 MSTORE DUP1 SWAP3 SWAP2 SWAP1 DUP2 DUP2 MSTORE PUSH1 0x20 ADD DUP3 DUP1 SLOAD PUSH2 0x951 SWAP1 PUSH2 0x1206 JUMP JUMPDEST DUP1 ISZERO PUSH2 0x99C JUMPI DUP1 PUSH1 0x1F LT PUSH2 0x973 JUMPI PUSH2 0x100 DUP1 DUP4 SLOAD DIV MUL DUP4 MSTORE SWAP2 PUSH1 0x20 ADD SWAP2 PUSH2 0x99C JUMP JUMPDEST DUP3 ADD SWAP2 SWAP1 PUSH0 MSTORE PUSH1 0x20 PUSH0 KECCAK256 SWAP1 JUMPDEST DUP2 SLOAD DUP2 MSTORE SWAP1 PUSH1 0x1 ADD SWAP1 PUSH1 0x20 ADD DUP1 DUP4 GT PUSH2 0x97F JUMPI DUP3 SWAP1 SUB PUSH1 0x1F AND DUP3 ADD SWAP2 JUMPDEST POP POP POP POP POP SWAP1 POP DUP7 JUMP JUMPDEST PUSH1 0x60 PUSH0 DUP3 PUSH8 0xFFFFFFFFFFFFFFFF DUP2 GT ISZERO PUSH2 0x9C3 JUMPI PUSH2 0x9C2 PUSH2 0xAC4 JUMP JUMPDEST JUMPDEST PUSH1 0x40 MLOAD SWAP1 DUP1 DUP3 MSTORE DUP1 PUSH1 0x1F ADD PUSH1 0x1F NOT AND PUSH1 0x20 ADD DUP3 ADD PUSH1 0x40 MSTORE DUP1 ISZERO PUSH2 0x9F5 JUMPI DUP2 PUSH1 0x20 ADD PUSH1 0x1 DUP3 MUL DUP1 CALLDATASIZE DUP4 CALLDATACOPY DUP1 DUP3 ADD SWAP2 POP POP SWAP1 POP JUMPDEST POP SWAP1 POP PUSH0 DUP4 SWAP1 POP JUMPDEST PUSH0 DUP2 GT ISZERO PUSH2 0xA90 JUMPI PUSH1 0xA DUP6 PUSH2 0xA12 SWAP2 SWAP1 PUSH2 0x1543 JUMP JUMPDEST PUSH1 0x30 PUSH2 0xA1E SWAP2 SWAP1 PUSH2 0x1573 JUMP JUMPDEST PUSH1 0xF8 SHL DUP3 PUSH1 0x1 DUP4 PUSH2 0xA2F SWAP2 SWAP1 PUSH2 0x15A6 JUMP JUMPDEST DUP2 MLOAD DUP2 LT PUSH2 0xA40 JUMPI PUSH2 0xA3F PUSH2 0x15D9 JUMP JUMPDEST JUMPDEST PUSH1 0x20 ADD ADD SWAP1 PUSH31 0xFFFFFFFFFFFFFFFFFFFFFFFFFFFFFFFFFFFFFFFFFFFFFFFFFFFFFFFFFFFFFF NOT AND SWAP1 DUP2 PUSH0 BYTE SWAP1 MSTORE8 POP PUSH1 0xA DUP6 PUSH2 0xA7B SWAP2 SWAP1 PUSH2 0x1606 JUMP JUMPDEST SWAP5 POP DUP1 DUP1 PUSH2 0xA88 SWAP1 PUSH2 0x1636 JUMP JUMPDEST SWAP2 POP POP PUSH2 0x9FD JUMP JUMPDEST POP DUP1 SWAP2 POP POP SWAP3 SWAP2 POP POP JUMP JUMPDEST PUSH0 PUSH1 0x40 MLOAD SWAP1 POP SWAP1 JUMP JUMPDEST PUSH0 DUP1 REVERT JUMPDEST PUSH0 DUP1 REVERT JUMPDEST PUSH0 DUP1 REVERT JUMPDEST PUSH0 DUP1 REVERT JUMPDEST PUSH0 PUSH1 0x1F NOT PUSH1 0x1F DUP4 ADD AND SWAP1 POP SWAP2 SWAP1 POP JUMP JUMPDEST PUSH32 0x4E487B7100000000000000000000000000000000000000000000000000000000 PUSH0 MSTORE PUSH1 0x41 PUSH1 0x4 MSTORE PUSH1 0x24 PUSH0 REVERT JUMPDEST PUSH2 0xAFA DUP3 PUSH2 0xAB4 JUMP JUMPDEST DUP2 ADD DUP2 DUP2 LT PUSH8 0xFFFFFFFFFFFFFFFF DUP3 GT OR ISZERO PUSH2 0xB19 JUMPI PUSH2 0xB18 PUSH2 0xAC4 JUMP JUMPDEST JUMPDEST DUP1 PUSH1 0x40 MSTORE POP POP POP JUMP JUMPDEST PUSH0 PUSH2 0xB2B PUSH2 0xA9B JUMP JUMPDEST SWAP1 POP PUSH2 0xB37 DUP3 DUP3 PUSH2 0xAF1 JUMP JUMPDEST SWAP2 SWAP1 POP JUMP JUMPDEST PUSH0 PUSH8 0xFFFFFFFFFFFFFFFF DUP3 GT ISZERO PUSH2 0xB56 JUMPI PUSH2 0xB55 PUSH2 0xAC4 JUMP JUMPDEST JUMPDEST PUSH2 0xB5F DUP3 PUSH2 0xAB4 JUMP JUMPDEST SWAP1 POP PUSH1 0x20 DUP2 ADD SWAP1 POP SWAP2 SWAP1 POP JUMP JUMPDEST DUP3 DUP2 DUP4 CALLDATACOPY PUSH0 DUP4 DUP4 ADD MSTORE POP POP POP JUMP JUMPDEST PUSH0 PUSH2 0xB8C PUSH2 0xB87 DUP5 PUSH2 0xB3C JUMP JUMPDEST PUSH2 0xB22 JUMP JUMPDEST SWAP1 POP DUP3 DUP2 MSTORE PUSH1 0x20 DUP2 ADD DUP5 DUP5 DUP5 ADD GT ISZERO PUSH2 0xBA8 JUMPI PUSH2 0xBA7 PUSH2 0xAB0 JUMP JUMPDEST JUMPDEST PUSH2 0xBB3 DUP5 DUP3 DUP6 PUSH2 0xB6C JUMP JUMPDEST POP SWAP4 SWAP3 POP POP POP JUMP JUMPDEST PUSH0 DUP3 PUSH1 0x1F DUP4 ADD SLT PUSH2 0xBCF JUMPI PUSH2 0xBCE PUSH2 0xAAC JUMP JUMPDEST JUMPDEST DUP2 CALLDATALOAD PUSH2 0xBDF DUP5 DUP3 PUSH1 0x20 DUP7 ADD PUSH2 0xB7A JUMP JUMPDEST SWAP2 POP POP SWAP3 SWAP2 POP POP JUMP JUMPDEST PUSH0 PUSH1 0x20 DUP3 DUP5 SUB SLT ISZERO PUSH2 0xBFD JUMPI PUSH2 0xBFC PUSH2 0xAA4 JUMP JUMPDEST JUMPDEST PUSH0 DUP3 ADD CALLDATALOAD PUSH8 0xFFFFFFFFFFFFFFFF DUP2 GT ISZERO PUSH2 0xC1A JUMPI PUSH2 0xC19 PUSH2 0xAA8 JUMP JUMPDEST JUMPDEST PUSH2 0xC26 DUP5 DUP3 DUP6 ADD PUSH2 0xBBB JUMP JUMPDEST SWAP2 POP POP SWAP3 SWAP2 POP POP JUMP JUMPDEST PUSH0 DUP2 MLOAD SWAP1 POP SWAP2 SWAP1 POP JUMP JUMPDEST PUSH0 DUP3 DUP3 MSTORE PUSH1 0x20 DUP3 ADD SWAP1 POP SWAP3 SWAP2 POP POP JUMP JUMPDEST DUP3 DUP2 DUP4 MCOPY PUSH0 DUP4 DUP4 ADD MSTORE POP POP POP JUMP JUMPDEST PUSH0 PUSH2 0xC61 DUP3 PUSH2 0xC2F JUMP JUMPDEST PUSH2 0xC6B DUP2 DUP6 PUSH2 0xC39 JUMP JUMPDEST SWAP4 POP PUSH2 0xC7B DUP2 DUP6 PUSH1 0x20 DUP7 ADD PUSH2 0xC49 JUMP JUMPDEST PUSH2 0xC84 DUP2 PUSH2 0xAB4 JUMP JUMPDEST DUP5 ADD SWAP2 POP POP SWAP3 SWAP2 POP POP JUMP JUMPDEST PUSH0 DUP2 SWAP1 POP SWAP2 SWAP1 POP JUMP JUMPDEST PUSH2 0xCA1 DUP2 PUSH2 0xC8F JUMP JUMPDEST DUP3 MSTORE POP POP JUMP JUMPDEST PUSH0 DUP2 SWAP1 POP SWAP2 SWAP1 POP JUMP JUMPDEST PUSH2 0xCB9 DUP2 PUSH2 0xCA7 JUMP JUMPDEST DUP3 MSTORE POP POP JUMP JUMPDEST PUSH0 DUP2 ISZERO ISZERO SWAP1 POP SWAP2 SWAP1 POP JUMP JUMPDEST PUSH2 0xCD3 DUP2 PUSH2 0xCBF JUMP JUMPDEST DUP3 MSTORE POP POP JUMP JUMPDEST PUSH0 PUSH2 0x100 DUP3 ADD SWAP1 POP DUP2 DUP2 SUB PUSH0 DUP4 ADD MSTORE PUSH2 0xCF2 DUP2 DUP12 PUSH2 0xC57 JUMP JUMPDEST SWAP1 POP PUSH2 0xD01 PUSH1 0x20 DUP4 ADD DUP11 PUSH2 0xC98 JUMP JUMPDEST PUSH2 0xD0E PUSH1 0x40 DUP4 ADD DUP10 PUSH2 0xC98 JUMP JUMPDEST DUP2 DUP2 SUB PUSH1 0x60 DUP4 ADD MSTORE PUSH2 0xD20 DUP2 DUP9 PUSH2 0xC57 JUMP JUMPDEST SWAP1 POP PUSH2 0xD2F PUSH1 0x80 DUP4 ADD DUP8 PUSH2 0xCB0 JUMP JUMPDEST DUP2 DUP2 SUB PUSH1 0xA0 DUP4 ADD MSTORE PUSH2 0xD41 DUP2 DUP7 PUSH2 0xC57 JUMP JUMPDEST SWAP1 POP PUSH2 0xD50 PUSH1 0xC0 DUP4 ADD DUP6 PUSH2 0xCCA JUMP JUMPDEST DUP2 DUP2 SUB PUSH1 0xE0 DUP4 ADD MSTORE PUSH2 0xD62 DUP2 DUP5 PUSH2 0xC57 JUMP JUMPDEST SWAP1 POP SWAP10 SWAP9 POP POP POP POP POP POP POP POP POP JUMP JUMPDEST PUSH0 PUSH20 0xFFFFFFFFFFFFFFFFFFFFFFFFFFFFFFFFFFFFFFFF DUP3 AND SWAP1 POP SWAP2 SWAP1 POP JUMP JUMPDEST PUSH0 PUSH2 0xD9A DUP3 PUSH2 0xD71 JUMP JUMPDEST SWAP1 POP SWAP2 SWAP1 POP JUMP JUMPDEST PUSH2 0xDAA DUP2 PUSH2 0xD90 JUMP JUMPDEST DUP3 MSTORE POP POP JUMP JUMPDEST PUSH0 PUSH1 0x20 DUP3 ADD SWAP1 POP PUSH2 0xDC3 PUSH0 DUP4 ADD DUP5 PUSH2 0xDA1 JUMP JUMPDEST SWAP3 SWAP2 POP POP JUMP JUMPDEST PUSH2 0xDD2 DUP2 PUSH2 0xC8F JUMP JUMPDEST DUP2 EQ PUSH2 0xDDC JUMPI PUSH0 DUP1 REVERT JUMPDEST POP JUMP JUMPDEST PUSH0 DUP2 CALLDATALOAD SWAP1 POP PUSH2 0xDED DUP2 PUSH2 0xDC9 JUMP JUMPDEST SWAP3 SWAP2 POP POP JUMP JUMPDEST PUSH2 0xDFC DUP2 PUSH2 0xCA7 JUMP JUMPDEST DUP2 EQ PUSH2 0xE06 JUMPI PUSH0 DUP1 REVERT JUMPDEST POP JUMP JUMPDEST PUSH0 DUP2 CALLDATALOAD SWAP1 POP PUSH2 0xE17 DUP2 PUSH2 0xDF3 JUMP JUMPDEST SWAP3 SWAP2 POP POP JUMP JUMPDEST PUSH0 DUP1 PUSH0 DUP1 PUSH0 DUP1 PUSH0 PUSH1 0xE0 DUP9 DUP11 SUB SLT ISZERO PUSH2 0xE38 JUMPI PUSH2 0xE37 PUSH2 0xAA4 JUMP JUMPDEST JUMPDEST PUSH0 DUP9 ADD CALLDATALOAD PUSH8 0xFFFFFFFFFFFFFFFF DUP2 GT ISZERO PUSH2 0xE55 JUMPI PUSH2 0xE54 PUSH2 0xAA8 JUMP JUMPDEST JUMPDEST PUSH2 0xE61 DUP11 DUP3 DUP12 ADD PUSH2 0xBBB JUMP JUMPDEST SWAP8 POP POP PUSH1 0x20 PUSH2 0xE72 DUP11 DUP3 DUP12 ADD PUSH2 0xDDF JUMP JUMPDEST SWAP7 POP POP PUSH1 0x40 PUSH2 0xE83 DUP11 DUP3 DUP12 ADD PUSH2 0xDDF JUMP JUMPDEST SWAP6 POP POP PUSH1 0x60 DUP9 ADD CALLDATALOAD PUSH8 0xFFFFFFFFFFFFFFFF DUP2 GT ISZERO PUSH2 0xEA4 JUMPI PUSH2 0xEA3 PUSH2 0xAA8 JUMP JUMPDEST JUMPDEST PUSH2 0xEB0 DUP11 DUP3 DUP12 ADD PUSH2 0xBBB JUMP JUMPDEST SWAP5 POP POP PUSH1 0x80 PUSH2 0xEC1 DUP11 DUP3 DUP12 ADD PUSH2 0xE09 JUMP JUMPDEST SWAP4 POP POP PUSH1 0xA0 DUP9 ADD CALLDATALOAD PUSH8 0xFFFFFFFFFFFFFFFF DUP2 GT ISZERO PUSH2 0xEE2 JUMPI PUSH2 0xEE1 PUSH2 0xAA8 JUMP JUMPDEST JUMPDEST PUSH2 0xEEE DUP11 DUP3 DUP12 ADD PUSH2 0xBBB JUMP JUMPDEST SWAP3 POP POP PUSH1 0xC0 DUP9 ADD CALLDATALOAD PUSH8 0xFFFFFFFFFFFFFFFF DUP2 GT ISZERO PUSH2 0xF0F JUMPI PUSH2 0xF0E PUSH2 0xAA8 JUMP JUMPDEST JUMPDEST PUSH2 0xF1B DUP11 DUP3 DUP12 ADD PUSH2 0xBBB JUMP JUMPDEST SWAP2 POP POP SWAP3 SWAP6 SWAP9 SWAP2 SWAP5 SWAP8 POP SWAP3 SWAP6 POP JUMP JUMPDEST PUSH0 PUSH1 0x40 DUP3 ADD SWAP1 POP PUSH2 0xF3D PUSH0 DUP4 ADD DUP6 PUSH2 0xCCA JUMP JUMPDEST DUP2 DUP2 SUB PUSH1 0x20 DUP4 ADD MSTORE PUSH2 0xF4F DUP2 DUP5 PUSH2 0xC57 JUMP JUMPDEST SWAP1 POP SWAP4 SWAP3 POP POP POP JUMP JUMPDEST PUSH0 DUP1 PUSH0 DUP1 PUSH0 DUP1 PUSH1 0xC0 DUP8 DUP10 SUB SLT ISZERO PUSH2 0xF72 JUMPI PUSH2 0xF71 PUSH2 0xAA4 JUMP JUMPDEST JUMPDEST PUSH0 DUP8 ADD CALLDATALOAD PUSH8 0xFFFFFFFFFFFFFFFF DUP2 GT ISZERO PUSH2 0xF8F JUMPI PUSH2 0xF8E PUSH2 0xAA8 JUMP JUMPDEST JUMPDEST PUSH2 0xF9B DUP10 DUP3 DUP11 ADD PUSH2 0xBBB JUMP JUMPDEST SWAP7 POP POP PUSH1 0x20 PUSH2 0xFAC DUP10 DUP3 DUP11 ADD PUSH2 0xDDF JUMP JUMPDEST SWAP6 POP POP PUSH1 0x40 PUSH2 0xFBD DUP10 DUP3 DUP11 ADD PUSH2 0xDDF JUMP JUMPDEST SWAP5 POP POP PUSH1 0x60 DUP8 ADD CALLDATALOAD PUSH8 0xFFFFFFFFFFFFFFFF DUP2 GT ISZERO PUSH2 0xFDE JUMPI PUSH2 0xFDD PUSH2 0xAA8 JUMP JUMPDEST JUMPDEST PUSH2 0xFEA DUP10 DUP3 DUP11 ADD PUSH2 0xBBB JUMP JUMPDEST SWAP4 POP POP PUSH1 0x80 PUSH2 0xFFB DUP10 DUP3 DUP11 ADD PUSH2 0xE09 JUMP JUMPDEST SWAP3 POP POP PUSH1 0xA0 DUP8 ADD CALLDATALOAD PUSH8 0xFFFFFFFFFFFFFFFF DUP2 GT ISZERO PUSH2 0x101C JUMPI PUSH2 0x101B PUSH2 0xAA8 JUMP JUMPDEST JUMPDEST PUSH2 0x1028 DUP10 DUP3 DUP11 ADD PUSH2 0xBBB JUMP JUMPDEST SWAP2 POP POP SWAP3 SWAP6 POP SWAP3 SWAP6 POP SWAP3 SWAP6 JUMP JUMPDEST PUSH0 DUP2 MLOAD SWAP1 POP SWAP2 SWAP1 POP JUMP JUMPDEST PUSH0 DUP3 DUP3 MSTORE PUSH1 0x20 DUP3 ADD SWAP1 POP SWAP3 SWAP2 POP POP JUMP JUMPDEST PUSH0 PUSH2 0x1059 DUP3 PUSH2 0x1035 JUMP JUMPDEST PUSH2 0x1063 DUP2 DUP6 PUSH2 0x103F JUMP JUMPDEST SWAP4 POP PUSH2 0x1073 DUP2 DUP6 PUSH1 0x20 DUP7 ADD PUSH2 0xC49 JUMP JUMPDEST PUSH2 0x107C DUP2 PUSH2 0xAB4 JUMP JUMPDEST DUP5 ADD SWAP2 POP POP SWAP3 SWAP2 POP POP JUMP JUMPDEST PUSH0 PUSH1 0xC0 DUP3 ADD SWAP1 POP DUP2 DUP2 SUB PUSH0 DUP4 ADD MSTORE PUSH2 0x109F DUP2 DUP10 PUSH2 0x104F JUMP JUMPDEST SWAP1 POP PUSH2 0x10AE PUSH1 0x20 DUP4 ADD DUP9 PUSH2 0xC98 JUMP JUMPDEST PUSH2 0x10BB PUSH1 0x40 DUP4 ADD DUP8 PUSH2 0xC98 JUMP JUMPDEST DUP2 DUP2 SUB PUSH1 0x60 DUP4 ADD MSTORE PUSH2 0x10CD DUP2 DUP7 PUSH2 0x104F JUMP JUMPDEST SWAP1 POP PUSH2 0x10DC PUSH1 0x80 DUP4 ADD DUP6 PUSH2 0xCB0 JUMP JUMPDEST DUP2 DUP2 SUB PUSH1 0xA0 DUP4 ADD MSTORE PUSH2 0x10EE DUP2 DUP5 PUSH2 0x104F JUMP JUMPDEST SWAP1 POP SWAP8 SWAP7 POP POP POP POP POP POP POP JUMP JUMPDEST PUSH32 0x596F7520617265206E6F7420616C6C6F77656420746F206D616E7570756C6174 PUSH0 DUP3 ADD MSTORE PUSH32 0x6500000000000000000000000000000000000000000000000000000000000000 PUSH1 0x20 DUP3 ADD MSTORE POP JUMP JUMPDEST PUSH0 PUSH2 0x1155 PUSH1 0x21 DUP4 PUSH2 0xC39 JUMP JUMPDEST SWAP2 POP PUSH2 0x1160 DUP3 PUSH2 0x10FB JUMP JUMPDEST PUSH1 0x40 DUP3 ADD SWAP1 POP SWAP2 SWAP1 POP JUMP JUMPDEST PUSH0 PUSH1 0x20 DUP3 ADD SWAP1 POP DUP2 DUP2 SUB PUSH0 DUP4 ADD MSTORE PUSH2 0x1182 DUP2 PUSH2 0x1149 JUMP JUMPDEST SWAP1 POP SWAP2 SWAP1 POP JUMP JUMPDEST PUSH0 DUP2 SWAP1 POP SWAP3 SWAP2 POP POP JUMP JUMPDEST PUSH0 PUSH2 0x119D DUP3 PUSH2 0xC2F JUMP JUMPDEST PUSH2 0x11A7 DUP2 DUP6 PUSH2 0x1189 JUMP JUMPDEST SWAP4 POP PUSH2 0x11B7 DUP2 DUP6 PUSH1 0x20 DUP7 ADD PUSH2 0xC49 JUMP JUMPDEST DUP1 DUP5 ADD SWAP2 POP POP SWAP3 SWAP2 POP POP JUMP JUMPDEST PUSH0 PUSH2 0x11CE DUP3 DUP5 PUSH2 0x1193 JUMP JUMPDEST SWAP2 POP DUP2 SWAP1 POP SWAP3 SWAP2 POP POP JUMP JUMPDEST PUSH32 0x4E487B7100000000000000000000000000000000000000000000000000000000 PUSH0 MSTORE PUSH1 0x22 PUSH1 0x4 MSTORE PUSH1 0x24 PUSH0 REVERT JUMPDEST PUSH0 PUSH1 0x2 DUP3 DIV SWAP1 POP PUSH1 0x1 DUP3 AND DUP1 PUSH2 0x121D JUMPI PUSH1 0x7F DUP3 AND SWAP2 POP JUMPDEST PUSH1 0x20 DUP3 LT DUP2 SUB PUSH2 0x1230 JUMPI PUSH2 0x122F PUSH2 0x11D9 JUMP JUMPDEST JUMPDEST POP SWAP2 SWAP1 POP JUMP JUMPDEST PUSH0 DUP2 SWAP1 POP DUP2 PUSH0 MSTORE PUSH1 0x20 PUSH0 KECCAK256 SWAP1 POP SWAP2 SWAP1 POP JUMP JUMPDEST PUSH0 PUSH1 0x20 PUSH1 0x1F DUP4 ADD DIV SWAP1 POP SWAP2 SWAP1 POP JUMP JUMPDEST PUSH0 DUP3 DUP3 SHL SWAP1 POP SWAP3 SWAP2 POP POP JUMP JUMPDEST PUSH0 PUSH1 0x8 DUP4 MUL PUSH2 0x1292 PUSH32 0xFFFFFFFFFFFFFFFFFFFFFFFFFFFFFFFFFFFFFFFFFFFFFFFFFFFFFFFFFFFFFFFF DUP3 PUSH2 0x1257 JUMP JUMPDEST PUSH2 0x129C DUP7 DUP4 PUSH2 0x1257 JUMP JUMPDEST SWAP6 POP DUP1 NOT DUP5 AND SWAP4 POP DUP1 DUP7 AND DUP5 OR SWAP3 POP POP POP SWAP4 SWAP3 POP POP POP JUMP JUMPDEST PUSH0 DUP2 SWAP1 POP SWAP2 SWAP1 POP JUMP JUMPDEST PUSH0 PUSH2 0x12D7 PUSH2 0x12D2 PUSH2 0x12CD DUP5 PUSH2 0xC8F JUMP JUMPDEST PUSH2 0x12B4 JUMP JUMPDEST PUSH2 0xC8F JUMP JUMPDEST SWAP1 POP SWAP2 SWAP1 POP JUMP JUMPDEST PUSH0 DUP2 SWAP1 POP SWAP2 SWAP1 POP JUMP JUMPDEST PUSH2 0x12F0 DUP4 PUSH2 0x12BD JUMP JUMPDEST PUSH2 0x1304 PUSH2 0x12FC DUP3 PUSH2 0x12DE JUMP JUMPDEST DUP5 DUP5 SLOAD PUSH2 0x1263 JUMP JUMPDEST DUP3 SSTORE POP POP POP POP JUMP JUMPDEST PUSH0 SWAP1 JUMP JUMPDEST PUSH2 0x1318 PUSH2 0x130C JUMP JUMPDEST PUSH2 0x1323 DUP2 DUP5 DUP5 PUSH2 0x12E7 JUMP JUMPDEST POP POP POP JUMP JUMPDEST JUMPDEST DUP2 DUP2 LT ISZERO PUSH2 0x1346 JUMPI PUSH2 0x133B PUSH0 DUP3 PUSH2 0x1310 JUMP JUMPDEST PUSH1 0x1 DUP2 ADD SWAP1 POP PUSH2 0x1329 JUMP JUMPDEST POP POP JUMP JUMPDEST PUSH1 0x1F DUP3 GT ISZERO PUSH2 0x138B JUMPI PUSH2 0x135C DUP2 PUSH2 0x1236 JUMP JUMPDEST PUSH2 0x1365 DUP5 PUSH2 0x1248 JUMP JUMPDEST DUP2 ADD PUSH1 0x20 DUP6 LT ISZERO PUSH2 0x1374 JUMPI DUP2 SWAP1 POP JUMPDEST PUSH2 0x1388 PUSH2 0x1380 DUP6 PUSH2 0x1248 JUMP JUMPDEST DUP4 ADD DUP3 PUSH2 0x1328 JUMP JUMPDEST POP POP JUMPDEST POP POP POP JUMP JUMPDEST PUSH0 DUP3 DUP3 SHR SWAP1 POP SWAP3 SWAP2 POP POP JUMP JUMPDEST PUSH0 PUSH2 0x13AB PUSH0 NOT DUP5 PUSH1 0x8 MUL PUSH2 0x1390 JUMP JUMPDEST NOT DUP1 DUP4 AND SWAP2 POP POP SWAP3 SWAP2 POP POP JUMP JUMPDEST PUSH0 PUSH2 0x13C3 DUP4 DUP4 PUSH2 0x139C JUMP JUMPDEST SWAP2 POP DUP3 PUSH1 0x2 MUL DUP3 OR SWAP1 POP SWAP3 SWAP2 POP POP JUMP JUMPDEST PUSH2 0x13DC DUP3 PUSH2 0x1035 JUMP JUMPDEST PUSH8 0xFFFFFFFFFFFFFFFF DUP2 GT ISZERO PUSH2 0x13F5 JUMPI PUSH2 0x13F4 PUSH2 0xAC4 JUMP JUMPDEST JUMPDEST PUSH2 0x13FF DUP3 SLOAD PUSH2 0x1206 JUMP JUMPDEST PUSH2 0x140A DUP3 DUP3 DUP6 PUSH2 0x134A JUMP JUMPDEST PUSH0 PUSH1 0x20 SWAP1 POP PUSH1 0x1F DUP4 GT PUSH1 0x1 DUP2 EQ PUSH2 0x143B JUMPI PUSH0 DUP5 ISZERO PUSH2 0x1429 JUMPI DUP3 DUP8 ADD MLOAD SWAP1 POP JUMPDEST PUSH2 0x1433 DUP6 DUP3 PUSH2 0x13B8 JUMP JUMPDEST DUP7 SSTORE POP PUSH2 0x149A JUMP JUMPDEST PUSH1 0x1F NOT DUP5 AND PUSH2 0x1449 DUP7 PUSH2 0x1236 JUMP JUMPDEST PUSH0 JUMPDEST DUP3 DUP2 LT ISZERO PUSH2 0x1470 JUMPI DUP5 DUP10 ADD MLOAD DUP3 SSTORE PUSH1 0x1 DUP3 ADD SWAP2 POP PUSH1 0x20 DUP6 ADD SWAP5 POP PUSH1 0x20 DUP2 ADD SWAP1 POP PUSH2 0x144B JUMP JUMPDEST DUP7 DUP4 LT ISZERO PUSH2 0x148D JUMPI DUP5 DUP10 ADD MLOAD PUSH2 0x1489 PUSH1 0x1F DUP10 AND DUP3 PUSH2 0x139C JUMP JUMPDEST DUP4 SSTORE POP JUMPDEST PUSH1 0x1 PUSH1 0x2 DUP9 MUL ADD DUP9 SSTORE POP POP POP JUMPDEST POP POP POP POP POP POP JUMP JUMPDEST PUSH32 0x4E487B7100000000000000000000000000000000000000000000000000000000 PUSH0 MSTORE PUSH1 0x11 PUSH1 0x4 MSTORE PUSH1 0x24 PUSH0 REVERT JUMPDEST PUSH0 PUSH2 0x14D9 DUP3 PUSH2 0xC8F JUMP JUMPDEST SWAP2 POP PUSH32 0xFFFFFFFFFFFFFFFFFFFFFFFFFFFFFFFFFFFFFFFFFFFFFFFFFFFFFFFFFFFFFFFF DUP3 SUB PUSH2 0x150B JUMPI PUSH2 0x150A PUSH2 0x14A2 JUMP JUMPDEST JUMPDEST PUSH1 0x1 DUP3 ADD SWAP1 POP SWAP2 SWAP1 POP JUMP JUMPDEST PUSH32 0x4E487B7100000000000000000000000000000000000000000000000000000000 PUSH0 MSTORE PUSH1 0x12 PUSH1 0x4 MSTORE PUSH1 0x24 PUSH0 REVERT JUMPDEST PUSH0 PUSH2 0x154D DUP3 PUSH2 0xC8F JUMP JUMPDEST SWAP2 POP PUSH2 0x1558 DUP4 PUSH2 0xC8F JUMP JUMPDEST SWAP3 POP DUP3 PUSH2 0x1568 JUMPI PUSH2 0x1567 PUSH2 0x1516 JUMP JUMPDEST JUMPDEST DUP3 DUP3 MOD SWAP1 POP SWAP3 SWAP2 POP POP JUMP JUMPDEST PUSH0 PUSH2 0x157D DUP3 PUSH2 0xC8F JUMP JUMPDEST SWAP2 POP PUSH2 0x1588 DUP4 PUSH2 0xC8F JUMP JUMPDEST SWAP3 POP DUP3 DUP3 ADD SWAP1 POP DUP1 DUP3 GT ISZERO PUSH2 0x15A0 JUMPI PUSH2 0x159F PUSH2 0x14A2 JUMP JUMPDEST JUMPDEST SWAP3 SWAP2 POP POP JUMP JUMPDEST PUSH0 PUSH2 0x15B0 DUP3 PUSH2 0xC8F JUMP JUMPDEST SWAP2 POP PUSH2 0x15BB DUP4 PUSH2 0xC8F JUMP JUMPDEST SWAP3 POP DUP3 DUP3 SUB SWAP1 POP DUP2 DUP2 GT ISZERO PUSH2 0x15D3 JUMPI PUSH2 0x15D2 PUSH2 0x14A2 JUMP JUMPDEST JUMPDEST SWAP3 SWAP2 POP POP JUMP JUMPDEST PUSH32 0x4E487B7100000000000000000000000000000000000000000000000000000000 PUSH0 MSTORE PUSH1 0x32 PUSH1 0x4 MSTORE PUSH1 0x24 PUSH0 REVERT JUMPDEST PUSH0 PUSH2 0x1610 DUP3 PUSH2 0xC8F JUMP JUMPDEST SWAP2 POP PUSH2 0x161B DUP4 PUSH2 0xC8F JUMP JUMPDEST SWAP3 POP DUP3 PUSH2 0x162B JUMPI PUSH2 0x162A PUSH2 0x1516 JUMP JUMPDEST JUMPDEST DUP3 DUP3 DIV SWAP1 POP SWAP3 SWAP2 POP POP JUMP JUMPDEST PUSH0 PUSH2 0x1640 DUP3 PUSH2 0xC8F JUMP JUMPDEST SWAP2 POP PUSH0 DUP3 SUB PUSH2 0x1652 JUMPI PUSH2 0x1651 PUSH2 0x14A2 JUMP JUMPDEST JUMPDEST PUSH1 0x1 DUP3 SUB SWAP1 POP SWAP2 SWAP1 POP JUMP INVALID LOG2 PUSH5 0x6970667358 0x22 SLT KECCAK256 PUSH24 0x9889B56F77C248935527ED907125C8AC3024EE0F9CD60CD9 SHL DUP8 PREVRANDAO JUMPI JUMPI PC PUSH8 0x64736F6C63430008 BYTE STOP CALLER "
				},
				"gasEstimates": {
					"creation": {
						"codeDepositCost": "1155800",
						"executionCost": "infinite",
						"totalCost": "infinite"
					},
					"external": {
						"CreateProject(string,uint256,uint256,string,int256,string)": "infinite",
						"GetProjectData(string)": "infinite",
						"Manager()": "2508",
						"ProjectDetails(string)": "infinite",
						"UpdatedProject(string,uint256,uint256,string,int256,string,string)": "infinite"
					},
					"internal": {
						"uintToStringWithZeroPadding(uint256,uint256)": "infinite"
					}
				},
				"methodIdentifiers": {
					"CreateProject(string,uint256,uint256,string,int256,string)": "dd29bb1b",
					"GetProjectData(string)": "29014dca",
					"Manager()": "78357e53",
					"ProjectDetails(string)": "e82c4d90",
					"UpdatedProject(string,uint256,uint256,string,int256,string,string)": "ae04477e"
				}
			},
			"storageLayout": {
				"storage": [
					{
						"astId": 19,
						"contract": "contracts/ProjectManager.sol:ProjectManager",
						"label": "ProjectDetails",
						"offset": 0,
						"slot": "0",
						"type": "t_mapping(t_string_memory_ptr,t_struct(ProjectInformation)14_storage)"
					},
					{
						"astId": 22,
						"contract": "contracts/ProjectManager.sol:ProjectManager",
						"label": "ProjectCount",
						"offset": 0,
						"slot": "1",
						"type": "t_uint256"
					},
					{
						"astId": 24,
						"contract": "contracts/ProjectManager.sol:ProjectManager",
						"label": "Manager",
						"offset": 0,
						"slot": "2",
						"type": "t_address"
					}
				],
				"types": {
					"t_address": {
						"encoding": "inplace",
						"label": "address",
						"numberOfBytes": "20"
					},
					"t_bytes_storage": {
						"encoding": "bytes",
						"label": "bytes",
						"numberOfBytes": "32"
					},
					"t_int256": {
						"encoding": "inplace",
						"label": "int256",
						"numberOfBytes": "32"
					},
					"t_mapping(t_string_memory_ptr,t_struct(ProjectInformation)14_storage)": {
						"encoding": "mapping",
						"key": "t_string_memory_ptr",
						"label": "mapping(string => struct ProjectManager.ProjectInformation)",
						"numberOfBytes": "32",
						"value": "t_struct(ProjectInformation)14_storage"
					},
					"t_string_memory_ptr": {
						"encoding": "bytes",
						"label": "string",
						"numberOfBytes": "32"
					},
					"t_struct(ProjectInformation)14_storage": {
						"encoding": "inplace",
						"label": "struct ProjectManager.ProjectInformation",
						"members": [
							{
								"astId": 3,
								"contract": "contracts/ProjectManager.sol:ProjectManager",
								"label": "ProjectName",
								"offset": 0,
								"slot": "0",
								"type": "t_bytes_storage"
							},
							{
								"astId": 5,
								"contract": "contracts/ProjectManager.sol:ProjectManager",
								"label": "Budget",
								"offset": 0,
								"slot": "1",
								"type": "t_uint256"
							},
							{
								"astId": 7,
								"contract": "contracts/ProjectManager.sol:ProjectManager",
								"label": "ResourceCount",
								"offset": 0,
								"slot": "2",
								"type": "t_uint256"
							},
							{
								"astId": 9,
								"contract": "contracts/ProjectManager.sol:ProjectManager",
								"label": "ResourceDetails",
								"offset": 0,
								"slot": "3",
								"type": "t_bytes_storage"
							},
							{
								"astId": 11,
								"contract": "contracts/ProjectManager.sol:ProjectManager",
								"label": "Status",
								"offset": 0,
								"slot": "4",
								"type": "t_int256"
							},
							{
								"astId": 13,
								"contract": "contracts/ProjectManager.sol:ProjectManager",
								"label": "Remarks",
								"offset": 0,
								"slot": "5",
								"type": "t_bytes_storage"
							}
						],
						"numberOfBytes": "192"
					},
					"t_uint256": {
						"encoding": "inplace",
						"label": "uint256",
						"numberOfBytes": "32"
					}
				}
			},
			"userdoc": {
				"kind": "user",
				"methods": {},
				"version": 1
			}
		}
	}
}